{
  "_format": "hh-sol-artifact-1",
  "contractName": "RMRKEquippableFactory",
  "sourceName": "contracts/factory/RMRKEquippableFactory.sol",
  "abi": [
    {
      "anonymous": false,
      "inputs": [
        {
          "indexed": true,
          "internalType": "address",
          "name": "equippableContract",
          "type": "address"
        },
        {
          "indexed": true,
          "internalType": "address",
          "name": "deployer",
          "type": "address"
        }
      ],
      "name": "NewRMRKEquippableContract",
      "type": "event"
    },
    {
      "inputs": [
        {
          "internalType": "string",
          "name": "name",
          "type": "string"
        },
        {
          "internalType": "string",
          "name": "symbol",
          "type": "string"
        },
        {
          "internalType": "uint256",
          "name": "maxSupply",
          "type": "uint256"
        },
        {
          "internalType": "uint256",
          "name": "pricePerMint",
          "type": "uint256"
        }
      ],
      "name": "deployRMRKEquippable",
      "outputs": [],
      "stateMutability": "nonpayable",
      "type": "function"
    },
    {
      "inputs": [
        {
          "internalType": "uint256",
          "name": "",
          "type": "uint256"
        }
      ],
      "name": "equippableCollections",
      "outputs": [
        {
          "internalType": "address",
          "name": "",
          "type": "address"
        }
      ],
      "stateMutability": "view",
      "type": "function"
    },
    {
      "inputs": [],
      "name": "getCollections",
      "outputs": [
        {
          "internalType": "address[]",
          "name": "",
          "type": "address[]"
        }
      ],
      "stateMutability": "view",
      "type": "function"
    }
  ],
  "bytecode": "0x608060405234801561001057600080fd5b50615ccf806100206000396000f3fe608060405234801561001057600080fd5b50600436106100415760003560e01c806346e6358614610046578063717f52cd14610064578063724dd0e01461008f575b600080fd5b61004e6100a4565b60405161005b9190610254565b60405180910390f35b6100776100723660046102a1565b610106565b6040516001600160a01b03909116815260200161005b565b6100a261009d36600461035d565b610130565b005b606060008054806020026020016040519081016040528092919081815260200182805480156100fc57602002820191906000526020600020905b81546001600160a01b031681526001909101906020018083116100de575b5050505050905090565b6000818154811061011657600080fd5b6000918252602090912001546001600160a01b0316905081565b60008484848460405161014290610246565b61014f9493929190610417565b604051809103906000f08015801561016b573d6000803e3d6000fd5b50600080546001810182559080527f290decd9548b62a8d60345a988386fc84ba6bc95484008f6362f93160ef3e5630180546001600160a01b0319166001600160a01b03831690811790915560405163f2fde38b60e01b81523360048201529192509063f2fde38b90602401600060405180830381600087803b1580156101f157600080fd5b505af1158015610205573d6000803e3d6000fd5b50506040513392506001600160a01b03841691507faa13d055f43214288ff2c8b817fc682df063b5ba63006679e77d7cfb126eb81890600090a35050505050565b615849806200045183390190565b6020808252825182820181905260009190848201906040850190845b818110156102955783516001600160a01b031683529284019291840191600101610270565b50909695505050505050565b6000602082840312156102b357600080fd5b5035919050565b634e487b7160e01b600052604160045260246000fd5b600082601f8301126102e157600080fd5b813567ffffffffffffffff808211156102fc576102fc6102ba565b604051601f8301601f19908116603f01168101908282118183101715610324576103246102ba565b8160405283815286602085880101111561033d57600080fd5b836020870160208301376000602085830101528094505050505092915050565b6000806000806080858703121561037357600080fd5b843567ffffffffffffffff8082111561038b57600080fd5b610397888389016102d0565b955060208701359150808211156103ad57600080fd5b506103ba878288016102d0565b949794965050505060408301359260600135919050565b6000815180845260005b818110156103f7576020818501810151868301820152016103db565b506000602082860101526020601f19601f83011685010191505092915050565b60808152600061042a60808301876103d1565b828103602084015261043c81876103d1565b60408401959095525050606001529291505056fe60c06040523480156200001157600080fd5b506040516200584938038062005849833981016040819052620000349162000198565b83838181858562000045336200007a565b60809190915260a05260026200005c8382620002a1565b5060036200006b8282620002a1565b5050505050505050506200036d565b600080546001600160a01b03838116610100818102610100600160a81b0319851617855560405193049190911692909183917f8be0079c531659141344cd1fd0a4f28419497f9722a3daafe3b4186f6b6457e091a35050565b634e487b7160e01b600052604160045260246000fd5b600082601f830112620000fb57600080fd5b81516001600160401b0380821115620001185762000118620000d3565b604051601f8301601f19908116603f01168101908282118183101715620001435762000143620000d3565b816040528381526020925086838588010111156200016057600080fd5b600091505b8382101562000184578582018301518183018401529082019062000165565b600093810190920192909252949350505050565b60008060008060808587031215620001af57600080fd5b84516001600160401b0380821115620001c757600080fd5b620001d588838901620000e9565b95506020870151915080821115620001ec57600080fd5b50620001fb87828801620000e9565b604087015160609097015195989097509350505050565b600181811c908216806200022757607f821691505b6020821081036200024857634e487b7160e01b600052602260045260246000fd5b50919050565b601f8211156200029c57600081815260208120601f850160051c81016020861015620002775750805b601f850160051c820191505b81811015620002985782815560010162000283565b5050505b505050565b81516001600160401b03811115620002bd57620002bd620000d3565b620002d581620002ce845462000212565b846200024e565b602080601f8311600181146200030d5760008415620002f45750858301515b600019600386901b1c1916600185901b17855562000298565b600085815260208120601f198616915b828110156200033e578886015182559484019460019091019084016200031d565b50858210156200035d5787850151600019600388901b60f8161c191681555b5050505050600190811b01905550565b60805160a05161549a620003af60003960008181610b980152612b0b015260008181610beb015281816110ee015281816118470152612ab8015261549a6000f3fe6080604052600436106103e45760003560e01c80637881613411610208578063c48a424311610118578063e8897570116100ab578063ee1dffcf1161007a578063ee1dffcf14610d45578063f2fde38b14610d94578063f4c7593314610db4578063f64669c314610dd4578063fe679c6214610df457600080fd5b8063e889757014610c9c578063e985e9c514610cbc578063ed45ca9e14610cdc578063ed5fd0f514610cfc57600080fd5b8063daf30477116100e7578063daf3047714610c0f578063dd6433d414610c2f578063e2e286af14610c4f578063e5f2e9e414610c7c57600080fd5b8063c48a424314610b69578063c5610a2914610b89578063c87b56dd14610bbc578063d5abeb0114610bdc57600080fd5b80639c0a92931161019b578063afc523f61161016a578063afc523f614610aad578063b3556b8e14610af4578063b88d4fde14610b14578063baace33e14610b34578063c259a98814610b4957600080fd5b80639c0a929314610a2d578063a0eaec4314610a4d578063a22cb46514610a6d578063a898e36414610a8d57600080fd5b80638468ee90116101d75780638468ee90146109a8578063891141d6146109d55780638da5cb5b146109f557806395d89b4114610a1857600080fd5b8063788161341461093b5780637aba6f371461095b5780637b2e40fa146109705780637e5852d91461099057600080fd5b806338dcf74c1161030357806344ec9344116102965780636f19951c116102655780636f19951c146107d257806370a08231146107f2578063715018a614610812578063739817dd146108275780637507e2ae1461084757600080fd5b806344ec9344146107385780634eb1abf7146107655780636352211e14610792578063666d36d3146107b257600080fd5b806340c10f19116102d257806340c10f19146106a657806342842e0e146106b957806342966c68146106d95780634441b484146106f957600080fd5b806338dcf74c1461062657806339b26bcf146106465780633bfbd86b146106665780633d984c8c1461068657600080fd5b806323b872dd1161037b5780632fb59acf1161034a5780632fb59acf146105a657806332e73911146105c657806333ed2845146105e657806335440faf1461060657600080fd5b806323b872dd1461051957806324c6f83f146105395780632f28ec4a146105595780632f32f9371461057957600080fd5b8063096835be116103b7578063096835be1461049a578063135627cd146104ba57806318160ddd146104e757806318881cd41461050657600080fd5b806301ffc9a7146103e957806306fdde031461041e578063081812fc14610440578063095ea7b314610478575b600080fd5b3480156103f557600080fd5b5061040961040436600461487d565b610e50565b60405190151581526020015b60405180910390f35b34801561042a57600080fd5b50610433610e97565b60405161041591906148ea565b34801561044c57600080fd5b5061046061045b3660046148fd565b610f29565b6040516001600160a01b039091168152602001610415565b34801561048457600080fd5b5061049861049336600461492b565b610f50565b005b3480156104a657600080fd5b506104986104b536600461499b565b610fdc565b3480156104c657600080fd5b506104da6104d53660046148fd565b611062565b60405161041591906149e6565b3480156104f357600080fd5b506001545b604051908152602001610415565b610498610514366004614a2e565b6110ec565b34801561052557600080fd5b50610498610534366004614a63565b611164565b34801561054557600080fd5b506104986105543660046148fd565b61117f565b34801561056557600080fd5b50610498610574366004614aa4565b611210565b34801561058557600080fd5b50610599610594366004614add565b611384565b6040516104159190614aff565b3480156105b257600080fd5b506104986105c1366004614b1f565b611422565b3480156105d257600080fd5b506104096105e1366004614b62565b61155b565b3480156105f257600080fd5b5061049861060136600461492b565b61165f565b34801561061257600080fd5b50610498610621366004614add565b611675565b34801561063257600080fd5b50610498610641366004614bc7565b611794565b34801561065257600080fd5b50610498610661366004614c48565b6117a8565b34801561067257600080fd5b50610498610681366004614ce4565b6117c4565b34801561069257600080fd5b506104986106a1366004614aa4565b6117cf565b6104986106b436600461492b565b611845565b3480156106c557600080fd5b506104986106d4366004614a63565b6118b4565b3480156106e557600080fd5b506104986106f43660046148fd565b6118cf565b34801561070557600080fd5b50610460610714366004614d29565b6001600160401b03166000908152601560205260409020546001600160a01b031690565b34801561074457600080fd5b506107586107533660046148fd565b6118e2565b6040516104159190614d44565b34801561077157600080fd5b50610785610780366004614d29565b611961565b6040516104159190614da4565b34801561079e57600080fd5b506104606107ad3660046148fd565b6119ee565b3480156107be57600080fd5b506104986107cd366004614add565b611a7e565b3480156107de57600080fd5b506107586107ed3660046148fd565b611b7c565b3480156107fe57600080fd5b506104f861080d366004614df2565b611bec565b34801561081e57600080fd5b50610498611c31565b34801561083357600080fd5b50610498610842366004614add565b611c45565b34801561085357600080fd5b506108f1610862366004614e0f565b6040805160808082018352600080835260208084018290528385018290526060938401829052968152601987528381206001600160a01b03968716825287528381206001600160401b03958616825287528390208351918201845280548086168352600160401b9004909416958101959095526001830154918501919091526002909101549091169082015290565b604051610415919081516001600160401b03908116825260208084015190911690820152604080830151908201526060918201516001600160a01b03169181019190915260800190565b34801561094757600080fd5b5061049861095636600461492b565b611e47565b34801561096757600080fd5b50610498611ece565b34801561097c57600080fd5b5061049861098b3660046148fd565b611ee5565b34801561099c57600080fd5b5060005460ff16610409565b3480156109b457600080fd5b506109c86109c3366004614d29565b611fc5565b6040516104159190614e36565b3480156109e157600080fd5b506104606109f03660046148fd565b612061565b348015610a0157600080fd5b5060005461010090046001600160a01b0316610460565b348015610a2457600080fd5b50610433612088565b348015610a3957600080fd5b50610498610a48366004614bc7565b612097565b348015610a5957600080fd5b506109c8610a683660046148fd565b6120b9565b348015610a7957600080fd5b50610498610a88366004614e85565b612122565b348015610a9957600080fd5b50610599610aa8366004614add565b6121b7565b348015610ab957600080fd5b50610acd610ac83660046148fd565b612219565b604080516001600160a01b0390941684526020840192909252151590820152606001610415565b348015610b0057600080fd5b50610498610b0f3660046148fd565b61229a565b348015610b2057600080fd5b50610498610b2f366004614f33565b6122ea565b348015610b4057600080fd5b506109c8612300565b348015610b5557600080fd5b50610498610b64366004614fb2565b612389565b348015610b7557600080fd5b50610498610b84366004614fb2565b61239e565b348015610b9557600080fd5b507f00000000000000000000000000000000000000000000000000000000000000006104f8565b348015610bc857600080fd5b50610433610bd73660046148fd565b6123b3565b348015610be857600080fd5b507f00000000000000000000000000000000000000000000000000000000000000006104f8565b348015610c1b57600080fd5b50610433610c2a366004614add565b6123c0565b348015610c3b57600080fd5b50610498610c4a366004614add565b6123d3565b348015610c5b57600080fd5b50610c6f610c6a366004614d29565b6124e9565b6040516104159190614fd7565b348015610c8857600080fd5b50610498610c97366004615005565b6125e3565b348015610ca857600080fd5b50610498610cb7366004614e85565b6125f9565b348015610cc857600080fd5b50610409610cd736600461504b565b612691565b348015610ce857600080fd5b50610498610cf7366004614add565b6126bf565b348015610d0857600080fd5b50610409610d1736600461504b565b6001600160a01b03918216600090815260146020908152604080832093909416825291909152205460ff1690565b348015610d5157600080fd5b50610409610d60366004614b1f565b6000928352601a602090815260408085206001600160a01b039490941685529281528284209184525290205460ff16151590565b348015610da057600080fd5b50610498610daf366004614df2565b61283e565b348015610dc057600080fd5b506109c8610dcf366004614d29565b612880565b348015610de057600080fd5b506109c8610def3660046148fd565b6128f3565b348015610e0057600080fd5b50610e38610e0f366004615079565b6000918252600d602090815260408084206001600160401b039384168552909152909120541690565b6040516001600160401b039091168152602001610415565b6000610e5b8261295c565b80610e7657506001600160e01b03198216630354d94960e01b145b80610e9157506001600160e01b0319821663069d146560e51b145b92915050565b606060028054610ea6906150a5565b80601f0160208091040260200160405190810160405280929190818152602001828054610ed2906150a5565b8015610f1f5780601f10610ef457610100808354040283529160200191610f1f565b820191906000526020600020905b815481529060010190602001808311610f0257829003601f168201915b5050505050905090565b6000610f34826129c8565b506000908152600660205260409020546001600160a01b031690565b6000610f5b826119ee565b9050806001600160a01b0316836001600160a01b031603610f8f57604051630591db6d60e01b815260040160405180910390fd5b336001600160a01b03821614801590610faf5750610fad8133612691565b155b15610fcd57604051634c12315960e11b815260040160405180910390fd5b610fd78383612a00565b505050565b82610fe681612a6e565b6000848152600e60205260409020548290811461101657604051633581be1d60e11b815260040160405180910390fd5b6000858152600f6020526040902061102f908585614689565b5060405185907f50a12ecfcaf26b91454fd23edbcf04185b68d6e8c7edc4e35d14392889cdf79590600090a25050505050565b6000818152600f60209081526040918290208054835181840281018401909452808452606093928301828280156110e057602002820191906000526020600020906000905b82829054906101000a900461ffff1661ffff16815260200190600201906020826001010492830192600103820291508084116110a75790505b50505050509050919050565b7f00000000000000000000000000000000000000000000000000000000000000006001541061112e57604051635e91cdfb60e11b815260040160405180910390fd5b60008061113a84612a95565b9092509050815b8181101561115c57611154868286612b88565b600101611141565b505050505050565b8061116e81612c54565b611179848484612c7b565b50505050565b600061118a82612219565b505090506111953390565b6001600160a01b0316816001600160a01b0316146111c6576040516304a959d760e51b815260040160405180910390fd5b60006111d1836119ee565b90506111dd8382612d7b565b6001600160a01b03821660009081526005602052604081208054600192906112069084906150f5565b9091555050505050565b8261121a81612eef565b6000848152600a602052604090205483106112485760405163da22687f60e01b815260040160405180910390fd5b6000848152600a6020526040812080548590811061126857611268615108565b60009182526020808320604080518082018252600290940290910180548452600101546001600160a01b031683830152888452600a9091529091209091506112b09085612f16565b6001600160a01b038316156113305760208101518151604051632142170760e11b81523060048201526001600160a01b03868116602483015260448201929092529116906342842e0e90606401600060405180830381600087803b15801561131757600080fd5b505af115801561132b573d6000803e3d6000fd5b505050505b806000015181602001516001600160a01b0316867f2dc2e10b799c93e8ca2caf88957bf13c045dc66cd49b36c585c0c77bdcc8e27a8760405161137591815260200190565b60405180910390a45050505050565b604080518082019091526000808252602082015260008381526009602052604090205482106113c65760405163653e642560e11b815260040160405180910390fd5b60008381526009602052604081208054849081106113e6576113e6615108565b60009182526020918290206040805180820190915260029092020180548252600101546001600160a01b03169181019190915291505092915050565b8261142c81612eef565b6000806000856001600160a01b031663afc523f6866040518263ffffffff1660e01b815260040161145f91815260200190565b606060405180830381865afa15801561147c573d6000803e3d6000fd5b505050506040513d601f19601f820116820180604052508101906114a0919061511e565b919450925090506001600160a01b038316301415806114bf5750868214155b806114c8575080155b156114e657604051633ece094960e01b815260040160405180910390fd5b60408051632142170760e11b81523060048201523360248201526044810187905290516001600160a01b038816916342842e0e91606480830192600092919082900301818387803b15801561153a57600080fd5b505af115801561154e573d6000803e3d6000fd5b5050505050505050505050565b6001600160401b038083166000908152601660209081526040808320548416808452601b83528184206001600160a01b038a1685529092528220549192909181169084168103611650576000868152600e602090815260408083208054825181850281018501909352808352611644938a9392919083018282801561163157602002820191906000526020600020906000905b82829054906101000a90046001600160401b03166001600160401b0316815260200190600801906020826007010492830192600103820291508084116115ee5790505b5050505050612fd090919063ffffffff16565b94506116579350505050565b6000925050505b949350505050565b611667613039565b611671828261306a565b5050565b61167e826129c8565b333b61169d5760405163b9d3114760e01b815260040160405180910390fd5b600060405180604001604052808381526020016116b73390565b6001600160a01b031690526000848152600a60205260409020549091506080811015611730576000848152600a60209081526040822080546001808201835591845292829020855160029094020192835590840151910180546001600160a01b0319166001600160a01b03909216919091179055611749565b60405163a53c8c0560e01b815260040160405180910390fd5b82336001600160a01b0316857fdfb23fa68267b8a66ca315a36a29889d77a420b34073629782071a4cdd02ba978460405161178691815260200190565b60405180910390a450505050565b805161179f81612eef565b61167182613104565b6117bd6117b486615156565b858585856134a7565b5050505050565b610fd78383836136af565b826117d981612eef565b60006117e58585611384565b60208082015182516000898152601a845260408082206001600160a01b039094168252928452828120918152925290205490915060ff161561183a57604051630619dc9d60e21b815260040160405180910390fd5b6117bd858585613720565b7f00000000000000000000000000000000000000000000000000000000000000006001541061188757604051635e91cdfb60e11b815260040160405180910390fd5b60008061189383612a95565b9092509050815b818110156117bd576118ac858261389c565b60010161189a565b610fd7838383604051806020016040528060008152506122ea565b806118d981612c54565b611671826138b6565b6000818152600a60209081526040808320805482518185028101850190935280835260609493849084015b828210156119555760008481526020908190206040805180820190915260028502909101805482526001908101546001600160a01b031682840152908352909201910161190d565b50929695505050505050565b604080516080810182526000808252602082018190529181018290526060808201529061198d836124e9565b6040805160808101825282516001600160401b03908116825283518116600090815260166020908152848220548316818501528551909216815260158252839020546001600160a01b03169282019290925291015160608201529392505050565b6000806000806119fd85612219565b9250925092508015611a75576040516331a9108f60e11b8152600481018390526001600160a01b03841690636352211e90602401602060405180830381865afa158015611a4e573d6000803e3d6000fd5b505050506040513d601f19601f82011682018060405250810190611a729190615202565b92505b50909392505050565b81611a8881612c54565b6000838152600960205260409020548210611ab65760405163653e642560e11b815260040160405180910390fd5b6000838152600960205260408120805484908110611ad657611ad6615108565b6000918252602091829020604080518082018252600290930290910180548084526001909101546001600160a01b031693830184905290516324c6f83f60e01b81529193506324c6f83f91611b32919060040190815260200190565b600060405180830381600087803b158015611b4c57600080fd5b505af1158015611b60573d6000803e3d6000fd5b5050506000858152600960205260409020611179915084612f16565b60008181526009602090815260408083208054825181850281018501909352808352606094938490840182156119555760008481526020908190206040805180820190915260028502909101805482526001908101546001600160a01b031682840152908352909201910161190d565b60006001600160a01b038216611c1557604051633bb9143360e11b815260040160405180910390fd5b506001600160a01b031660009081526005602052604090205490565b611c39613039565b611c43600061390e565b565b81611c4f81612a6e565b6000838152601160205260409020548210611c7d57604051630757d52160e01b815260040160405180910390fd5b6000838152601160205260408120805484908110611c9d57611c9d615108565b600091825260208083206004830401548784526011909152604090922060039091166008026101000a9091046001600160401b03169150611cde9084613967565b6000848152600d602090815260408083206001600160401b038086168552925290912054168015611d94576000858152600e60205260409020611d219082613a4d565b816001600160401b0316816001600160401b0316867fcf24819d4d174cc8c6cda1f2f6bdbdcb891ef4a46c61e0bab8dc06c070de5c9e60405160405180910390a46000858152600d602090815260408083206001600160401b03861684529091529020805467ffffffffffffffff191690555b6000858152600e6020908152604080832080546001808201835591855283852060048204018054600390921660080261010090810a6001600160401b0381810219909416938a16908102939093179091558a8652600f8086528487208054948501815587529486206010840401805493909516600202900a61ffff021990911690925551909187917f51e9958189f528b912f96508d6a4b68583858166eda14d580dfbd24e9a79dfdb9190a35050505050565b6000611e52826119ee565b9050806001600160a01b0316836001600160a01b031603611e8657604051639efa161160e01b815260040160405180910390fd5b336001600160a01b03821614801590611ea65750611ea48133610d17565b155b15611ec457604051635d84267760e11b815260040160405180910390fd5b610fd78383613b2b565b611ed6613039565b6000805460ff19166001179055565b80611eef81612a6e565b600082815260116020526040812054905b81811015611f7b576000848152601160205260408120805483908110611f2857611f28615108565b60009182526020808320600483040154888452600d8252604080852060039094166008026101000a9091046001600160401b031684529190529020805467ffffffffffffffff1916905550600101611f00565b506000838152601160205260408120611f9391614736565b60405160009084907f8d0cdca57de6b2fb4babd8b68c83db0b0981610d338eb68eea1f4b1e1d78dc1c908390a3505050565b6001600160401b0381166000908152601860209081526040918290208054835181840281018401909452808452606093928301828280156110e057602002820191906000526020600020906000905b82829054906101000a90046001600160401b03166001600160401b031681526020019060080190602082600701049283019260010382029150808411612014575094979650505050505050565b600061206c826129c8565b506000908152601360205260409020546001600160a01b031690565b606060038054610ea6906150a5565b80516120a281612eef565b61179f826000015183604001518460600151613b99565b6000818152600e60209081526040918290208054835181840281018401909452808452606093928301828280156110e057600091825260209182902080546001600160401b03168452908202830192909160089101808411612014575094979650505050505050565b6001600160a01b038216330361214b57604051630b7b99b960e21b815260040160405180910390fd5b3360008181526007602090815260408083206001600160a01b03871680855290835292819020805460ff191686151590811790915590519081529192917f17307eab39ab6107e8899845ad3d59bd9653f200f220920489ca2b5937696c31910160405180910390a35050565b60408051808201909152600080825260208201526000838152600a602052604090205482106121f95760405163da22687f60e01b815260040160405180910390fd5b6000838152600a602052604081208054849081106113e6576113e6615108565b60008181526008602090815260408083208151606081018352815481526001909101546001600160a01b038116938201849052600160a01b900460ff1615159181019190915282918291906122815760405163089ba7e160e41b815260040160405180910390fd5b6020810151815160409092015190969195509350915050565b806122a481612eef565b6000828152600a602052604081206122bb9161475b565b60405182907f8ac4a0d65950c3e40448afb2260e2e0ec36ea15644d9b39e37e85472e5f9445190600090a25050565b816122f481612c54565b6117bd85858585613d5f565b60606012805480602002602001604051908101604052809291908181526020018280548015610f1f57602002820191906000526020600020906000905b82829054906101000a90046001600160401b03166001600160401b03168152602001906008019060208260070104928301926001038202915080841161233d5790505050505050905090565b8261239381612eef565b611179848484613b99565b6123a7836119ee565b50610fd7838383613d93565b6060610e91826000613f61565b60606123cc8383613f61565b9392505050565b816123dd81612a6e565b600083815260116020526040902054821061240b57604051630757d52160e01b815260040160405180910390fd5b600083815260116020526040812080548490811061242b5761242b615108565b600091825260208083206004830401548784526011909152604090922060039091166008026101000a9091046001600160401b0316915061246c9084613967565b60008481526010602090815260408083206001600160401b038516808552908352818420805460ff19169055878452600d8352818420818552909252808320805467ffffffffffffffff1916905551909186917f8d0cdca57de6b2fb4babd8b68c83db0b0981610d338eb68eea1f4b1e1d78dc1c9190a350505050565b6040805180820190915260008152606060208201526001600160401b0382166000908152600c602052604081208054612521906150a5565b80601f016020809104026020016040519081016040528092919081815260200182805461254d906150a5565b801561259a5780601f1061256f5761010080835404028352916020019161259a565b820191906000526020600020905b81548152906001019060200180831161257d57829003601f168201915b5050505050905080516000036125c3576040516348e2e83760e01b815260040160405180910390fd5b604080518082019091526001600160401b03909316835260208301525090565b816125ed81612c54565b6117bd85858585614032565b336001600160a01b03831681036126235760405163353c229360e11b815260040160405180910390fd5b6001600160a01b03818116600081815260146020908152604080832094881680845294825291829020805460ff191687151590811790915591519182527f9c03d4f9a8db6d81765cbe2097e83f44253564fbf3c1adfb09a8067464ad3f4b91015b60405180910390a3505050565b6001600160a01b03918216600090815260076020908152604080832093909416825291909152205460ff1690565b816126c981612eef565b6000838152600a602052604090205482106126f75760405163da22687f60e01b815260040160405180910390fd5b6000838152600a6020526040812080548490811061271757612717615108565b60009182526020808320604080518082018252600290940290910180548452600101546001600160a01b03168383018190528452600b825280842083518552909152909120549091501561277e5760405163188a497360e01b815260040160405180910390fd5b6000848152600a602052604090206127969084612f16565b6000848152600960209081526040808320805460018082018355828652848620875160029093020191825586850180519290910180546001600160a01b0319166001600160a01b039384161790558986529154825182168652600b855283862087518752855294839020949094558451905191518781529093919091169187917f368600bdce8b2f9bdb235c221e348573e2f531747cb749ecf6cf43fa0e9d8fe89101611786565b612846613039565b60005461010090046001600160a01b031661287457604051634ece6ecf60e01b815260040160405180910390fd5b61287d8161390e565b50565b6001600160401b0381166000908152601760209081526040918290208054835181840281018401909452808452606093928301828280156110e057600091825260209182902080546001600160401b03168452908202830192909160089101808411612014575094979650505050505050565b6000818152601160209081526040918290208054835181840281018401909452808452606093928301828280156110e057600091825260209182902080546001600160401b03168452908202830192909160089101808411612014575094979650505050505050565b60006001600160e01b031982166301ffc9a760e01b148061298d57506001600160e01b031982166380ac58cd60e01b145b806129a857506001600160e01b03198216635b5e139f60e01b145b80610e9157506001600160e01b031982166391c0ad5d60e01b1492915050565b6000818152600860205260409020600101546001600160a01b031661287d5760405163089ba7e160e41b815260040160405180910390fd5b600081815260066020526040902080546001600160a01b0319166001600160a01b0384169081179091558190612a35826119ee565b6001600160a01b03167f8c5be1e5ebec7d5bd14f71427d1e84f3dd0314c0f7b2291e5b200ac8c7c3b92560405160405180910390a45050565b612a7833826141c5565b61287d5760405163eabb6dd760e01b815260040160405180910390fd5b60008082612ab65760405163376bec4d60e01b815260040160405180910390fd5b7f000000000000000000000000000000000000000000000000000000000000000060015484612ae5919061521f565b1115612b0457604051635e91cdfb60e11b815260040160405180910390fd5b6000612b307f000000000000000000000000000000000000000000000000000000000000000085615232565b9050348114612b525760405163f2ffecad60e01b815260040160405180910390fd5b60006001546001612b63919061521f565b600180548701808255919250600091612b7b9161521f565b9196919550909350505050565b6001600160a01b0383163b612bb05760405163b9d3114760e01b815260040160405180910390fd5b6040516301ffc9a760e01b81526391c0ad5d60e01b60048201526001600160a01b038416906301ffc9a790602401602060405180830381865afa158015612bfb573d6000803e3d6000fd5b505050506040513d601f19601f82011682018060405250810190612c1f9190615251565b612c3c57604051631cc5525760e31b815260040160405180910390fd5b612c47838383614243565b610fd78282600086614337565b612c5e33826143ce565b61287d576040516345f3c98360e11b815260040160405180910390fd5b6000612c8682612219565b50509050836001600160a01b0316816001600160a01b031614612cbc5760405163e146af6f60e01b815260040160405180910390fd5b6001600160a01b038316612ce3576040516338f646ff60e21b815260040160405180910390fd5b6001600160a01b0384166000908152600560205260408120805460019290612d0c9084906150f5565b90915550612d1f90508260008581614451565b6001600160a01b0383166000908152600560205260408120805460019290612d4890849061521f565b909155505060405182906001600160a01b03808616919087169060008051602061544583398151915290600090a4611179565b612d86600083612a00565b612d916000836144ca565b6000612d9c83611b7c565b805190915060005b81811015612e5d576000838281518110612dc057612dc0615108565b60200260200101516020015190506000848381518110612de257612de2615108565b6020026020010151600001519050816001600160a01b03166324c6f83f826040518263ffffffff1660e01b8152600401612e1e91815260200190565b600060405180830381600087803b158015612e3857600080fd5b505af1158015612e4c573d6000803e3d6000fd5b505050508260010192505050612da4565b50600084815260086020908152604080832083815560010180546001600160a81b0319169055600a9091528120612e939161475b565b6000848152600960205260408120612eaa9161475b565b60008481526006602052604080822080546001600160a01b0319169055518591906001600160a01b03861690600080516020615445833981519152908390a450505050565b612ef933826144d4565b61287d576040516302728a9d60e41b815260040160405180910390fd5b81548290612f26906001906150f5565b81548110612f3657612f36615108565b9060005260206000209060020201828281548110612f5657612f56615108565b600091825260209091208254600290920201908155600191820154910180546001600160a01b0319166001600160a01b039092169190911790558154829080612fa157612fa161526e565b60008281526020812060026000199093019283020190815560010180546001600160a01b031916905590555050565b81516000908190815b8181101561302857846001600160401b0316868281518110612ffd57612ffd615108565b60200260200101516001600160401b031603613020579250600191506130329050565b600101612fd9565b5060008092509250505b9250929050565b6000546001600160a01b03610100909104163314611c4357604051631c62d58f60e11b815260040160405180910390fd5b6000826001600160a01b03168260405160006040518083038185875af1925050503d80600081146130b7576040519150601f19603f3d011682016040523d82523d6000602084013e6130bc565b606091505b5050905080610fd75760405162461bcd60e51b815260206004820152601060248201526f2a3930b739b332b9103330b4b632b21760811b604482015260640160405180910390fd5b80516000908152601960209081526040808320818501516001600160401b03908116855260158452828520546001600160a01b039081168652918452828520606087015190911685529092529091206002015416156131765760405163bd0650ab60e01b815260040160405180910390fd5b600061318a82600001518360200151611384565b60208101518151608085015160608601516040516332e7391160e01b815230600482015260248101939093526001600160401b0391821660448401521660648201529192506001600160a01b0316906332e7391190608401602060405180830381865afa1580156131ff573d6000803e3d6000fd5b505050506040513d601f19601f820116820180604052508101906132239190615251565b6132405760405163f5bcf2b760e01b815260040160405180910390fd5b6040828101516001600160401b0390811660009081526015602090815290839020546060860151918501519351636e5bceab60e11b81529190921660048201526001600160a01b03928316602482015291169063dcb79d5690604401602060405180830381865afa1580156132b9573d6000803e3d6000fd5b505050506040513d601f19601f820116820180604052508101906132dd9190615251565b6132fa576040516334065c3d60e11b815260040160405180910390fd5b604080516080808201835284830180516001600160401b0390811684529186015182166020808501918252865185870190815287820180516001600160a01b039081166060808a019182528c516000908152601987528b812098518a168152601587528b812054841681529786528a8820908d01518916885285528987208951815497518a16600160401b026001600160801b031990981699169890981795909517875591516001878101919091559351600290960180549683166001600160a01b03199097169690961790955588518452601a82528684209451168352928352848220865183529092529283208054929391929091906133ff90849060ff16615284565b92506101000a81548160ff021916908360ff16021790555082606001516001600160401b031683604001516001600160401b031684600001517febf790a3f0264319c2d7784f6852f77d8a7b14b521ccca6d7671f48cadb08ff385600001518660200151886080015160405161349a939291909283526001600160a01b039190911660208301526001600160401b0316604082015260600190565b60405180910390a4505050565b84516001600160401b0381166134d05760405163280d806360e01b815260040160405180910390fd5b6001600160401b0381166000908152600c6020526040902080546134f3906150a5565b15905061351357604051633348dd1d60e01b815260040160405180910390fd5b60408601516001600160a01b031615801561353657508315158061353657508115155b156135545760405163eda9563f60e01b815260040160405180910390fd5b60608601516001600160401b0382166000908152600c602052604090209061357c90826152e3565b506012805460018101825560009182527fbb8a6a4669ba250d26cd7a459eca9d215f8307e33aebe50379bc5a3617ec34446004820401805460039092166008026101000a6001600160401b0381810219909316858416919091021790556040888101518951831684526015602090815282852080546001600160a01b0319166001600160a01b0390931692909217909155808a01518a518416855260168252828520805467ffffffffffffffff1916918516919091179055895190921683526017909152902061364d90868661477c565b5085516001600160401b0316600090815260186020526040902061367290848461477c565b506040516001600160401b038216907f8a5ccfca4023cda4a0a59a1bb73783f6b3ba77465537d0c8f2bef5eb2511552a90600090a2505050505050565b6001600160401b038381166000818152601b602090815260408083206001600160a01b03881680855290835292819020805467ffffffffffffffff19169587169586179055519182527fcbe745c7708774b6c663c52b9cfdd60bd587613a93ea98116d1c7f73a42069449101612684565b8261372a81612eef565b60008481526009602052604090205483106137585760405163653e642560e11b815260040160405180910390fd5b600084815260096020526040812080548590811061377857613778615108565b60009182526020808320604080518082018252600290940290910180548452600101546001600160a01b03168383018190528452600b825280842083518552825280842084905588845260099091529091209091506137d79085612f16565b6001600160a01b038316156138575760208101518151604051632142170760e11b81523060048201526001600160a01b03868116602483015260448201929092529116906342842e0e90606401600060405180830381600087803b15801561383e57600080fd5b505af1158015613852573d6000803e3d6000fd5b505050505b806000015181602001516001600160a01b0316867fa95de6cebca7c6826e1400a4638f4dba333521c957f066ba83082e1a8ca813128760405161137591815260200190565b611671828260405180602001604052806000815250614520565b60006138c1826119ee565b905060006138ce83612219565b50506001600160a01b038116600090815260056020526040812080549293506001929091906138fe9084906150f5565b90915550610fd790508383612d7b565b600080546001600160a01b03838116610100818102610100600160a81b0319851617855560405193049190911692909183917f8be0079c531659141344cd1fd0a4f28419497f9722a3daafe3b4186f6b6457e091a35050565b8154811061397457600080fd5b81548290613984906001906150f5565b8154811061399457613994615108565b90600052602060002090600491828204019190066008029054906101000a90046001600160401b03168282815481106139cf576139cf615108565b90600052602060002090600491828204019190066008026101000a8154816001600160401b0302191690836001600160401b0316021790555081805480613a1857613a1861526e565b60008281526020902060046000199092019182040180546001600160401b03600860038516026101000a021916905590555050565b600082805480602002602001604051908101604052809291908181526020018280548015613acc57602002820191906000526020600020906000905b82829054906101000a90046001600160401b03166001600160401b031681526020019060080190602082600701049283019260010382029150808411613a895790505b505083519394506000925050505b818110156117bd57836001600160401b0316838281518110613afe57613afe615108565b60200260200101516001600160401b031603613b2357613b1e8582613967565b6117bd565b600101613ada565b600081815260136020526040902080546001600160a01b0319166001600160a01b0384169081179091558190613b60826119ee565b6001600160a01b03167fa98c62723e75b26c5e5710fb12b5bf7712e6926f6dc932de622e715553f5149160405160405180910390a45050565b6001600160401b03808316600090815260156020908152604080832054878452601983528184206001600160a01b039182168086529084528285208787168652845293829020825160808101845281548088168252600160401b9004909616938601939093526001830154918501919091526002909101541660608301819052909190613c39576040516317de7dd760e21b815260040160405180910390fd5b60008581526019602090815260408083206001600160a01b0380871685529083528184206001600160401b0388168552835281842080546001600160801b03191681556001808201869055600290910180546001600160a01b0319169055898552601a8452828520606087015190921685529083528184208583015185529092528220805491929091613cd090849060ff166153a2565b92506101000a81548160ff021916908360ff160217905550826001600160401b0316846001600160401b0316867f4881b5349bc55ca28029c68735244952765abe7ae5033764bd209dc857fd9728846040015185606001518660200151604051611375939291909283526001600160a01b039190911660208301526001600160401b0316604082015260600190565b613d6a848484612c7b565b613d7684848484614554565b6111795760405163bcb5663760e01b815260040160405180910390fd5b60008381526010602090815260408083206001600160401b038616845290915290205460ff1615613dd757604051633348dd1d60e01b815260040160405180910390fd5b6001600160401b0382166000908152600c602052604090208054613dfa906150a5565b9050600003613e1c576040516348e2e83760e01b815260040160405180910390fd5b600083815260116020526040902054608011613e4b5760405163dfaea09b60e01b815260040160405180910390fd5b60008381526010602090815260408083206001600160401b038681168086529184528285208054600160ff19909116811790915588865260118552928520805493840181558552929093206004820401805460039092166008026101000a808402199092169190930217909155811615613f26576000838152600d602090815260408083206001600160401b0386811680865291909352818420805467ffffffffffffffff1916938616938417905590519192909186917fe76caab2912f68cd628bc085e006c86b8a478d13be698638b0c533030d120b4e91a45b6040516001600160401b0383169084907ffc4d0a03f3026d7ce3427493c9289ea9768a6edd425e854cea7600d244ecc2c390600090a3505050565b6060613f6c836129c8565b6000838152600e60205260409020548210613f9a57604051630757d52160e01b815260040160405180910390fd5b6000838152600e60205260408120805484908110613fba57613fba615108565b60009182526020822060048204015460039091166008026101000a90046001600160401b03169150613feb826124e9565b9050600061400460408051602081019091526000815290565b6020808401516040516140189392016153bb565b60408051808303601f190181529190529695505050505050565b600061403d83612219565b50509050846001600160a01b0316816001600160a01b0316146140735760405163e146af6f60e01b815260040160405180910390fd5b6001600160a01b03841661409a576040516338f646ff60e21b815260040160405180910390fd5b6001600160a01b0384163b6140c25760405163b9d3114760e01b815260040160405180910390fd5b6040516301ffc9a760e01b81526391c0ad5d60e01b60048201526001600160a01b038516906301ffc9a790602401602060405180830381865afa15801561410d573d6000803e3d6000fd5b505050506040513d601f19601f820116820180604052508101906141319190615251565b61414e57604051636464a3e360e11b815260040160405180910390fd5b6001600160a01b03851660009081526005602052604081208054600192906141779084906150f5565b9091555061418a90508383866001614451565b6001600160a01b03841660009081526005602052604081208054600192906141b390849061521f565b909155506117bd905083838787614337565b6000806141d1836119ee565b9050806001600160a01b0316846001600160a01b0316148061421857506001600160a01b0380821660009081526014602090815260408083209388168352929052205460ff165b806116575750836001600160a01b031661423184612061565b6001600160a01b031614949350505050565b6001600160a01b03831661426a576040516325bd6bd360e01b815260040160405180910390fd5b6000828152600860205260409020600101546001600160a01b0316156142a35760405163c5a8d37160e01b815260040160405180910390fd5b6001600160a01b03831660009081526005602052604081208054600192906142cc90849061521f565b9091555050604080516060810182528281526001600160a01b039485166020808301918252931515828401908152600095865260089094529190932092518355516001909201805491511515600160a01b026001600160a81b03199092169290931691909117179055565b6040516335440faf60e01b8152600481018490526024810185905281906001600160a01b038216906335440faf90604401600060405180830381600087803b15801561438257600080fd5b505af1158015614396573d6000803e3d6000fd5b5050505084826001600160a01b0316846001600160a01b031660008051602061544583398151915260405160405180910390a46117bd565b60008060006143dc84612219565b5091509150806000146143ff57506001600160a01b038481169116149050610e91565b816001600160a01b0316856001600160a01b0316148061442457506144248286612691565b806144485750846001600160a01b031661443d85610f29565b6001600160a01b0316145b95945050505050565b604080516060810182528481526001600160a01b03808516602080840191825285151584860190815260008a815260089092529481209351845590516001909301805494511515600160a01b026001600160a81b03199095169390921692909217929092179091556144c39085612a00565b6111796000855b6116718282613b2b565b6000806144e0836119ee565b9050806001600160a01b0316846001600160a01b0316148061450757506145078185612691565b806116575750836001600160a01b031661423184610f29565b61452a8383614653565b6145376000848484614554565b610fd75760405163bcb5663760e01b815260040160405180910390fd5b60006001600160a01b0384163b1561464b57604051630a85bd0160e11b81526001600160a01b0385169063150b7a02906145989033908990889088906004016153ea565b6020604051808303816000875af19250505080156145d3575060408051601f3d908101601f191682019092526145d091810190615427565b60015b614631573d808015614601576040519150601f19603f3d011682016040523d82523d6000602084013e614606565b606091505b5080516000036146295760405163bcb5663760e01b815260040160405180910390fd5b805181602001fd5b6001600160e01b031916630a85bd0160e11b149050611657565b506001611657565b61465f82826000614243565b60405181906001600160a01b03841690600090600080516020615445833981519152908290a45050565b82805482825590600052602060002090600f016010900481019282156147265791602002820160005b838211156146f657833561ffff1683826101000a81548161ffff021916908361ffff16021790555092602001926002016020816001010492830192600103026146b2565b80156147245782816101000a81549061ffff02191690556002016020816001010492830192600103026146f6565b505b5061473292915061482b565b5090565b50805460008255600301600490049060005260206000209081019061287d919061482b565b508054600082556002029060005260206000209081019061287d9190614840565b828054828255906000526020600020906003016004900481019282156147265791602002820160005b838211156147f85783356001600160401b031683826101000a8154816001600160401b0302191690836001600160401b0316021790555092602001926008016020816007010492830192600103026147a5565b80156147245782816101000a8154906001600160401b0302191690556008016020816007010492830192600103026147f8565b5b80821115614732576000815560010161482c565b5b8082111561473257600081556001810180546001600160a01b0319169055600201614841565b6001600160e01b03198116811461287d57600080fd5b60006020828403121561488f57600080fd5b81356123cc81614867565b60005b838110156148b557818101518382015260200161489d565b50506000910152565b600081518084526148d681602086016020860161489a565b601f01601f19169290920160200192915050565b6020815260006123cc60208301846148be565b60006020828403121561490f57600080fd5b5035919050565b6001600160a01b038116811461287d57600080fd5b6000806040838503121561493e57600080fd5b823561494981614916565b946020939093013593505050565b60008083601f84011261496957600080fd5b5081356001600160401b0381111561498057600080fd5b6020830191508360208260051b850101111561303257600080fd5b6000806000604084860312156149b057600080fd5b8335925060208401356001600160401b038111156149cd57600080fd5b6149d986828701614957565b9497909650939450505050565b6020808252825182820181905260009190848201906040850190845b81811015614a2257835161ffff1683529284019291840191600101614a02565b50909695505050505050565b600080600060608486031215614a4357600080fd5b8335614a4e81614916565b95602085013595506040909401359392505050565b600080600060608486031215614a7857600080fd5b8335614a8381614916565b92506020840135614a9381614916565b929592945050506040919091013590565b600080600060608486031215614ab957600080fd5b83359250602084013591506040840135614ad281614916565b809150509250925092565b60008060408385031215614af057600080fd5b50508035926020909101359150565b815181526020808301516001600160a01b03169082015260408101610e91565b600080600060608486031215614b3457600080fd5b833592506020840135614a9381614916565b80356001600160401b0381168114614b5d57600080fd5b919050565b60008060008060808587031215614b7857600080fd5b8435614b8381614916565b935060208501359250614b9860408601614b46565b9150614ba660608601614b46565b905092959194509250565b634e487b7160e01b600052604160045260246000fd5b600060a08284031215614bd957600080fd5b60405160a081018181106001600160401b0382111715614bfb57614bfb614bb1565b80604052508235815260208301356020820152614c1a60408401614b46565b6040820152614c2b60608401614b46565b6060820152614c3c60808401614b46565b60808201529392505050565b600080600080600060608688031215614c6057600080fd5b85356001600160401b0380821115614c7757600080fd5b908701906080828a031215614c8b57600080fd5b90955060208701359080821115614ca157600080fd5b614cad89838a01614957565b90965094506040880135915080821115614cc657600080fd5b50614cd388828901614957565b969995985093965092949392505050565b600080600060608486031215614cf957600080fd5b614d0284614b46565b92506020840135614d1281614916565b9150614d2060408501614b46565b90509250925092565b600060208284031215614d3b57600080fd5b6123cc82614b46565b602080825282518282018190526000919060409081850190868401855b82811015614d9757614d87848351805182526020908101516001600160a01b0316910152565b9284019290850190600101614d61565b5091979650505050505050565b6020815260006001600160401b038084511660208401528060208501511660408401525060018060a01b036040840151166060830152606083015160808084015261165760a08401826148be565b600060208284031215614e0457600080fd5b81356123cc81614916565b600080600060608486031215614e2457600080fd5b833592506020840135614d1281614916565b6020808252825182820181905260009190848201906040850190845b81811015614a225783516001600160401b031683529284019291840191600101614e52565b801515811461287d57600080fd5b60008060408385031215614e9857600080fd5b8235614ea381614916565b91506020830135614eb381614e77565b809150509250929050565b60006001600160401b0380841115614ed857614ed8614bb1565b604051601f8501601f19908116603f01168101908282118183101715614f0057614f00614bb1565b81604052809350858152868686011115614f1957600080fd5b858560208301376000602087830101525050509392505050565b60008060008060808587031215614f4957600080fd5b8435614f5481614916565b93506020850135614f6481614916565b92506040850135915060608501356001600160401b03811115614f8657600080fd5b8501601f81018713614f9757600080fd5b614fa687823560208401614ebe565b91505092959194509250565b600080600060608486031215614fc757600080fd5b83359250614d1260208501614b46565b602081526001600160401b0382511660208201526000602083015160408084015261165760608401826148be565b6000806000806080858703121561501b57600080fd5b843561502681614916565b9350602085013561503681614916565b93969395505050506040820135916060013590565b6000806040838503121561505e57600080fd5b823561506981614916565b91506020830135614eb381614916565b6000806040838503121561508c57600080fd5b8235915061509c60208401614b46565b90509250929050565b600181811c908216806150b957607f821691505b6020821081036150d957634e487b7160e01b600052602260045260246000fd5b50919050565b634e487b7160e01b600052601160045260246000fd5b81810381811115610e9157610e916150df565b634e487b7160e01b600052603260045260246000fd5b60008060006060848603121561513357600080fd5b835161513e81614916565b602085015160408601519194509250614ad281614e77565b60006080823603121561516857600080fd5b604051608081016001600160401b03828210818311171561518b5761518b614bb1565b8160405261519885614b46565b83526151a660208601614b46565b6020840152604085013591506151bb82614916565b81604084015260608501359150808211156151d557600080fd5b50830136601f8201126151e757600080fd5b6151f636823560208401614ebe565b60608301525092915050565b60006020828403121561521457600080fd5b81516123cc81614916565b80820180821115610e9157610e916150df565b600081600019048311821515161561524c5761524c6150df565b500290565b60006020828403121561526357600080fd5b81516123cc81614e77565b634e487b7160e01b600052603160045260246000fd5b60ff8181168382160190811115610e9157610e916150df565b601f821115610fd757600081815260208120601f850160051c810160208610156152c45750805b601f850160051c820191505b8181101561115c578281556001016152d0565b81516001600160401b038111156152fc576152fc614bb1565b6153108161530a84546150a5565b8461529d565b602080601f831160018114615345576000841561532d5750858301515b600019600386901b1c1916600185901b17855561115c565b600085815260208120601f198616915b8281101561537457888601518255948401946001909101908401615355565b50858210156153925787850151600019600388901b60f8161c191681555b5050505050600190811b01905550565b60ff8281168282160390811115610e9157610e916150df565b600083516153cd81846020880161489a565b8351908301906153e181836020880161489a565b01949350505050565b6001600160a01b038581168252841660208201526040810183905260806060820181905260009061541d908301846148be565b9695505050505050565b60006020828403121561543957600080fd5b81516123cc8161486756feddf252ad1be2c89b69c2b068fc378daa952ba7f163c4a11628f55a4df523b3efa2646970667358221220e0b83f31c15baea9cedb5045c1fa038432c1b8b0f834f969d62fdeadbe841b5a64736f6c63430008100033a26469706673582212201de5949a1798e9f9a506fbf3cc66c4cab24d87a1e0dea1cc141970dc17c7661b64736f6c63430008100033",
  "linkReferences": {},
  "deployedLinkReferences": {}
}