{
  "_format": "hh-sol-artifact-1",
  "contractName": "RMRKNestingFactory",
  "sourceName": "contracts/factory/RMRKNestingFactory.sol",
  "abi": [
    {
      "anonymous": false,
      "inputs": [
        {
          "indexed": true,
          "internalType": "address",
          "name": "nestingContract",
          "type": "address"
        },
        {
          "indexed": true,
          "internalType": "address",
          "name": "deployer",
          "type": "address"
        }
      ],
      "name": "NewRMRKNestingContract",
      "type": "event"
    },
    {
      "inputs": [
        {
          "internalType": "string",
          "name": "name",
          "type": "string"
        },
        {
          "internalType": "string",
          "name": "symbol",
          "type": "string"
        },
        {
          "internalType": "uint256",
          "name": "maxSupply",
          "type": "uint256"
        },
        {
          "internalType": "uint256",
          "name": "pricePerMint",
          "type": "uint256"
        }
      ],
      "name": "deployRMRKNesting",
      "outputs": [],
      "stateMutability": "nonpayable",
      "type": "function"
    },
    {
      "inputs": [
        {
          "internalType": "uint256",
          "name": "",
          "type": "uint256"
        }
      ],
      "name": "nestingCollections",
      "outputs": [
        {
          "internalType": "address",
          "name": "",
          "type": "address"
        }
      ],
      "stateMutability": "view",
      "type": "function"
    }
  ],
  "bytecode": "0x608060405234801561001057600080fd5b50615384806100206000396000f3fe608060405234801561001057600080fd5b50600436106100365760003560e01c80632da9c6b41461003b578063967e167814610050575b600080fd5b61004e61004936600461026f565b61007f565b005b61006361005e3660046102e3565b610195565b6040516001600160a01b03909116815260200160405180910390f35b600084848484604051610091906101bf565b61009e9493929190610349565b604051809103906000f0801580156100ba573d6000803e3d6000fd5b50600080546001810182559080527f290decd9548b62a8d60345a988386fc84ba6bc95484008f6362f93160ef3e5630180546001600160a01b0319166001600160a01b03831690811790915560405163f2fde38b60e01b81523360048201529192509063f2fde38b90602401600060405180830381600087803b15801561014057600080fd5b505af1158015610154573d6000803e3d6000fd5b50506040513392506001600160a01b03841691507fdd7c49031e23ed3772355857670a9eea49c29936e53e2628526d12d2c2428f6790600090a35050505050565b600081815481106101a557600080fd5b6000918252602090912001546001600160a01b0316905081565b614fcc8061038383390190565b634e487b7160e01b600052604160045260246000fd5b600082601f8301126101f357600080fd5b813567ffffffffffffffff8082111561020e5761020e6101cc565b604051601f8301601f19908116603f01168101908282118183101715610236576102366101cc565b8160405283815286602085880101111561024f57600080fd5b836020870160208301376000602085830101528094505050505092915050565b6000806000806080858703121561028557600080fd5b843567ffffffffffffffff8082111561029d57600080fd5b6102a9888389016101e2565b955060208701359150808211156102bf57600080fd5b506102cc878288016101e2565b949794965050505060408301359260600135919050565b6000602082840312156102f557600080fd5b5035919050565b6000815180845260005b8181101561032257602081850181015186830182015201610306565b81811115610334576000602083870101525b50601f01601f19169290920160200192915050565b60808152600061035c60808301876102fc565b828103602084015261036e81876102fc565b60408401959095525050606001529291505056fe60c06040523480156200001157600080fd5b5060405162004fcc38038062004fcc83398101604081905262000034916200019b565b838381818181878762000047336200007e565b60809190915260a052600d6200005e8382620002a4565b50600e6200006d8282620002a4565b505050505050505050505062000370565b600080546001600160a01b038381166001600160a01b0319831681178455604051919092169283917f8be0079c531659141344cd1fd0a4f28419497f9722a3daafe3b4186f6b6457e09190a35050565b634e487b7160e01b600052604160045260246000fd5b600082601f830112620000f657600080fd5b81516001600160401b0380821115620001135762000113620000ce565b604051601f8301601f19908116603f011681019082821181831017156200013e576200013e620000ce565b816040528381526020925086838588010111156200015b57600080fd5b600091505b838210156200017f578582018301518183018401529082019062000160565b83821115620001915760008385830101525b9695505050505050565b60008060008060808587031215620001b257600080fd5b84516001600160401b0380821115620001ca57600080fd5b620001d888838901620000e4565b95506020870151915080821115620001ef57600080fd5b50620001fe87828801620000e4565b604087015160609097015195989097509350505050565b600181811c908216806200022a57607f821691505b6020821081036200024b57634e487b7160e01b600052602260045260246000fd5b50919050565b601f8211156200029f57600081815260208120601f850160051c810160208610156200027a5750805b601f850160051c820191505b818110156200029b5782815560010162000286565b5050505b505050565b81516001600160401b03811115620002c057620002c0620000ce565b620002d881620002d1845462000215565b8462000251565b602080601f831160018114620003105760008415620002f75750858301515b600019600386901b1c1916600185901b1785556200029b565b600085815260208120601f198616915b82811015620003415788860151825594840194600190910190840162000320565b5085821015620003605787850151600019600388901b60f8161c191681555b5050505050600190811b01905550565b60805160a051614c21620003ab60003960008181610b570152611426015260008181610baa0152818161134801526113d30152614c216000f3fe6080604052600436106103e45760003560e01c80637e5852d911610208578063b88d4fde11610118578063e2e286af116100ab578063ed5fd0f51161007a578063ed5fd0f514610cb7578063f2fde38b14610d00578063f64669c314610d20578063fe679c6214610d40578063fe99049a14610d9c57600080fd5b8063e2e286af14610c0e578063e889757014610c2e578063e985e9c514610c4e578063ed45ca9e14610c9757600080fd5b8063c87b56dd116100e7578063c87b56dd14610b7b578063d5abeb0114610b9b578063daf3047714610bce578063dd6433d414610bee57600080fd5b8063b88d4fde14610af3578063baace33e14610b13578063c48a424314610b28578063c5610a2914610b4857600080fd5b8063a0eaec431161019b578063a8cf55641161016a578063a8cf556414610a07578063a9059cbb14610a27578063afc523f614610a47578063b0d59c6714610a8e578063b3556b8e14610ad357600080fd5b8063a0eaec431461096d578063a221abf31461099a578063a22cb465146109c7578063a898e364146109e757600080fd5b80638da5cb5b116101d75780638da5cb5b146108e257806392401eb61461090057806393026a601461091557806395d89b411461095857600080fd5b80637e5852d914610863578063891141d61461088257806389fe6c33146108a25780638bfb4ada146108c257600080fd5b806331c57d13116103035780636352211e11610296578063739817dd11610265578063739817dd146107ce57806378816134146107ee5780637aba6f371461080e5780637b2e40fa146108235780637c2d8d6b1461084357600080fd5b80636352211e146107595780636f19951c1461077957806370a0823114610799578063715018a6146107b957600080fd5b806342842e0e116102d257806342842e0e146106cc57806342966c68146106ec578063430c20811461070c57806344ec93441461072c57600080fd5b806331c57d13146106405780633704d994146106795780633d47544a1461069957806340c10f19146106b957600080fd5b806318160ddd1161037b57806324c6f83f1161034a57806324c6f83f146105b3578063286493d5146105d35780632f32f937146105f35780633049fe5b1461062057600080fd5b806318160ddd1461053457806318249af714610553578063225beee11461057357806323b872dd1461059357600080fd5b8063095ea7b3116103b7578063095ea7b3146104a5578063096835be146104c75780630cc83235146104e7578063135627cd1461050757600080fd5b806301ffc9a7146103e95780630485c7411461041e57806306fdde031461044b578063081812fc1461046d575b600080fd5b3480156103f557600080fd5b50610409610404366004614072565b610dbc565b60405190151581526020015b60405180910390f35b34801561042a57600080fd5b5061043e61043936600461408f565b610de8565b6040516104159190614128565b34801561045757600080fd5b50610460610e86565b604051610415919061418a565b34801561047957600080fd5b5061048d61048836600461408f565b610f18565b6040516001600160a01b039091168152602001610415565b3480156104b157600080fd5b506104c56104c03660046141b2565b610f3f565b005b3480156104d357600080fd5b506104c56104e2366004614224565b610fcb565b3480156104f357600080fd5b5061043e61050236600461408f565b610fdf565b34801561051357600080fd5b5061052761052236600461408f565b61104c565b60405161041591906142e9565b34801561054057600080fd5b506001545b604051908152602001610415565b34801561055f57600080fd5b506104c561056e3660046143a8565b6110d6565b34801561057f57600080fd5b506104c561058e3660046143dc565b6110e2565b34801561059f57600080fd5b506104c56105ae3660046143fe565b611171565b3480156105bf57600080fd5b506104c56105ce36600461408f565b611185565b3480156105df57600080fd5b506104c56105ee36600461443f565b6111e3565b3480156105ff57600080fd5b5061061361060e3660046143dc565b611200565b60405161041591906144be565b34801561062c57600080fd5b506104c561063b3660046143dc565b61129e565b34801561064c57600080fd5b5061040961065b3660046144fa565b6001600160401b031660009081526008602052604090205460ff1690565b34801561068557600080fd5b506104c5610694366004614515565b6112b2565b3480156106a557600080fd5b506104c56106b43660046143dc565b6112c0565b6104c56106c73660046141b2565b611346565b3480156106d857600080fd5b506104c56106e73660046143fe565b6114ce565b3480156106f857600080fd5b506104c561070736600461408f565b6114e9565b34801561071857600080fd5b506104096107273660046141b2565b6114fc565b34801561073857600080fd5b5061074c61074736600461408f565b611508565b6040516104159190614562565b34801561076557600080fd5b5061048d61077436600461408f565b611587565b34801561078557600080fd5b5061074c61079436600461408f565b61163e565b3480156107a557600080fd5b506105456107b43660046145c2565b6116ae565b3480156107c557600080fd5b506104c56116f3565b3480156107da57600080fd5b506104c56107e93660046143dc565b611732565b3480156107fa57600080fd5b506104c56108093660046141b2565b611746565b34801561081a57600080fd5b506104c56117ce565b34801561082f57600080fd5b506104c561083e36600461408f565b61180d565b34801561084f57600080fd5b506104c561085e3660046145df565b611820565b34801561086f57600080fd5b50600054600160a01b900460ff16610409565b34801561088e57600080fd5b5061048d61089d36600461408f565b611902565b3480156108ae57600080fd5b506104c56108bd3660046143fe565b611929565b3480156108ce57600080fd5b506104c56108dd36600461460b565b61194e565b3480156108ee57600080fd5b506000546001600160a01b031661048d565b34801561090c57600080fd5b50610460611a4b565b34801561092157600080fd5b506104c5610930366004614652565b6001600160401b0382166000908152600860205260409020805460ff19168215151790555050565b34801561096457600080fd5b50610460611a5a565b34801561097957600080fd5b5061098d61098836600461408f565b611a69565b6040516104159190614689565b3480156109a657600080fd5b506109ba6109b53660046143dc565b611afb565b60405161041591906146ca565b3480156109d357600080fd5b506104c56109e23660046146dd565b611b47565b3480156109f357600080fd5b50610613610a023660046143dc565b611b52565b348015610a1357600080fd5b506109ba610a223660046143dc565b611bb4565b348015610a3357600080fd5b506104c5610a423660046141b2565b611bd4565b348015610a5357600080fd5b50610a67610a6236600461408f565b611bdf565b604080516001600160a01b0390941684526020840192909252151590820152606001610415565b348015610a9a57600080fd5b50610aba610aa93660046146fb565b63b0d59c6760e01b95945050505050565b6040516001600160e01b03199091168152602001610415565b348015610adf57600080fd5b506104c5610aee36600461408f565b611c60565b348015610aff57600080fd5b506104c5610b0e36600461443f565b611cb9565b348015610b1f57600080fd5b5061098d611cce565b348015610b3457600080fd5b506104c5610b43366004614799565b611d57565b348015610b5457600080fd5b507f0000000000000000000000000000000000000000000000000000000000000000610545565b348015610b8757600080fd5b50610460610b9636600461408f565b611d94565b348015610ba757600080fd5b507f0000000000000000000000000000000000000000000000000000000000000000610545565b348015610bda57600080fd5b50610460610be93660046143dc565b611da1565b348015610bfa57600080fd5b506104c5610c093660046143dc565b611dad565b348015610c1a57600080fd5b506109ba610c293660046144fa565b611dc1565b348015610c3a57600080fd5b506104c5610c493660046146dd565b611ec3565b348015610c5a57600080fd5b50610409610c693660046147d5565b6001600160a01b03918216600090815260126020908152604080832093909416825291909152205460ff1690565b348015610ca357600080fd5b506104c5610cb23660046143dc565b611ef8565b348015610cc357600080fd5b50610409610cd23660046147d5565b6001600160a01b039182166000908152600c6020908152604080832093909416825291909152205460ff1690565b348015610d0c57600080fd5b506104c5610d1b3660046145c2565b61201f565b348015610d2c57600080fd5b5061098d610d3b36600461408f565b6120b7565b348015610d4c57600080fd5b50610d84610d5b366004614803565b60009182526003602090815260408084206001600160401b039384168552909152909120541690565b6040516001600160401b039091168152602001610415565b348015610da857600080fd5b506104c5610db736600461482f565b612120565b6000610dc782612136565b80610de257506001600160e01b03198216632ed6cc6560e21b145b92915050565b6000818152600760209081526040808320805482518185028101850190935280835260609493830182828015610e6f57602002820191906000526020600020906000905b82829054906101000a90046001600160401b03166001600160401b031681526020019060080190602082600701049283019260010382029150808411610e2c5790505b50505050509050610e7f8161215b565b9392505050565b6060600d8054610e9590614875565b80601f0160208091040260200160405190810160405280929190818152602001828054610ec190614875565b8015610f0e5780601f10610ee357610100808354040283529160200191610f0e565b820191906000526020600020905b815481529060010190602001808311610ef157829003601f168201915b5050505050905090565b6000610f238261221d565b506000908152601160205260409020546001600160a01b031690565b6000610f4a82611587565b9050806001600160a01b0316836001600160a01b031603610f7e57604051630591db6d60e01b815260040160405180910390fd5b336001600160a01b03821614801590610f9e5750610f9c8133610c69565b155b15610fbc57604051634c12315960e11b815260040160405180910390fd5b610fc68383612226565b505050565b81610fd581612294565b610fc683836122bb565b6000818152600460209081526040808320805482518185028101850190935280835260609493830182828015610e6f57600091825260209182902080546001600160401b03168452908202830192909160089101808411610e2c57905050505050509050610e7f8161215b565b6000818152600560209081526040918290208054835181840281018401909452808452606093928301828280156110ca57602002820191906000526020600020906000905b82829054906101000a900461ffff1661ffff16815260200190600201906020826001010492830192600103820291508084116110915790505b50505050509050919050565b6110df8161233b565b50565b816110ec81612347565b600083815260146020526040902054821061111a5760405163653e642560e11b815260040160405180910390fd5b6000838152601460205260409020611132908361236e565b60408051848152602081018490527f6964a1de3204f1b98fd6e17a4adb61ff7374b6e10e6890edbf6620c28c6cdff691015b60405180910390a1505050565b61117a81612347565b610fc6838383612435565b600061119082611bdf565b5050905061119b3390565b6001600160a01b0316816001600160a01b0316146111cc576040516304a959d760e51b815260040160405180910390fd5b60006111d783611587565b9050610fc68382612568565b816111ed81612347565b6111f98585858561270b565b5050505050565b604080518082019091526000808252602082015260008381526014602052604090205482106112425760405163653e642560e11b815260040160405180910390fd5b6000838152601460205260408120805484908110611262576112626148af565b60009182526020918290206040805180820190915260029092020180548252600101546001600160a01b03169181019190915291505092915050565b816112a881612347565b610fc6838361273f565b6112bc8282612912565b5050565b816112ca81612347565b60008381526015602052604090205482106112f85760405163da22687f60e01b815260040160405180910390fd5b6000838152601560205260409020611310908361236e565b60408051848152602081018490527fae03828c079c52594effa5a4748a742582fecaad46b3beb7ebf437136e68a75d9101611164565b7f00000000000000000000000000000000000000000000000000000000000000006001541061138857604051635e91cdfb60e11b815260040160405180910390fd5b600054600160a01b900460ff16156113b35760405163ed1fa96f60e01b815260040160405180910390fd5b806113d15760405163376bec4d60e01b815260040160405180910390fd5b7f00000000000000000000000000000000000000000000000000000000000000006001548261140091906148db565b111561141f57604051635e91cdfb60e11b815260040160405180910390fd5b600061144b7f0000000000000000000000000000000000000000000000000000000000000000836148f3565b905034811461146d5760405163f2ffecad60e01b815260040160405180910390fd5b6000600154600161147e91906148db565b9050826001600082825461149291906148db565b9091555050600180546000916114a891906148db565b9050815b818110156114c6576114be8682612a5b565b6001016114ac565b505050505050565b610fc683838360405180602001604052806000815250611cb9565b806114f381612347565b6112bc82612a75565b6000610e7f8383612a8c565b6000818152601560209081526040808320805482518185028101850190935280835260609493849084015b8282101561157b5760008481526020908190206040805180820190915260028502909101805482526001908101546001600160a01b0316828401529083529092019101611533565b50929695505050505050565b60008060008061159685611bdf565b925092509250801561160e576040516331a9108f60e11b8152600481018390526001600160a01b03841690636352211e90602401602060405180830381865afa1580156115e7573d6000803e3d6000fd5b505050506040513d601f19601f8201168201806040525081019061160b9190614912565b92505b6001600160a01b0383166116355760405163089ba7e160e41b815260040160405180910390fd5b50909392505050565b600081815260146020908152604080832080548251818502810185019093528083526060949384908401821561157b5760008481526020908190206040805180820190915260028502909101805482526001908101546001600160a01b0316828401529083529092019101611533565b60006001600160a01b0382166116d757604051633bb9143360e11b815260040160405180910390fd5b506001600160a01b031660009081526010602052604090205490565b6000546001600160a01b031633146117265760405162461bcd60e51b815260040161171d9061492f565b60405180910390fd5b6117306000612b0a565b565b8161173c81612294565b610fc68383612b5a565b600061175182611587565b9050806001600160a01b0316836001600160a01b03160361178557604051639efa161160e01b815260040160405180910390fd5b336001600160a01b038216148015906117a557506117a38133610cd2565b155b156117c357604051635d84267760e11b815260040160405180910390fd5b610fc6818484612d58565b6000546001600160a01b031633146117f85760405162461bcd60e51b815260040161171d9061492f565b6000805460ff60a01b1916600160a01b179055565b8061181781612294565b6112bc82612db4565b600083815260146020526040902054811061184e5760405163653e642560e11b815260040160405180910390fd5b600083815260146020526040812080548390811061186e5761186e6148af565b60009182526020918290206040805180820190915260029092020180548083526001909101546001600160a01b031692820192909252915083146118c557604051632df38b6b60e21b815260040160405180910390fd5b60208101516001600160a01b031633146118f257604051634bf5323760e01b815260040160405180910390fd5b6118fc8483612e91565b50505050565b600061190d8261221d565b506000908152600b60205260409020546001600160a01b031690565b8061193381612347565b6118fc8484846040518060200160405280600081525061270b565b6040516357e291fb60e11b81526004810183905281906000906001600160a01b0383169063afc523f690602401606060405180830381865afa158015611998573d6000803e3d6000fd5b505050506040513d601f19601f820116820180604052508101906119bc9190614964565b50909150506001600160a01b03811630146119ea57604051637df7fbc360e01b815260040160405180910390fd5b604080518082019091528481526001600160a01b0384166020820152611a108682612edf565b6040518681527fdafa86bf6eb93de96192c26c195c1c92ebfcbaf89db02fb6a29cb9ad9e6cc5329060200160405180910390a1505050505050565b6060600a8054610e9590614875565b6060600e8054610e9590614875565b6000818152600460209081526040918290208054835181840281018401909452808452606093928301828280156110ca57602002820191906000526020600020906000905b82829054906101000a90046001600160401b03166001600160401b031681526020019060080190602082600701049283019260010382029150808411611aae575094979650505050505050565b6040805180820190915260008152606060208201526000611b1b846120b7565b8381518110611b2c57611b2c6148af565b60200260200101519050611b3f81611dc1565b949350505050565b6112bc338383612f5e565b60408051808201909152600080825260208201526000838152601560205260409020548210611b945760405163da22687f60e01b815260040160405180910390fd5b6000838152601560205260408120805484908110611262576112626148af565b6040805180820190915260008152606060208201526000611b1b84611a69565b6112bc338383611171565b60008181526013602090815260408083208151606081018352815481526001909101546001600160a01b038116938201849052600160a01b900460ff161515918101919091528291829190611c475760405163089ba7e160e41b815260040160405180910390fd5b6020810151815160409092015190969195509350915050565b80611c6a81612347565b6000828152601560205260408120611c8191613f31565b6040518281527f45ff729c59036a15df911ae25faf1e09e866ced1fcbc5333b29eb8e4d8c71c67906020015b60405180910390a15050565b611cc282612347565b6118fc84848484612ffe565b60606009805480602002602001604051908101604052809291908181526020018280548015610f0e57602002820191906000526020600020906000905b82829054906101000a90046001600160401b03166001600160401b031681526020019060080190602082600701049283019260010382029150808411611d0b5790505050505050905090565b6000611d6284611587565b6001600160a01b031603611d895760405163089ba7e160e41b815260040160405180910390fd5b610fc6838383613032565b6060610de2826000613205565b6060610e7f8383613205565b81611db781612294565b610fc68383613390565b604080518082018252600080825260606020808401919091526001600160401b03858116835260028252848320855180870190965280549091168552600181018054949593949192840191611e1590614875565b80601f0160208091040260200160405190810160405280929190818152602001828054611e4190614875565b8015611e8e5780601f10611e6357610100808354040283529160200191611e8e565b820191906000526020600020905b815481529060010190602001808311611e7157829003601f168201915b5050509190925250508151919250506001600160401b0316610de2576040516348e2e83760e01b815260040160405180910390fd5b336001600160a01b0383168103611eed5760405163353c229360e11b815260040160405180910390fd5b610fc681848461349b565b81611f0281612347565b6000838152601560205260409020548210611f305760405163da22687f60e01b815260040160405180910390fd5b6000838152601560205260408120805484908110611f5057611f506148af565b60009182526020808320604080518082018252600290940290910180548452600101546001600160a01b0316838301528784526015909152909120909150611f98908461236e565b6000848152601460209081526040822080546001808201835591845292829020845160029094020192835590830151910180546001600160a01b0319166001600160a01b039092169190911790556040518481527f03e53bd97b9cb7f51f782864c91d625a992c0b980750b00d6eb1d7b4956210a29060200160405180910390a150505050565b6000546001600160a01b031633146120495760405162461bcd60e51b815260040161171d9061492f565b6001600160a01b0381166120ae5760405162461bcd60e51b815260206004820152602660248201527f4f776e61626c653a206e6577206f776e657220697320746865207a65726f206160448201526564647265737360d01b606482015260840161171d565b6110df81612b0a565b6000818152600760209081526040918290208054835181840281018401909452808452606093928301828280156110ca57600091825260209182902080546001600160401b03168452908202830192909160089101808411611aae575094979650505050505050565b8161212a81612347565b6111f985858585613500565b60006001600160e01b031982166371c8af0360e01b1480610de25750610de282613697565b80516060906000816001600160401b0381111561217a5761217a6141de565b6040519080825280602002602001820160405280156121c057816020015b6040805180820190915260008152606060208201528152602001906001900390816121985790505b50905060005b82811015612215576121f08582815181106121e3576121e36148af565b6020026020010151611dc1565b828281518110612202576122026148af565b60209081029190910101526001016121c6565b509392505050565b6110df816136e7565b600081815260116020526040902080546001600160a01b0319166001600160a01b038416908117909155819061225b82611587565b6001600160a01b03167f8c5be1e5ebec7d5bd14f71427d1e84f3dd0314c0f7b2291e5b200ac8c7c3b92560405160405180910390a45050565b61229e338261370d565b6110df5760405163eabb6dd760e01b815260040160405180910390fd5b805160008381526004602052604090205481146122eb57604051633581be1d60e11b815260040160405180910390fd5b6000838152600560209081526040909120835161230a92850190613f52565b5060405183907f50a12ecfcaf26b91454fd23edbcf04185b68d6e8c7edc4e35d14392889cdf79590600090a2505050565b600a6112bc82826149e2565b6123513382612a8c565b6110df576040516302728a9d60e41b815260040160405180910390fd5b8154811061237b57600080fd5b8154829061238b90600190614aa1565b8154811061239b5761239b6148af565b90600052602060002090600202018282815481106123bb576123bb6148af565b600091825260209091208254600290920201908155600191820154910180546001600160a01b0319166001600160a01b03909216919091179055815482908061240657612406614ab8565b60008281526020812060026000199093019283020190815560010180546001600160a01b031916905590555050565b826001600160a01b031661244882611587565b6001600160a01b03161461246f5760405163e146af6f60e01b815260040160405180910390fd5b6001600160a01b038216612496576040516338f646ff60e21b815260040160405180910390fd5b600081815260136020526040902060010154600160a01b900460ff16156124d05760405163cb1ff0c160e01b815260040160405180910390fd5b6001600160a01b03831660009081526010602052604081208054600192906124f9908490614aa1565b9091555061250c90508160008481613779565b6001600160a01b03821660009081526010602052604081208054600192906125359084906148db565b909155505060405181906001600160a01b038085169190861690600080516020614bcc83398151915290600090a4505050565b612573600083612226565b61257e6000836137f1565b6001600160a01b03811660009081526010602052604081208054600192906125a7908490614aa1565b90915550600090506125b88361163e565b805190915060005b818110156126795760008382815181106125dc576125dc6148af565b602002602001015160200151905060008483815181106125fe576125fe6148af565b6020026020010151600001519050816001600160a01b03166324c6f83f826040518263ffffffff1660e01b815260040161263a91815260200190565b600060405180830381600087803b15801561265457600080fd5b505af1158015612668573d6000803e3d6000fd5b5050505082600101925050506125c0565b50600084815260136020908152604080832083815560010180546001600160a81b0319169055601590915281206126af91613f31565b60008481526014602052604081206126c691613f31565b60008481526011602052604080822080546001600160a01b0319169055518591906001600160a01b03861690600080516020614bcc833981519152908390a450505050565b612716848484612435565b612722848484846137fd565b6118fc57604051636464a3e360e11b815260040160405180910390fd5b6000828152601360209081526040918290208251606081018452815481526001909101546001600160a01b038116928201839052600160a01b900460ff161515928101929092526127a35760405163fc3c6af160e01b815260040160405180910390fd5b80604001516127c55760405163715f683f60e11b815260040160405180910390fd5b602081015181516040516331a9108f60e11b815260048101919091526000916001600160a01b031690636352211e90602401602060405180830381865afa158015612814573d6000803e3d6000fd5b505050506040513d601f19601f820116820180604052508101906128389190614912565b6040805160608101825260008082526001600160a01b0380851660208085019182528486018481528b85526013825293869020945185559051600194909401805493511515600160a01b026001600160a81b0319909416948316949094179290921790925585015185519251637c2d8d6b60e01b81529394501691637c2d8d6b916128da91889088906004019283526020830191909152604082015260600190565b600060405180830381600087803b1580156128f457600080fd5b505af1158015612908573d6000803e3d6000fd5b5050505050505050565b6001600160401b0382166129395760405163280d806360e01b815260040160405180910390fd5b6001600160401b03828116600090815260026020526040902054161561297257604051633348dd1d60e01b815260040160405180910390fd5b6040805180820182526001600160401b038481168083526020808401868152600092835260029091529390208251815467ffffffffffffffff1916921691909117815591519091829160018201906129ca90826149e2565b505060098054600181018255600091909152600481047f6e1540171b6c0c960b71a7020d9f60077f6af931a8bbf590da0223dacf75c7af0180546001600160401b0387811660086003909516949094026101000a8481029102199091161790556040519081527f8a5ccfca4023cda4a0a59a1bb73783f6b3ba77465537d0c8f2bef5eb2511552a9150602001611164565b6112bc8282604051806020016040528060008152506138f0565b6000612a8082611587565b90506112bc8282612568565b600080612a9883611587565b9050806001600160a01b0316846001600160a01b03161480612adf57506001600160a01b0380821660009081526012602090815260408083209388168352929052205460ff165b80611b3f5750836001600160a01b0316612af884610f18565b6001600160a01b031614949350505050565b600080546001600160a01b038381166001600160a01b0319831681178455604051919092169283917f8be0079c531659141344cd1fd0a4f28419497f9722a3daafe3b4186f6b6457e09190a35050565b6000828152600760205260409020548110612b8857604051630757d52160e01b815260040160405180910390fd5b6000828152600760205260408120805483908110612ba857612ba86148af565b600091825260208083206004830401548684526007909152604090922060039091166008026101000a9091046001600160401b03169150612be99083613924565b60008381526003602090815260408083206001600160401b038086168552925290912054168015612c9c576000848152600460205260409020612c2c9082613a0a565b6040516001600160401b038216815284907f0c3ab9436ca1f55688a28969e7eac425945dded8cc4acf7f4e738cfa6fa1657c9060200160405180910390a260008481526003602090815260408083206001600160401b03861684529091529020805467ffffffffffffffff191690555b60008481526004602081815260408084208054600180820183559186528386209481049094018054600390951660080261010090810a6001600160401b0381810219909716968a1690810296909617909155898652600584528286208054928301815586529483902060108204018054600f90921660020290950a61ffff021916909355915190815285917f51e9958189f528b912f96508d6a4b68583858166eda14d580dfbd24e9a79dfdb910160405180910390a250505050565b6000818152600b602052604080822080546001600160a01b0319166001600160a01b0386811691821790925591518493918716917fa98c62723e75b26c5e5710fb12b5bf7712e6926f6dc932de622e715553f5149191a4505050565b600081815260076020526040812054905b81811015612e3f576000838152600760205260408120805483908110612ded57612ded6148af565b6000918252602080832060048304015487845260038083526040808620919094166008026101000a9091046001600160401b0316845290529020805467ffffffffffffffff1916905550600101612dc5565b506000828152600760205260408120612e5791613ffb565b6040516000815282907f8d0cdca57de6b2fb4babd8b68c83db0b0981610d338eb68eea1f4b1e1d78dc1c9060200160405180910390a25050565b6000828152601460205260409020612ea9908261236e565b60408051838152602081018390527f241c7ca16796e41b08b8f4535acd6360c73187f01a9e85194ee35f1466578c299101611cad565b60008281526015602052604090205460801115612f455760009182526015602090815260408320805460018082018355918552938290208351600290950201938455910151910180546001600160a01b0319166001600160a01b03909216919091179055565b60405163a53c8c0560e01b815260040160405180910390fd5b816001600160a01b0316836001600160a01b031603612f9057604051630b7b99b960e21b815260040160405180910390fd5b6001600160a01b03838116600081815260126020908152604080832094871680845294825291829020805460ff191686151590811790915591519182527f17307eab39ab6107e8899845ad3d59bd9653f200f220920489ca2b5937696c3191015b60405180910390a3505050565b613009848484612435565b61301584848484613ae8565b6118fc5760405163bcb5663760e01b815260040160405180910390fd5b60008381526006602090815260408083206001600160401b038616845290915290205460ff161561307657604051633348dd1d60e01b815260040160405180910390fd5b600061308183611dc1565b516001600160401b0316036130a957604051630f8f451560e01b815260040160405180910390fd5b6000838152600760205260409020546080116130d85760405163dfaea09b60e01b815260040160405180910390fd5b60008381526006602090815260408083206001600160401b038681168086529184528285208054600160ff19909116811790915588865260078552928520805493840181558552929093206004820401805460039092166008026101000a8084021990921691909302179091558116156131c15760008381526003602090815260408083206001600160401b0386811680865291845293829020805467ffffffffffffffff1916948616948517905581519081529182019290925284917fe76caab2912f68cd628bc085e006c86b8a478d13be698638b0c533030d120b4e910160405180910390a25b6040516001600160401b038316815283907ffc4d0a03f3026d7ce3427493c9289ea9768a6edd425e854cea7600d244ecc2c3906020015b60405180910390a2505050565b6000828152600460205260409020546060908210156132fe57600083815260046020526040812080548490811061323e5761323e6148af565b90600052602060002090600491828204019190066008029054906101000a90046001600160401b031690506060600061327683611dc1565b6001600160401b03841660009081526008602052604090205490915060ff166132a557806020015191506132f4565b602081015180516132c557604051806020016040528060008152506132f0565b806132cf88613bd7565b6040516020016132e0929190614ace565b6040516020818303038152906040525b9250505b509150610de29050565b600a805461330b90614875565b80601f016020809104026020016040519081016040528092919081815260200182805461333790614875565b80156133845780601f1061335957610100808354040283529160200191613384565b820191906000526020600020905b81548152906001019060200180831161336757829003601f168201915b50505050509050610de2565b60008281526007602052604090205481106133be57604051630757d52160e01b815260040160405180910390fd5b60008281526007602052604081208054839081106133de576133de6148af565b600091825260208083206004830401548684526007909152604090922060039091166008026101000a9091046001600160401b0316915061341f9083613924565b60008381526006602090815260408083206001600160401b038516808552908352818420805460ff1916905586845260038352818420818552835292819020805467ffffffffffffffff191690555191825284917f8d0cdca57de6b2fb4babd8b68c83db0b0981610d338eb68eea1f4b1e1d78dc1c91016131f8565b6001600160a01b038381166000818152600c6020908152604080832094871680845294825291829020805460ff191686151590811790915591519182527f9c03d4f9a8db6d81765cbe2097e83f44253564fbf3c1adfb09a8067464ad3f4b9101612ff1565b836001600160a01b031661351383611587565b6001600160a01b03161461353a5760405163e146af6f60e01b815260040160405180910390fd5b600082815260136020526040902060010154600160a01b900460ff16156135745760405163cb1ff0c160e01b815260040160405180910390fd5b6001600160a01b03831661359b576040516338f646ff60e21b815260040160405180910390fd5b6001600160a01b0383163b6135c35760405163b9d3114760e01b815260040160405180910390fd5b6040516301ffc9a760e01b81526371c8af0360e01b60048201526001600160a01b038416906301ffc9a790602401602060405180830381865afa15801561360e573d6000803e3d6000fd5b505050506040513d601f19601f820116820180604052508101906136329190614afd565b61364f57604051636464a3e360e11b815260040160405180910390fd5b6001600160a01b0384166000908152601060205260408120805460019290613678908490614aa1565b9091555061368b90508282856001613779565b6118fc82828686613cd7565b60006001600160e01b031982166380ac58cd60e01b14806136c857506001600160e01b03198216635b5e139f60e01b145b80610de257506301ffc9a760e01b6001600160e01b0319831614610de2565b6136f081613e13565b6110df5760405163089ba7e160e41b815260040160405180910390fd5b60008061371983611587565b9050806001600160a01b0316846001600160a01b0316148061376057506001600160a01b038082166000908152600c602090815260408083209388168352929052205460ff165b80611b3f5750836001600160a01b0316612af884611902565b604080516060810182528481526001600160a01b03808516602080840191825285151584860190815260008a815260139092529481209351845590516001909301805494511515600160a01b026001600160a81b03199095169390921692909217929092179091556137eb9085612226565b6118fc82855b6112bc82600083612d58565b60006001600160a01b0384163b156138e55760405163b0d59c6760e01b81526001600160a01b0385169063b0d59c6790613841903390899088908890600401614b1a565b6020604051808303816000875af192505050801561387c575060408051601f3d908101601f1916820190925261387991810190614b57565b60015b6138cb573d8080156138aa576040519150601f19603f3d011682016040523d82523d6000602084013e6138af565b606091505b5080516000036138c3576000915050611b3f565b805181602001fd5b6001600160e01b03191663b0d59c6760e01b149050611b3f565b506001949350505050565b6138fa8383613e35565b6139076000848484613ae8565b610fc65760405163bcb5663760e01b815260040160405180910390fd5b8154811061393157600080fd5b8154829061394190600190614aa1565b81548110613951576139516148af565b90600052602060002090600491828204019190066008029054906101000a90046001600160401b031682828154811061398c5761398c6148af565b90600052602060002090600491828204019190066008026101000a8154816001600160401b0302191690836001600160401b03160217905550818054806139d5576139d5614ab8565b60008281526020902060046000199092019182040180546001600160401b03600860038516026101000a021916905590555050565b600082805480602002602001604051908101604052809291908181526020018280548015613a8957602002820191906000526020600020906000905b82829054906101000a90046001600160401b03166001600160401b031681526020019060080190602082600701049283019260010382029150808411613a465790505b505083519394506000925050505b818110156111f957836001600160401b0316838281518110613abb57613abb6148af565b60200260200101516001600160401b031603613ae057613adb8582613924565b6111f9565b600101613a97565b60006001600160a01b0384163b156138e557604051630a85bd0160e11b81526001600160a01b0385169063150b7a0290613b2c903390899088908890600401614b1a565b6020604051808303816000875af1925050508015613b67575060408051601f3d908101601f19168201909252613b6491810190614b57565b60015b613bbd573d808015613b95576040519150601f19603f3d011682016040523d82523d6000602084013e613b9a565b606091505b5080516000036138c35760405163bcb5663760e01b815260040160405180910390fd5b6001600160e01b031916630a85bd0160e11b149050611b3f565b606081600003613bfe5750506040805180820190915260018152600360fc1b602082015290565b8160005b8115613c285780613c1281614b74565b9150613c219050600a83614ba3565b9150613c02565b6000816001600160401b03811115613c4257613c426141de565b6040519080825280601f01601f191660200182016040528015613c6c576020820181803683370190505b5090505b8415611b3f57613c81600183614aa1565b9150613c8e600a86614bb7565b613c999060306148db565b60f81b818381518110613cae57613cae6148af565b60200101906001600160f81b031916908160001a905350613cd0600a86614ba3565b9450613c70565b6040516331a9108f60e11b81526004810184905281906000906001600160a01b03831690636352211e90602401602060405180830381865afa158015613d21573d6000803e3d6000fd5b505050506040513d601f19601f82011682018060405250810190613d459190614912565b6001600160a01b03811660009081526010602052604081208054929350600192909190613d739084906148db565b90915550506040516345fda56d60e11b815260048101869052602481018790523060448201526001600160a01b03831690638bfb4ada90606401600060405180830381600087803b158015613dc757600080fd5b505af1158015613ddb573d6000803e3d6000fd5b5050505085836001600160a01b0316856001600160a01b0316600080516020614bcc83398151915260405160405180910390a46114c6565b6000818152601360205260408120600101546001600160a01b03161515610de2565b6001600160a01b038216613e5c576040516325bd6bd360e01b815260040160405180910390fd5b613e6581613e13565b15613e835760405163c5a8d37160e01b815260040160405180910390fd5b6001600160a01b0382166000908152601060205260408120805460019290613eac9084906148db565b90915550506040805160608101825260008082526001600160a01b03808616602080850182815285870185815288865260139092528685209551865551600195909501805491511515600160a01b026001600160a81b031990921695909316949094179390931790559151839290600080516020614bcc833981519152908290a45050565b50805460008255600202906000526020600020908101906110df9190614020565b82805482825590600052602060002090600f01601090048101928215613feb5791602002820160005b83821115613fbb57835183826101000a81548161ffff021916908361ffff1602179055509260200192600201602081600101049283019260010302613f7b565b8015613fe95782816101000a81549061ffff0219169055600201602081600101049283019260010302613fbb565b505b50613ff7929150614047565b5090565b5080546000825560030160049004906000526020600020908101906110df9190614047565b5b80821115613ff757600081556001810180546001600160a01b0319169055600201614021565b5b80821115613ff75760008155600101614048565b6001600160e01b0319811681146110df57600080fd5b60006020828403121561408457600080fd5b8135610e7f8161405c565b6000602082840312156140a157600080fd5b5035919050565b60005b838110156140c35781810151838201526020016140ab565b838111156118fc5750506000910152565b600081518084526140ec8160208601602086016140a8565b601f01601f19169290920160200192915050565b6001600160401b0381511682526000602082015160406020850152611b3f60408501826140d4565b6000602080830181845280855180835260408601915060408160051b870101925083870160005b8281101561417d57603f1988860301845261416b858351614100565b9450928501929085019060010161414f565b5092979650505050505050565b602081526000610e7f60208301846140d4565b6001600160a01b03811681146110df57600080fd5b600080604083850312156141c557600080fd5b82356141d08161419d565b946020939093013593505050565b634e487b7160e01b600052604160045260246000fd5b604051601f8201601f191681016001600160401b038111828210171561421c5761421c6141de565b604052919050565b6000806040838503121561423757600080fd5b823591506020808401356001600160401b038082111561425657600080fd5b818601915086601f83011261426a57600080fd5b81358181111561427c5761427c6141de565b8060051b915061428d8483016141f4565b81815291830184019184810190898411156142a757600080fd5b938501935b838510156142d9578435925061ffff831683146142c95760008081fd5b82825293850193908501906142ac565b8096505050505050509250929050565b6020808252825182820181905260009190848201906040850190845b8181101561432557835161ffff1683529284019291840191600101614305565b50909695505050505050565b60006001600160401b0383111561434a5761434a6141de565b61435d601f8401601f19166020016141f4565b905082815283838301111561437157600080fd5b828260208301376000602084830101529392505050565b600082601f83011261439957600080fd5b610e7f83833560208501614331565b6000602082840312156143ba57600080fd5b81356001600160401b038111156143d057600080fd5b611b3f84828501614388565b600080604083850312156143ef57600080fd5b50508035926020909101359150565b60008060006060848603121561441357600080fd5b833561441e8161419d565b9250602084013561442e8161419d565b929592945050506040919091013590565b6000806000806080858703121561445557600080fd5b84356144608161419d565b935060208501356144708161419d565b92506040850135915060608501356001600160401b0381111561449257600080fd5b8501601f810187136144a357600080fd5b6144b287823560208401614331565b91505092959194509250565b815181526020808301516001600160a01b03169082015260408101610de2565b80356001600160401b03811681146144f557600080fd5b919050565b60006020828403121561450c57600080fd5b610e7f826144de565b6000806040838503121561452857600080fd5b614531836144de565b915060208301356001600160401b0381111561454c57600080fd5b61455885828601614388565b9150509250929050565b602080825282518282018190526000919060409081850190868401855b828110156145b5576145a5848351805182526020908101516001600160a01b0316910152565b928401929085019060010161457f565b5091979650505050505050565b6000602082840312156145d457600080fd5b8135610e7f8161419d565b6000806000606084860312156145f457600080fd5b505081359360208301359350604090920135919050565b60008060006060848603121561462057600080fd5b833592506020840135915060408401356146398161419d565b809150509250925092565b80151581146110df57600080fd5b6000806040838503121561466557600080fd5b61466e836144de565b9150602083013561467e81614644565b809150509250929050565b6020808252825182820181905260009190848201906040850190845b818110156143255783516001600160401b0316835292840192918401916001016146a5565b602081526000610e7f6020830184614100565b600080604083850312156146f057600080fd5b823561466e8161419d565b60008060008060006080868803121561471357600080fd5b853561471e8161419d565b9450602086013561472e8161419d565b93506040860135925060608601356001600160401b038082111561475157600080fd5b818801915088601f83011261476557600080fd5b81358181111561477457600080fd5b89602082850101111561478657600080fd5b9699959850939650602001949392505050565b6000806000606084860312156147ae57600080fd5b833592506147be602085016144de565b91506147cc604085016144de565b90509250925092565b600080604083850312156147e857600080fd5b82356147f38161419d565b9150602083013561467e8161419d565b6000806040838503121561481657600080fd5b82359150614826602084016144de565b90509250929050565b6000806000806080858703121561484557600080fd5b84356148508161419d565b935060208501356148608161419d565b93969395505050506040820135916060013590565b600181811c9082168061488957607f821691505b6020821081036148a957634e487b7160e01b600052602260045260246000fd5b50919050565b634e487b7160e01b600052603260045260246000fd5b634e487b7160e01b600052601160045260246000fd5b600082198211156148ee576148ee6148c5565b500190565b600081600019048311821515161561490d5761490d6148c5565b500290565b60006020828403121561492457600080fd5b8151610e7f8161419d565b6020808252818101527f4f776e61626c653a2063616c6c6572206973206e6f7420746865206f776e6572604082015260600190565b60008060006060848603121561497957600080fd5b83516149848161419d565b60208501516040860151919450925061463981614644565b601f821115610fc657600081815260208120601f850160051c810160208610156149c35750805b601f850160051c820191505b818110156114c6578281556001016149cf565b81516001600160401b038111156149fb576149fb6141de565b614a0f81614a098454614875565b8461499c565b602080601f831160018114614a445760008415614a2c5750858301515b600019600386901b1c1916600185901b1785556114c6565b600085815260208120601f198616915b82811015614a7357888601518255948401946001909101908401614a54565b5085821015614a915787850151600019600388901b60f8161c191681555b5050505050600190811b01905550565b600082821015614ab357614ab36148c5565b500390565b634e487b7160e01b600052603160045260246000fd5b60008351614ae08184602088016140a8565b835190830190614af48183602088016140a8565b01949350505050565b600060208284031215614b0f57600080fd5b8151610e7f81614644565b6001600160a01b0385811682528416602082015260408101839052608060608201819052600090614b4d908301846140d4565b9695505050505050565b600060208284031215614b6957600080fd5b8151610e7f8161405c565b600060018201614b8657614b866148c5565b5060010190565b634e487b7160e01b600052601260045260246000fd5b600082614bb257614bb2614b8d565b500490565b600082614bc657614bc6614b8d565b50069056feddf252ad1be2c89b69c2b068fc378daa952ba7f163c4a11628f55a4df523b3efa264697066735822122072afab2c6713982a8d2a27285a069b2f21e39f7ad6cd2dde9ee238e42693b3a764736f6c634300080f0033a2646970667358221220aa4dda2dabe6c7b8ff388788beedd7ae6e32950fd4f5efce5ec0dde9e3d4922264736f6c634300080f0033",
  "linkReferences": {},
  "deployedLinkReferences": {}
}