{
  "_format": "hh-sol-artifact-1",
  "contractName": "RMRKNestingMultiResourceImpl",
  "sourceName": "contracts/implementations/RMRKNestingMultiResourceImpl.sol",
  "abi": [
    {
      "inputs": [
        {
          "internalType": "string",
          "name": "name_",
          "type": "string"
        },
        {
          "internalType": "string",
          "name": "symbol_",
          "type": "string"
        },
        {
          "internalType": "uint256",
          "name": "maxSupply_",
          "type": "uint256"
        },
        {
          "internalType": "uint256",
          "name": "pricePerMint_",
          "type": "uint256"
        }
      ],
      "stateMutability": "nonpayable",
      "type": "constructor"
    },
    {
      "inputs": [],
      "name": "ERC721AddressZeroIsNotaValidOwner",
      "type": "error"
    },
    {
      "inputs": [],
      "name": "ERC721ApprovalToCurrentOwner",
      "type": "error"
    },
    {
      "inputs": [],
      "name": "ERC721ApproveCallerIsNotOwnerNorApprovedForAll",
      "type": "error"
    },
    {
      "inputs": [],
      "name": "ERC721ApproveToCaller",
      "type": "error"
    },
    {
      "inputs": [],
      "name": "ERC721InvalidTokenId",
      "type": "error"
    },
    {
      "inputs": [],
      "name": "ERC721MintToTheZeroAddress",
      "type": "error"
    },
    {
      "inputs": [],
      "name": "ERC721NotApprovedOrOwner",
      "type": "error"
    },
    {
      "inputs": [],
      "name": "ERC721TokenAlreadyMinted",
      "type": "error"
    },
    {
      "inputs": [],
      "name": "ERC721TransferFromIncorrectOwner",
      "type": "error"
    },
    {
      "inputs": [],
      "name": "ERC721TransferToNonReceiverImplementer",
      "type": "error"
    },
    {
      "inputs": [],
      "name": "ERC721TransferToTheZeroAddress",
      "type": "error"
    },
    {
      "inputs": [],
      "name": "RMRKApprovalForResourcesToCurrentOwner",
      "type": "error"
    },
    {
      "inputs": [],
      "name": "RMRKApproveForResourcesCallerIsNotOwnerNorApprovedForAll",
      "type": "error"
    },
    {
      "inputs": [],
      "name": "RMRKApproveForResourcesToCaller",
      "type": "error"
    },
    {
      "inputs": [],
      "name": "RMRKBadPriorityListLength",
      "type": "error"
    },
    {
      "inputs": [],
      "name": "RMRKCallerIsNotOwnerContract",
      "type": "error"
    },
    {
      "inputs": [],
      "name": "RMRKChildIndexOutOfRange",
      "type": "error"
    },
    {
      "inputs": [],
      "name": "RMRKIndexOutOfRange",
      "type": "error"
    },
    {
      "inputs": [],
      "name": "RMRKIsNotContract",
      "type": "error"
    },
    {
      "inputs": [],
      "name": "RMRKLocked",
      "type": "error"
    },
    {
      "inputs": [],
      "name": "RMRKMaxPendingChildrenReached",
      "type": "error"
    },
    {
      "inputs": [],
      "name": "RMRKMaxPendingResourcesReached",
      "type": "error"
    },
    {
      "inputs": [],
      "name": "RMRKMintOverMax",
      "type": "error"
    },
    {
      "inputs": [],
      "name": "RMRKMintToNonRMRKImplementer",
      "type": "error"
    },
    {
      "inputs": [],
      "name": "RMRKMintUnderpriced",
      "type": "error"
    },
    {
      "inputs": [],
      "name": "RMRKMintZero",
      "type": "error"
    },
    {
      "inputs": [],
      "name": "RMRKMustUnnestFirst",
      "type": "error"
    },
    {
      "inputs": [],
      "name": "RMRKNestingTransferToNonRMRKNestingImplementer",
      "type": "error"
    },
    {
      "inputs": [],
      "name": "RMRKNoResourceMatchingId",
      "type": "error"
    },
    {
      "inputs": [],
      "name": "RMRKNotApprovedForResourcesOrOwner",
      "type": "error"
    },
    {
      "inputs": [],
      "name": "RMRKParentChildMismatch",
      "type": "error"
    },
    {
      "inputs": [],
      "name": "RMRKPendingChildIndexOutOfRange",
      "type": "error"
    },
    {
      "inputs": [],
      "name": "RMRKResourceAlreadyExists",
      "type": "error"
    },
    {
      "inputs": [],
      "name": "RMRKResourceNotFoundInStorage",
      "type": "error"
    },
    {
      "inputs": [],
      "name": "RMRKUnnestChildIdMismatch",
      "type": "error"
    },
    {
      "inputs": [],
      "name": "RMRKUnnestForNonNftParent",
      "type": "error"
    },
    {
      "inputs": [],
      "name": "RMRKUnnestForNonexistentToken",
      "type": "error"
    },
    {
      "inputs": [],
      "name": "RMRKUnnestFromWrongChild",
      "type": "error"
    },
    {
      "inputs": [],
      "name": "RMRKWriteToZero",
      "type": "error"
    },
    {
      "anonymous": false,
      "inputs": [
        {
          "indexed": false,
          "internalType": "uint256",
          "name": "tokenId",
          "type": "uint256"
        }
      ],
      "name": "AllPendingChildrenRemoved",
      "type": "event"
    },
    {
      "anonymous": false,
      "inputs": [
        {
          "indexed": true,
          "internalType": "address",
          "name": "owner",
          "type": "address"
        },
        {
          "indexed": true,
          "internalType": "address",
          "name": "approved",
          "type": "address"
        },
        {
          "indexed": true,
          "internalType": "uint256",
          "name": "tokenId",
          "type": "uint256"
        }
      ],
      "name": "Approval",
      "type": "event"
    },
    {
      "anonymous": false,
      "inputs": [
        {
          "indexed": true,
          "internalType": "address",
          "name": "owner",
          "type": "address"
        },
        {
          "indexed": true,
          "internalType": "address",
          "name": "operator",
          "type": "address"
        },
        {
          "indexed": false,
          "internalType": "bool",
          "name": "approved",
          "type": "bool"
        }
      ],
      "name": "ApprovalForAll",
      "type": "event"
    },
    {
      "anonymous": false,
      "inputs": [
        {
          "indexed": true,
          "internalType": "address",
          "name": "owner",
          "type": "address"
        },
        {
          "indexed": true,
          "internalType": "address",
          "name": "operator",
          "type": "address"
        },
        {
          "indexed": false,
          "internalType": "bool",
          "name": "approved",
          "type": "bool"
        }
      ],
      "name": "ApprovalForAllForResources",
      "type": "event"
    },
    {
      "anonymous": false,
      "inputs": [
        {
          "indexed": true,
          "internalType": "address",
          "name": "owner",
          "type": "address"
        },
        {
          "indexed": true,
          "internalType": "address",
          "name": "approved",
          "type": "address"
        },
        {
          "indexed": true,
          "internalType": "uint256",
          "name": "tokenId",
          "type": "uint256"
        }
      ],
      "name": "ApprovalForResources",
      "type": "event"
    },
    {
      "anonymous": false,
      "inputs": [
        {
          "indexed": false,
          "internalType": "uint256",
          "name": "tokenId",
          "type": "uint256"
        }
      ],
      "name": "ChildAccepted",
      "type": "event"
    },
    {
      "anonymous": false,
      "inputs": [
        {
          "indexed": false,
          "internalType": "uint256",
          "name": "parentTokenId",
          "type": "uint256"
        }
      ],
      "name": "ChildProposed",
      "type": "event"
    },
    {
      "anonymous": false,
      "inputs": [
        {
          "indexed": false,
          "internalType": "uint256",
          "name": "tokenId",
          "type": "uint256"
        },
        {
          "indexed": false,
          "internalType": "uint256",
          "name": "index",
          "type": "uint256"
        }
      ],
      "name": "ChildRemoved",
      "type": "event"
    },
    {
      "anonymous": false,
      "inputs": [
        {
          "indexed": false,
          "internalType": "uint256",
          "name": "tokenId",
          "type": "uint256"
        },
        {
          "indexed": false,
          "internalType": "uint256",
          "name": "index",
          "type": "uint256"
        }
      ],
      "name": "ChildUnnested",
      "type": "event"
    },
    {
      "anonymous": false,
      "inputs": [
        {
          "indexed": true,
          "internalType": "address",
          "name": "previousOwner",
          "type": "address"
        },
        {
          "indexed": true,
          "internalType": "address",
          "name": "newOwner",
          "type": "address"
        }
      ],
      "name": "OwnershipTransferred",
      "type": "event"
    },
    {
      "anonymous": false,
      "inputs": [
        {
          "indexed": false,
          "internalType": "uint256",
          "name": "tokenId",
          "type": "uint256"
        },
        {
          "indexed": false,
          "internalType": "uint256",
          "name": "index",
          "type": "uint256"
        }
      ],
      "name": "PendingChildRemoved",
      "type": "event"
    },
    {
      "anonymous": false,
      "inputs": [
        {
          "indexed": true,
          "internalType": "uint256",
          "name": "tokenId",
          "type": "uint256"
        },
        {
          "indexed": false,
          "internalType": "uint64",
          "name": "resourceId",
          "type": "uint64"
        }
      ],
      "name": "ResourceAccepted",
      "type": "event"
    },
    {
      "anonymous": false,
      "inputs": [
        {
          "indexed": true,
          "internalType": "uint256",
          "name": "tokenId",
          "type": "uint256"
        },
        {
          "indexed": false,
          "internalType": "uint64",
          "name": "resourceId",
          "type": "uint64"
        }
      ],
      "name": "ResourceAddedToToken",
      "type": "event"
    },
    {
      "anonymous": false,
      "inputs": [
        {
          "indexed": true,
          "internalType": "uint256",
          "name": "tokenId",
          "type": "uint256"
        },
        {
          "indexed": false,
          "internalType": "uint64",
          "name": "resourceId",
          "type": "uint64"
        },
        {
          "indexed": false,
          "internalType": "uint64",
          "name": "overwrites",
          "type": "uint64"
        }
      ],
      "name": "ResourceOverwriteProposed",
      "type": "event"
    },
    {
      "anonymous": false,
      "inputs": [
        {
          "indexed": true,
          "internalType": "uint256",
          "name": "tokenId",
          "type": "uint256"
        },
        {
          "indexed": false,
          "internalType": "uint64",
          "name": "overwritten",
          "type": "uint64"
        }
      ],
      "name": "ResourceOverwritten",
      "type": "event"
    },
    {
      "anonymous": false,
      "inputs": [
        {
          "indexed": true,
          "internalType": "uint256",
          "name": "tokenId",
          "type": "uint256"
        }
      ],
      "name": "ResourcePrioritySet",
      "type": "event"
    },
    {
      "anonymous": false,
      "inputs": [
        {
          "indexed": true,
          "internalType": "uint256",
          "name": "tokenId",
          "type": "uint256"
        },
        {
          "indexed": false,
          "internalType": "uint64",
          "name": "resourceId",
          "type": "uint64"
        }
      ],
      "name": "ResourceRejected",
      "type": "event"
    },
    {
      "anonymous": false,
      "inputs": [
        {
          "indexed": false,
          "internalType": "uint64",
          "name": "resourceId",
          "type": "uint64"
        }
      ],
      "name": "ResourceSet",
      "type": "event"
    },
    {
      "anonymous": false,
      "inputs": [
        {
          "indexed": true,
          "internalType": "address",
          "name": "from",
          "type": "address"
        },
        {
          "indexed": true,
          "internalType": "address",
          "name": "to",
          "type": "address"
        },
        {
          "indexed": true,
          "internalType": "uint256",
          "name": "tokenId",
          "type": "uint256"
        }
      ],
      "name": "Transfer",
      "type": "event"
    },
    {
      "inputs": [
        {
          "internalType": "uint256",
          "name": "tokenId",
          "type": "uint256"
        },
        {
          "internalType": "uint256",
          "name": "index",
          "type": "uint256"
        }
      ],
      "name": "acceptChild",
      "outputs": [],
      "stateMutability": "nonpayable",
      "type": "function"
    },
    {
      "inputs": [
        {
          "internalType": "uint256",
          "name": "tokenId",
          "type": "uint256"
        },
        {
          "internalType": "uint256",
          "name": "index",
          "type": "uint256"
        }
      ],
      "name": "acceptResource",
      "outputs": [],
      "stateMutability": "nonpayable",
      "type": "function"
    },
    {
      "inputs": [
        {
          "internalType": "uint256",
          "name": "parentTokenId",
          "type": "uint256"
        },
        {
          "internalType": "uint256",
          "name": "childTokenId",
          "type": "uint256"
        },
        {
          "internalType": "address",
          "name": "childTokenAddress",
          "type": "address"
        }
      ],
      "name": "addChild",
      "outputs": [],
      "stateMutability": "nonpayable",
      "type": "function"
    },
    {
      "inputs": [
        {
          "internalType": "string",
          "name": "metadataURI",
          "type": "string"
        }
      ],
      "name": "addResourceEntry",
      "outputs": [],
      "stateMutability": "nonpayable",
      "type": "function"
    },
    {
      "inputs": [
        {
          "internalType": "uint256",
          "name": "tokenId",
          "type": "uint256"
        },
        {
          "internalType": "uint64",
          "name": "resourceId",
          "type": "uint64"
        },
        {
          "internalType": "uint64",
          "name": "overwrites",
          "type": "uint64"
        }
      ],
      "name": "addResourceToToken",
      "outputs": [],
      "stateMutability": "nonpayable",
      "type": "function"
    },
    {
      "inputs": [
        {
          "internalType": "address",
          "name": "to",
          "type": "address"
        },
        {
          "internalType": "uint256",
          "name": "tokenId",
          "type": "uint256"
        }
      ],
      "name": "approve",
      "outputs": [],
      "stateMutability": "nonpayable",
      "type": "function"
    },
    {
      "inputs": [
        {
          "internalType": "address",
          "name": "to",
          "type": "address"
        },
        {
          "internalType": "uint256",
          "name": "tokenId",
          "type": "uint256"
        }
      ],
      "name": "approveForResources",
      "outputs": [],
      "stateMutability": "nonpayable",
      "type": "function"
    },
    {
      "inputs": [
        {
          "internalType": "address",
          "name": "owner",
          "type": "address"
        }
      ],
      "name": "balanceOf",
      "outputs": [
        {
          "internalType": "uint256",
          "name": "",
          "type": "uint256"
        }
      ],
      "stateMutability": "view",
      "type": "function"
    },
    {
      "inputs": [
        {
          "internalType": "uint256",
          "name": "tokenId",
          "type": "uint256"
        }
      ],
      "name": "burn",
      "outputs": [],
      "stateMutability": "nonpayable",
      "type": "function"
    },
    {
      "inputs": [
        {
          "internalType": "uint256",
          "name": "tokenId",
          "type": "uint256"
        }
      ],
      "name": "burnFromParent",
      "outputs": [],
      "stateMutability": "nonpayable",
      "type": "function"
    },
    {
      "inputs": [
        {
          "internalType": "uint256",
          "name": "parentTokenId",
          "type": "uint256"
        },
        {
          "internalType": "uint256",
          "name": "index",
          "type": "uint256"
        }
      ],
      "name": "childOf",
      "outputs": [
        {
          "components": [
            {
              "internalType": "uint256",
              "name": "tokenId",
              "type": "uint256"
            },
            {
              "internalType": "address",
              "name": "contractAddress",
              "type": "address"
            }
          ],
          "internalType": "struct IRMRKNesting.Child",
          "name": "",
          "type": "tuple"
        }
      ],
      "stateMutability": "view",
      "type": "function"
    },
    {
      "inputs": [
        {
          "internalType": "uint256",
          "name": "parentTokenId",
          "type": "uint256"
        }
      ],
      "name": "childrenOf",
      "outputs": [
        {
          "components": [
            {
              "internalType": "uint256",
              "name": "tokenId",
              "type": "uint256"
            },
            {
              "internalType": "address",
              "name": "contractAddress",
              "type": "address"
            }
          ],
          "internalType": "struct IRMRKNesting.Child[]",
          "name": "",
          "type": "tuple[]"
        }
      ],
      "stateMutability": "view",
      "type": "function"
    },
    {
      "inputs": [
        {
          "internalType": "uint256",
          "name": "tokenId",
          "type": "uint256"
        }
      ],
      "name": "getActiveResourcePriorities",
      "outputs": [
        {
          "internalType": "uint16[]",
          "name": "",
          "type": "uint16[]"
        }
      ],
      "stateMutability": "view",
      "type": "function"
    },
    {
      "inputs": [
        {
          "internalType": "uint256",
          "name": "tokenId",
          "type": "uint256"
        }
      ],
      "name": "getActiveResources",
      "outputs": [
        {
          "internalType": "uint64[]",
          "name": "",
          "type": "uint64[]"
        }
      ],
      "stateMutability": "view",
      "type": "function"
    },
    {
      "inputs": [],
      "name": "getAllResources",
      "outputs": [
        {
          "internalType": "uint64[]",
          "name": "",
          "type": "uint64[]"
        }
      ],
      "stateMutability": "view",
      "type": "function"
    },
    {
      "inputs": [
        {
          "internalType": "uint256",
          "name": "tokenId",
          "type": "uint256"
        }
      ],
      "name": "getApproved",
      "outputs": [
        {
          "internalType": "address",
          "name": "",
          "type": "address"
        }
      ],
      "stateMutability": "view",
      "type": "function"
    },
    {
      "inputs": [
        {
          "internalType": "uint256",
          "name": "tokenId",
          "type": "uint256"
        }
      ],
      "name": "getApprovedForResources",
      "outputs": [
        {
          "internalType": "address",
          "name": "",
          "type": "address"
        }
      ],
      "stateMutability": "view",
      "type": "function"
    },
    {
      "inputs": [],
      "name": "getFallbackURI",
      "outputs": [
        {
          "internalType": "string",
          "name": "",
          "type": "string"
        }
      ],
      "stateMutability": "view",
      "type": "function"
    },
    {
      "inputs": [
        {
          "internalType": "uint256",
          "name": "tokenId",
          "type": "uint256"
        }
      ],
      "name": "getFullPendingResources",
      "outputs": [
        {
          "components": [
            {
              "internalType": "uint64",
              "name": "id",
              "type": "uint64"
            },
            {
              "internalType": "string",
              "name": "metadataURI",
              "type": "string"
            }
          ],
          "internalType": "struct IRMRKMultiResource.Resource[]",
          "name": "",
          "type": "tuple[]"
        }
      ],
      "stateMutability": "view",
      "type": "function"
    },
    {
      "inputs": [
        {
          "internalType": "uint256",
          "name": "tokenId",
          "type": "uint256"
        }
      ],
      "name": "getFullResources",
      "outputs": [
        {
          "components": [
            {
              "internalType": "uint64",
              "name": "id",
              "type": "uint64"
            },
            {
              "internalType": "string",
              "name": "metadataURI",
              "type": "string"
            }
          ],
          "internalType": "struct IRMRKMultiResource.Resource[]",
          "name": "",
          "type": "tuple[]"
        }
      ],
      "stateMutability": "view",
      "type": "function"
    },
    {
      "inputs": [],
      "name": "getLock",
      "outputs": [
        {
          "internalType": "bool",
          "name": "",
          "type": "bool"
        }
      ],
      "stateMutability": "view",
      "type": "function"
    },
    {
      "inputs": [
        {
          "internalType": "uint256",
          "name": "tokenId",
          "type": "uint256"
        },
        {
          "internalType": "uint256",
          "name": "index",
          "type": "uint256"
        }
      ],
      "name": "getPendingResObjectByIndex",
      "outputs": [
        {
          "components": [
            {
              "internalType": "uint64",
              "name": "id",
              "type": "uint64"
            },
            {
              "internalType": "string",
              "name": "metadataURI",
              "type": "string"
            }
          ],
          "internalType": "struct IRMRKMultiResource.Resource",
          "name": "",
          "type": "tuple"
        }
      ],
      "stateMutability": "view",
      "type": "function"
    },
    {
      "inputs": [
        {
          "internalType": "uint256",
          "name": "tokenId",
          "type": "uint256"
        }
      ],
      "name": "getPendingResources",
      "outputs": [
        {
          "internalType": "uint64[]",
          "name": "",
          "type": "uint64[]"
        }
      ],
      "stateMutability": "view",
      "type": "function"
    },
    {
      "inputs": [
        {
          "internalType": "uint256",
          "name": "tokenId",
          "type": "uint256"
        },
        {
          "internalType": "uint256",
          "name": "index",
          "type": "uint256"
        }
      ],
      "name": "getResObjectByIndex",
      "outputs": [
        {
          "components": [
            {
              "internalType": "uint64",
              "name": "id",
              "type": "uint64"
            },
            {
              "internalType": "string",
              "name": "metadataURI",
              "type": "string"
            }
          ],
          "internalType": "struct IRMRKMultiResource.Resource",
          "name": "",
          "type": "tuple"
        }
      ],
      "stateMutability": "view",
      "type": "function"
    },
    {
      "inputs": [
        {
          "internalType": "uint64",
          "name": "resourceId",
          "type": "uint64"
        }
      ],
      "name": "getResource",
      "outputs": [
        {
          "components": [
            {
              "internalType": "uint64",
              "name": "id",
              "type": "uint64"
            },
            {
              "internalType": "string",
              "name": "metadataURI",
              "type": "string"
            }
          ],
          "internalType": "struct IRMRKMultiResource.Resource",
          "name": "",
          "type": "tuple"
        }
      ],
      "stateMutability": "view",
      "type": "function"
    },
    {
      "inputs": [
        {
          "internalType": "uint256",
          "name": "tokenId",
          "type": "uint256"
        },
        {
          "internalType": "uint64",
          "name": "resourceId",
          "type": "uint64"
        }
      ],
      "name": "getResourceOverwrites",
      "outputs": [
        {
          "internalType": "uint64",
          "name": "",
          "type": "uint64"
        }
      ],
      "stateMutability": "view",
      "type": "function"
    },
    {
      "inputs": [
        {
          "internalType": "address",
          "name": "owner",
          "type": "address"
        },
        {
          "internalType": "address",
          "name": "operator",
          "type": "address"
        }
      ],
      "name": "isApprovedForAll",
      "outputs": [
        {
          "internalType": "bool",
          "name": "",
          "type": "bool"
        }
      ],
      "stateMutability": "view",
      "type": "function"
    },
    {
      "inputs": [
        {
          "internalType": "address",
          "name": "owner",
          "type": "address"
        },
        {
          "internalType": "address",
          "name": "operator",
          "type": "address"
        }
      ],
      "name": "isApprovedForAllForResources",
      "outputs": [
        {
          "internalType": "bool",
          "name": "",
          "type": "bool"
        }
      ],
      "stateMutability": "view",
      "type": "function"
    },
    {
      "inputs": [
        {
          "internalType": "address",
          "name": "spender",
          "type": "address"
        },
        {
          "internalType": "uint256",
          "name": "tokenId",
          "type": "uint256"
        }
      ],
      "name": "isApprovedOrOwner",
      "outputs": [
        {
          "internalType": "bool",
          "name": "",
          "type": "bool"
        }
      ],
      "stateMutability": "view",
      "type": "function"
    },
    {
      "inputs": [
        {
          "internalType": "uint64",
          "name": "resourceId",
          "type": "uint64"
        }
      ],
      "name": "isTokenEnumeratedResource",
      "outputs": [
        {
          "internalType": "bool",
          "name": "",
          "type": "bool"
        }
      ],
      "stateMutability": "view",
      "type": "function"
    },
    {
      "inputs": [],
      "name": "maxSupply",
      "outputs": [
        {
          "internalType": "uint256",
          "name": "",
          "type": "uint256"
        }
      ],
      "stateMutability": "view",
      "type": "function"
    },
    {
      "inputs": [
        {
          "internalType": "address",
          "name": "to",
          "type": "address"
        },
        {
          "internalType": "uint256",
          "name": "numToMint",
          "type": "uint256"
        }
      ],
      "name": "mint",
      "outputs": [],
      "stateMutability": "payable",
      "type": "function"
    },
    {
      "inputs": [
        {
          "internalType": "address",
          "name": "to",
          "type": "address"
        },
        {
          "internalType": "uint256",
          "name": "numToMint",
          "type": "uint256"
        },
        {
          "internalType": "uint256",
          "name": "destinationId",
          "type": "uint256"
        }
      ],
      "name": "mintNesting",
      "outputs": [],
      "stateMutability": "payable",
      "type": "function"
    },
    {
      "inputs": [],
      "name": "name",
      "outputs": [
        {
          "internalType": "string",
          "name": "",
          "type": "string"
        }
      ],
      "stateMutability": "view",
      "type": "function"
    },
    {
      "inputs": [
        {
          "internalType": "address",
          "name": "to",
          "type": "address"
        },
        {
          "internalType": "uint256",
          "name": "tokenId",
          "type": "uint256"
        },
        {
          "internalType": "uint256",
          "name": "destinationId",
          "type": "uint256"
        }
      ],
      "name": "nestTransfer",
      "outputs": [],
      "stateMutability": "nonpayable",
      "type": "function"
    },
    {
      "inputs": [
        {
          "internalType": "address",
          "name": "",
          "type": "address"
        },
        {
          "internalType": "address",
          "name": "",
          "type": "address"
        },
        {
          "internalType": "uint256",
          "name": "",
          "type": "uint256"
        },
        {
          "internalType": "bytes",
          "name": "",
          "type": "bytes"
        }
      ],
      "name": "onRMRKNestingReceived",
      "outputs": [
        {
          "internalType": "bytes4",
          "name": "",
          "type": "bytes4"
        }
      ],
      "stateMutability": "pure",
      "type": "function"
    },
    {
      "inputs": [],
      "name": "owner",
      "outputs": [
        {
          "internalType": "address",
          "name": "",
          "type": "address"
        }
      ],
      "stateMutability": "view",
      "type": "function"
    },
    {
      "inputs": [
        {
          "internalType": "uint256",
          "name": "tokenId",
          "type": "uint256"
        }
      ],
      "name": "ownerOf",
      "outputs": [
        {
          "internalType": "address",
          "name": "",
          "type": "address"
        }
      ],
      "stateMutability": "view",
      "type": "function"
    },
    {
      "inputs": [
        {
          "internalType": "uint256",
          "name": "parentTokenId",
          "type": "uint256"
        },
        {
          "internalType": "uint256",
          "name": "index",
          "type": "uint256"
        }
      ],
      "name": "pendingChildOf",
      "outputs": [
        {
          "components": [
            {
              "internalType": "uint256",
              "name": "tokenId",
              "type": "uint256"
            },
            {
              "internalType": "address",
              "name": "contractAddress",
              "type": "address"
            }
          ],
          "internalType": "struct IRMRKNesting.Child",
          "name": "",
          "type": "tuple"
        }
      ],
      "stateMutability": "view",
      "type": "function"
    },
    {
      "inputs": [
        {
          "internalType": "uint256",
          "name": "parentTokenId",
          "type": "uint256"
        }
      ],
      "name": "pendingChildrenOf",
      "outputs": [
        {
          "components": [
            {
              "internalType": "uint256",
              "name": "tokenId",
              "type": "uint256"
            },
            {
              "internalType": "address",
              "name": "contractAddress",
              "type": "address"
            }
          ],
          "internalType": "struct IRMRKNesting.Child[]",
          "name": "",
          "type": "tuple[]"
        }
      ],
      "stateMutability": "view",
      "type": "function"
    },
    {
      "inputs": [],
      "name": "pricePerMint",
      "outputs": [
        {
          "internalType": "uint256",
          "name": "",
          "type": "uint256"
        }
      ],
      "stateMutability": "view",
      "type": "function"
    },
    {
      "inputs": [
        {
          "internalType": "uint256",
          "name": "tokenId",
          "type": "uint256"
        }
      ],
      "name": "rejectAllChildren",
      "outputs": [],
      "stateMutability": "nonpayable",
      "type": "function"
    },
    {
      "inputs": [
        {
          "internalType": "uint256",
          "name": "tokenId",
          "type": "uint256"
        }
      ],
      "name": "rejectAllResources",
      "outputs": [],
      "stateMutability": "nonpayable",
      "type": "function"
    },
    {
      "inputs": [
        {
          "internalType": "uint256",
          "name": "tokenId",
          "type": "uint256"
        },
        {
          "internalType": "uint256",
          "name": "index",
          "type": "uint256"
        }
      ],
      "name": "rejectChild",
      "outputs": [],
      "stateMutability": "nonpayable",
      "type": "function"
    },
    {
      "inputs": [
        {
          "internalType": "uint256",
          "name": "tokenId",
          "type": "uint256"
        },
        {
          "internalType": "uint256",
          "name": "index",
          "type": "uint256"
        }
      ],
      "name": "rejectResource",
      "outputs": [],
      "stateMutability": "nonpayable",
      "type": "function"
    },
    {
      "inputs": [
        {
          "internalType": "uint256",
          "name": "tokenId",
          "type": "uint256"
        },
        {
          "internalType": "uint256",
          "name": "index",
          "type": "uint256"
        }
      ],
      "name": "removeChild",
      "outputs": [],
      "stateMutability": "nonpayable",
      "type": "function"
    },
    {
      "inputs": [],
      "name": "renounceOwnership",
      "outputs": [],
      "stateMutability": "nonpayable",
      "type": "function"
    },
    {
      "inputs": [
        {
          "internalType": "uint256",
          "name": "tokenId",
          "type": "uint256"
        }
      ],
      "name": "rmrkOwnerOf",
      "outputs": [
        {
          "internalType": "address",
          "name": "",
          "type": "address"
        },
        {
          "internalType": "uint256",
          "name": "",
          "type": "uint256"
        },
        {
          "internalType": "bool",
          "name": "",
          "type": "bool"
        }
      ],
      "stateMutability": "view",
      "type": "function"
    },
    {
      "inputs": [
        {
          "internalType": "address",
          "name": "from",
          "type": "address"
        },
        {
          "internalType": "address",
          "name": "to",
          "type": "address"
        },
        {
          "internalType": "uint256",
          "name": "tokenId",
          "type": "uint256"
        }
      ],
      "name": "safeTransferFrom",
      "outputs": [],
      "stateMutability": "nonpayable",
      "type": "function"
    },
    {
      "inputs": [
        {
          "internalType": "address",
          "name": "from",
          "type": "address"
        },
        {
          "internalType": "address",
          "name": "to",
          "type": "address"
        },
        {
          "internalType": "uint256",
          "name": "tokenId",
          "type": "uint256"
        },
        {
          "internalType": "bytes",
          "name": "data",
          "type": "bytes"
        }
      ],
      "name": "safeTransferFrom",
      "outputs": [],
      "stateMutability": "nonpayable",
      "type": "function"
    },
    {
      "inputs": [
        {
          "internalType": "address",
          "name": "from",
          "type": "address"
        },
        {
          "internalType": "address",
          "name": "to",
          "type": "address"
        },
        {
          "internalType": "uint256",
          "name": "tokenId",
          "type": "uint256"
        },
        {
          "internalType": "bytes",
          "name": "data",
          "type": "bytes"
        }
      ],
      "name": "safeTransferNestingFrom",
      "outputs": [],
      "stateMutability": "nonpayable",
      "type": "function"
    },
    {
      "inputs": [
        {
          "internalType": "address",
          "name": "from",
          "type": "address"
        },
        {
          "internalType": "address",
          "name": "to",
          "type": "address"
        },
        {
          "internalType": "uint256",
          "name": "tokenId",
          "type": "uint256"
        }
      ],
      "name": "safeTransferNestingFrom",
      "outputs": [],
      "stateMutability": "nonpayable",
      "type": "function"
    },
    {
      "inputs": [
        {
          "internalType": "address",
          "name": "operator",
          "type": "address"
        },
        {
          "internalType": "bool",
          "name": "approved",
          "type": "bool"
        }
      ],
      "name": "setApprovalForAll",
      "outputs": [],
      "stateMutability": "nonpayable",
      "type": "function"
    },
    {
      "inputs": [
        {
          "internalType": "address",
          "name": "operator",
          "type": "address"
        },
        {
          "internalType": "bool",
          "name": "approved",
          "type": "bool"
        }
      ],
      "name": "setApprovalForAllForResources",
      "outputs": [],
      "stateMutability": "nonpayable",
      "type": "function"
    },
    {
      "inputs": [
        {
          "internalType": "string",
          "name": "fallbackURI",
          "type": "string"
        }
      ],
      "name": "setFallbackURI",
      "outputs": [],
      "stateMutability": "nonpayable",
      "type": "function"
    },
    {
      "inputs": [],
      "name": "setLock",
      "outputs": [],
      "stateMutability": "nonpayable",
      "type": "function"
    },
    {
      "inputs": [
        {
          "internalType": "uint256",
          "name": "tokenId",
          "type": "uint256"
        },
        {
          "internalType": "uint16[]",
          "name": "priorities",
          "type": "uint16[]"
        }
      ],
      "name": "setPriority",
      "outputs": [],
      "stateMutability": "nonpayable",
      "type": "function"
    },
    {
      "inputs": [
        {
          "internalType": "uint64",
          "name": "resourceId",
          "type": "uint64"
        },
        {
          "internalType": "bool",
          "name": "state",
          "type": "bool"
        }
      ],
      "name": "setTokenEnumeratedResource",
      "outputs": [],
      "stateMutability": "nonpayable",
      "type": "function"
    },
    {
      "inputs": [
        {
          "internalType": "bytes4",
          "name": "interfaceId",
          "type": "bytes4"
        }
      ],
      "name": "supportsInterface",
      "outputs": [
        {
          "internalType": "bool",
          "name": "",
          "type": "bool"
        }
      ],
      "stateMutability": "view",
      "type": "function"
    },
    {
      "inputs": [],
      "name": "symbol",
      "outputs": [
        {
          "internalType": "string",
          "name": "",
          "type": "string"
        }
      ],
      "stateMutability": "view",
      "type": "function"
    },
    {
      "inputs": [
        {
          "internalType": "uint256",
          "name": "tokenId",
          "type": "uint256"
        }
      ],
      "name": "tokenURI",
      "outputs": [
        {
          "internalType": "string",
          "name": "",
          "type": "string"
        }
      ],
      "stateMutability": "view",
      "type": "function"
    },
    {
      "inputs": [
        {
          "internalType": "uint256",
          "name": "tokenId",
          "type": "uint256"
        },
        {
          "internalType": "uint256",
          "name": "index",
          "type": "uint256"
        }
      ],
      "name": "tokenURIAtIndex",
      "outputs": [
        {
          "internalType": "string",
          "name": "",
          "type": "string"
        }
      ],
      "stateMutability": "view",
      "type": "function"
    },
    {
      "inputs": [],
      "name": "totalResources",
      "outputs": [
        {
          "internalType": "uint256",
          "name": "",
          "type": "uint256"
        }
      ],
      "stateMutability": "view",
      "type": "function"
    },
    {
      "inputs": [],
      "name": "totalSupply",
      "outputs": [
        {
          "internalType": "uint256",
          "name": "",
          "type": "uint256"
        }
      ],
      "stateMutability": "view",
      "type": "function"
    },
    {
      "inputs": [
        {
          "internalType": "address",
          "name": "to",
          "type": "address"
        },
        {
          "internalType": "uint256",
          "name": "tokenId",
          "type": "uint256"
        }
      ],
      "name": "transfer",
      "outputs": [],
      "stateMutability": "nonpayable",
      "type": "function"
    },
    {
      "inputs": [
        {
          "internalType": "address",
          "name": "from",
          "type": "address"
        },
        {
          "internalType": "address",
          "name": "to",
          "type": "address"
        },
        {
          "internalType": "uint256",
          "name": "tokenId",
          "type": "uint256"
        }
      ],
      "name": "transferFrom",
      "outputs": [],
      "stateMutability": "nonpayable",
      "type": "function"
    },
    {
      "inputs": [
        {
          "internalType": "address",
          "name": "from",
          "type": "address"
        },
        {
          "internalType": "address",
          "name": "to",
          "type": "address"
        },
        {
          "internalType": "uint256",
          "name": "tokenId",
          "type": "uint256"
        },
        {
          "internalType": "uint256",
          "name": "destinationId",
          "type": "uint256"
        }
      ],
      "name": "transferFrom",
      "outputs": [],
      "stateMutability": "nonpayable",
      "type": "function"
    },
    {
      "inputs": [
        {
          "internalType": "address",
          "name": "newOwner",
          "type": "address"
        }
      ],
      "name": "transferOwnership",
      "outputs": [],
      "stateMutability": "nonpayable",
      "type": "function"
    },
    {
      "inputs": [
        {
          "internalType": "uint256",
          "name": "tokenId",
          "type": "uint256"
        },
        {
          "internalType": "uint256",
          "name": "childId",
          "type": "uint256"
        },
        {
          "internalType": "uint256",
          "name": "index",
          "type": "uint256"
        }
      ],
      "name": "unnestChild",
      "outputs": [],
      "stateMutability": "nonpayable",
      "type": "function"
    },
    {
      "inputs": [
        {
          "internalType": "uint256",
          "name": "tokenId",
          "type": "uint256"
        },
        {
          "internalType": "uint256",
          "name": "indexOnParent",
          "type": "uint256"
        }
      ],
      "name": "unnestSelf",
      "outputs": [],
      "stateMutability": "nonpayable",
      "type": "function"
    }
  ],
  "bytecode": "0x60c06040523480156200001157600080fd5b506040516200537738038062005377833981016040819052620000349162000193565b838381818181878762000047336200007e565b60809190915260a052600d6200005e83826200029c565b50600e6200006d82826200029c565b505050505050505050505062000368565b600080546001600160a01b038381166001600160a01b0319831681178455604051919092169283917f8be0079c531659141344cd1fd0a4f28419497f9722a3daafe3b4186f6b6457e09190a35050565b634e487b7160e01b600052604160045260246000fd5b600082601f830112620000f657600080fd5b81516001600160401b0380821115620001135762000113620000ce565b604051601f8301601f19908116603f011681019082821181831017156200013e576200013e620000ce565b816040528381526020925086838588010111156200015b57600080fd5b600091505b838210156200017f578582018301518183018401529082019062000160565b600093810190920192909252949350505050565b60008060008060808587031215620001aa57600080fd5b84516001600160401b0380821115620001c257600080fd5b620001d088838901620000e4565b95506020870151915080821115620001e757600080fd5b50620001f687828801620000e4565b604087015160609097015195989097509350505050565b600181811c908216806200022257607f821691505b6020821081036200024357634e487b7160e01b600052602260045260246000fd5b50919050565b601f8211156200029757600081815260208120601f850160051c81016020861015620002725750805b601f850160051c820191505b8181101562000293578281556001016200027e565b5050505b505050565b81516001600160401b03811115620002b857620002b8620000ce565b620002d081620002c984546200020d565b8462000249565b602080601f831160018114620003085760008415620002ef5750858301515b600019600386901b1c1916600185901b17855562000293565b600085815260208120601f198616915b82811015620003395788860151825594840194600190910190840162000318565b5085821015620003585787850151600019600388901b60f8161c191681555b5050505050600190811b01905550565b60805160a051614fbf620003b860003960008181610bc001528181611273015261166f015260008181610c13015281816111950152818161122001528181611591015261161c0152614fbf6000f3fe6080604052600436106104055760003560e01c80637c2d8d6b11610213578063b3556b8e11610123578063e2e286af116100ab578063ed5fd0f51161007a578063ed5fd0f514610d20578063f2fde38b14610d69578063f64669c314610d89578063fe679c6214610da9578063fe99049a14610e0557600080fd5b8063e2e286af14610c77578063e889757014610c97578063e985e9c514610cb7578063ed45ca9e14610d0057600080fd5b8063c5610a29116100f2578063c5610a2914610bb1578063c87b56dd14610be4578063d5abeb0114610c04578063daf3047714610c37578063dd6433d414610c5757600080fd5b8063b3556b8e14610b3c578063b88d4fde14610b5c578063baace33e14610b7c578063c48a424314610b9157600080fd5b806395d89b41116101a6578063a898e36411610175578063a898e36414610a50578063a8cf556414610a70578063a9059cbb14610a90578063afc523f614610ab0578063b0d59c6714610af757600080fd5b806395d89b41146109c1578063a0eaec43146109d6578063a221abf314610a03578063a22cb46514610a3057600080fd5b80638bfb4ada116101e25780638bfb4ada1461092b5780638da5cb5b1461094b57806392401eb61461096957806393026a601461097e57600080fd5b80637c2d8d6b146108ac5780637e5852d9146108cc578063891141d6146108eb57806389fe6c331461090b57600080fd5b80632f32f937116103195780636352211e116102a1578063715018a611610270578063715018a614610822578063739817dd1461083757806378816134146108575780637aba6f37146108775780637b2e40fa1461088c57600080fd5b80636352211e146107ad57806366f5a747146107cd5780636f19951c146107e257806370a082311461080257600080fd5b806340c10f19116102e857806340c10f191461070d57806342842e0e1461072057806342966c6814610740578063430c20811461076057806344ec93441461078057600080fd5b80632f32f937146106675780633049fe5b1461069457806331c57d13146106b45780633d47544a146106ed57600080fd5b8063135627cd1161039c5780631becc6e31161036b5780631becc6e3146105c7578063225beee1146105e757806323b872dd1461060757806324c6f83f14610627578063286493d51461064757600080fd5b8063135627cd1461054857806318160ddd1461057557806318249af71461059457806318881cd4146105b457600080fd5b8063095ea7b3116103d8578063095ea7b3146104c6578063096835be146104e85780630ca01bf8146105085780630cc832351461052857600080fd5b806301ffc9a71461040a5780630485c7411461043f57806306fdde031461046c578063081812fc1461048e575b600080fd5b34801561041657600080fd5b5061042a610425366004614445565b610e25565b60405190151581526020015b60405180910390f35b34801561044b57600080fd5b5061045f61045a366004614462565b610e51565b60405161043691906144f3565b34801561047857600080fd5b50610481610eef565b6040516104369190614555565b34801561049a57600080fd5b506104ae6104a9366004614462565b610f81565b6040516001600160a01b039091168152602001610436565b3480156104d257600080fd5b506104e66104e136600461457d565b610fa8565b005b3480156104f457600080fd5b506104e66105033660046145ef565b611034565b34801561051457600080fd5b506104e661052336600461470b565b611048565b34801561053457600080fd5b5061045f610543366004614462565b611093565b34801561055457600080fd5b50610568610563366004614462565b611100565b6040516104369190614753565b34801561058157600080fd5b506001545b604051908152602001610436565b3480156105a057600080fd5b506104e66105af36600461470b565b61118a565b6104e66105c236600461479b565b611193565b3480156105d357600080fd5b506104e66105e236600461479b565b61131d565b3480156105f357600080fd5b506104e66106023660046147d0565b611339565b34801561061357600080fd5b506104e66106223660046147f2565b6113c8565b34801561063357600080fd5b506104e6610642366004614462565b6113dc565b34801561065357600080fd5b506104e6610662366004614833565b61143a565b34801561067357600080fd5b506106876106823660046147d0565b611457565b60405161043691906148b2565b3480156106a057600080fd5b506104e66106af3660046147d0565b6114f5565b3480156106c057600080fd5b5061042a6106cf3660046148ee565b6001600160401b031660009081526008602052604090205460ff1690565b3480156106f957600080fd5b506104e66107083660046147d0565b611509565b6104e661071b36600461457d565b61158f565b34801561072c57600080fd5b506104e661073b3660046147f2565b611717565b34801561074c57600080fd5b506104e661075b366004614462565b611732565b34801561076c57600080fd5b5061042a61077b36600461457d565b611749565b34801561078c57600080fd5b506107a061079b366004614462565b611755565b6040516104369190614909565b3480156107b957600080fd5b506104ae6107c8366004614462565b6117d4565b3480156107d957600080fd5b50601654610586565b3480156107ee57600080fd5b506107a06107fd366004614462565b61188b565b34801561080e57600080fd5b5061058661081d366004614969565b6118fb565b34801561082e57600080fd5b506104e6611940565b34801561084357600080fd5b506104e66108523660046147d0565b611976565b34801561086357600080fd5b506104e661087236600461457d565b61198a565b34801561088357600080fd5b506104e6611a12565b34801561089857600080fd5b506104e66108a7366004614462565b611a51565b3480156108b857600080fd5b506104e66108c7366004614986565b611a64565b3480156108d857600080fd5b50600054600160a01b900460ff1661042a565b3480156108f757600080fd5b506104ae610906366004614462565b611b40565b34801561091757600080fd5b506104e66109263660046147f2565b611b67565b34801561093757600080fd5b506104e66109463660046149b2565b611b8c565b34801561095757600080fd5b506000546001600160a01b03166104ae565b34801561097557600080fd5b50610481611c89565b34801561098a57600080fd5b506104e66109993660046149f9565b6001600160401b0382166000908152600860205260409020805460ff19168215151790555050565b3480156109cd57600080fd5b50610481611c98565b3480156109e257600080fd5b506109f66109f1366004614462565b611ca7565b6040516104369190614a30565b348015610a0f57600080fd5b50610a23610a1e3660046147d0565b611d39565b6040516104369190614a71565b348015610a3c57600080fd5b506104e6610a4b366004614a84565b611d85565b348015610a5c57600080fd5b50610687610a6b3660046147d0565b611d90565b348015610a7c57600080fd5b50610a23610a8b3660046147d0565b611df2565b348015610a9c57600080fd5b506104e6610aab36600461457d565b611e12565b348015610abc57600080fd5b50610ad0610acb366004614462565b611e1d565b604080516001600160a01b0390941684526020840192909252151590820152606001610436565b348015610b0357600080fd5b50610b23610b12366004614aa2565b63b0d59c6760e01b95945050505050565b6040516001600160e01b03199091168152602001610436565b348015610b4857600080fd5b506104e6610b57366004614462565b611e9e565b348015610b6857600080fd5b506104e6610b77366004614833565b611ef7565b348015610b8857600080fd5b506109f6611f0c565b348015610b9d57600080fd5b506104e6610bac366004614b40565b611f95565b348015610bbd57600080fd5b507f0000000000000000000000000000000000000000000000000000000000000000610586565b348015610bf057600080fd5b50610481610bff366004614462565b611fd2565b348015610c1057600080fd5b507f0000000000000000000000000000000000000000000000000000000000000000610586565b348015610c4357600080fd5b50610481610c523660046147d0565b611fdf565b348015610c6357600080fd5b506104e6610c723660046147d0565b611feb565b348015610c8357600080fd5b50610a23610c923660046148ee565b611fff565b348015610ca357600080fd5b506104e6610cb2366004614a84565b6120f9565b348015610cc357600080fd5b5061042a610cd2366004614b7c565b6001600160a01b03918216600090815260126020908152604080832093909416825291909152205460ff1690565b348015610d0c57600080fd5b506104e6610d1b3660046147d0565b61212e565b348015610d2c57600080fd5b5061042a610d3b366004614b7c565b6001600160a01b039182166000908152600c6020908152604080832093909416825291909152205460ff1690565b348015610d7557600080fd5b506104e6610d84366004614969565b612255565b348015610d9557600080fd5b506109f6610da4366004614462565b6122ed565b348015610db557600080fd5b50610ded610dc4366004614baa565b60009182526003602090815260408084206001600160401b039384168552909152909120541690565b6040516001600160401b039091168152602001610436565b348015610e1157600080fd5b506104e6610e20366004614bd6565b612356565b6000610e308261236c565b80610e4b57506001600160e01b03198216632ed6cc6560e21b145b92915050565b6000818152600760209081526040808320805482518185028101850190935280835260609493830182828015610ed857602002820191906000526020600020906000905b82829054906101000a90046001600160401b03166001600160401b031681526020019060080190602082600701049283019260010382029150808411610e955790505b50505050509050610ee881612391565b9392505050565b6060600d8054610efe90614c1c565b80601f0160208091040260200160405190810160405280929190818152602001828054610f2a90614c1c565b8015610f775780601f10610f4c57610100808354040283529160200191610f77565b820191906000526020600020905b815481529060010190602001808311610f5a57829003601f168201915b5050505050905090565b6000610f8c82612453565b506000908152601160205260409020546001600160a01b031690565b6000610fb3826117d4565b9050806001600160a01b0316836001600160a01b031603610fe757604051630591db6d60e01b815260040160405180910390fd5b336001600160a01b0382161480159061100757506110058133610cd2565b155b1561102557604051634c12315960e11b815260040160405180910390fd5b61102f838361245c565b505050565b8161103e816124ca565b61102f83836124f1565b6000546001600160a01b0316331461107b5760405162461bcd60e51b815260040161107290614c56565b60405180910390fd5b60168054600101908190556110909082612571565b50565b6000818152600460209081526040808320805482518185028101850190935280835260609493830182828015610ed857600091825260209182902080546001600160401b03168452908202830192909160089101808411610e9557905050505050509050610ee881612391565b60008181526005602090815260409182902080548351818402810184019094528084526060939283018282801561117e57602002820191906000526020600020906000905b82829054906101000a900461ffff1661ffff16815260200190600201906020826001010492830192600103820291508084116111455790505b50505050509050919050565b6110908161268d565b7f0000000000000000000000000000000000000000000000000000000000000000600154106111d557604051635e91cdfb60e11b815260040160405180910390fd5b600054600160a01b900460ff16156112005760405163ed1fa96f60e01b815260040160405180910390fd5b8161121e5760405163376bec4d60e01b815260040160405180910390fd5b7f00000000000000000000000000000000000000000000000000000000000000006001548361124d9190614ca1565b111561126c57604051635e91cdfb60e11b815260040160405180910390fd5b60006112987f000000000000000000000000000000000000000000000000000000000000000084614cb4565b90503481146112ba5760405163f2ffecad60e01b815260040160405180910390fd5b600060015460016112cb9190614ca1565b905083600160008282546112df9190614ca1565b9091555050600180546000916112f59190614ca1565b9050815b818110156113145761130c878287612699565b6001016112f9565b50505050505050565b81611327816126b4565b611333338585856126db565b50505050565b81611343816126b4565b60008381526014602052604090205482106113715760405163653e642560e11b815260040160405180910390fd5b60008381526014602052604090206113899083612872565b60408051848152602081018490527f6964a1de3204f1b98fd6e17a4adb61ff7374b6e10e6890edbf6620c28c6cdff691015b60405180910390a1505050565b6113d1816126b4565b61102f838383612939565b60006113e782611e1d565b505090506113f23390565b6001600160a01b0316816001600160a01b031614611423576040516304a959d760e51b815260040160405180910390fd5b600061142e836117d4565b905061102f8382612a6c565b81611444816126b4565b61145085858585612c0f565b5050505050565b604080518082019091526000808252602082015260008381526014602052604090205482106114995760405163653e642560e11b815260040160405180910390fd5b60008381526014602052604081208054849081106114b9576114b9614cd3565b60009182526020918290206040805180820190915260029092020180548252600101546001600160a01b03169181019190915291505092915050565b816114ff816126b4565b61102f8383612c43565b81611513816126b4565b60008381526015602052604090205482106115415760405163da22687f60e01b815260040160405180910390fd5b60008381526015602052604090206115599083612872565b60408051848152602081018490527fae03828c079c52594effa5a4748a742582fecaad46b3beb7ebf437136e68a75d91016113bb565b7f0000000000000000000000000000000000000000000000000000000000000000600154106115d157604051635e91cdfb60e11b815260040160405180910390fd5b600054600160a01b900460ff16156115fc5760405163ed1fa96f60e01b815260040160405180910390fd5b8061161a5760405163376bec4d60e01b815260040160405180910390fd5b7f0000000000000000000000000000000000000000000000000000000000000000600154826116499190614ca1565b111561166857604051635e91cdfb60e11b815260040160405180910390fd5b60006116947f000000000000000000000000000000000000000000000000000000000000000083614cb4565b90503481146116b65760405163f2ffecad60e01b815260040160405180910390fd5b600060015460016116c79190614ca1565b905082600160008282546116db9190614ca1565b9091555050600180546000916116f19190614ca1565b9050815b8181101561170f576117078682612e16565b6001016116f5565b505050505050565b61102f83838360405180602001604052806000815250611ef7565b8061173c816126b4565b61174582612e30565b5050565b6000610ee88383612e47565b6000818152601560209081526040808320805482518185028101850190935280835260609493849084015b828210156117c85760008481526020908190206040805180820190915260028502909101805482526001908101546001600160a01b0316828401529083529092019101611780565b50929695505050505050565b6000806000806117e385611e1d565b925092509250801561185b576040516331a9108f60e11b8152600481018390526001600160a01b03841690636352211e90602401602060405180830381865afa158015611834573d6000803e3d6000fd5b505050506040513d601f19601f820116820180604052508101906118589190614ce9565b92505b6001600160a01b0383166118825760405163089ba7e160e41b815260040160405180910390fd5b50909392505050565b60008181526014602090815260408083208054825181850281018501909352808352606094938490840182156117c85760008481526020908190206040805180820190915260028502909101805482526001908101546001600160a01b0316828401529083529092019101611780565b60006001600160a01b03821661192457604051633bb9143360e11b815260040160405180910390fd5b506001600160a01b031660009081526010602052604090205490565b6000546001600160a01b0316331461196a5760405162461bcd60e51b815260040161107290614c56565b6119746000612ec5565b565b81611980816124ca565b61102f8383612f15565b6000611995826117d4565b9050806001600160a01b0316836001600160a01b0316036119c957604051639efa161160e01b815260040160405180910390fd5b336001600160a01b038216148015906119e957506119e78133610d3b565b155b15611a0757604051635d84267760e11b815260040160405180910390fd5b61102f818484613113565b6000546001600160a01b03163314611a3c5760405162461bcd60e51b815260040161107290614c56565b6000805460ff60a01b1916600160a01b179055565b80611a5b816124ca565b6117458261316f565b6000838152601460205260409020548110611a925760405163653e642560e11b815260040160405180910390fd5b6000838152601460205260408120805483908110611ab257611ab2614cd3565b60009182526020918290206040805180820190915260029092020180548083526001909101546001600160a01b03169282019290925291508314611b0957604051632df38b6b60e21b815260040160405180910390fd5b60208101516001600160a01b03163314611b3657604051634bf5323760e01b815260040160405180910390fd5b611333848361324c565b6000611b4b82612453565b506000908152600b60205260409020546001600160a01b031690565b80611b71816126b4565b61133384848460405180602001604052806000815250612c0f565b6040516357e291fb60e11b81526004810183905281906000906001600160a01b0383169063afc523f690602401606060405180830381865afa158015611bd6573d6000803e3d6000fd5b505050506040513d601f19601f82011682018060405250810190611bfa9190614d06565b50909150506001600160a01b0381163014611c2857604051637df7fbc360e01b815260040160405180910390fd5b604080518082019091528481526001600160a01b0384166020820152611c4e868261329a565b6040518681527fdafa86bf6eb93de96192c26c195c1c92ebfcbaf89db02fb6a29cb9ad9e6cc5329060200160405180910390a1505050505050565b6060600a8054610efe90614c1c565b6060600e8054610efe90614c1c565b60008181526004602090815260409182902080548351818402810184019094528084526060939283018282801561117e57602002820191906000526020600020906000905b82829054906101000a90046001600160401b03166001600160401b031681526020019060080190602082600701049283019260010382029150808411611cec575094979650505050505050565b6040805180820190915260008152606060208201526000611d59846122ed565b8381518110611d6a57611d6a614cd3565b60200260200101519050611d7d81611fff565b949350505050565b611745338383613319565b60408051808201909152600080825260208201526000838152601560205260409020548210611dd25760405163da22687f60e01b815260040160405180910390fd5b60008381526015602052604081208054849081106114b9576114b9614cd3565b6040805180820190915260008152606060208201526000611d5984611ca7565b6117453383836113c8565b60008181526013602090815260408083208151606081018352815481526001909101546001600160a01b038116938201849052600160a01b900460ff161515918101919091528291829190611e855760405163089ba7e160e41b815260040160405180910390fd5b6020810151815160409092015190969195509350915050565b80611ea8816126b4565b6000828152601560205260408120611ebf91614304565b6040518281527f45ff729c59036a15df911ae25faf1e09e866ced1fcbc5333b29eb8e4d8c71c67906020015b60405180910390a15050565b611f00826126b4565b611333848484846133b9565b60606009805480602002602001604051908101604052809291908181526020018280548015610f7757602002820191906000526020600020906000905b82829054906101000a90046001600160401b03166001600160401b031681526020019060080190602082600701049283019260010382029150808411611f495790505050505050905090565b6000611fa0846117d4565b6001600160a01b031603611fc75760405163089ba7e160e41b815260040160405180910390fd5b61102f8383836133ed565b6060610e4b8260006135c0565b6060610ee883836135c0565b81611ff5816124ca565b61102f838361374b565b6040805180820190915260008152606060208201526001600160401b0382166000908152600260205260408120805461203790614c1c565b80601f016020809104026020016040519081016040528092919081815260200182805461206390614c1c565b80156120b05780601f10612085576101008083540402835291602001916120b0565b820191906000526020600020905b81548152906001019060200180831161209357829003601f168201915b5050505050905080516000036120d9576040516348e2e83760e01b815260040160405180910390fd5b604080518082019091526001600160401b03909316835260208301525090565b336001600160a01b03831681036121235760405163353c229360e11b815260040160405180910390fd5b61102f818484613856565b81612138816126b4565b60008381526015602052604090205482106121665760405163da22687f60e01b815260040160405180910390fd5b600083815260156020526040812080548490811061218657612186614cd3565b60009182526020808320604080518082018252600290940290910180548452600101546001600160a01b03168383015287845260159091529091209091506121ce9084612872565b6000848152601460209081526040822080546001808201835591845292829020845160029094020192835590830151910180546001600160a01b0319166001600160a01b039092169190911790556040518481527f03e53bd97b9cb7f51f782864c91d625a992c0b980750b00d6eb1d7b4956210a29060200160405180910390a150505050565b6000546001600160a01b0316331461227f5760405162461bcd60e51b815260040161107290614c56565b6001600160a01b0381166122e45760405162461bcd60e51b815260206004820152602660248201527f4f776e61626c653a206e6577206f776e657220697320746865207a65726f206160448201526564647265737360d01b6064820152608401611072565b61109081612ec5565b60008181526007602090815260409182902080548351818402810184019094528084526060939283018282801561117e57600091825260209182902080546001600160401b03168452908202830192909160089101808411611cec575094979650505050505050565b81612360816126b4565b611450858585856126db565b60006001600160e01b031982166371c8af0360e01b1480610e4b5750610e4b826138bb565b80516060906000816001600160401b038111156123b0576123b06145a9565b6040519080825280602002602001820160405280156123f657816020015b6040805180820190915260008152606060208201528152602001906001900390816123ce5790505b50905060005b8281101561244b5761242685828151811061241957612419614cd3565b6020026020010151611fff565b82828151811061243857612438614cd3565b60209081029190910101526001016123fc565b509392505050565b6110908161390b565b600081815260116020526040902080546001600160a01b0319166001600160a01b0384169081179091558190612491826117d4565b6001600160a01b03167f8c5be1e5ebec7d5bd14f71427d1e84f3dd0314c0f7b2291e5b200ac8c7c3b92560405160405180910390a45050565b6124d43382613931565b6110905760405163eabb6dd760e01b815260040160405180910390fd5b8051600083815260046020526040902054811461252157604051633581be1d60e11b815260040160405180910390fd5b6000838152600560209081526040909120835161254092850190614325565b5060405183907f50a12ecfcaf26b91454fd23edbcf04185b68d6e8c7edc4e35d14392889cdf79590600090a2505050565b6001600160401b0382166125985760405163280d806360e01b815260040160405180910390fd5b6001600160401b038216600090815260026020526040812080546125bb90614c1c565b905011156125dc57604051633348dd1d60e01b815260040160405180910390fd5b6001600160401b03821660009081526002602052604090206125fe8282614d84565b5060098054600181018255600091909152600481047f6e1540171b6c0c960b71a7020d9f60077f6af931a8bbf590da0223dacf75c7af0180546001600160401b0385811660086003909516949094026101000a8481029102199091161790556040519081527f8a5ccfca4023cda4a0a59a1bb73783f6b3ba77465537d0c8f2bef5eb2511552a90602001611eeb565b600a6117458282614d84565b61102f8383836040518060200160405280600081525061399d565b6126be3382612e47565b611090576040516302728a9d60e41b815260040160405180910390fd5b836001600160a01b03166126ee836117d4565b6001600160a01b0316146127155760405163e146af6f60e01b815260040160405180910390fd5b600082815260136020526040902060010154600160a01b900460ff161561274f5760405163cb1ff0c160e01b815260040160405180910390fd5b6001600160a01b038316612776576040516338f646ff60e21b815260040160405180910390fd5b6001600160a01b0383163b61279e5760405163b9d3114760e01b815260040160405180910390fd5b6040516301ffc9a760e01b81526371c8af0360e01b60048201526001600160a01b038416906301ffc9a790602401602060405180830381865afa1580156127e9573d6000803e3d6000fd5b505050506040513d601f19601f8201168201806040525081019061280d9190614e43565b61282a57604051636464a3e360e11b815260040160405180910390fd5b6001600160a01b0384166000908152601060205260408120805460019290612853908490614e60565b90915550612866905082828560016139d2565b61133382828686613a4e565b8154811061287f57600080fd5b8154829061288f90600190614e60565b8154811061289f5761289f614cd3565b90600052602060002090600202018282815481106128bf576128bf614cd3565b600091825260209091208254600290920201908155600191820154910180546001600160a01b0319166001600160a01b03909216919091179055815482908061290a5761290a614e73565b60008281526020812060026000199093019283020190815560010180546001600160a01b031916905590555050565b826001600160a01b031661294c826117d4565b6001600160a01b0316146129735760405163e146af6f60e01b815260040160405180910390fd5b6001600160a01b03821661299a576040516338f646ff60e21b815260040160405180910390fd5b600081815260136020526040902060010154600160a01b900460ff16156129d45760405163cb1ff0c160e01b815260040160405180910390fd5b6001600160a01b03831660009081526010602052604081208054600192906129fd908490614e60565b90915550612a10905081600084816139d2565b6001600160a01b0382166000908152601060205260408120805460019290612a39908490614ca1565b909155505060405181906001600160a01b038085169190861690600080516020614f6a83398151915290600090a4505050565b612a7760008361245c565b612a82600083613b8a565b6001600160a01b0381166000908152601060205260408120805460019290612aab908490614e60565b9091555060009050612abc8361188b565b805190915060005b81811015612b7d576000838281518110612ae057612ae0614cd3565b60200260200101516020015190506000848381518110612b0257612b02614cd3565b6020026020010151600001519050816001600160a01b03166324c6f83f826040518263ffffffff1660e01b8152600401612b3e91815260200190565b600060405180830381600087803b158015612b5857600080fd5b505af1158015612b6c573d6000803e3d6000fd5b505050508260010192505050612ac4565b50600084815260136020908152604080832083815560010180546001600160a81b031916905560159091528120612bb391614304565b6000848152601460205260408120612bca91614304565b60008481526011602052604080822080546001600160a01b0319169055518591906001600160a01b03861690600080516020614f6a833981519152908390a450505050565b612c1a848484612939565b612c2684848484613b96565b61133357604051636464a3e360e11b815260040160405180910390fd5b6000828152601360209081526040918290208251606081018452815481526001909101546001600160a01b038116928201839052600160a01b900460ff16151592810192909252612ca75760405163fc3c6af160e01b815260040160405180910390fd5b8060400151612cc95760405163715f683f60e11b815260040160405180910390fd5b602081015181516040516331a9108f60e11b815260048101919091526000916001600160a01b031690636352211e90602401602060405180830381865afa158015612d18573d6000803e3d6000fd5b505050506040513d601f19601f82011682018060405250810190612d3c9190614ce9565b6040805160608101825260008082526001600160a01b0380851660208085019182528486018481528b85526013825293869020945185559051600194909401805493511515600160a01b026001600160a81b0319909416948316949094179290921790925585015185519251637c2d8d6b60e01b81529394501691637c2d8d6b91612dde91889088906004019283526020830191909152604082015260600190565b600060405180830381600087803b158015612df857600080fd5b505af1158015612e0c573d6000803e3d6000fd5b5050505050505050565b611745828260405180602001604052806000815250613c89565b6000612e3b826117d4565b90506117458282612a6c565b600080612e53836117d4565b9050806001600160a01b0316846001600160a01b03161480612e9a57506001600160a01b0380821660009081526012602090815260408083209388168352929052205460ff165b80611d7d5750836001600160a01b0316612eb384610f81565b6001600160a01b031614949350505050565b600080546001600160a01b038381166001600160a01b0319831681178455604051919092169283917f8be0079c531659141344cd1fd0a4f28419497f9722a3daafe3b4186f6b6457e09190a35050565b6000828152600760205260409020548110612f4357604051630757d52160e01b815260040160405180910390fd5b6000828152600760205260408120805483908110612f6357612f63614cd3565b600091825260208083206004830401548684526007909152604090922060039091166008026101000a9091046001600160401b03169150612fa49083613cbd565b60008381526003602090815260408083206001600160401b038086168552925290912054168015613057576000848152600460205260409020612fe79082613da3565b6040516001600160401b038216815284907f0c3ab9436ca1f55688a28969e7eac425945dded8cc4acf7f4e738cfa6fa1657c9060200160405180910390a260008481526003602090815260408083206001600160401b03861684529091529020805467ffffffffffffffff191690555b60008481526004602081815260408084208054600180820183559186528386209481049094018054600390951660080261010090810a6001600160401b0381810219909716968a1690810296909617909155898652600584528286208054928301815586529483902060108204018054600f90921660020290950a61ffff021916909355915190815285917f51e9958189f528b912f96508d6a4b68583858166eda14d580dfbd24e9a79dfdb910160405180910390a250505050565b6000818152600b602052604080822080546001600160a01b0319166001600160a01b0386811691821790925591518493918716917fa98c62723e75b26c5e5710fb12b5bf7712e6926f6dc932de622e715553f5149191a4505050565b600081815260076020526040812054905b818110156131fa5760008381526007602052604081208054839081106131a8576131a8614cd3565b6000918252602080832060048304015487845260038083526040808620919094166008026101000a9091046001600160401b0316845290529020805467ffffffffffffffff1916905550600101613180565b506000828152600760205260408120613212916143ce565b6040516000815282907f8d0cdca57de6b2fb4babd8b68c83db0b0981610d338eb68eea1f4b1e1d78dc1c9060200160405180910390a25050565b60008281526014602052604090206132649082612872565b60408051838152602081018390527f241c7ca16796e41b08b8f4535acd6360c73187f01a9e85194ee35f1466578c299101611eeb565b600082815260156020526040902054608011156133005760009182526015602090815260408320805460018082018355918552938290208351600290950201938455910151910180546001600160a01b0319166001600160a01b03909216919091179055565b60405163a53c8c0560e01b815260040160405180910390fd5b816001600160a01b0316836001600160a01b03160361334b57604051630b7b99b960e21b815260040160405180910390fd5b6001600160a01b03838116600081815260126020908152604080832094871680845294825291829020805460ff191686151590811790915591519182527f17307eab39ab6107e8899845ad3d59bd9653f200f220920489ca2b5937696c3191015b60405180910390a3505050565b6133c4848484612939565b6133d084848484613e81565b6113335760405163bcb5663760e01b815260040160405180910390fd5b60008381526006602090815260408083206001600160401b038616845290915290205460ff161561343157604051633348dd1d60e01b815260040160405180910390fd5b600061343c83611fff565b516001600160401b03160361346457604051630f8f451560e01b815260040160405180910390fd5b6000838152600760205260409020546080116134935760405163dfaea09b60e01b815260040160405180910390fd5b60008381526006602090815260408083206001600160401b038681168086529184528285208054600160ff19909116811790915588865260078552928520805493840181558552929093206004820401805460039092166008026101000a80840219909216919093021790915581161561357c5760008381526003602090815260408083206001600160401b0386811680865291845293829020805467ffffffffffffffff1916948616948517905581519081529182019290925284917fe76caab2912f68cd628bc085e006c86b8a478d13be698638b0c533030d120b4e910160405180910390a25b6040516001600160401b038316815283907ffc4d0a03f3026d7ce3427493c9289ea9768a6edd425e854cea7600d244ecc2c3906020015b60405180910390a2505050565b6000828152600460205260409020546060908210156136b95760008381526004602052604081208054849081106135f9576135f9614cd3565b90600052602060002090600491828204019190066008029054906101000a90046001600160401b031690506060600061363183611fff565b6001600160401b03841660009081526008602052604090205490915060ff1661366057806020015191506136af565b6020810151805161368057604051806020016040528060008152506136ab565b8061368a88613f70565b60405160200161369b929190614e89565b6040516020818303038152906040525b9250505b509150610e4b9050565b600a80546136c690614c1c565b80601f01602080910402602001604051908101604052809291908181526020018280546136f290614c1c565b801561373f5780601f106137145761010080835404028352916020019161373f565b820191906000526020600020905b81548152906001019060200180831161372257829003601f168201915b50505050509050610e4b565b600082815260076020526040902054811061377957604051630757d52160e01b815260040160405180910390fd5b600082815260076020526040812080548390811061379957613799614cd3565b600091825260208083206004830401548684526007909152604090922060039091166008026101000a9091046001600160401b031691506137da9083613cbd565b60008381526006602090815260408083206001600160401b038516808552908352818420805460ff1916905586845260038352818420818552835292819020805467ffffffffffffffff191690555191825284917f8d0cdca57de6b2fb4babd8b68c83db0b0981610d338eb68eea1f4b1e1d78dc1c91016135b3565b6001600160a01b038381166000818152600c6020908152604080832094871680845294825291829020805460ff191686151590811790915591519182527f9c03d4f9a8db6d81765cbe2097e83f44253564fbf3c1adfb09a8067464ad3f4b91016133ac565b60006001600160e01b031982166380ac58cd60e01b14806138ec57506001600160e01b03198216635b5e139f60e01b145b80610e4b57506301ffc9a760e01b6001600160e01b0319831614610e4b565b61391481614070565b6110905760405163089ba7e160e41b815260040160405180910390fd5b60008061393d836117d4565b9050806001600160a01b0316846001600160a01b0316148061398457506001600160a01b038082166000908152600c602090815260408083209388168352929052205460ff165b80611d7d5750836001600160a01b0316612eb384611b40565b6139a8848484614092565b6139b56000858584613b96565b61133357604051631cc5525760e31b815260040160405180910390fd5b604080516060810182528481526001600160a01b03808516602080840191825285151584860190815260008a815260139092529481209351845590516001909301805494511515600160a01b026001600160a81b0319909516939092169290921792909217909155613a44908561245c565b6113338285613b8a565b6040516331a9108f60e11b81526004810184905281906000906001600160a01b03831690636352211e90602401602060405180830381865afa158015613a98573d6000803e3d6000fd5b505050506040513d601f19601f82011682018060405250810190613abc9190614ce9565b6001600160a01b03811660009081526010602052604081208054929350600192909190613aea908490614ca1565b90915550506040516345fda56d60e11b815260048101869052602481018790523060448201526001600160a01b03831690638bfb4ada90606401600060405180830381600087803b158015613b3e57600080fd5b505af1158015613b52573d6000803e3d6000fd5b5050505085836001600160a01b0316856001600160a01b0316600080516020614f6a83398151915260405160405180910390a461170f565b61174582600083613113565b60006001600160a01b0384163b15613c7e5760405163b0d59c6760e01b81526001600160a01b0385169063b0d59c6790613bda903390899088908890600401614eb8565b6020604051808303816000875af1925050508015613c15575060408051601f3d908101601f19168201909252613c1291810190614ef5565b60015b613c64573d808015613c43576040519150601f19603f3d011682016040523d82523d6000602084013e613c48565b606091505b508051600003613c5c576000915050611d7d565b805181602001fd5b6001600160e01b03191663b0d59c6760e01b149050611d7d565b506001949350505050565b613c938383614208565b613ca06000848484613e81565b61102f5760405163bcb5663760e01b815260040160405180910390fd5b81548110613cca57600080fd5b81548290613cda90600190614e60565b81548110613cea57613cea614cd3565b90600052602060002090600491828204019190066008029054906101000a90046001600160401b0316828281548110613d2557613d25614cd3565b90600052602060002090600491828204019190066008026101000a8154816001600160401b0302191690836001600160401b0316021790555081805480613d6e57613d6e614e73565b60008281526020902060046000199092019182040180546001600160401b03600860038516026101000a021916905590555050565b600082805480602002602001604051908101604052809291908181526020018280548015613e2257602002820191906000526020600020906000905b82829054906101000a90046001600160401b03166001600160401b031681526020019060080190602082600701049283019260010382029150808411613ddf5790505b505083519394506000925050505b8181101561145057836001600160401b0316838281518110613e5457613e54614cd3565b60200260200101516001600160401b031603613e7957613e748582613cbd565b611450565b600101613e30565b60006001600160a01b0384163b15613c7e57604051630a85bd0160e11b81526001600160a01b0385169063150b7a0290613ec5903390899088908890600401614eb8565b6020604051808303816000875af1925050508015613f00575060408051601f3d908101601f19168201909252613efd91810190614ef5565b60015b613f56573d808015613f2e576040519150601f19603f3d011682016040523d82523d6000602084013e613f33565b606091505b508051600003613c5c5760405163bcb5663760e01b815260040160405180910390fd5b6001600160e01b031916630a85bd0160e11b149050611d7d565b606081600003613f975750506040805180820190915260018152600360fc1b602082015290565b8160005b8115613fc15780613fab81614f12565b9150613fba9050600a83614f41565b9150613f9b565b6000816001600160401b03811115613fdb57613fdb6145a9565b6040519080825280601f01601f191660200182016040528015614005576020820181803683370190505b5090505b8415611d7d5761401a600183614e60565b9150614027600a86614f55565b614032906030614ca1565b60f81b81838151811061404757614047614cd3565b60200101906001600160f81b031916908160001a905350614069600a86614f41565b9450614009565b6000818152601360205260408120600101546001600160a01b03161515610e4b565b6001600160a01b0383166140b9576040516325bd6bd360e01b815260040160405180910390fd5b6140c282614070565b156140e05760405163c5a8d37160e01b815260040160405180910390fd5b6001600160a01b0383163b6141085760405163b9d3114760e01b815260040160405180910390fd5b6040516301ffc9a760e01b81526371c8af0360e01b60048201526001600160a01b038416906301ffc9a790602401602060405180830381865afa158015614153573d6000803e3d6000fd5b505050506040513d601f19601f820116820180604052508101906141779190614e43565b61419457604051631cc5525760e31b815260040160405180910390fd5b604080516060810182528281526001600160a01b03808616602080840191825260018486018181526000898152601390935295822094518555915193909101805494511515600160a01b026001600160a81b031990951693909216929092179290921790915561102f908390839086613a4e565b6001600160a01b03821661422f576040516325bd6bd360e01b815260040160405180910390fd5b61423881614070565b156142565760405163c5a8d37160e01b815260040160405180910390fd5b6001600160a01b038216600090815260106020526040812080546001929061427f908490614ca1565b90915550506040805160608101825260008082526001600160a01b03808616602080850182815285870185815288865260139092528685209551865551600195909501805491511515600160a01b026001600160a81b031990921695909316949094179390931790559151839290600080516020614f6a833981519152908290a45050565b508054600082556002029060005260206000209081019061109091906143f3565b82805482825590600052602060002090600f016010900481019282156143be5791602002820160005b8382111561438e57835183826101000a81548161ffff021916908361ffff160217905550926020019260020160208160010104928301926001030261434e565b80156143bc5782816101000a81549061ffff021916905560020160208160010104928301926001030261438e565b505b506143ca92915061441a565b5090565b508054600082556003016004900490600052602060002090810190611090919061441a565b5b808211156143ca57600081556001810180546001600160a01b03191690556002016143f4565b5b808211156143ca576000815560010161441b565b6001600160e01b03198116811461109057600080fd5b60006020828403121561445757600080fd5b8135610ee88161442f565b60006020828403121561447457600080fd5b5035919050565b60005b8381101561449657818101518382015260200161447e565b50506000910152565b600081518084526144b781602086016020860161447b565b601f01601f19169290920160200192915050565b6001600160401b0381511682526000602082015160406020850152611d7d604085018261449f565b6000602080830181845280855180835260408601915060408160051b870101925083870160005b8281101561454857603f198886030184526145368583516144cb565b9450928501929085019060010161451a565b5092979650505050505050565b602081526000610ee8602083018461449f565b6001600160a01b038116811461109057600080fd5b6000806040838503121561459057600080fd5b823561459b81614568565b946020939093013593505050565b634e487b7160e01b600052604160045260246000fd5b604051601f8201601f191681016001600160401b03811182821017156145e7576145e76145a9565b604052919050565b6000806040838503121561460257600080fd5b823591506020808401356001600160401b038082111561462157600080fd5b818601915086601f83011261463557600080fd5b813581811115614647576146476145a9565b8060051b91506146588483016145bf565b818152918301840191848101908984111561467257600080fd5b938501935b838510156146a4578435925061ffff831683146146945760008081fd5b8282529385019390850190614677565b8096505050505050509250929050565b60006001600160401b038311156146cd576146cd6145a9565b6146e0601f8401601f19166020016145bf565b90508281528383830111156146f457600080fd5b828260208301376000602084830101529392505050565b60006020828403121561471d57600080fd5b81356001600160401b0381111561473357600080fd5b8201601f8101841361474457600080fd5b611d7d848235602084016146b4565b6020808252825182820181905260009190848201906040850190845b8181101561478f57835161ffff168352928401929184019160010161476f565b50909695505050505050565b6000806000606084860312156147b057600080fd5b83356147bb81614568565b95602085013595506040909401359392505050565b600080604083850312156147e357600080fd5b50508035926020909101359150565b60008060006060848603121561480757600080fd5b833561481281614568565b9250602084013561482281614568565b929592945050506040919091013590565b6000806000806080858703121561484957600080fd5b843561485481614568565b9350602085013561486481614568565b92506040850135915060608501356001600160401b0381111561488657600080fd5b8501601f8101871361489757600080fd5b6148a6878235602084016146b4565b91505092959194509250565b815181526020808301516001600160a01b03169082015260408101610e4b565b80356001600160401b03811681146148e957600080fd5b919050565b60006020828403121561490057600080fd5b610ee8826148d2565b602080825282518282018190526000919060409081850190868401855b8281101561495c5761494c848351805182526020908101516001600160a01b0316910152565b9284019290850190600101614926565b5091979650505050505050565b60006020828403121561497b57600080fd5b8135610ee881614568565b60008060006060848603121561499b57600080fd5b505081359360208301359350604090920135919050565b6000806000606084860312156149c757600080fd5b833592506020840135915060408401356149e081614568565b809150509250925092565b801515811461109057600080fd5b60008060408385031215614a0c57600080fd5b614a15836148d2565b91506020830135614a25816149eb565b809150509250929050565b6020808252825182820181905260009190848201906040850190845b8181101561478f5783516001600160401b031683529284019291840191600101614a4c565b602081526000610ee860208301846144cb565b60008060408385031215614a9757600080fd5b8235614a1581614568565b600080600080600060808688031215614aba57600080fd5b8535614ac581614568565b94506020860135614ad581614568565b93506040860135925060608601356001600160401b0380821115614af857600080fd5b818801915088601f830112614b0c57600080fd5b813581811115614b1b57600080fd5b896020828501011115614b2d57600080fd5b9699959850939650602001949392505050565b600080600060608486031215614b5557600080fd5b83359250614b65602085016148d2565b9150614b73604085016148d2565b90509250925092565b60008060408385031215614b8f57600080fd5b8235614b9a81614568565b91506020830135614a2581614568565b60008060408385031215614bbd57600080fd5b82359150614bcd602084016148d2565b90509250929050565b60008060008060808587031215614bec57600080fd5b8435614bf781614568565b93506020850135614c0781614568565b93969395505050506040820135916060013590565b600181811c90821680614c3057607f821691505b602082108103614c5057634e487b7160e01b600052602260045260246000fd5b50919050565b6020808252818101527f4f776e61626c653a2063616c6c6572206973206e6f7420746865206f776e6572604082015260600190565b634e487b7160e01b600052601160045260246000fd5b80820180821115610e4b57610e4b614c8b565b6000816000190483118215151615614cce57614cce614c8b565b500290565b634e487b7160e01b600052603260045260246000fd5b600060208284031215614cfb57600080fd5b8151610ee881614568565b600080600060608486031215614d1b57600080fd5b8351614d2681614568565b6020850151604086015191945092506149e0816149eb565b601f82111561102f57600081815260208120601f850160051c81016020861015614d655750805b601f850160051c820191505b8181101561170f57828155600101614d71565b81516001600160401b03811115614d9d57614d9d6145a9565b614db181614dab8454614c1c565b84614d3e565b602080601f831160018114614de65760008415614dce5750858301515b600019600386901b1c1916600185901b17855561170f565b600085815260208120601f198616915b82811015614e1557888601518255948401946001909101908401614df6565b5085821015614e335787850151600019600388901b60f8161c191681555b5050505050600190811b01905550565b600060208284031215614e5557600080fd5b8151610ee8816149eb565b81810381811115610e4b57610e4b614c8b565b634e487b7160e01b600052603160045260246000fd5b60008351614e9b81846020880161447b565b835190830190614eaf81836020880161447b565b01949350505050565b6001600160a01b0385811682528416602082015260408101839052608060608201819052600090614eeb9083018461449f565b9695505050505050565b600060208284031215614f0757600080fd5b8151610ee88161442f565b600060018201614f2457614f24614c8b565b5060010190565b634e487b7160e01b600052601260045260246000fd5b600082614f5057614f50614f2b565b500490565b600082614f6457614f64614f2b565b50069056feddf252ad1be2c89b69c2b068fc378daa952ba7f163c4a11628f55a4df523b3efa2646970667358221220c6343244b6fab46ab932e049c83b1ee00d4ccaf62b4d99d95502597ffcc81cc764736f6c63430008100033",
  "linkReferences": {},
  "deployedLinkReferences": {}
}