{
  "_format": "hh-sol-artifact-1",
  "contractName": "RMRKMultiResourceFactory",
  "sourceName": "contracts/factory/RMRKMultiResourceFactory.sol",
  "abi": [
    {
      "anonymous": false,
      "inputs": [
        {
          "indexed": true,
          "internalType": "address",
          "name": "multiResourceContract",
          "type": "address"
        },
        {
          "indexed": true,
          "internalType": "address",
          "name": "deployer",
          "type": "address"
        }
      ],
      "name": "NewRMRKMultiResourceContract",
      "type": "event"
    },
    {
      "inputs": [
        {
          "internalType": "string",
          "name": "name",
          "type": "string"
        },
        {
          "internalType": "string",
          "name": "symbol",
          "type": "string"
        },
        {
          "internalType": "uint256",
          "name": "maxSupply",
          "type": "uint256"
        },
        {
          "internalType": "uint256",
          "name": "pricePerMint",
          "type": "uint256"
        }
      ],
      "name": "deployRMRKMultiResource",
      "outputs": [],
      "stateMutability": "nonpayable",
      "type": "function"
    },
    {
      "inputs": [],
      "name": "getCollections",
      "outputs": [
        {
          "internalType": "address[]",
          "name": "",
          "type": "address[]"
        }
      ],
      "stateMutability": "view",
      "type": "function"
    },
    {
      "inputs": [
        {
          "internalType": "uint256",
          "name": "",
          "type": "uint256"
        }
      ],
      "name": "multiResourceCollections",
      "outputs": [
        {
          "internalType": "address",
          "name": "",
          "type": "address"
        }
      ],
      "stateMutability": "view",
      "type": "function"
    }
  ],
  "bytecode": "0x608060405234801561001057600080fd5b50613b60806100206000396000f3fe608060405234801561001057600080fd5b50600436106100415760003560e01c80630f1666bd1461004657806346e635861461005b578063ea46c5f214610079575b600080fd5b6100596100543660046102f6565b6100a4565b005b6100636101ba565b604051610070919061036a565b60405180910390f35b61008c6100873660046103b7565b61021c565b6040516001600160a01b039091168152602001610070565b6000848484846040516100b690610246565b6100c39493929190610416565b604051809103906000f0801580156100df573d6000803e3d6000fd5b50600080546001810182559080527f290decd9548b62a8d60345a988386fc84ba6bc95484008f6362f93160ef3e5630180546001600160a01b0319166001600160a01b03831690811790915560405163f2fde38b60e01b81523360048201529192509063f2fde38b90602401600060405180830381600087803b15801561016557600080fd5b505af1158015610179573d6000803e3d6000fd5b50506040513392506001600160a01b03841691507fa6314d81fc08fcf1a4f4f3db71909a31bd5435f31ee6f52c19dc79d9acabd25290600090a35050505050565b6060600080548060200260200160405190810160405280929190818152602001828054801561021257602002820191906000526020600020905b81546001600160a01b031681526001909101906020018083116101f4575b5050505050905090565b6000818154811061022c57600080fd5b6000918252602090912001546001600160a01b0316905081565b6136db8061045083390190565b634e487b7160e01b600052604160045260246000fd5b600082601f83011261027a57600080fd5b813567ffffffffffffffff8082111561029557610295610253565b604051601f8301601f19908116603f011681019082821181831017156102bd576102bd610253565b816040528381528660208588010111156102d657600080fd5b836020870160208301376000602085830101528094505050505092915050565b6000806000806080858703121561030c57600080fd5b843567ffffffffffffffff8082111561032457600080fd5b61033088838901610269565b9550602087013591508082111561034657600080fd5b5061035387828801610269565b949794965050505060408301359260600135919050565b6020808252825182820181905260009190848201906040850190845b818110156103ab5783516001600160a01b031683529284019291840191600101610386565b50909695505050505050565b6000602082840312156103c957600080fd5b5035919050565b6000815180845260005b818110156103f6576020818501810151868301820152016103da565b506000602082860101526020601f19601f83011685010191505092915050565b60808152600061042960808301876103d0565b828103602084015261043b81876103d0565b60408401959095525050606001529291505056fe60c06040523480156200001157600080fd5b50604051620036db380380620036db83398101604081905262000034916200018f565b83838181858562000045336200007a565b60809190915260a05260026200005c838262000298565b5060036200006b828262000298565b50505050505050505062000364565b600080546001600160a01b038381166001600160a01b0319831681178455604051919092169283917f8be0079c531659141344cd1fd0a4f28419497f9722a3daafe3b4186f6b6457e09190a35050565b634e487b7160e01b600052604160045260246000fd5b600082601f830112620000f257600080fd5b81516001600160401b03808211156200010f576200010f620000ca565b604051601f8301601f19908116603f011681019082821181831017156200013a576200013a620000ca565b816040528381526020925086838588010111156200015757600080fd5b600091505b838210156200017b57858201830151818301840152908201906200015c565b600093810190920192909252949350505050565b60008060008060808587031215620001a657600080fd5b84516001600160401b0380821115620001be57600080fd5b620001cc88838901620000e0565b95506020870151915080821115620001e357600080fd5b50620001f287828801620000e0565b604087015160609097015195989097509350505050565b600181811c908216806200021e57607f821691505b6020821081036200023f57634e487b7160e01b600052602260045260246000fd5b50919050565b601f8211156200029357600081815260208120601f850160051c810160208610156200026e5750805b601f850160051c820191505b818110156200028f578281556001016200027a565b5050505b505050565b81516001600160401b03811115620002b457620002b4620000ca565b620002cc81620002c5845462000209565b8462000245565b602080601f831160018114620003045760008415620002eb5750858301515b600019600386901b1c1916600185901b1785556200028f565b600085815260208120601f198616915b82811015620003355788860151825594840194600190910190840162000314565b5085821015620003545787850151600019600388901b60f8161c191681555b5050505050600190811b01905550565b60805160a05161333c6200039f600039600081816107520152610e020152600081816107a501528181610d240152610daf015261333c6000f3fe6080604052600436106102935760003560e01c8063891141d61161015a578063c5610a29116100c1578063e88975701161007a578063e889757014610829578063e985e9c514610849578063ed5fd0f514610892578063f2fde38b146108db578063f64669c3146108fb578063fe679c621461091b57600080fd5b8063c5610a2914610743578063c87b56dd14610776578063d5abeb0114610796578063daf30477146107c9578063dd6433d4146107e9578063e2e286af1461080957600080fd5b8063a221abf311610113578063a221abf314610681578063a22cb465146106ae578063a8cf5564146106ce578063b88d4fde146106ee578063baace33e1461070e578063c48a42431461072357600080fd5b8063891141d6146105cc5780638da5cb5b146105ec57806392401eb61461060a57806393026a601461061f57806395d89b411461063f578063a0eaec431461065457600080fd5b806331c57d13116101fe578063715018a6116101b7578063715018a614610523578063739817dd1461053857806378816134146105585780637aba6f37146105785780637b2e40fa1461058d5780637e5852d9146105ad57600080fd5b806331c57d131461046257806340c10f191461049b57806342842e0e146104ae5780636352211e146104ce57806366f5a747146104ee57806370a082311461050357600080fd5b80630ca01bf8116102505780630ca01bf8146103965780630cc83235146103b6578063135627cd146103d657806318160ddd1461040357806318249af71461042257806323b872dd1461044257600080fd5b806301ffc9a7146102985780630485c741146102cd57806306fdde03146102fa578063081812fc1461031c578063095ea7b314610354578063096835be14610376575b600080fd5b3480156102a457600080fd5b506102b86102b3366004612a6e565b610977565b60405190151581526020015b60405180910390f35b3480156102d957600080fd5b506102ed6102e8366004612a8b565b6109a2565b6040516102c49190612b1c565b34801561030657600080fd5b5061030f610a40565b6040516102c49190612b7e565b34801561032857600080fd5b5061033c610337366004612a8b565b610ad2565b6040516001600160a01b0390911681526020016102c4565b34801561036057600080fd5b5061037461036f366004612bad565b610af9565b005b34801561038257600080fd5b50610374610391366004612c1d565b610b85565b3480156103a257600080fd5b506103746103b1366004612d39565b610b99565b3480156103c257600080fd5b506102ed6103d1366004612a8b565b610be4565b3480156103e257600080fd5b506103f66103f1366004612a8b565b610c51565b6040516102c49190612d81565b34801561040f57600080fd5b506001545b6040519081526020016102c4565b34801561042e57600080fd5b5061037461043d366004612d39565b610cdb565b34801561044e57600080fd5b5061037461045d366004612dc9565b610d0e565b34801561046e57600080fd5b506102b861047d366004612e1c565b6001600160401b03166000908152600e602052604090205460ff1690565b6103746104a9366004612bad565b610d22565b3480156104ba57600080fd5b506103746104c9366004612dc9565b610eaa565b3480156104da57600080fd5b5061033c6104e9366004612a8b565b610ec5565b3480156104fa57600080fd5b50601354610414565b34801561050f57600080fd5b5061041461051e366004612e37565b610efb565b34801561052f57600080fd5b50610374610f40565b34801561054457600080fd5b50610374610553366004612e52565b610f76565b34801561056457600080fd5b50610374610573366004612bad565b610f8a565b34801561058457600080fd5b50610374611012565b34801561059957600080fd5b506103746105a8366004612a8b565b611051565b3480156105b957600080fd5b50600054600160a01b900460ff166102b8565b3480156105d857600080fd5b5061033c6105e7366004612a8b565b611068565b3480156105f857600080fd5b506000546001600160a01b031661033c565b34801561061657600080fd5b5061030f61108f565b34801561062b57600080fd5b5061037461063a366004612e84565b61109e565b34801561064b57600080fd5b5061030f6110f0565b34801561066057600080fd5b5061067461066f366004612a8b565b6110ff565b6040516102c49190612eb7565b34801561068d57600080fd5b506106a161069c366004612e52565b611191565b6040516102c49190612ef8565b3480156106ba57600080fd5b506103746106c9366004612f0b565b6111dd565b3480156106da57600080fd5b506106a16106e9366004612e52565b6111e8565b3480156106fa57600080fd5b50610374610709366004612f27565b611208565b34801561071a57600080fd5b50610674611223565b34801561072f57600080fd5b5061037461073e366004612fa2565b6112ac565b34801561074f57600080fd5b507f0000000000000000000000000000000000000000000000000000000000000000610414565b34801561078257600080fd5b5061030f610791366004612a8b565b611313565b3480156107a257600080fd5b507f0000000000000000000000000000000000000000000000000000000000000000610414565b3480156107d557600080fd5b5061030f6107e4366004612e52565b61131e565b3480156107f557600080fd5b50610374610804366004612e52565b61132a565b34801561081557600080fd5b506106a1610824366004612e1c565b61133e565b34801561083557600080fd5b50610374610844366004612f0b565b611438565b34801561085557600080fd5b506102b8610864366004612fde565b6001600160a01b03918216600090815260076020908152604080832093909416825291909152205460ff1690565b34801561089e57600080fd5b506102b86108ad366004612fde565b6001600160a01b03918216600090815260126020908152604080832093909416825291909152205460ff1690565b3480156108e757600080fd5b506103746108f6366004612e37565b61146d565b34801561090757600080fd5b50610674610916366004612a8b565b611505565b34801561092757600080fd5b5061095f610936366004613008565b60009182526009602090815260408084206001600160401b039384168552909152909120541690565b6040516001600160401b0390911681526020016102c4565b60006001600160e01b03198216632ed6cc6560e21b148061099c575061099c8261156e565b92915050565b6000818152600d60209081526040808320805482518185028101850190935280835260609493830182828015610a2957602002820191906000526020600020906000905b82829054906101000a90046001600160401b03166001600160401b0316815260200190600801906020826007010492830192600103820291508084116109e65790505b50505050509050610a39816115be565b9392505050565b606060028054610a4f9061302b565b80601f0160208091040260200160405190810160405280929190818152602001828054610a7b9061302b565b8015610ac85780601f10610a9d57610100808354040283529160200191610ac8565b820191906000526020600020905b815481529060010190602001808311610aab57829003601f168201915b5050505050905090565b6000610add82611680565b506000908152600660205260409020546001600160a01b031690565b6000610b0482610ec5565b9050806001600160a01b0316836001600160a01b031603610b3857604051630591db6d60e01b815260040160405180910390fd5b336001600160a01b03821614801590610b585750610b568133610864565b155b15610b7657604051634c12315960e11b815260040160405180910390fd5b610b808383611689565b505050565b81610b8f816116f7565b610b80838361171e565b6000546001600160a01b03163314610bcc5760405162461bcd60e51b8152600401610bc390613065565b60405180910390fd5b6013805460010190819055610be1908261179e565b50565b6000818152600a60209081526040808320805482518185028101850190935280835260609493830182828015610a2957600091825260209182902080546001600160401b031684529082028301929091600891018084116109e657905050505050509050610a39816115be565b6000818152600b6020908152604091829020805483518184028101840190945280845260609392830182828015610ccf57602002820191906000526020600020906000905b82829054906101000a900461ffff1661ffff1681526020019060020190602082600101049283019260010382029150808411610c965790505b50505050509050919050565b6000546001600160a01b03163314610d055760405162461bcd60e51b8152600401610bc390613065565b610be1816118c1565b610d17816118cd565b610b808383836118f4565b7f000000000000000000000000000000000000000000000000000000000000000060015410610d6457604051635e91cdfb60e11b815260040160405180910390fd5b600054600160a01b900460ff1615610d8f5760405163ed1fa96f60e01b815260040160405180910390fd5b80610dad5760405163376bec4d60e01b815260040160405180910390fd5b7f000000000000000000000000000000000000000000000000000000000000000060015482610ddc91906130b0565b1115610dfb57604051635e91cdfb60e11b815260040160405180910390fd5b6000610e277f0000000000000000000000000000000000000000000000000000000000000000836130c3565b9050348114610e495760405163f2ffecad60e01b815260040160405180910390fd5b60006001546001610e5a91906130b0565b90508260016000828254610e6e91906130b0565b909155505060018054600091610e8491906130b0565b9050815b81811015610ea257610e9a8682611a27565b600101610e88565b505050505050565b610b8083838360405180602001604052806000815250611208565b6000818152600460205260408120546001600160a01b03168061099c5760405163089ba7e160e41b815260040160405180910390fd5b60006001600160a01b038216610f2457604051633bb9143360e11b815260040160405180910390fd5b506001600160a01b031660009081526005602052604090205490565b6000546001600160a01b03163314610f6a5760405162461bcd60e51b8152600401610bc390613065565b610f746000611a41565b565b81610f80816116f7565b610b808383611a91565b6000610f9582610ec5565b9050806001600160a01b0316836001600160a01b031603610fc957604051639efa161160e01b815260040160405180910390fd5b336001600160a01b03821614801590610fe95750610fe781336108ad565b155b1561100757604051635d84267760e11b815260040160405180910390fd5b610b80818484611c8f565b6000546001600160a01b0316331461103c5760405162461bcd60e51b8152600401610bc390613065565b6000805460ff60a01b1916600160a01b179055565b8061105b816116f7565b61106482611ceb565b5050565b600061107382611680565b506000908152601160205260409020546001600160a01b031690565b606060108054610a4f9061302b565b6000546001600160a01b031633146110c85760405162461bcd60e51b8152600401610bc390613065565b6001600160401b0382166000908152600e60205260409020805460ff19168215151790555050565b606060038054610a4f9061302b565b6000818152600a6020908152604091829020805483518184028101840190945280845260609392830182828015610ccf57602002820191906000526020600020906000905b82829054906101000a90046001600160401b03166001600160401b031681526020019060080190602082600701049283019260010382029150808411611144575094979650505050505050565b60408051808201909152600081526060602082015260006111b184611505565b83815181106111c2576111c26130e2565b602002602001015190506111d58161133e565b949350505050565b611064338383611dc9565b60408051808201909152600081526060602082015260006111b1846110ff565b611211826118cd565b61121d84848484611e69565b50505050565b6060600f805480602002602001604051908101604052809291908181526020018280548015610ac857602002820191906000526020600020906000905b82829054906101000a90046001600160401b03166001600160401b0316815260200190600801906020826007010492830192600103820291508084116112605790505050505050905090565b6000546001600160a01b031633146112d65760405162461bcd60e51b8152600401610bc390613065565b60006112e184610ec5565b6001600160a01b0316036113085760405163089ba7e160e41b815260040160405180910390fd5b610b80838383611e9d565b606061099c82612070565b6060610a398383612079565b81611334816116f7565b610b808383612204565b6040805180820190915260008152606060208201526001600160401b038216600090815260086020526040812080546113769061302b565b80601f01602080910402602001604051908101604052809291908181526020018280546113a29061302b565b80156113ef5780601f106113c4576101008083540402835291602001916113ef565b820191906000526020600020905b8154815290600101906020018083116113d257829003601f168201915b505050505090508051600003611418576040516348e2e83760e01b815260040160405180910390fd5b604080518082019091526001600160401b03909316835260208301525090565b336001600160a01b03831681036114625760405163353c229360e11b815260040160405180910390fd5b610b8081848461230f565b6000546001600160a01b031633146114975760405162461bcd60e51b8152600401610bc390613065565b6001600160a01b0381166114fc5760405162461bcd60e51b815260206004820152602660248201527f4f776e61626c653a206e6577206f776e657220697320746865207a65726f206160448201526564647265737360d01b6064820152608401610bc3565b610be181611a41565b6000818152600d6020908152604091829020805483518184028101840190945280845260609392830182828015610ccf57600091825260209182902080546001600160401b03168452908202830192909160089101808411611144575094979650505050505050565b60006001600160e01b031982166380ac58cd60e01b148061159f57506001600160e01b03198216635b5e139f60e01b145b8061099c57506301ffc9a760e01b6001600160e01b031983161461099c565b80516060906000816001600160401b038111156115dd576115dd612bd7565b60405190808252806020026020018201604052801561162357816020015b6040805180820190915260008152606060208201528152602001906001900390816115fb5790505b50905060005b8281101561167857611653858281518110611646576116466130e2565b602002602001015161133e565b828281518110611665576116656130e2565b6020908102919091010152600101611629565b509392505050565b610be181612374565b600081815260066020526040902080546001600160a01b0319166001600160a01b03841690811790915581906116be82610ec5565b6001600160a01b03167f8c5be1e5ebec7d5bd14f71427d1e84f3dd0314c0f7b2291e5b200ac8c7c3b92560405160405180910390a45050565b611701338261239a565b610be15760405163eabb6dd760e01b815260040160405180910390fd5b80516000838152600a6020526040902054811461174e57604051633581be1d60e11b815260040160405180910390fd5b6000838152600b60209081526040909120835161176d92850190612979565b5060405183907f50a12ecfcaf26b91454fd23edbcf04185b68d6e8c7edc4e35d14392889cdf79590600090a2505050565b6001600160401b0382166117c55760405163280d806360e01b815260040160405180910390fd5b6001600160401b038216600090815260086020526040812080546117e89061302b565b9050111561180957604051633348dd1d60e01b815260040160405180910390fd5b6001600160401b038216600090815260086020526040902061182b828261313e565b50600f8054600181018255600091909152600481047f8d1108e10bcb7c27dddfc02ed9d693a074039d026cf4ea4240b40f7d581ac8020180546001600160401b0385811660086003909516949094026101000a8481029102199091161790556040519081527f8a5ccfca4023cda4a0a59a1bb73783f6b3ba77465537d0c8f2bef5eb2511552a9060200160405180910390a15050565b6010611064828261313e565b6118d73382612418565b610be1576040516302728a9d60e41b815260040160405180910390fd5b826001600160a01b031661190782610ec5565b6001600160a01b03161461192e5760405163e146af6f60e01b815260040160405180910390fd5b6001600160a01b038216611955576040516338f646ff60e21b815260040160405180910390fd5b600081815260066020908152604080832080546001600160a01b03191690556001600160a01b0386168352600590915281208054600192906119989084906131fd565b90915550506001600160a01b03821660009081526005602052604081208054600192906119c69084906130b0565b909155505060008181526004602052604080822080546001600160a01b0319166001600160a01b0386811691821790925591518493918716917fddf252ad1be2c89b69c2b068fc378daa952ba7f163c4a11628f55a4df523b3ef91a4505050565b611064828260405180602001604052806000815250612484565b600080546001600160a01b038381166001600160a01b0319831681178455604051919092169283917f8be0079c531659141344cd1fd0a4f28419497f9722a3daafe3b4186f6b6457e09190a35050565b6000828152600d60205260409020548110611abf57604051630757d52160e01b815260040160405180910390fd5b6000828152600d60205260408120805483908110611adf57611adf6130e2565b60009182526020808320600483040154868452600d909152604090922060039091166008026101000a9091046001600160401b03169150611b2090836124b8565b60008381526009602090815260408083206001600160401b038086168552925290912054168015611bd3576000848152600a60205260409020611b63908261259e565b6040516001600160401b038216815284907f0c3ab9436ca1f55688a28969e7eac425945dded8cc4acf7f4e738cfa6fa1657c9060200160405180910390a260008481526009602090815260408083206001600160401b03861684529091529020805467ffffffffffffffff191690555b6000848152600a6020908152604080832080546001808201835591855283852060048204018054600390921660080261010090810a6001600160401b0381810219909416938a1690810293909317909155898652600b85528386208054938401815586529484902060108304018054600f90931660020290950a61ffff02199091169093555191825285917f51e9958189f528b912f96508d6a4b68583858166eda14d580dfbd24e9a79dfdb910160405180910390a250505050565b60008181526011602052604080822080546001600160a01b0319166001600160a01b0386811691821790925591518493918716917fa98c62723e75b26c5e5710fb12b5bf7712e6926f6dc932de622e715553f5149191a4505050565b6000818152600d6020526040812054905b81811015611d77576000838152600d60205260408120805483908110611d2457611d246130e2565b6000918252602080832060048304015487845260098252604080852060039094166008026101000a9091046001600160401b031684529190529020805467ffffffffffffffff1916905550600101611cfc565b506000828152600d60205260408120611d8f91612a22565b6040516000815282907f8d0cdca57de6b2fb4babd8b68c83db0b0981610d338eb68eea1f4b1e1d78dc1c9060200160405180910390a25050565b816001600160a01b0316836001600160a01b031603611dfb57604051630b7b99b960e21b815260040160405180910390fd5b6001600160a01b03838116600081815260076020908152604080832094871680845294825291829020805460ff191686151590811790915591519182527f17307eab39ab6107e8899845ad3d59bd9653f200f220920489ca2b5937696c3191015b60405180910390a3505050565b611e748484846118f4565b611e8084848484612683565b61121d5760405163bcb5663760e01b815260040160405180910390fd5b6000838152600c602090815260408083206001600160401b038616845290915290205460ff1615611ee157604051633348dd1d60e01b815260040160405180910390fd5b6000611eec8361133e565b516001600160401b031603611f1457604051630f8f451560e01b815260040160405180910390fd5b6000838152600d6020526040902054608011611f435760405163dfaea09b60e01b815260040160405180910390fd5b6000838152600c602090815260408083206001600160401b038681168086529184528285208054600160ff199091168117909155888652600d8552928520805493840181558552929093206004820401805460039092166008026101000a80840219909216919093021790915581161561202c5760008381526009602090815260408083206001600160401b0386811680865291845293829020805467ffffffffffffffff1916948616948517905581519081529182019290925284917fe76caab2912f68cd628bc085e006c86b8a478d13be698638b0c533030d120b4e910160405180910390a25b6040516001600160401b038316815283907ffc4d0a03f3026d7ce3427493c9289ea9768a6edd425e854cea7600d244ecc2c3906020015b60405180910390a2505050565b606061099c8260005b6000828152600a6020526040902054606090821015612172576000838152600a602052604081208054849081106120b2576120b26130e2565b90600052602060002090600491828204019190066008029054906101000a90046001600160401b03169050606060006120ea8361133e565b6001600160401b0384166000908152600e602052604090205490915060ff166121195780602001519150612168565b602081015180516121395760405180602001604052806000815250612164565b8061214388612785565b604051602001612154929190613210565b6040516020818303038152906040525b9250505b50915061099c9050565b6010805461217f9061302b565b80601f01602080910402602001604051908101604052809291908181526020018280546121ab9061302b565b80156121f85780601f106121cd576101008083540402835291602001916121f8565b820191906000526020600020905b8154815290600101906020018083116121db57829003601f168201915b5050505050905061099c565b6000828152600d6020526040902054811061223257604051630757d52160e01b815260040160405180910390fd5b6000828152600d60205260408120805483908110612252576122526130e2565b60009182526020808320600483040154868452600d909152604090922060039091166008026101000a9091046001600160401b0316915061229390836124b8565b6000838152600c602090815260408083206001600160401b038516808552908352818420805460ff1916905586845260098352818420818552835292819020805467ffffffffffffffff191690555191825284917f8d0cdca57de6b2fb4babd8b68c83db0b0981610d338eb68eea1f4b1e1d78dc1c9101612063565b6001600160a01b03838116600081815260126020908152604080832094871680845294825291829020805460ff191686151590811790915591519182527f9c03d4f9a8db6d81765cbe2097e83f44253564fbf3c1adfb09a8067464ad3f4b9101611e5c565b61237d81612885565b610be15760405163089ba7e160e41b815260040160405180910390fd5b6000806123a683610ec5565b9050806001600160a01b0316846001600160a01b031614806123ed57506001600160a01b0380821660009081526012602090815260408083209388168352929052205460ff165b806111d55750836001600160a01b031661240684611068565b6001600160a01b031614949350505050565b60008061242483610ec5565b9050806001600160a01b0316846001600160a01b0316148061246b57506001600160a01b0380821660009081526007602090815260408083209388168352929052205460ff165b806111d55750836001600160a01b031661240684610ad2565b61248e83836128a4565b61249b6000848484612683565b610b805760405163bcb5663760e01b815260040160405180910390fd5b815481106124c557600080fd5b815482906124d5906001906131fd565b815481106124e5576124e56130e2565b90600052602060002090600491828204019190066008029054906101000a90046001600160401b0316828281548110612520576125206130e2565b90600052602060002090600491828204019190066008026101000a8154816001600160401b0302191690836001600160401b03160217905550818054806125695761256961323f565b60008281526020902060046000199092019182040180546001600160401b03600860038516026101000a021916905590555050565b60008280548060200260200160405190810160405280929190818152602001828054801561261d57602002820191906000526020600020906000905b82829054906101000a90046001600160401b03166001600160401b0316815260200190600801906020826007010492830192600103820291508084116125da5790505b505083519394506000925050505b8181101561267c57836001600160401b031683828151811061264f5761264f6130e2565b60200260200101516001600160401b0316036126745761266f85826124b8565b61267c565b60010161262b565b5050505050565b60006001600160a01b0384163b1561277a57604051630a85bd0160e11b81526001600160a01b0385169063150b7a02906126c7903390899088908890600401613255565b6020604051808303816000875af1925050508015612702575060408051601f3d908101601f191682019092526126ff91810190613292565b60015b612760573d808015612730576040519150601f19603f3d011682016040523d82523d6000602084013e612735565b606091505b5080516000036127585760405163bcb5663760e01b815260040160405180910390fd5b805181602001fd5b6001600160e01b031916630a85bd0160e11b1490506111d5565b506001949350505050565b6060816000036127ac5750506040805180820190915260018152600360fc1b602082015290565b8160005b81156127d657806127c0816132af565b91506127cf9050600a836132de565b91506127b0565b6000816001600160401b038111156127f0576127f0612bd7565b6040519080825280601f01601f19166020018201604052801561281a576020820181803683370190505b5090505b84156111d55761282f6001836131fd565b915061283c600a866132f2565b6128479060306130b0565b60f81b81838151811061285c5761285c6130e2565b60200101906001600160f81b031916908160001a90535061287e600a866132de565b945061281e565b6000818152600460205260408120546001600160a01b0316151561099c565b6001600160a01b0382166128cb576040516325bd6bd360e01b815260040160405180910390fd5b6128d481612885565b156128f25760405163c5a8d37160e01b815260040160405180910390fd5b6001600160a01b038216600090815260056020526040812080546001929061291b9084906130b0565b909155505060008181526004602052604080822080546001600160a01b0319166001600160a01b03861690811790915590518392907fddf252ad1be2c89b69c2b068fc378daa952ba7f163c4a11628f55a4df523b3ef908290a45050565b82805482825590600052602060002090600f01601090048101928215612a125791602002820160005b838211156129e257835183826101000a81548161ffff021916908361ffff16021790555092602001926002016020816001010492830192600103026129a2565b8015612a105782816101000a81549061ffff02191690556002016020816001010492830192600103026129e2565b505b50612a1e929150612a43565b5090565b508054600082556003016004900490600052602060002090810190610be191905b5b80821115612a1e5760008155600101612a44565b6001600160e01b031981168114610be157600080fd5b600060208284031215612a8057600080fd5b8135610a3981612a58565b600060208284031215612a9d57600080fd5b5035919050565b60005b83811015612abf578181015183820152602001612aa7565b50506000910152565b60008151808452612ae0816020860160208601612aa4565b601f01601f19169290920160200192915050565b6001600160401b03815116825260006020820151604060208501526111d56040850182612ac8565b6000602080830181845280855180835260408601915060408160051b870101925083870160005b82811015612b7157603f19888603018452612b5f858351612af4565b94509285019290850190600101612b43565b5092979650505050505050565b602081526000610a396020830184612ac8565b80356001600160a01b0381168114612ba857600080fd5b919050565b60008060408385031215612bc057600080fd5b612bc983612b91565b946020939093013593505050565b634e487b7160e01b600052604160045260246000fd5b604051601f8201601f191681016001600160401b0381118282101715612c1557612c15612bd7565b604052919050565b60008060408385031215612c3057600080fd5b823591506020808401356001600160401b0380821115612c4f57600080fd5b818601915086601f830112612c6357600080fd5b813581811115612c7557612c75612bd7565b8060051b9150612c86848301612bed565b8181529183018401918481019089841115612ca057600080fd5b938501935b83851015612cd2578435925061ffff83168314612cc25760008081fd5b8282529385019390850190612ca5565b8096505050505050509250929050565b60006001600160401b03831115612cfb57612cfb612bd7565b612d0e601f8401601f1916602001612bed565b9050828152838383011115612d2257600080fd5b828260208301376000602084830101529392505050565b600060208284031215612d4b57600080fd5b81356001600160401b03811115612d6157600080fd5b8201601f81018413612d7257600080fd5b6111d584823560208401612ce2565b6020808252825182820181905260009190848201906040850190845b81811015612dbd57835161ffff1683529284019291840191600101612d9d565b50909695505050505050565b600080600060608486031215612dde57600080fd5b612de784612b91565b9250612df560208501612b91565b9150604084013590509250925092565b80356001600160401b0381168114612ba857600080fd5b600060208284031215612e2e57600080fd5b610a3982612e05565b600060208284031215612e4957600080fd5b610a3982612b91565b60008060408385031215612e6557600080fd5b50508035926020909101359150565b80358015158114612ba857600080fd5b60008060408385031215612e9757600080fd5b612ea083612e05565b9150612eae60208401612e74565b90509250929050565b6020808252825182820181905260009190848201906040850190845b81811015612dbd5783516001600160401b031683529284019291840191600101612ed3565b602081526000610a396020830184612af4565b60008060408385031215612f1e57600080fd5b612ea083612b91565b60008060008060808587031215612f3d57600080fd5b612f4685612b91565b9350612f5460208601612b91565b92506040850135915060608501356001600160401b03811115612f7657600080fd5b8501601f81018713612f8757600080fd5b612f9687823560208401612ce2565b91505092959194509250565b600080600060608486031215612fb757600080fd5b83359250612fc760208501612e05565b9150612fd560408501612e05565b90509250925092565b60008060408385031215612ff157600080fd5b612ffa83612b91565b9150612eae60208401612b91565b6000806040838503121561301b57600080fd5b82359150612eae60208401612e05565b600181811c9082168061303f57607f821691505b60208210810361305f57634e487b7160e01b600052602260045260246000fd5b50919050565b6020808252818101527f4f776e61626c653a2063616c6c6572206973206e6f7420746865206f776e6572604082015260600190565b634e487b7160e01b600052601160045260246000fd5b8082018082111561099c5761099c61309a565b60008160001904831182151516156130dd576130dd61309a565b500290565b634e487b7160e01b600052603260045260246000fd5b601f821115610b8057600081815260208120601f850160051c8101602086101561311f5750805b601f850160051c820191505b81811015610ea25782815560010161312b565b81516001600160401b0381111561315757613157612bd7565b61316b81613165845461302b565b846130f8565b602080601f8311600181146131a057600084156131885750858301515b600019600386901b1c1916600185901b178555610ea2565b600085815260208120601f198616915b828110156131cf578886015182559484019460019091019084016131b0565b50858210156131ed5787850151600019600388901b60f8161c191681555b5050505050600190811b01905550565b8181038181111561099c5761099c61309a565b60008351613222818460208801612aa4565b835190830190613236818360208801612aa4565b01949350505050565b634e487b7160e01b600052603160045260246000fd5b6001600160a01b038581168252841660208201526040810183905260806060820181905260009061328890830184612ac8565b9695505050505050565b6000602082840312156132a457600080fd5b8151610a3981612a58565b6000600182016132c1576132c161309a565b5060010190565b634e487b7160e01b600052601260045260246000fd5b6000826132ed576132ed6132c8565b500490565b600082613301576133016132c8565b50069056fea26469706673582212204ad16f84ea198067fbb63b545432e430db31fb52088d1119f789376fb8ec452d64736f6c63430008100033a2646970667358221220a620ed6cd5d64e9ac62d5bea07d6e15bb6063dbc7209cd738c649e62c4dd0c3d64736f6c63430008100033",
  "linkReferences": {},
  "deployedLinkReferences": {}
}