{
  "_format": "hh-sol-artifact-1",
  "contractName": "RMRKNestingMultiResourceImpl",
  "sourceName": "contracts/implementations/RMRKNestingMultiResourceImpl.sol",
  "abi": [
    {
      "inputs": [
        {
          "internalType": "string",
          "name": "name_",
          "type": "string"
        },
        {
          "internalType": "string",
          "name": "symbol_",
          "type": "string"
        },
        {
          "internalType": "uint256",
          "name": "maxSupply_",
          "type": "uint256"
        },
        {
          "internalType": "uint256",
          "name": "pricePerMint_",
          "type": "uint256"
        }
      ],
      "stateMutability": "nonpayable",
      "type": "constructor"
    },
    {
      "inputs": [],
      "name": "ERC721AddressZeroIsNotaValidOwner",
      "type": "error"
    },
    {
      "inputs": [],
      "name": "ERC721ApprovalToCurrentOwner",
      "type": "error"
    },
    {
      "inputs": [],
      "name": "ERC721ApproveCallerIsNotOwnerNorApprovedForAll",
      "type": "error"
    },
    {
      "inputs": [],
      "name": "ERC721ApproveToCaller",
      "type": "error"
    },
    {
      "inputs": [],
      "name": "ERC721InvalidTokenId",
      "type": "error"
    },
    {
      "inputs": [],
      "name": "ERC721MintToTheZeroAddress",
      "type": "error"
    },
    {
      "inputs": [],
      "name": "ERC721NotApprovedOrOwner",
      "type": "error"
    },
    {
      "inputs": [],
      "name": "ERC721TokenAlreadyMinted",
      "type": "error"
    },
    {
      "inputs": [],
      "name": "ERC721TransferFromIncorrectOwner",
      "type": "error"
    },
    {
      "inputs": [],
      "name": "ERC721TransferToNonReceiverImplementer",
      "type": "error"
    },
    {
      "inputs": [],
      "name": "ERC721TransferToTheZeroAddress",
      "type": "error"
    },
    {
      "inputs": [],
      "name": "RMRKApprovalForResourcesToCurrentOwner",
      "type": "error"
    },
    {
      "inputs": [],
      "name": "RMRKApproveForResourcesCallerIsNotOwnerNorApprovedForAll",
      "type": "error"
    },
    {
      "inputs": [],
      "name": "RMRKApproveForResourcesToCaller",
      "type": "error"
    },
    {
      "inputs": [],
      "name": "RMRKBadPriorityListLength",
      "type": "error"
    },
    {
      "inputs": [],
      "name": "RMRKCallerIsNotOwnerContract",
      "type": "error"
    },
    {
      "inputs": [],
      "name": "RMRKChildIndexOutOfRange",
      "type": "error"
    },
    {
      "inputs": [],
      "name": "RMRKIndexOutOfRange",
      "type": "error"
    },
    {
      "inputs": [],
      "name": "RMRKLocked",
      "type": "error"
    },
    {
      "inputs": [],
      "name": "RMRKMaxPendingChildrenReached",
      "type": "error"
    },
    {
      "inputs": [],
      "name": "RMRKMaxPendingResourcesReached",
      "type": "error"
    },
    {
      "inputs": [],
      "name": "RMRKMintOverMax",
      "type": "error"
    },
    {
      "inputs": [],
      "name": "RMRKMintUnderpriced",
      "type": "error"
    },
    {
      "inputs": [],
      "name": "RMRKMintZero",
      "type": "error"
    },
    {
      "inputs": [],
      "name": "RMRKMustUnnestFirst",
      "type": "error"
    },
    {
      "inputs": [],
      "name": "RMRKNestingTransferToNonRMRKNestingImplementer",
      "type": "error"
    },
    {
      "inputs": [],
      "name": "RMRKNoResourceMatchingId",
      "type": "error"
    },
    {
      "inputs": [],
      "name": "RMRKNotApprovedForResourcesOrOwner",
      "type": "error"
    },
    {
      "inputs": [],
      "name": "RMRKParentChildMismatch",
      "type": "error"
    },
    {
      "inputs": [],
      "name": "RMRKPendingChildIndexOutOfRange",
      "type": "error"
    },
    {
      "inputs": [],
      "name": "RMRKResourceAlreadyExists",
      "type": "error"
    },
    {
      "inputs": [],
      "name": "RMRKResourceNotFoundInStorage",
      "type": "error"
    },
    {
      "inputs": [],
      "name": "RMRKUnnestForNonNftParent",
      "type": "error"
    },
    {
      "inputs": [],
      "name": "RMRKUnnestForNonexistentToken",
      "type": "error"
    },
    {
      "inputs": [],
      "name": "RMRKUnnestFromWrongChild",
      "type": "error"
    },
    {
      "inputs": [],
      "name": "RMRKWriteToZero",
      "type": "error"
    },
    {
      "anonymous": false,
      "inputs": [
        {
          "indexed": false,
          "internalType": "uint256",
          "name": "tokenId",
          "type": "uint256"
        }
      ],
      "name": "AllPendingChildrenRemoved",
      "type": "event"
    },
    {
      "anonymous": false,
      "inputs": [
        {
          "indexed": true,
          "internalType": "address",
          "name": "owner",
          "type": "address"
        },
        {
          "indexed": true,
          "internalType": "address",
          "name": "approved",
          "type": "address"
        },
        {
          "indexed": true,
          "internalType": "uint256",
          "name": "tokenId",
          "type": "uint256"
        }
      ],
      "name": "Approval",
      "type": "event"
    },
    {
      "anonymous": false,
      "inputs": [
        {
          "indexed": true,
          "internalType": "address",
          "name": "owner",
          "type": "address"
        },
        {
          "indexed": true,
          "internalType": "address",
          "name": "operator",
          "type": "address"
        },
        {
          "indexed": false,
          "internalType": "bool",
          "name": "approved",
          "type": "bool"
        }
      ],
      "name": "ApprovalForAll",
      "type": "event"
    },
    {
      "anonymous": false,
      "inputs": [
        {
          "indexed": true,
          "internalType": "address",
          "name": "owner",
          "type": "address"
        },
        {
          "indexed": true,
          "internalType": "address",
          "name": "operator",
          "type": "address"
        },
        {
          "indexed": false,
          "internalType": "bool",
          "name": "approved",
          "type": "bool"
        }
      ],
      "name": "ApprovalForAllForResources",
      "type": "event"
    },
    {
      "anonymous": false,
      "inputs": [
        {
          "indexed": true,
          "internalType": "address",
          "name": "owner",
          "type": "address"
        },
        {
          "indexed": true,
          "internalType": "address",
          "name": "approved",
          "type": "address"
        },
        {
          "indexed": true,
          "internalType": "uint256",
          "name": "tokenId",
          "type": "uint256"
        }
      ],
      "name": "ApprovalForResources",
      "type": "event"
    },
    {
      "anonymous": false,
      "inputs": [
        {
          "indexed": false,
          "internalType": "uint256",
          "name": "tokenId",
          "type": "uint256"
        }
      ],
      "name": "ChildAccepted",
      "type": "event"
    },
    {
      "anonymous": false,
      "inputs": [
        {
          "indexed": false,
          "internalType": "uint256",
          "name": "parentTokenId",
          "type": "uint256"
        }
      ],
      "name": "ChildProposed",
      "type": "event"
    },
    {
      "anonymous": false,
      "inputs": [
        {
          "indexed": false,
          "internalType": "uint256",
          "name": "tokenId",
          "type": "uint256"
        },
        {
          "indexed": false,
          "internalType": "uint256",
          "name": "index",
          "type": "uint256"
        }
      ],
      "name": "ChildRemoved",
      "type": "event"
    },
    {
      "anonymous": false,
      "inputs": [
        {
          "indexed": false,
          "internalType": "uint256",
          "name": "tokenId",
          "type": "uint256"
        },
        {
          "indexed": false,
          "internalType": "uint256",
          "name": "index",
          "type": "uint256"
        }
      ],
      "name": "ChildUnnested",
      "type": "event"
    },
    {
      "anonymous": false,
      "inputs": [
        {
          "indexed": true,
          "internalType": "address",
          "name": "previousOwner",
          "type": "address"
        },
        {
          "indexed": true,
          "internalType": "address",
          "name": "newOwner",
          "type": "address"
        }
      ],
      "name": "OwnershipTransferred",
      "type": "event"
    },
    {
      "anonymous": false,
      "inputs": [
        {
          "indexed": false,
          "internalType": "uint256",
          "name": "tokenId",
          "type": "uint256"
        },
        {
          "indexed": false,
          "internalType": "uint256",
          "name": "index",
          "type": "uint256"
        }
      ],
      "name": "PendingChildRemoved",
      "type": "event"
    },
    {
      "anonymous": false,
      "inputs": [
        {
          "indexed": true,
          "internalType": "uint256",
          "name": "tokenId",
          "type": "uint256"
        },
        {
          "indexed": false,
          "internalType": "uint64",
          "name": "resourceId",
          "type": "uint64"
        }
      ],
      "name": "ResourceAccepted",
      "type": "event"
    },
    {
      "anonymous": false,
      "inputs": [
        {
          "indexed": true,
          "internalType": "uint256",
          "name": "tokenId",
          "type": "uint256"
        },
        {
          "indexed": false,
          "internalType": "uint64",
          "name": "resourceId",
          "type": "uint64"
        }
      ],
      "name": "ResourceAddedToToken",
      "type": "event"
    },
    {
      "anonymous": false,
      "inputs": [
        {
          "indexed": false,
          "internalType": "uint64",
          "name": "resourceId",
          "type": "uint64"
        },
        {
          "indexed": false,
          "internalType": "uint128",
          "name": "customResourceId",
          "type": "uint128"
        }
      ],
      "name": "ResourceCustomDataAdded",
      "type": "event"
    },
    {
      "anonymous": false,
      "inputs": [
        {
          "indexed": false,
          "internalType": "uint64",
          "name": "resourceId",
          "type": "uint64"
        },
        {
          "indexed": false,
          "internalType": "uint128",
          "name": "customResourceId",
          "type": "uint128"
        }
      ],
      "name": "ResourceCustomDataRemoved",
      "type": "event"
    },
    {
      "anonymous": false,
      "inputs": [
        {
          "indexed": false,
          "internalType": "uint64",
          "name": "resourceId",
          "type": "uint64"
        },
        {
          "indexed": false,
          "internalType": "uint128",
          "name": "customResourceId",
          "type": "uint128"
        }
      ],
      "name": "ResourceCustomDataSet",
      "type": "event"
    },
    {
      "anonymous": false,
      "inputs": [
        {
          "indexed": true,
          "internalType": "uint256",
          "name": "tokenId",
          "type": "uint256"
        },
        {
          "indexed": false,
          "internalType": "uint64",
          "name": "resourceId",
          "type": "uint64"
        },
        {
          "indexed": false,
          "internalType": "uint64",
          "name": "overwrites",
          "type": "uint64"
        }
      ],
      "name": "ResourceOverwriteProposed",
      "type": "event"
    },
    {
      "anonymous": false,
      "inputs": [
        {
          "indexed": true,
          "internalType": "uint256",
          "name": "tokenId",
          "type": "uint256"
        },
        {
          "indexed": false,
          "internalType": "uint64",
          "name": "overwritten",
          "type": "uint64"
        }
      ],
      "name": "ResourceOverwritten",
      "type": "event"
    },
    {
      "anonymous": false,
      "inputs": [
        {
          "indexed": true,
          "internalType": "uint256",
          "name": "tokenId",
          "type": "uint256"
        }
      ],
      "name": "ResourcePrioritySet",
      "type": "event"
    },
    {
      "anonymous": false,
      "inputs": [
        {
          "indexed": true,
          "internalType": "uint256",
          "name": "tokenId",
          "type": "uint256"
        },
        {
          "indexed": false,
          "internalType": "uint64",
          "name": "resourceId",
          "type": "uint64"
        }
      ],
      "name": "ResourceRejected",
      "type": "event"
    },
    {
      "anonymous": false,
      "inputs": [
        {
          "indexed": false,
          "internalType": "uint64",
          "name": "resourceId",
          "type": "uint64"
        }
      ],
      "name": "ResourceSet",
      "type": "event"
    },
    {
      "anonymous": false,
      "inputs": [
        {
          "indexed": true,
          "internalType": "address",
          "name": "from",
          "type": "address"
        },
        {
          "indexed": true,
          "internalType": "address",
          "name": "to",
          "type": "address"
        },
        {
          "indexed": true,
          "internalType": "uint256",
          "name": "tokenId",
          "type": "uint256"
        }
      ],
      "name": "Transfer",
      "type": "event"
    },
    {
      "inputs": [
        {
          "internalType": "uint256",
          "name": "tokenId",
          "type": "uint256"
        },
        {
          "internalType": "uint256",
          "name": "index",
          "type": "uint256"
        }
      ],
      "name": "acceptChild",
      "outputs": [],
      "stateMutability": "nonpayable",
      "type": "function"
    },
    {
      "inputs": [
        {
          "internalType": "uint256",
          "name": "tokenId",
          "type": "uint256"
        },
        {
          "internalType": "uint256",
          "name": "index",
          "type": "uint256"
        }
      ],
      "name": "acceptResource",
      "outputs": [],
      "stateMutability": "nonpayable",
      "type": "function"
    },
    {
      "inputs": [
        {
          "internalType": "uint256",
          "name": "parentTokenId",
          "type": "uint256"
        },
        {
          "internalType": "uint256",
          "name": "childTokenId",
          "type": "uint256"
        },
        {
          "internalType": "address",
          "name": "childTokenAddress",
          "type": "address"
        }
      ],
      "name": "addChild",
      "outputs": [],
      "stateMutability": "nonpayable",
      "type": "function"
    },
    {
      "inputs": [
        {
          "internalType": "uint64",
          "name": "resourceId",
          "type": "uint64"
        },
        {
          "internalType": "uint128",
          "name": "customResourceId",
          "type": "uint128"
        }
      ],
      "name": "addCustomDataToResource",
      "outputs": [],
      "stateMutability": "nonpayable",
      "type": "function"
    },
    {
      "inputs": [
        {
          "internalType": "uint64",
          "name": "id",
          "type": "uint64"
        },
        {
          "internalType": "string",
          "name": "metadataURI",
          "type": "string"
        },
        {
          "internalType": "uint128[]",
          "name": "custom",
          "type": "uint128[]"
        }
      ],
      "name": "addResourceEntry",
      "outputs": [],
      "stateMutability": "nonpayable",
      "type": "function"
    },
    {
      "inputs": [
        {
          "internalType": "uint256",
          "name": "tokenId",
          "type": "uint256"
        },
        {
          "internalType": "uint64",
          "name": "resourceId",
          "type": "uint64"
        },
        {
          "internalType": "uint64",
          "name": "overwrites",
          "type": "uint64"
        }
      ],
      "name": "addResourceToToken",
      "outputs": [],
      "stateMutability": "nonpayable",
      "type": "function"
    },
    {
      "inputs": [
        {
          "internalType": "address",
          "name": "to",
          "type": "address"
        },
        {
          "internalType": "uint256",
          "name": "tokenId",
          "type": "uint256"
        }
      ],
      "name": "approve",
      "outputs": [],
      "stateMutability": "nonpayable",
      "type": "function"
    },
    {
      "inputs": [
        {
          "internalType": "address",
          "name": "to",
          "type": "address"
        },
        {
          "internalType": "uint256",
          "name": "tokenId",
          "type": "uint256"
        }
      ],
      "name": "approveForResources",
      "outputs": [],
      "stateMutability": "nonpayable",
      "type": "function"
    },
    {
      "inputs": [
        {
          "internalType": "address",
          "name": "owner",
          "type": "address"
        }
      ],
      "name": "balanceOf",
      "outputs": [
        {
          "internalType": "uint256",
          "name": "",
          "type": "uint256"
        }
      ],
      "stateMutability": "view",
      "type": "function"
    },
    {
      "inputs": [
        {
          "internalType": "uint256",
          "name": "tokenId",
          "type": "uint256"
        }
      ],
      "name": "burn",
      "outputs": [],
      "stateMutability": "nonpayable",
      "type": "function"
    },
    {
      "inputs": [
        {
          "internalType": "uint256",
          "name": "tokenId",
          "type": "uint256"
        }
      ],
      "name": "burnFromParent",
      "outputs": [],
      "stateMutability": "nonpayable",
      "type": "function"
    },
    {
      "inputs": [
        {
          "internalType": "uint256",
          "name": "parentTokenId",
          "type": "uint256"
        },
        {
          "internalType": "uint256",
          "name": "index",
          "type": "uint256"
        }
      ],
      "name": "childOf",
      "outputs": [
        {
          "components": [
            {
              "internalType": "uint256",
              "name": "tokenId",
              "type": "uint256"
            },
            {
              "internalType": "address",
              "name": "contractAddress",
              "type": "address"
            }
          ],
          "internalType": "struct IRMRKNesting.Child",
          "name": "",
          "type": "tuple"
        }
      ],
      "stateMutability": "view",
      "type": "function"
    },
    {
      "inputs": [
        {
          "internalType": "uint256",
          "name": "parentTokenId",
          "type": "uint256"
        }
      ],
      "name": "childrenOf",
      "outputs": [
        {
          "components": [
            {
              "internalType": "uint256",
              "name": "tokenId",
              "type": "uint256"
            },
            {
              "internalType": "address",
              "name": "contractAddress",
              "type": "address"
            }
          ],
          "internalType": "struct IRMRKNesting.Child[]",
          "name": "",
          "type": "tuple[]"
        }
      ],
      "stateMutability": "view",
      "type": "function"
    },
    {
      "inputs": [
        {
          "internalType": "uint256",
          "name": "tokenId",
          "type": "uint256"
        }
      ],
      "name": "getActiveResourcePriorities",
      "outputs": [
        {
          "internalType": "uint16[]",
          "name": "",
          "type": "uint16[]"
        }
      ],
      "stateMutability": "view",
      "type": "function"
    },
    {
      "inputs": [
        {
          "internalType": "uint256",
          "name": "tokenId",
          "type": "uint256"
        }
      ],
      "name": "getActiveResources",
      "outputs": [
        {
          "internalType": "uint64[]",
          "name": "",
          "type": "uint64[]"
        }
      ],
      "stateMutability": "view",
      "type": "function"
    },
    {
      "inputs": [],
      "name": "getAllResources",
      "outputs": [
        {
          "internalType": "uint64[]",
          "name": "",
          "type": "uint64[]"
        }
      ],
      "stateMutability": "view",
      "type": "function"
    },
    {
      "inputs": [
        {
          "internalType": "uint256",
          "name": "tokenId",
          "type": "uint256"
        }
      ],
      "name": "getApproved",
      "outputs": [
        {
          "internalType": "address",
          "name": "",
          "type": "address"
        }
      ],
      "stateMutability": "view",
      "type": "function"
    },
    {
      "inputs": [
        {
          "internalType": "uint256",
          "name": "tokenId",
          "type": "uint256"
        }
      ],
      "name": "getApprovedForResources",
      "outputs": [
        {
          "internalType": "address",
          "name": "",
          "type": "address"
        }
      ],
      "stateMutability": "view",
      "type": "function"
    },
    {
      "inputs": [
        {
          "internalType": "uint64",
          "name": "resourceId",
          "type": "uint64"
        },
        {
          "internalType": "uint128",
          "name": "customResourceId",
          "type": "uint128"
        }
      ],
      "name": "getCustomResourceData",
      "outputs": [
        {
          "internalType": "bytes",
          "name": "",
          "type": "bytes"
        }
      ],
      "stateMutability": "view",
      "type": "function"
    },
    {
      "inputs": [],
      "name": "getFallbackURI",
      "outputs": [
        {
          "internalType": "string",
          "name": "",
          "type": "string"
        }
      ],
      "stateMutability": "view",
      "type": "function"
    },
    {
      "inputs": [
        {
          "internalType": "uint256",
          "name": "tokenId",
          "type": "uint256"
        }
      ],
      "name": "getFullPendingResources",
      "outputs": [
        {
          "components": [
            {
              "internalType": "uint64",
              "name": "id",
              "type": "uint64"
            },
            {
              "internalType": "string",
              "name": "metadataURI",
              "type": "string"
            },
            {
              "internalType": "uint128[]",
              "name": "custom",
              "type": "uint128[]"
            }
          ],
          "internalType": "struct IRMRKMultiResource.Resource[]",
          "name": "",
          "type": "tuple[]"
        }
      ],
      "stateMutability": "view",
      "type": "function"
    },
    {
      "inputs": [
        {
          "internalType": "uint256",
          "name": "tokenId",
          "type": "uint256"
        }
      ],
      "name": "getFullResources",
      "outputs": [
        {
          "components": [
            {
              "internalType": "uint64",
              "name": "id",
              "type": "uint64"
            },
            {
              "internalType": "string",
              "name": "metadataURI",
              "type": "string"
            },
            {
              "internalType": "uint128[]",
              "name": "custom",
              "type": "uint128[]"
            }
          ],
          "internalType": "struct IRMRKMultiResource.Resource[]",
          "name": "",
          "type": "tuple[]"
        }
      ],
      "stateMutability": "view",
      "type": "function"
    },
    {
      "inputs": [],
      "name": "getLock",
      "outputs": [
        {
          "internalType": "bool",
          "name": "",
          "type": "bool"
        }
      ],
      "stateMutability": "view",
      "type": "function"
    },
    {
      "inputs": [
        {
          "internalType": "uint256",
          "name": "tokenId",
          "type": "uint256"
        },
        {
          "internalType": "uint256",
          "name": "index",
          "type": "uint256"
        }
      ],
      "name": "getPendingResObjectByIndex",
      "outputs": [
        {
          "components": [
            {
              "internalType": "uint64",
              "name": "id",
              "type": "uint64"
            },
            {
              "internalType": "string",
              "name": "metadataURI",
              "type": "string"
            },
            {
              "internalType": "uint128[]",
              "name": "custom",
              "type": "uint128[]"
            }
          ],
          "internalType": "struct IRMRKMultiResource.Resource",
          "name": "",
          "type": "tuple"
        }
      ],
      "stateMutability": "view",
      "type": "function"
    },
    {
      "inputs": [
        {
          "internalType": "uint256",
          "name": "tokenId",
          "type": "uint256"
        }
      ],
      "name": "getPendingResources",
      "outputs": [
        {
          "internalType": "uint64[]",
          "name": "",
          "type": "uint64[]"
        }
      ],
      "stateMutability": "view",
      "type": "function"
    },
    {
      "inputs": [
        {
          "internalType": "uint256",
          "name": "tokenId",
          "type": "uint256"
        },
        {
          "internalType": "uint256",
          "name": "index",
          "type": "uint256"
        }
      ],
      "name": "getResObjectByIndex",
      "outputs": [
        {
          "components": [
            {
              "internalType": "uint64",
              "name": "id",
              "type": "uint64"
            },
            {
              "internalType": "string",
              "name": "metadataURI",
              "type": "string"
            },
            {
              "internalType": "uint128[]",
              "name": "custom",
              "type": "uint128[]"
            }
          ],
          "internalType": "struct IRMRKMultiResource.Resource",
          "name": "",
          "type": "tuple"
        }
      ],
      "stateMutability": "view",
      "type": "function"
    },
    {
      "inputs": [
        {
          "internalType": "uint64",
          "name": "resourceId",
          "type": "uint64"
        }
      ],
      "name": "getResource",
      "outputs": [
        {
          "components": [
            {
              "internalType": "uint64",
              "name": "id",
              "type": "uint64"
            },
            {
              "internalType": "string",
              "name": "metadataURI",
              "type": "string"
            },
            {
              "internalType": "uint128[]",
              "name": "custom",
              "type": "uint128[]"
            }
          ],
          "internalType": "struct IRMRKMultiResource.Resource",
          "name": "",
          "type": "tuple"
        }
      ],
      "stateMutability": "view",
      "type": "function"
    },
    {
      "inputs": [
        {
          "internalType": "uint256",
          "name": "tokenId",
          "type": "uint256"
        },
        {
          "internalType": "uint64",
          "name": "resourceId",
          "type": "uint64"
        }
      ],
      "name": "getResourceOverwrites",
      "outputs": [
        {
          "internalType": "uint64",
          "name": "",
          "type": "uint64"
        }
      ],
      "stateMutability": "view",
      "type": "function"
    },
    {
      "inputs": [
        {
          "internalType": "address",
          "name": "owner",
          "type": "address"
        },
        {
          "internalType": "address",
          "name": "operator",
          "type": "address"
        }
      ],
      "name": "isApprovedForAll",
      "outputs": [
        {
          "internalType": "bool",
          "name": "",
          "type": "bool"
        }
      ],
      "stateMutability": "view",
      "type": "function"
    },
    {
      "inputs": [
        {
          "internalType": "address",
          "name": "owner",
          "type": "address"
        },
        {
          "internalType": "address",
          "name": "operator",
          "type": "address"
        }
      ],
      "name": "isApprovedForAllForResources",
      "outputs": [
        {
          "internalType": "bool",
          "name": "",
          "type": "bool"
        }
      ],
      "stateMutability": "view",
      "type": "function"
    },
    {
      "inputs": [
        {
          "internalType": "address",
          "name": "spender",
          "type": "address"
        },
        {
          "internalType": "uint256",
          "name": "tokenId",
          "type": "uint256"
        }
      ],
      "name": "isApprovedOrOwner",
      "outputs": [
        {
          "internalType": "bool",
          "name": "",
          "type": "bool"
        }
      ],
      "stateMutability": "view",
      "type": "function"
    },
    {
      "inputs": [
        {
          "internalType": "uint64",
          "name": "resourceId",
          "type": "uint64"
        }
      ],
      "name": "isTokenEnumeratedResource",
      "outputs": [
        {
          "internalType": "bool",
          "name": "",
          "type": "bool"
        }
      ],
      "stateMutability": "view",
      "type": "function"
    },
    {
      "inputs": [],
      "name": "maxSupply",
      "outputs": [
        {
          "internalType": "uint256",
          "name": "",
          "type": "uint256"
        }
      ],
      "stateMutability": "view",
      "type": "function"
    },
    {
      "inputs": [
        {
          "internalType": "address",
          "name": "to",
          "type": "address"
        },
        {
          "internalType": "uint256",
          "name": "numToMint",
          "type": "uint256"
        }
      ],
      "name": "mint",
      "outputs": [],
      "stateMutability": "payable",
      "type": "function"
    },
    {
      "inputs": [],
      "name": "name",
      "outputs": [
        {
          "internalType": "string",
          "name": "",
          "type": "string"
        }
      ],
      "stateMutability": "view",
      "type": "function"
    },
    {
      "inputs": [
        {
          "internalType": "address",
          "name": "",
          "type": "address"
        },
        {
          "internalType": "address",
          "name": "",
          "type": "address"
        },
        {
          "internalType": "uint256",
          "name": "",
          "type": "uint256"
        },
        {
          "internalType": "bytes",
          "name": "",
          "type": "bytes"
        }
      ],
      "name": "onRMRKNestingReceived",
      "outputs": [
        {
          "internalType": "bytes4",
          "name": "",
          "type": "bytes4"
        }
      ],
      "stateMutability": "pure",
      "type": "function"
    },
    {
      "inputs": [],
      "name": "owner",
      "outputs": [
        {
          "internalType": "address",
          "name": "",
          "type": "address"
        }
      ],
      "stateMutability": "view",
      "type": "function"
    },
    {
      "inputs": [
        {
          "internalType": "uint256",
          "name": "tokenId",
          "type": "uint256"
        }
      ],
      "name": "ownerOf",
      "outputs": [
        {
          "internalType": "address",
          "name": "",
          "type": "address"
        }
      ],
      "stateMutability": "view",
      "type": "function"
    },
    {
      "inputs": [
        {
          "internalType": "uint256",
          "name": "parentTokenId",
          "type": "uint256"
        },
        {
          "internalType": "uint256",
          "name": "index",
          "type": "uint256"
        }
      ],
      "name": "pendingChildOf",
      "outputs": [
        {
          "components": [
            {
              "internalType": "uint256",
              "name": "tokenId",
              "type": "uint256"
            },
            {
              "internalType": "address",
              "name": "contractAddress",
              "type": "address"
            }
          ],
          "internalType": "struct IRMRKNesting.Child",
          "name": "",
          "type": "tuple"
        }
      ],
      "stateMutability": "view",
      "type": "function"
    },
    {
      "inputs": [
        {
          "internalType": "uint256",
          "name": "parentTokenId",
          "type": "uint256"
        }
      ],
      "name": "pendingChildrenOf",
      "outputs": [
        {
          "components": [
            {
              "internalType": "uint256",
              "name": "tokenId",
              "type": "uint256"
            },
            {
              "internalType": "address",
              "name": "contractAddress",
              "type": "address"
            }
          ],
          "internalType": "struct IRMRKNesting.Child[]",
          "name": "",
          "type": "tuple[]"
        }
      ],
      "stateMutability": "view",
      "type": "function"
    },
    {
      "inputs": [],
      "name": "pricePerMint",
      "outputs": [
        {
          "internalType": "uint256",
          "name": "",
          "type": "uint256"
        }
      ],
      "stateMutability": "view",
      "type": "function"
    },
    {
      "inputs": [
        {
          "internalType": "uint256",
          "name": "tokenId",
          "type": "uint256"
        }
      ],
      "name": "rejectAllChildren",
      "outputs": [],
      "stateMutability": "nonpayable",
      "type": "function"
    },
    {
      "inputs": [
        {
          "internalType": "uint256",
          "name": "tokenId",
          "type": "uint256"
        }
      ],
      "name": "rejectAllResources",
      "outputs": [],
      "stateMutability": "nonpayable",
      "type": "function"
    },
    {
      "inputs": [
        {
          "internalType": "uint256",
          "name": "tokenId",
          "type": "uint256"
        },
        {
          "internalType": "uint256",
          "name": "index",
          "type": "uint256"
        }
      ],
      "name": "rejectChild",
      "outputs": [],
      "stateMutability": "nonpayable",
      "type": "function"
    },
    {
      "inputs": [
        {
          "internalType": "uint256",
          "name": "tokenId",
          "type": "uint256"
        },
        {
          "internalType": "uint256",
          "name": "index",
          "type": "uint256"
        }
      ],
      "name": "rejectResource",
      "outputs": [],
      "stateMutability": "nonpayable",
      "type": "function"
    },
    {
      "inputs": [
        {
          "internalType": "uint256",
          "name": "tokenId",
          "type": "uint256"
        },
        {
          "internalType": "uint256",
          "name": "index",
          "type": "uint256"
        }
      ],
      "name": "removeChild",
      "outputs": [],
      "stateMutability": "nonpayable",
      "type": "function"
    },
    {
      "inputs": [
        {
          "internalType": "uint64",
          "name": "resourceId",
          "type": "uint64"
        },
        {
          "internalType": "uint256",
          "name": "index",
          "type": "uint256"
        }
      ],
      "name": "removeCustomDataFromResource",
      "outputs": [],
      "stateMutability": "nonpayable",
      "type": "function"
    },
    {
      "inputs": [],
      "name": "renounceOwnership",
      "outputs": [],
      "stateMutability": "nonpayable",
      "type": "function"
    },
    {
      "inputs": [
        {
          "internalType": "uint256",
          "name": "tokenId",
          "type": "uint256"
        }
      ],
      "name": "rmrkOwnerOf",
      "outputs": [
        {
          "internalType": "address",
          "name": "",
          "type": "address"
        },
        {
          "internalType": "uint256",
          "name": "",
          "type": "uint256"
        },
        {
          "internalType": "bool",
          "name": "",
          "type": "bool"
        }
      ],
      "stateMutability": "view",
      "type": "function"
    },
    {
      "inputs": [
        {
          "internalType": "address",
          "name": "from",
          "type": "address"
        },
        {
          "internalType": "address",
          "name": "to",
          "type": "address"
        },
        {
          "internalType": "uint256",
          "name": "tokenId",
          "type": "uint256"
        }
      ],
      "name": "safeTransferFrom",
      "outputs": [],
      "stateMutability": "nonpayable",
      "type": "function"
    },
    {
      "inputs": [
        {
          "internalType": "address",
          "name": "from",
          "type": "address"
        },
        {
          "internalType": "address",
          "name": "to",
          "type": "address"
        },
        {
          "internalType": "uint256",
          "name": "tokenId",
          "type": "uint256"
        },
        {
          "internalType": "bytes",
          "name": "data",
          "type": "bytes"
        }
      ],
      "name": "safeTransferFrom",
      "outputs": [],
      "stateMutability": "nonpayable",
      "type": "function"
    },
    {
      "inputs": [
        {
          "internalType": "address",
          "name": "from",
          "type": "address"
        },
        {
          "internalType": "address",
          "name": "to",
          "type": "address"
        },
        {
          "internalType": "uint256",
          "name": "tokenId",
          "type": "uint256"
        },
        {
          "internalType": "bytes",
          "name": "data",
          "type": "bytes"
        }
      ],
      "name": "safeTransferNestingFrom",
      "outputs": [],
      "stateMutability": "nonpayable",
      "type": "function"
    },
    {
      "inputs": [
        {
          "internalType": "address",
          "name": "from",
          "type": "address"
        },
        {
          "internalType": "address",
          "name": "to",
          "type": "address"
        },
        {
          "internalType": "uint256",
          "name": "tokenId",
          "type": "uint256"
        }
      ],
      "name": "safeTransferNestingFrom",
      "outputs": [],
      "stateMutability": "nonpayable",
      "type": "function"
    },
    {
      "inputs": [
        {
          "internalType": "address",
          "name": "operator",
          "type": "address"
        },
        {
          "internalType": "bool",
          "name": "approved",
          "type": "bool"
        }
      ],
      "name": "setApprovalForAll",
      "outputs": [],
      "stateMutability": "nonpayable",
      "type": "function"
    },
    {
      "inputs": [
        {
          "internalType": "address",
          "name": "operator",
          "type": "address"
        },
        {
          "internalType": "bool",
          "name": "approved",
          "type": "bool"
        }
      ],
      "name": "setApprovalForAllForResources",
      "outputs": [],
      "stateMutability": "nonpayable",
      "type": "function"
    },
    {
      "inputs": [
        {
          "internalType": "uint64",
          "name": "resourceId",
          "type": "uint64"
        },
        {
          "internalType": "uint128",
          "name": "customResourceId",
          "type": "uint128"
        },
        {
          "internalType": "bytes",
          "name": "data",
          "type": "bytes"
        }
      ],
      "name": "setCustomResourceData",
      "outputs": [],
      "stateMutability": "nonpayable",
      "type": "function"
    },
    {
      "inputs": [
        {
          "internalType": "string",
          "name": "fallbackURI",
          "type": "string"
        }
      ],
      "name": "setFallbackURI",
      "outputs": [],
      "stateMutability": "nonpayable",
      "type": "function"
    },
    {
      "inputs": [],
      "name": "setLock",
      "outputs": [],
      "stateMutability": "nonpayable",
      "type": "function"
    },
    {
      "inputs": [
        {
          "internalType": "uint256",
          "name": "tokenId",
          "type": "uint256"
        },
        {
          "internalType": "uint16[]",
          "name": "priorities",
          "type": "uint16[]"
        }
      ],
      "name": "setPriority",
      "outputs": [],
      "stateMutability": "nonpayable",
      "type": "function"
    },
    {
      "inputs": [
        {
          "internalType": "uint64",
          "name": "resourceId",
          "type": "uint64"
        },
        {
          "internalType": "bool",
          "name": "state",
          "type": "bool"
        }
      ],
      "name": "setTokenEnumeratedResource",
      "outputs": [],
      "stateMutability": "nonpayable",
      "type": "function"
    },
    {
      "inputs": [
        {
          "internalType": "bytes4",
          "name": "interfaceId",
          "type": "bytes4"
        }
      ],
      "name": "supportsInterface",
      "outputs": [
        {
          "internalType": "bool",
          "name": "",
          "type": "bool"
        }
      ],
      "stateMutability": "view",
      "type": "function"
    },
    {
      "inputs": [],
      "name": "symbol",
      "outputs": [
        {
          "internalType": "string",
          "name": "",
          "type": "string"
        }
      ],
      "stateMutability": "view",
      "type": "function"
    },
    {
      "inputs": [
        {
          "internalType": "uint256",
          "name": "tokenId",
          "type": "uint256"
        }
      ],
      "name": "tokenURI",
      "outputs": [
        {
          "internalType": "string",
          "name": "",
          "type": "string"
        }
      ],
      "stateMutability": "view",
      "type": "function"
    },
    {
      "inputs": [
        {
          "internalType": "uint256",
          "name": "tokenId",
          "type": "uint256"
        },
        {
          "internalType": "uint256",
          "name": "index",
          "type": "uint256"
        }
      ],
      "name": "tokenURIAtIndex",
      "outputs": [
        {
          "internalType": "string",
          "name": "",
          "type": "string"
        }
      ],
      "stateMutability": "view",
      "type": "function"
    },
    {
      "inputs": [
        {
          "internalType": "uint256",
          "name": "tokenId",
          "type": "uint256"
        },
        {
          "internalType": "uint128",
          "name": "customResourceId",
          "type": "uint128"
        },
        {
          "internalType": "bytes",
          "name": "customResourceValue",
          "type": "bytes"
        }
      ],
      "name": "tokenURIForCustomValue",
      "outputs": [
        {
          "internalType": "string",
          "name": "",
          "type": "string"
        }
      ],
      "stateMutability": "view",
      "type": "function"
    },
    {
      "inputs": [],
      "name": "totalSupply",
      "outputs": [
        {
          "internalType": "uint256",
          "name": "",
          "type": "uint256"
        }
      ],
      "stateMutability": "view",
      "type": "function"
    },
    {
      "inputs": [
        {
          "internalType": "address",
          "name": "to",
          "type": "address"
        },
        {
          "internalType": "uint256",
          "name": "tokenId",
          "type": "uint256"
        }
      ],
      "name": "transfer",
      "outputs": [],
      "stateMutability": "nonpayable",
      "type": "function"
    },
    {
      "inputs": [
        {
          "internalType": "address",
          "name": "from",
          "type": "address"
        },
        {
          "internalType": "address",
          "name": "to",
          "type": "address"
        },
        {
          "internalType": "uint256",
          "name": "tokenId",
          "type": "uint256"
        }
      ],
      "name": "transferFrom",
      "outputs": [],
      "stateMutability": "nonpayable",
      "type": "function"
    },
    {
      "inputs": [
        {
          "internalType": "address",
          "name": "from",
          "type": "address"
        },
        {
          "internalType": "address",
          "name": "to",
          "type": "address"
        },
        {
          "internalType": "uint256",
          "name": "tokenId",
          "type": "uint256"
        },
        {
          "internalType": "uint256",
          "name": "destinationId",
          "type": "uint256"
        }
      ],
      "name": "transferFrom",
      "outputs": [],
      "stateMutability": "nonpayable",
      "type": "function"
    },
    {
      "inputs": [
        {
          "internalType": "address",
          "name": "newOwner",
          "type": "address"
        }
      ],
      "name": "transferOwnership",
      "outputs": [],
      "stateMutability": "nonpayable",
      "type": "function"
    },
    {
      "inputs": [
        {
          "internalType": "uint256",
          "name": "tokenId",
          "type": "uint256"
        },
        {
          "internalType": "uint256",
          "name": "index",
          "type": "uint256"
        }
      ],
      "name": "unnestChild",
      "outputs": [],
      "stateMutability": "nonpayable",
      "type": "function"
    },
    {
      "inputs": [
        {
          "internalType": "uint256",
          "name": "tokenId",
          "type": "uint256"
        },
        {
          "internalType": "uint256",
          "name": "indexOnParent",
          "type": "uint256"
        }
      ],
      "name": "unnestSelf",
      "outputs": [],
      "stateMutability": "nonpayable",
      "type": "function"
    }
  ],
  "bytecode": "0x60c06040523480156200001157600080fd5b50604051620058823803806200588283398101604081905262000034916200019b565b838381818181878762000047336200007e565b60809190915260a052600e6200005e8382620002a4565b50600f6200006d8282620002a4565b505050505050505050505062000370565b600080546001600160a01b038381166001600160a01b0319831681178455604051919092169283917f8be0079c531659141344cd1fd0a4f28419497f9722a3daafe3b4186f6b6457e09190a35050565b634e487b7160e01b600052604160045260246000fd5b600082601f830112620000f657600080fd5b81516001600160401b0380821115620001135762000113620000ce565b604051601f8301601f19908116603f011681019082821181831017156200013e576200013e620000ce565b816040528381526020925086838588010111156200015b57600080fd5b600091505b838210156200017f578582018301518183018401529082019062000160565b83821115620001915760008385830101525b9695505050505050565b60008060008060808587031215620001b257600080fd5b84516001600160401b0380821115620001ca57600080fd5b620001d888838901620000e4565b95506020870151915080821115620001ef57600080fd5b50620001fe87828801620000e4565b604087015160609097015195989097509350505050565b600181811c908216806200022a57607f821691505b6020821081036200024b57634e487b7160e01b600052602260045260246000fd5b50919050565b601f8211156200029f57600081815260208120601f850160051c810160208610156200027a5750805b601f850160051c820191505b818110156200029b5782815560010162000286565b5050505b505050565b81516001600160401b03811115620002c057620002c0620000ce565b620002d881620002d1845462000215565b8462000251565b602080601f831160018114620003105760008415620002f75750858301515b600019600386901b1c1916600185901b1785556200029b565b600085815260208120601f198616915b82811015620003415788860151825594840194600190910190840162000320565b5085821015620003605787850151600019600388901b60f8161c191681555b5050505050600190811b01905550565b60805160a0516154d7620003ab60003960008181610b8e01526113d4015260008181610c01015281816112f6015261138101526154d76000f3fe60806040526004361061041b5760003560e01c80638da5cb5b1161021e578063c74d5c9011610123578063e985e9c5116100ab578063f2fde38b1161007a578063f2fde38b14610db7578063f638085c14610dd7578063f64669c314610df7578063fe679c6214610e17578063fe99049a14610e7357600080fd5b8063e985e9c514610ce5578063ec9e248214610d2e578063ed45ca9e14610d4e578063ed5fd0f514610d6e57600080fd5b8063daf30477116100f2578063daf3047714610c45578063dd6433d414610c65578063e0a6003814610c85578063e2e286af14610ca5578063e889757014610cc557600080fd5b8063c74d5c9014610bb2578063c87b56dd14610bd2578063d5abeb0114610bf2578063d61fcfc514610c2557600080fd5b8063a8cf5564116101a6578063b3556b8e11610175578063b3556b8e14610b0a578063b88d4fde14610b2a578063baace33e14610b4a578063c48a424314610b5f578063c5610a2914610b7f57600080fd5b8063a8cf556414610a3e578063a9059cbb14610a5e578063afc523f614610a7e578063b0d59c6714610ac557600080fd5b80639ad04ec1116101ed5780639ad04ec114610984578063a0eaec43146109a4578063a221abf3146109d1578063a22cb465146109fe578063a898e36414610a1e57600080fd5b80638da5cb5b146108f957806392401eb61461091757806393026a601461092c57806395d89b411461096f57600080fd5b806340c10f1911610324578063715018a6116102ac5780637b2e40fa1161027b5780637b2e40fa1461085a5780637e5852d91461087a578063891141d61461089957806389fe6c33146108b95780638bfb4ada146108d957600080fd5b8063715018a6146107f0578063739817dd1461080557806378816134146108255780637aba6f371461084557600080fd5b806344ec9344116102f357806344ec9344146107435780636352211e146107705780636ded7fd2146107905780636f19951c146107b057806370a08231146107d057600080fd5b806340c10f19146106d057806342842e0e146106e357806342966c6814610703578063430c20811461072357600080fd5b806318249af7116103a7578063286493d511610376578063286493d51461060a5780632f32f9371461062a5780633049fe5b1461065757806331c57d13146106775780633d47544a146106b057600080fd5b806318249af71461058a578063225beee1146105aa57806323b872dd146105ca57806324c6f83f146105ea57600080fd5b8063095ea7b3116103ee578063095ea7b3146104dc578063096835be146104fe5780630cc832351461051e578063135627cd1461053e57806318160ddd1461056b57600080fd5b806301ffc9a7146104205780630485c7411461045557806306fdde0314610482578063081812fc146104a4575b600080fd5b34801561042c57600080fd5b5061044061043b3660046147a9565b610e93565b60405190151581526020015b60405180910390f35b34801561046157600080fd5b506104756104703660046147c6565b610ebf565b60405161044c91906148b4565b34801561048e57600080fd5b50610497610f5d565b60405161044c9190614916565b3480156104b057600080fd5b506104c46104bf3660046147c6565b610fef565b6040516001600160a01b03909116815260200161044c565b3480156104e857600080fd5b506104fc6104f736600461493e565b611016565b005b34801561050a57600080fd5b506104fc6105193660046149d3565b6110a2565b34801561052a57600080fd5b506104756105393660046147c6565b6110b6565b34801561054a57600080fd5b5061055e6105593660046147c6565b611123565b60405161044c9190614a85565b34801561057757600080fd5b506001545b60405190815260200161044c565b34801561059657600080fd5b506104fc6105a5366004614b3c565b6111ad565b3480156105b657600080fd5b506104fc6105c5366004614b70565b6111b9565b3480156105d657600080fd5b506104fc6105e5366004614b92565b6111cd565b3480156105f657600080fd5b506104fc6106053660046147c6565b6111e1565b34801561061657600080fd5b506104fc610625366004614bd3565b61123f565b34801561063657600080fd5b5061064a610645366004614b70565b61125c565b60405161044c9190614c3e565b34801561066357600080fd5b506104fc610672366004614b70565b6112cc565b34801561068357600080fd5b50610440610692366004614c7a565b6001600160401b031660009081526008602052604090205460ff1690565b3480156106bc57600080fd5b506104fc6106cb366004614b70565b6112e0565b6104fc6106de36600461493e565b6112f4565b3480156106ef57600080fd5b506104fc6106fe366004614b92565b61147c565b34801561070f57600080fd5b506104fc61071e3660046147c6565b611497565b34801561072f57600080fd5b5061044061073e36600461493e565b6114ae565b34801561074f57600080fd5b5061076361075e3660046147c6565b6114ba565b60405161044c9190614c95565b34801561077c57600080fd5b506104c461078b3660046147c6565b611539565b34801561079c57600080fd5b506104fc6107ab366004614d0c565b6115f0565b3480156107bc57600080fd5b506107636107cb3660046147c6565b6115fb565b3480156107dc57600080fd5b5061057c6107eb366004614d69565b61166b565b3480156107fc57600080fd5b506104fc6116b0565b34801561081157600080fd5b506104fc610820366004614b70565b6116ef565b34801561083157600080fd5b506104fc61084036600461493e565b611703565b34801561085157600080fd5b506104fc61178b565b34801561086657600080fd5b506104fc6108753660046147c6565b6117ca565b34801561088657600080fd5b50600054600160a01b900460ff16610440565b3480156108a557600080fd5b506104c46108b43660046147c6565b6117dd565b3480156108c557600080fd5b506104fc6108d4366004614b92565b611804565b3480156108e557600080fd5b506104fc6108f4366004614d86565b61182f565b34801561090557600080fd5b506000546001600160a01b03166104c4565b34801561092357600080fd5b5061049761192c565b34801561093857600080fd5b506104fc610947366004614dcd565b6001600160401b0382166000908152600860205260409020805460ff19168215151790555050565b34801561097b57600080fd5b5061049761193b565b34801561099057600080fd5b506104fc61099f366004614e04565b61194a565b3480156109b057600080fd5b506109c46109bf3660046147c6565b611954565b60405161044c9190614e20565b3480156109dd57600080fd5b506109f16109ec366004614b70565b6119e6565b60405161044c9190614e61565b348015610a0a57600080fd5b506104fc610a19366004614e74565b611a4a565b348015610a2a57600080fd5b5061064a610a39366004614b70565b611a55565b348015610a4a57600080fd5b506109f1610a59366004614b70565b611a89565b348015610a6a57600080fd5b506104fc610a7936600461493e565b611ac1565b348015610a8a57600080fd5b50610a9e610a993660046147c6565b611acc565b604080516001600160a01b039094168452602084019290925215159082015260600161044c565b348015610ad157600080fd5b50610af1610ae0366004614e92565b63b0d59c6760e01b95945050505050565b6040516001600160e01b0319909116815260200161044c565b348015610b1657600080fd5b506104fc610b253660046147c6565b611b4d565b348015610b3657600080fd5b506104fc610b45366004614bd3565b611b60565b348015610b5657600080fd5b506109c4611b75565b348015610b6b57600080fd5b506104fc610b7a366004614f30565b611bfe565b348015610b8b57600080fd5b507f000000000000000000000000000000000000000000000000000000000000000061057c565b348015610bbe57600080fd5b506104fc610bcd366004614f6c565b611c3b565b348015610bde57600080fd5b50610497610bed3660046147c6565b611c45565b348015610bfe57600080fd5b507f000000000000000000000000000000000000000000000000000000000000000061057c565b348015610c3157600080fd5b50610497610c40366004614f9f565b611c52565b348015610c5157600080fd5b50610497610c60366004614b70565b611deb565b348015610c7157600080fd5b506104fc610c80366004614b70565b611df7565b348015610c9157600080fd5b506104fc610ca0366004614b70565b611e0b565b348015610cb157600080fd5b506109f1610cc0366004614c7a565b611ea6565b348015610cd157600080fd5b506104fc610ce0366004614e74565b61204f565b348015610cf157600080fd5b50610440610d00366004614fc4565b6001600160a01b03918216600090815260136020908152604080832093909416825291909152205460ff1690565b348015610d3a57600080fd5b506104fc610d49366004614ff2565b612084565b348015610d5a57600080fd5b506104fc610d69366004614b70565b61208f565b348015610d7a57600080fd5b50610440610d89366004614fc4565b6001600160a01b039182166000908152600d6020908152604080832093909416825291909152205460ff1690565b348015610dc357600080fd5b506104fc610dd2366004614d69565b6120a3565b348015610de357600080fd5b50610497610df2366004614f6c565b61213b565b348015610e0357600080fd5b506109c4610e123660046147c6565b6121fc565b348015610e2357600080fd5b50610e5b610e323660046150c2565b60009182526003602090815260408084206001600160401b039384168552909152909120541690565b6040516001600160401b03909116815260200161044c565b348015610e7f57600080fd5b506104fc610e8e3660046150e5565b612265565b6000610e9e8261227b565b80610eb957506001600160e01b031982166309ac673960e31b145b92915050565b6000818152600760209081526040808320805482518185028101850190935280835260609493830182828015610f4657602002820191906000526020600020906000905b82829054906101000a90046001600160401b03166001600160401b031681526020019060080190602082600701049283019260010382029150808411610f035790505b50505050509050610f56816122a0565b9392505050565b6060600e8054610f6c9061512b565b80601f0160208091040260200160405190810160405280929190818152602001828054610f989061512b565b8015610fe55780601f10610fba57610100808354040283529160200191610fe5565b820191906000526020600020905b815481529060010190602001808311610fc857829003601f168201915b5050505050905090565b6000610ffa8261237a565b506000908152601260205260409020546001600160a01b031690565b600061102182611539565b9050806001600160a01b0316836001600160a01b03160361105557604051630591db6d60e01b815260040160405180910390fd5b336001600160a01b0382161480159061107557506110738133610d00565b155b1561109357604051634c12315960e11b815260040160405180910390fd5b61109d8383612383565b505050565b816110ac816123f1565b61109d8383612418565b6000818152600460209081526040808320805482518185028101850190935280835260609493830182828015610f4657600091825260209182902080546001600160401b03168452908202830192909160089101808411610f0357905050505050509050610f56816122a0565b6000818152600560209081526040918290208054835181840281018401909452808452606093928301828280156111a157602002820191906000526020600020906000905b82829054906101000a900461ffff1661ffff16815260200190600201906020826001010492830192600103820291508084116111685790505b50505050509050919050565b6111b681612498565b50565b816111c3816124a4565b61109d83836124cb565b6111d6816124a4565b61109d83838361254f565b60006111ec82611acc565b505090506111f73390565b6001600160a01b0316816001600160a01b031614611228576040516304a959d760e51b815260040160405180910390fd5b600061123383611539565b905061109d8382612682565b81611249816124a4565b61125585858585612825565b5050505050565b6040805180820190915260008082526020820152600083815260156020526040812080548490811061129057611290615165565b60009182526020918290206040805180820190915260029092020180548252600101546001600160a01b03169181019190915291505092915050565b816112d6816124a4565b61109d8383612859565b816112ea816124a4565b61109d8383612a22565b7f00000000000000000000000000000000000000000000000000000000000000006001541061133657604051635e91cdfb60e11b815260040160405180910390fd5b600054600160a01b900460ff16156113615760405163ed1fa96f60e01b815260040160405180910390fd5b8061137f5760405163376bec4d60e01b815260040160405180910390fd5b7f0000000000000000000000000000000000000000000000000000000000000000600154826113ae9190615191565b11156113cd57604051635e91cdfb60e11b815260040160405180910390fd5b60006113f97f0000000000000000000000000000000000000000000000000000000000000000836151a9565b905034811461141b5760405163f2ffecad60e01b815260040160405180910390fd5b6000600154600161142c9190615191565b905082600160008282546114409190615191565b9091555050600180546000916114569190615191565b9050815b818110156114745761146c8682612a9e565b60010161145a565b505050505050565b61109d83838360405180602001604052806000815250611b60565b806114a1816124a4565b6114aa82612ab8565b5050565b6000610f568383612acf565b6000818152601660209081526040808320805482518185028101850190935280835260609493849084015b8282101561152d5760008481526020908190206040805180820190915260028502909101805482526001908101546001600160a01b03168284015290835290920191016114e5565b50929695505050505050565b60008060008061154885611acc565b92509250925080156115c0576040516331a9108f60e11b8152600481018390526001600160a01b03841690636352211e90602401602060405180830381865afa158015611599573d6000803e3d6000fd5b505050506040513d601f19601f820116820180604052508101906115bd91906151c8565b92505b6001600160a01b0383166115e75760405163089ba7e160e41b815260040160405180910390fd5b50909392505050565b61109d838383612b4d565b600081815260156020908152604080832080548251818502810185019093528083526060949384908401821561152d5760008481526020908190206040805180820190915260028502909101805482526001908101546001600160a01b03168284015290835290920191016114e5565b60006001600160a01b03821661169457604051633bb9143360e11b815260040160405180910390fd5b506001600160a01b031660009081526011602052604090205490565b6000546001600160a01b031633146116e35760405162461bcd60e51b81526004016116da906151e5565b60405180910390fd5b6116ed6000612bd4565b565b816116f9816123f1565b61109d8383612c24565b600061170e82611539565b9050806001600160a01b0316836001600160a01b03160361174257604051639efa161160e01b815260040160405180910390fd5b336001600160a01b0382161480159061176257506117608133610d89565b155b1561178057604051635d84267760e11b815260040160405180910390fd5b61109d818484612e22565b6000546001600160a01b031633146117b55760405162461bcd60e51b81526004016116da906151e5565b6000805460ff60a01b1916600160a01b179055565b806117d4816123f1565b6114aa82612e7e565b60006117e88261237a565b506000908152600c60205260409020546001600160a01b031690565b8061180e816124a4565b61182984848460405180602001604052806000815250612825565b50505050565b6040516357e291fb60e11b81526004810183905281906000906001600160a01b0383169063afc523f690602401606060405180830381865afa158015611879573d6000803e3d6000fd5b505050506040513d601f19601f8201168201806040525081019061189d919061521a565b50909150506001600160a01b03811630146118cb57604051637df7fbc360e01b815260040160405180910390fd5b604080518082019091528481526001600160a01b03841660208201526118f18682612f5b565b6040518681527fdafa86bf6eb93de96192c26c195c1c92ebfcbaf89db02fb6a29cb9ad9e6cc5329060200160405180910390a1505050505050565b6060600b8054610f6c9061512b565b6060600f8054610f6c9061512b565b6114aa8282612fda565b6000818152600460209081526040918290208054835181840281018401909452808452606093928301828280156111a157602002820191906000526020600020906000905b82829054906101000a90046001600160401b03166001600160401b031681526020019060080190602082600701049283019260010382029150808411611999575094979650505050505050565b611a13604051806060016040528060006001600160401b0316815260200160608152602001606081525090565b6000611a1e846121fc565b8381518110611a2f57611a2f615165565b60200260200101519050611a4281611ea6565b949350505050565b6114aa3383836130b3565b6040805180820190915260008082526020820152600083815260166020526040812080548490811061129057611290615165565b611ab6604051806060016040528060006001600160401b0316815260200160608152602001606081525090565b6000611a1e84611954565b6114aa3383836111cd565b60008181526014602090815260408083208151606081018352815481526001909101546001600160a01b038116938201849052600160a01b900460ff161515918101919091528291829190611b345760405163089ba7e160e41b815260040160405180910390fd5b6020810151815160409092015190969195509350915050565b80611b57816124a4565b6114aa82613153565b611b69826124a4565b611829848484846131a0565b6060600a805480602002602001604051908101604052809291908181526020018280548015610fe557602002820191906000526020600020906000905b82829054906101000a90046001600160401b03166001600160401b031681526020019060080190602082600701049283019260010382029150808411611bb25790505050505050905090565b6000611c0984611539565b6001600160a01b031603611c305760405163089ba7e160e41b815260040160405180910390fd5b61109d8383836131d4565b6114aa82826133a7565b6060610eb9826000613433565b6000838152600460209081526040808320805482518185028101850190935280835260609493830182828015611cd957602002820191906000526020600020906000905b82829054906101000a90046001600160401b03166001600160401b031681526020019060080190602082600701049283019260010382029150808411611c965790505b5050506000888152600460205260408120549394509150505b81811015611d54576000611d1f848381518110611d1157611d11615165565b60200260200101518861213b565b90508580519060200120818051906020012003611d4b57611d408883613433565b945050505050610f56565b50600101611cf2565b50600b8054611d629061512b565b80601f0160208091040260200160405190810160405280929190818152602001828054611d8e9061512b565b8015611ddb5780601f10611db057610100808354040283529160200191611ddb565b820191906000526020600020905b815481529060010190602001808311611dbe57829003601f168201915b5050505050925050509392505050565b6060610f568383613433565b81611e01816123f1565b61109d83836135be565b6000828152601560205260408120805483908110611e2b57611e2b615165565b60009182526020918290206040805180820190915260029092020180548252600101546001600160a01b0316918101919091529050611e673390565b6001600160a01b031681602001516001600160a01b031614611e9c57604051634bf5323760e01b815260040160405180910390fd5b61109d83836136c9565b611ed3604051806060016040528060006001600160401b0316815260200160608152602001606081525090565b6001600160401b03808316600090815260026020908152604080832081516060810190925280549094168152600184018054939491939192840191611f179061512b565b80601f0160208091040260200160405190810160405280929190818152602001828054611f439061512b565b8015611f905780601f10611f6557610100808354040283529160200191611f90565b820191906000526020600020905b815481529060010190602001808311611f7357829003601f168201915b505050505081526020016002820180548060200260200160405190810160405280929190818152602001828054801561201a57602002820191906000526020600020906000905b82829054906101000a90046001600160801b03166001600160801b031681526020019060100190602082600f01049283019260010382029150808411611fd75790505b5050509190925250508151919250506001600160401b0316610eb9576040516348e2e83760e01b815260040160405180910390fd5b336001600160a01b03831681036120795760405163353c229360e11b815260040160405180910390fd5b61109d818484613745565b61109d8383836137aa565b81612099816124a4565b61109d838361391f565b6000546001600160a01b031633146120cd5760405162461bcd60e51b81526004016116da906151e5565b6001600160a01b0381166121325760405162461bcd60e51b815260206004820152602660248201527f4f776e61626c653a206e6577206f776e657220697320746865207a65726f206160448201526564647265737360d01b60648201526084016116da565b6111b681612bd4565b6001600160401b03821660009081526009602090815260408083206001600160801b038516845290915290208054606091906121769061512b565b80601f01602080910402602001604051908101604052809291908181526020018280546121a29061512b565b80156121ef5780601f106121c4576101008083540402835291602001916121ef565b820191906000526020600020905b8154815290600101906020018083116121d257829003601f168201915b5050505050905092915050565b6000818152600760209081526040918290208054835181840281018401909452808452606093928301828280156111a157600091825260209182902080546001600160401b03168452908202830192909160089101808411611999575094979650505050505050565b8161226f816124a4565b61125585858585613a33565b60006001600160e01b03198216630ed4322560e41b1480610eb95750610eb982613b7b565b80516060906000816001600160401b038111156122bf576122bf61496a565b60405190808252806020026020018201604052801561231d57816020015b61230a604051806060016040528060006001600160401b0316815260200160608152602001606081525090565b8152602001906001900390816122dd5790505b50905060005b828110156123725761234d85828151811061234057612340615165565b6020026020010151611ea6565b82828151811061235f5761235f615165565b6020908102919091010152600101612323565b509392505050565b6111b681613bcb565b600081815260126020526040902080546001600160a01b0319166001600160a01b03841690811790915581906123b882611539565b6001600160a01b03167f8c5be1e5ebec7d5bd14f71427d1e84f3dd0314c0f7b2291e5b200ac8c7c3b92560405160405180910390a45050565b6123fb3382613bf1565b6111b65760405163eabb6dd760e01b815260040160405180910390fd5b8051600083815260046020526040902054811461244857604051633581be1d60e11b815260040160405180910390fd5b60008381526005602090815260409091208351612467928501906145c2565b5060405183907f50a12ecfcaf26b91454fd23edbcf04185b68d6e8c7edc4e35d14392889cdf79590600090a2505050565b600b6114aa8282615298565b6124ae3382612acf565b6111b6576040516302728a9d60e41b815260040160405180910390fd5b60008281526015602052604090205481106124f95760405163653e642560e11b815260040160405180910390fd5b60008281526015602052604090206125119082613c5d565b60408051838152602081018390527f6964a1de3204f1b98fd6e17a4adb61ff7374b6e10e6890edbf6620c28c6cdff691015b60405180910390a15050565b826001600160a01b031661256282611539565b6001600160a01b0316146125895760405163e146af6f60e01b815260040160405180910390fd5b6001600160a01b0382166125b0576040516338f646ff60e21b815260040160405180910390fd5b600081815260146020526040902060010154600160a01b900460ff16156125ea5760405163cb1ff0c160e01b815260040160405180910390fd5b6001600160a01b0383166000908152601160205260408120805460019290612613908490615357565b9091555061262690508160008481613d24565b6001600160a01b038216600090815260116020526040812080546001929061264f908490615191565b909155505060405181906001600160a01b03808516919086169060008051602061548283398151915290600090a4505050565b61268d600083612383565b612698600083613d9c565b6001600160a01b03811660009081526011602052604081208054600192906126c1908490615357565b90915550600090506126d2836115fb565b805190915060005b818110156127935760008382815181106126f6576126f6615165565b6020026020010151602001519050600084838151811061271857612718615165565b6020026020010151600001519050816001600160a01b03166324c6f83f826040518263ffffffff1660e01b815260040161275491815260200190565b600060405180830381600087803b15801561276e57600080fd5b505af1158015612782573d6000803e3d6000fd5b5050505082600101925050506126da565b50600084815260146020908152604080832083815560010180546001600160a81b0319169055601690915281206127c99161466b565b60008481526015602052604081206127e09161466b565b60008481526012602052604080822080546001600160a01b0319169055518591906001600160a01b03861690600080516020615482833981519152908390a450505050565b61283084848461254f565b61283c84848484613da8565b61182957604051636464a3e360e11b815260040160405180910390fd5b6000828152601460209081526040918290208251606081018452815481526001909101546001600160a01b038116928201839052600160a01b900460ff161515928101929092526128bd5760405163fc3c6af160e01b815260040160405180910390fd5b80604001516128df5760405163715f683f60e11b815260040160405180910390fd5b602081015181516040516331a9108f60e11b815260048101919091526000916001600160a01b031690636352211e90602401602060405180830381865afa15801561292e573d6000803e3d6000fd5b505050506040513d601f19601f8201168201806040525081019061295291906151c8565b6040805160608101825260008082526001600160a01b0380851660208085019182528486018481528b85526014825293869020945185559051600194909401805493511515600160a01b026001600160a81b0319909416948316949094179290921790925585015185519251631c14c00760e31b8152939450169163e0a60038916129ea918790600401918252602082015260400190565b600060405180830381600087803b158015612a0457600080fd5b505af1158015612a18573d6000803e3d6000fd5b5050505050505050565b6000828152601660205260409020548110612a505760405163da22687f60e01b815260040160405180910390fd5b6000828152601660205260409020612a689082613c5d565b60408051838152602081018390527fae03828c079c52594effa5a4748a742582fecaad46b3beb7ebf437136e68a75d9101612543565b6114aa828260405180602001604052806000815250613e9b565b6000612ac382611539565b90506114aa8282612682565b600080612adb83611539565b9050806001600160a01b0316846001600160a01b03161480612b2257506001600160a01b0380821660009081526013602090815260408083209388168352929052205460ff165b80611a425750836001600160a01b0316612b3b84610fef565b6001600160a01b031614949350505050565b6001600160401b03831660009081526009602090815260408083206001600160801b03861684529091529020612b838282615298565b50604080516001600160401b03851681526001600160801b03841660208201527fa6b4ad1060e2cb7b9bdf0247137e2e9a4c0dab5112477dccdabc103e34283d8091015b60405180910390a1505050565b600080546001600160a01b038381166001600160a01b0319831681178455604051919092169283917f8be0079c531659141344cd1fd0a4f28419497f9722a3daafe3b4186f6b6457e09190a35050565b6000828152600760205260409020548110612c5257604051630757d52160e01b815260040160405180910390fd5b6000828152600760205260408120805483908110612c7257612c72615165565b600091825260208083206004830401548684526007909152604090922060039091166008026101000a9091046001600160401b03169150612cb39083613ecf565b60008381526003602090815260408083206001600160401b038086168552925290912054168015612d66576000848152600460205260409020612cf69082613fb5565b6040516001600160401b038216815284907f0c3ab9436ca1f55688a28969e7eac425945dded8cc4acf7f4e738cfa6fa1657c9060200160405180910390a260008481526003602090815260408083206001600160401b03861684529091529020805467ffffffffffffffff191690555b60008481526004602081815260408084208054600180820183559186528386209481049094018054600390951660080261010090810a6001600160401b0381810219909716968a1690810296909617909155898652600584528286208054928301815586529483902060108204018054600f90921660020290950a61ffff021916909355915190815285917f51e9958189f528b912f96508d6a4b68583858166eda14d580dfbd24e9a79dfdb910160405180910390a250505050565b6000818152600c602052604080822080546001600160a01b0319166001600160a01b0386811691821790925591518493918716917fa98c62723e75b26c5e5710fb12b5bf7712e6926f6dc932de622e715553f5149191a4505050565b600081815260076020526040812054905b81811015612f09576000838152600760205260408120805483908110612eb757612eb7615165565b6000918252602080832060048304015487845260038083526040808620919094166008026101000a9091046001600160401b0316845290529020805467ffffffffffffffff1916905550600101612e8f565b506000828152600760205260408120612f219161468c565b6040516000815282907f8d0cdca57de6b2fb4babd8b68c83db0b0981610d338eb68eea1f4b1e1d78dc1c9060200160405180910390a25050565b60008281526016602052604090205460801115612fc15760009182526016602090815260408320805460018082018355918552938290208351600290950201938455910151910180546001600160a01b0319166001600160a01b03909216919091179055565b60405163a53c8c0560e01b815260040160405180910390fd5b6001600160401b038216600090815260026020819052604082200180548390811061300757613007615165565b90600052602060002090600291828204019190066010029054906101000a90046001600160801b0316905061306c8260026000866001600160401b03166001600160401b0316815260200190815260200160002060020161409390919063ffffffff16565b604080516001600160401b03851681526001600160801b03831660208201527f22369f188e0755616f4935b698f0a859dea683b9c56b2b9eeee0b1b78fa5723b9101612bc7565b816001600160a01b0316836001600160a01b0316036130e557604051630b7b99b960e21b815260040160405180910390fd5b6001600160a01b03838116600081815260136020908152604080832094871680845294825291829020805460ff191686151590811790915591519182527f17307eab39ab6107e8899845ad3d59bd9653f200f220920489ca2b5937696c3191015b60405180910390a3505050565b600081815260166020526040812061316a9161466b565b6040518181527f45ff729c59036a15df911ae25faf1e09e866ced1fcbc5333b29eb8e4d8c71c679060200160405180910390a150565b6131ab84848461254f565b6131b784848484614179565b6118295760405163bcb5663760e01b815260040160405180910390fd5b60008381526006602090815260408083206001600160401b038616845290915290205460ff161561321857604051633348dd1d60e01b815260040160405180910390fd5b600061322383611ea6565b516001600160401b03160361324b57604051630f8f451560e01b815260040160405180910390fd5b60008381526007602052604090205460801161327a5760405163dfaea09b60e01b815260040160405180910390fd5b60008381526006602090815260408083206001600160401b038681168086529184528285208054600160ff19909116811790915588865260078552928520805493840181558552929093206004820401805460039092166008026101000a8084021990921691909302179091558116156133635760008381526003602090815260408083206001600160401b0386811680865291845293829020805467ffffffffffffffff1916948616948517905581519081529182019290925284917fe76caab2912f68cd628bc085e006c86b8a478d13be698638b0c533030d120b4e910160405180910390a25b6040516001600160401b038316815283907ffc4d0a03f3026d7ce3427493c9289ea9768a6edd425e854cea7600d244ecc2c3906020015b60405180910390a2505050565b6001600160401b03821660008181526002602081815260408084208301805460018082018355918652948390209385049093018054939094166010026101000a6001600160801b03818102199094169387169081029390931790935582519384528301527f067cb5aa78490aed8c47f1ee01a1326dc717c8138b66144e6d222c94e389a46d9101612543565b60008281526004602052604090205460609082101561352c57600083815260046020526040812080548490811061346c5761346c615165565b90600052602060002090600491828204019190066008029054906101000a90046001600160401b03169050606060006134a483611ea6565b6001600160401b03841660009081526008602052604090205490915060ff166134d35780602001519150613522565b602081015180516134f3576040518060200160405280600081525061351e565b806134fd88614268565b60405160200161350e92919061536e565b6040516020818303038152906040525b9250505b509150610eb99050565b600b80546135399061512b565b80601f01602080910402602001604051908101604052809291908181526020018280546135659061512b565b80156135b25780601f10613587576101008083540402835291602001916135b2565b820191906000526020600020905b81548152906001019060200180831161359557829003601f168201915b50505050509050610eb9565b60008281526007602052604090205481106135ec57604051630757d52160e01b815260040160405180910390fd5b600082815260076020526040812080548390811061360c5761360c615165565b600091825260208083206004830401548684526007909152604090922060039091166008026101000a9091046001600160401b0316915061364d9083613ecf565b60008381526006602090815260408083206001600160401b038516808552908352818420805460ff1916905586845260038352818420818552835292819020805467ffffffffffffffff191690555191825284917f8d0cdca57de6b2fb4babd8b68c83db0b0981610d338eb68eea1f4b1e1d78dc1c910161339a565b60008281526015602052604090205481106136f75760405163653e642560e11b815260040160405180910390fd5b600082815260156020526040902061370f9082613c5d565b60408051838152602081018390527f241c7ca16796e41b08b8f4535acd6360c73187f01a9e85194ee35f1466578c299101612543565b6001600160a01b038381166000818152600d6020908152604080832094871680845294825291829020805460ff191686151590811790915591519182527f9c03d4f9a8db6d81765cbe2097e83f44253564fbf3c1adfb09a8067464ad3f4b9101613146565b6001600160401b0383166137d15760405163280d806360e01b815260040160405180910390fd5b6001600160401b03838116600090815260026020526040902054161561380a57604051633348dd1d60e01b815260040160405180910390fd5b604080516060810182526001600160401b038581168083526020808401878152848601879052600092835260029091529390208251815467ffffffffffffffff1916921691909117815591519091829160018201906138699082615298565b50604082015180516138859160028401916020909101906146b1565b5050600a8054600181018255600091909152600481047fc65a7bb8d6351c1cf70c95a316cc6a92839c986682d98bc35f958f4883f9d2a80180546001600160401b0388811660086003909516949094026101000a8481029102199091161790556040519081527f8a5ccfca4023cda4a0a59a1bb73783f6b3ba77465537d0c8f2bef5eb2511552a915060200160405180910390a150505050565b600082815260166020526040902054811061394d5760405163da22687f60e01b815260040160405180910390fd5b600082815260166020526040812080548390811061396d5761396d615165565b60009182526020808320604080518082018252600290940290910180548452600101546001600160a01b03168383015286845260169091529091209091506139b59083613c5d565b6000838152601560209081526040822080546001808201835591845292829020845160029094020192835590830151910180546001600160a01b0319166001600160a01b039092169190911790556040518381527f03e53bd97b9cb7f51f782864c91d625a992c0b980750b00d6eb1d7b4956210a290602001612bc7565b836001600160a01b0316613a4683611539565b6001600160a01b031614613a6d5760405163e146af6f60e01b815260040160405180910390fd5b600082815260146020526040902060010154600160a01b900460ff1615613aa75760405163cb1ff0c160e01b815260040160405180910390fd5b6040516301ffc9a760e01b8152630ed4322560e41b60048201526001600160a01b038416906301ffc9a790602401602060405180830381865afa158015613af2573d6000803e3d6000fd5b505050506040513d601f19601f82011682018060405250810190613b16919061539d565b613b3357604051636464a3e360e11b815260040160405180910390fd5b6001600160a01b0384166000908152601160205260408120805460019290613b5c908490615357565b90915550613b6f90508282856001613d24565b61182982828686614368565b60006001600160e01b031982166380ac58cd60e01b1480613bac57506001600160e01b03198216635b5e139f60e01b145b80610eb957506301ffc9a760e01b6001600160e01b0319831614610eb9565b613bd4816144a4565b6111b65760405163089ba7e160e41b815260040160405180910390fd5b600080613bfd83611539565b9050806001600160a01b0316846001600160a01b03161480613c4457506001600160a01b038082166000908152600d602090815260408083209388168352929052205460ff165b80611a425750836001600160a01b0316612b3b846117dd565b81548110613c6a57600080fd5b81548290613c7a90600190615357565b81548110613c8a57613c8a615165565b9060005260206000209060020201828281548110613caa57613caa615165565b600091825260209091208254600290920201908155600191820154910180546001600160a01b0319166001600160a01b039092169190911790558154829080613cf557613cf56153ba565b60008281526020812060026000199093019283020190815560010180546001600160a01b031916905590555050565b604080516060810182528481526001600160a01b03808516602080840191825285151584860190815260008a815260149092529481209351845590516001909301805494511515600160a01b026001600160a81b0319909516939092169290921792909217909155613d969085612383565b61182982855b6114aa82600083612e22565b60006001600160a01b0384163b15613e905760405163b0d59c6760e01b81526001600160a01b0385169063b0d59c6790613dec9033908990889088906004016153d0565b6020604051808303816000875af1925050508015613e27575060408051601f3d908101601f19168201909252613e249181019061540d565b60015b613e76573d808015613e55576040519150601f19603f3d011682016040523d82523d6000602084013e613e5a565b606091505b508051600003613e6e576000915050611a42565b805181602001fd5b6001600160e01b03191663b0d59c6760e01b149050611a42565b506001949350505050565b613ea583836144c6565b613eb26000848484614179565b61109d5760405163bcb5663760e01b815260040160405180910390fd5b81548110613edc57600080fd5b81548290613eec90600190615357565b81548110613efc57613efc615165565b90600052602060002090600491828204019190066008029054906101000a90046001600160401b0316828281548110613f3757613f37615165565b90600052602060002090600491828204019190066008026101000a8154816001600160401b0302191690836001600160401b0316021790555081805480613f8057613f806153ba565b60008281526020902060046000199092019182040180546001600160401b03600860038516026101000a021916905590555050565b60008280548060200260200160405190810160405280929190818152602001828054801561403457602002820191906000526020600020906000905b82829054906101000a90046001600160401b03166001600160401b031681526020019060080190602082600701049283019260010382029150808411613ff15790505b505083519394506000925050505b8181101561125557836001600160401b031683828151811061406657614066615165565b60200260200101516001600160401b03160361408b576140868582613ecf565b611255565b600101614042565b815481106140a057600080fd5b815482906140b090600190615357565b815481106140c0576140c0615165565b90600052602060002090600291828204019190066010029054906101000a90046001600160801b03168282815481106140fb576140fb615165565b90600052602060002090600291828204019190066010026101000a8154816001600160801b0302191690836001600160801b0316021790555081805480614144576141446153ba565b60008281526020902060026000199092019182040180546001600160801b03601060018516026101000a021916905590555050565b60006001600160a01b0384163b15613e9057604051630a85bd0160e11b81526001600160a01b0385169063150b7a02906141bd9033908990889088906004016153d0565b6020604051808303816000875af19250505080156141f8575060408051601f3d908101601f191682019092526141f59181019061540d565b60015b61424e573d808015614226576040519150601f19603f3d011682016040523d82523d6000602084013e61422b565b606091505b508051600003613e6e5760405163bcb5663760e01b815260040160405180910390fd5b6001600160e01b031916630a85bd0160e11b149050611a42565b60608160000361428f5750506040805180820190915260018152600360fc1b602082015290565b8160005b81156142b957806142a38161542a565b91506142b29050600a83615459565b9150614293565b6000816001600160401b038111156142d3576142d361496a565b6040519080825280601f01601f1916602001820160405280156142fd576020820181803683370190505b5090505b8415611a4257614312600183615357565b915061431f600a8661546d565b61432a906030615191565b60f81b81838151811061433f5761433f615165565b60200101906001600160f81b031916908160001a905350614361600a86615459565b9450614301565b6040516331a9108f60e11b81526004810184905281906000906001600160a01b03831690636352211e90602401602060405180830381865afa1580156143b2573d6000803e3d6000fd5b505050506040513d601f19601f820116820180604052508101906143d691906151c8565b6001600160a01b03811660009081526011602052604081208054929350600192909190614404908490615191565b90915550506040516345fda56d60e11b815260048101869052602481018790523060448201526001600160a01b03831690638bfb4ada90606401600060405180830381600087803b15801561445857600080fd5b505af115801561446c573d6000803e3d6000fd5b5050505085836001600160a01b0316856001600160a01b031660008051602061548283398151915260405160405180910390a4611474565b6000818152601460205260408120600101546001600160a01b03161515610eb9565b6001600160a01b0382166144ed576040516325bd6bd360e01b815260040160405180910390fd5b6144f6816144a4565b156145145760405163c5a8d37160e01b815260040160405180910390fd5b6001600160a01b038216600090815260116020526040812080546001929061453d908490615191565b90915550506040805160608101825260008082526001600160a01b03808616602080850182815285870185815288865260149092528685209551865551600195909501805491511515600160a01b026001600160a81b031990921695909316949094179390931790559151839290600080516020615482833981519152908290a45050565b82805482825590600052602060002090600f0160109004810192821561465b5791602002820160005b8382111561462b57835183826101000a81548161ffff021916908361ffff16021790555092602001926002016020816001010492830192600103026145eb565b80156146595782816101000a81549061ffff021916905560020160208160010104928301926001030261462b565b505b50614667929150614757565b5090565b50805460008255600202906000526020600020908101906111b6919061476c565b5080546000825560030160049004906000526020600020908101906111b69190614757565b8280548282559060005260206000209060010160029004810192821561465b5791602002820160005b8382111561472457835183826101000a8154816001600160801b0302191690836001600160801b031602179055509260200192601001602081600f010492830192600103026146da565b80156146595782816101000a8154906001600160801b030219169055601001602081600f01049283019260010302614724565b5b808211156146675760008155600101614758565b5b8082111561466757600081556001810180546001600160a01b031916905560020161476d565b6001600160e01b0319811681146111b657600080fd5b6000602082840312156147bb57600080fd5b8135610f5681614793565b6000602082840312156147d857600080fd5b5035919050565b60005b838110156147fa5781810151838201526020016147e2565b838111156118295750506000910152565b600081518084526148238160208601602086016147df565b601f01601f19169290920160200192915050565b6001600160401b038151168252600060208083015160608286015261485f606086018261480b565b60408581015187830391880191909152805180835290840192506000918401905b808310156148a95783516001600160801b03168252928401926001929092019190840190614880565b509695505050505050565b6000602080830181845280855180835260408601915060408160051b870101925083870160005b8281101561490957603f198886030184526148f7858351614837565b945092850192908501906001016148db565b5092979650505050505050565b602081526000610f56602083018461480b565b6001600160a01b03811681146111b657600080fd5b6000806040838503121561495157600080fd5b823561495c81614929565b946020939093013593505050565b634e487b7160e01b600052604160045260246000fd5b604051601f8201601f191681016001600160401b03811182821017156149a8576149a861496a565b604052919050565b60006001600160401b038211156149c9576149c961496a565b5060051b60200190565b600080604083850312156149e657600080fd5b823591506020808401356001600160401b03811115614a0457600080fd5b8401601f81018613614a1557600080fd5b8035614a28614a23826149b0565b614980565b81815260059190911b82018301908381019088831115614a4757600080fd5b928401925b82841015614a7657833561ffff81168114614a675760008081fd5b82529284019290840190614a4c565b80955050505050509250929050565b6020808252825182820181905260009190848201906040850190845b81811015614ac157835161ffff1683529284019291840191600101614aa1565b50909695505050505050565b600082601f830112614ade57600080fd5b81356001600160401b03811115614af757614af761496a565b614b0a601f8201601f1916602001614980565b818152846020838601011115614b1f57600080fd5b816020850160208301376000918101602001919091529392505050565b600060208284031215614b4e57600080fd5b81356001600160401b03811115614b6457600080fd5b611a4284828501614acd565b60008060408385031215614b8357600080fd5b50508035926020909101359150565b600080600060608486031215614ba757600080fd5b8335614bb281614929565b92506020840135614bc281614929565b929592945050506040919091013590565b60008060008060808587031215614be957600080fd5b8435614bf481614929565b93506020850135614c0481614929565b92506040850135915060608501356001600160401b03811115614c2657600080fd5b614c3287828801614acd565b91505092959194509250565b815181526020808301516001600160a01b03169082015260408101610eb9565b80356001600160401b0381168114614c7557600080fd5b919050565b600060208284031215614c8c57600080fd5b610f5682614c5e565b602080825282518282018190526000919060409081850190868401855b82811015614ce857614cd8848351805182526020908101516001600160a01b0316910152565b9284019290850190600101614cb2565b5091979650505050505050565b80356001600160801b0381168114614c7557600080fd5b600080600060608486031215614d2157600080fd5b614d2a84614c5e565b9250614d3860208501614cf5565b915060408401356001600160401b03811115614d5357600080fd5b614d5f86828701614acd565b9150509250925092565b600060208284031215614d7b57600080fd5b8135610f5681614929565b600080600060608486031215614d9b57600080fd5b83359250602084013591506040840135614db481614929565b809150509250925092565b80151581146111b657600080fd5b60008060408385031215614de057600080fd5b614de983614c5e565b91506020830135614df981614dbf565b809150509250929050565b60008060408385031215614e1757600080fd5b61495c83614c5e565b6020808252825182820181905260009190848201906040850190845b81811015614ac15783516001600160401b031683529284019291840191600101614e3c565b602081526000610f566020830184614837565b60008060408385031215614e8757600080fd5b8235614de981614929565b600080600080600060808688031215614eaa57600080fd5b8535614eb581614929565b94506020860135614ec581614929565b93506040860135925060608601356001600160401b0380821115614ee857600080fd5b818801915088601f830112614efc57600080fd5b813581811115614f0b57600080fd5b896020828501011115614f1d57600080fd5b9699959850939650602001949392505050565b600080600060608486031215614f4557600080fd5b83359250614f5560208501614c5e565b9150614f6360408501614c5e565b90509250925092565b60008060408385031215614f7f57600080fd5b614f8883614c5e565b9150614f9660208401614cf5565b90509250929050565b600080600060608486031215614fb457600080fd5b83359250614d3860208501614cf5565b60008060408385031215614fd757600080fd5b8235614fe281614929565b91506020830135614df981614929565b60008060006060848603121561500757600080fd5b61501084614c5e565b92506020808501356001600160401b038082111561502d57600080fd5b61503988838901614acd565b9450604087013591508082111561504f57600080fd5b508501601f8101871361506157600080fd5b803561506f614a23826149b0565b81815260059190911b8201830190838101908983111561508e57600080fd5b928401925b828410156150b3576150a484614cf5565b82529284019290840190615093565b80955050505050509250925092565b600080604083850312156150d557600080fd5b82359150614f9660208401614c5e565b600080600080608085870312156150fb57600080fd5b843561510681614929565b9350602085013561511681614929565b93969395505050506040820135916060013590565b600181811c9082168061513f57607f821691505b60208210810361515f57634e487b7160e01b600052602260045260246000fd5b50919050565b634e487b7160e01b600052603260045260246000fd5b634e487b7160e01b600052601160045260246000fd5b600082198211156151a4576151a461517b565b500190565b60008160001904831182151516156151c3576151c361517b565b500290565b6000602082840312156151da57600080fd5b8151610f5681614929565b6020808252818101527f4f776e61626c653a2063616c6c6572206973206e6f7420746865206f776e6572604082015260600190565b60008060006060848603121561522f57600080fd5b835161523a81614929565b602085015160408601519194509250614db481614dbf565b601f82111561109d57600081815260208120601f850160051c810160208610156152795750805b601f850160051c820191505b8181101561147457828155600101615285565b81516001600160401b038111156152b1576152b161496a565b6152c5816152bf845461512b565b84615252565b602080601f8311600181146152fa57600084156152e25750858301515b600019600386901b1c1916600185901b178555611474565b600085815260208120601f198616915b828110156153295788860151825594840194600190910190840161530a565b50858210156153475787850151600019600388901b60f8161c191681555b5050505050600190811b01905550565b6000828210156153695761536961517b565b500390565b600083516153808184602088016147df565b8351908301906153948183602088016147df565b01949350505050565b6000602082840312156153af57600080fd5b8151610f5681614dbf565b634e487b7160e01b600052603160045260246000fd5b6001600160a01b03858116825284166020820152604081018390526080606082018190526000906154039083018461480b565b9695505050505050565b60006020828403121561541f57600080fd5b8151610f5681614793565b60006001820161543c5761543c61517b565b5060010190565b634e487b7160e01b600052601260045260246000fd5b60008261546857615468615443565b500490565b60008261547c5761547c615443565b50069056feddf252ad1be2c89b69c2b068fc378daa952ba7f163c4a11628f55a4df523b3efa2646970667358221220802ccf62c88de17dbbe6137d30e97859b49142162a424531de244dd5c143359b64736f6c634300080f0033",
  "linkReferences": {},
  "deployedLinkReferences": {}
}