{
  "_format": "hh-sol-artifact-1",
  "contractName": "RMRKFactory",
  "sourceName": "contracts/factory/RMRKFactory.sol",
  "abi": [
    {
      "anonymous": false,
      "inputs": [
        {
          "indexed": true,
          "internalType": "address",
          "name": "multiResourceContract",
          "type": "address"
        },
        {
          "indexed": true,
          "internalType": "address",
          "name": "deployer",
          "type": "address"
        }
      ],
      "name": "NewRMRKMultiResourceContract",
      "type": "event"
    },
    {
      "inputs": [
        {
          "internalType": "string",
          "name": "name",
          "type": "string"
        },
        {
          "internalType": "string",
          "name": "symbol",
          "type": "string"
        },
        {
          "internalType": "uint256",
          "name": "maxSupply",
          "type": "uint256"
        },
        {
          "internalType": "uint256",
          "name": "pricePerMint",
          "type": "uint256"
        }
      ],
      "name": "deployRMRKMultiResource",
      "outputs": [],
      "stateMutability": "nonpayable",
      "type": "function"
    },
    {
      "inputs": [
        {
          "internalType": "uint256",
          "name": "",
          "type": "uint256"
        }
      ],
      "name": "multiResourceNftCollections",
      "outputs": [
        {
          "internalType": "address",
          "name": "",
          "type": "address"
        }
      ],
      "stateMutability": "view",
      "type": "function"
    }
  ],
  "bytecode": "0x608060405234801561001057600080fd5b506141b3806100206000396000f3fe608060405234801561001057600080fd5b50600436106100365760003560e01c80630f1666bd1461003b5780639dea3bc814610050575b600080fd5b61004e610049366004610214565b61007f565b005b61006361005e366004610288565b61013a565b6040516001600160a01b03909116815260200160405180910390f35b60008484848460405161009190610164565b61009e94939291906102ee565b604051809103906000f0801580156100ba573d6000803e3d6000fd5b50600080546001810182558180527f290decd9548b62a8d60345a988386fc84ba6bc95484008f6362f93160ef3e5630180546001600160a01b0319166001600160a01b038416908117909155604051929350339290917fa6314d81fc08fcf1a4f4f3db71909a31bd5435f31ee6f52c19dc79d9acabd25291a35050505050565b6000818154811061014a57600080fd5b6000918252602090912001546001600160a01b0316905081565b613e568061032883390190565b634e487b7160e01b600052604160045260246000fd5b600082601f83011261019857600080fd5b813567ffffffffffffffff808211156101b3576101b3610171565b604051601f8301601f19908116603f011681019082821181831017156101db576101db610171565b816040528381528660208588010111156101f457600080fd5b836020870160208301376000602085830101528094505050505092915050565b6000806000806080858703121561022a57600080fd5b843567ffffffffffffffff8082111561024257600080fd5b61024e88838901610187565b9550602087013591508082111561026457600080fd5b5061027187828801610187565b949794965050505060408301359260600135919050565b60006020828403121561029a57600080fd5b5035919050565b6000815180845260005b818110156102c7576020818501810151868301820152016102ab565b818111156102d9576000602083870101525b50601f01601f19169290920160200192915050565b60808152600061030160808301876102a1565b828103602084015261031381876102a1565b60408401959095525050606001529291505056fe60c06040523480156200001157600080fd5b5060405162003e5638038062003e56833981016040819052620000349162000197565b83838181858562000045336200007a565b60809190915260a05260026200005c8382620002a0565b5060036200006b8282620002a0565b5050505050505050506200036c565b600080546001600160a01b038381166001600160a01b0319831681178455604051919092169283917f8be0079c531659141344cd1fd0a4f28419497f9722a3daafe3b4186f6b6457e09190a35050565b634e487b7160e01b600052604160045260246000fd5b600082601f830112620000f257600080fd5b81516001600160401b03808211156200010f576200010f620000ca565b604051601f8301601f19908116603f011681019082821181831017156200013a576200013a620000ca565b816040528381526020925086838588010111156200015757600080fd5b600091505b838210156200017b57858201830151818301840152908201906200015c565b838211156200018d5760008385830101525b9695505050505050565b60008060008060808587031215620001ae57600080fd5b84516001600160401b0380821115620001c657600080fd5b620001d488838901620000e0565b95506020870151915080821115620001eb57600080fd5b50620001fa87828801620000e0565b604087015160609097015195989097509350505050565b600181811c908216806200022657607f821691505b6020821081036200024757634e487b7160e01b600052602260045260246000fd5b50919050565b601f8211156200029b57600081815260208120601f850160051c81016020861015620002765750805b601f850160051c820191505b81811015620002975782815560010162000282565b5050505b505050565b81516001600160401b03811115620002bc57620002bc620000ca565b620002d481620002cd845462000211565b846200024d565b602080601f8311600181146200030c5760008415620002f35750858301515b600019600386901b1c1916600185901b17855562000297565b600085815260208120601f198616915b828110156200033d578886015182559484019460019091019084016200031c565b50858210156200035c5787850151600019600388901b60f8161c191681555b5050505050600190811b01905550565b60805160a051613aaf620003a76000396000818161071d0152610da501526000818161079001528181610cc70152610d520152613aaf6000f3fe6080604052600436106102935760003560e01c806393026a601161015a578063c87b56dd116100c1578063e985e9c51161007a578063e985e9c514610834578063ec9e24821461087d578063f2fde38b1461089d578063f638085c146108bd578063f64669c3146108dd578063fe679c62146108fd57600080fd5b8063c87b56dd14610761578063d5abeb0114610781578063d61fcfc5146107b4578063daf30477146107d4578063dd6433d4146107f4578063e2e286af1461081457600080fd5b8063a8cf556411610113578063a8cf556414610699578063b88d4fde146106b9578063baace33e146106d9578063c48a4243146106ee578063c5610a291461070e578063c74d5c901461074157600080fd5b806393026a60146105ca57806395d89b41146105ea5780639ad04ec1146105ff578063a0eaec431461061f578063a221abf31461064c578063a22cb4651461067957600080fd5b806340c10f19116101fe578063739817dd116101b7578063739817dd146105235780637aba6f37146105435780637b2e40fa146105585780637e5852d9146105785780638da5cb5b1461059757806392401eb6146105b557600080fd5b806340c10f191461047b57806342842e0e1461048e5780636352211e146104ae5780636ded7fd2146104ce57806370a08231146104ee578063715018a61461050e57600080fd5b80630cc83235116102505780630cc8323514610396578063135627cd146103b657806318160ddd146103e357806318249af71461040257806323b872dd1461042257806331c57d131461044257600080fd5b806301ffc9a7146102985780630485c741146102cd57806306fdde03146102fa578063081812fc1461031c578063095ea7b314610354578063096835be14610376575b600080fd5b3480156102a457600080fd5b506102b86102b3366004612fcc565b610959565b60405190151581526020015b60405180910390f35b3480156102d957600080fd5b506102ed6102e8366004612fe9565b610984565b6040516102c491906130d7565b34801561030657600080fd5b5061030f610a22565b6040516102c49190613139565b34801561032857600080fd5b5061033c610337366004612fe9565b610ab4565b6040516001600160a01b0390911681526020016102c4565b34801561036057600080fd5b5061037461036f366004613168565b610adb565b005b34801561038257600080fd5b506103746103913660046131fb565b610b67565b3480156103a257600080fd5b506102ed6103b1366004612fe9565b610b7b565b3480156103c257600080fd5b506103d66103d1366004612fe9565b610be8565b6040516102c491906132ad565b3480156103ef57600080fd5b506001545b6040519081526020016102c4565b34801561040e57600080fd5b5061037461041d366004613364565b610c72565b34801561042e57600080fd5b5061037461043d366004613398565b610cb1565b34801561044e57600080fd5b506102b861045d3660046133eb565b6001600160401b03166000908152600e602052604090205460ff1690565b610374610489366004613168565b610cc5565b34801561049a57600080fd5b506103746104a9366004613398565b610e4d565b3480156104ba57600080fd5b5061033c6104c9366004612fe9565b610e68565b3480156104da57600080fd5b506103746104e936600461341d565b610e9e565b3480156104fa57600080fd5b506103f461050936600461347a565b610ed3565b34801561051a57600080fd5b50610374610f18565b34801561052f57600080fd5b5061037461053e366004613495565b610f4e565b34801561054f57600080fd5b50610374610f62565b34801561056457600080fd5b50610374610573366004612fe9565b610fa1565b34801561058457600080fd5b50600054600160a01b900460ff166102b8565b3480156105a357600080fd5b506000546001600160a01b031661033c565b3480156105c157600080fd5b5061030f610fb8565b3480156105d657600080fd5b506103746105e53660046134c7565b610fc7565b3480156105f657600080fd5b5061030f611019565b34801561060b57600080fd5b5061037461061a3660046134fa565b611028565b34801561062b57600080fd5b5061063f61063a366004612fe9565b61105c565b6040516102c49190613516565b34801561065857600080fd5b5061066c610667366004613495565b6110ee565b6040516102c49190613557565b34801561068557600080fd5b5061037461069436600461356a565b611152565b3480156106a557600080fd5b5061066c6106b4366004613495565b61115d565b3480156106c557600080fd5b506103746106d4366004613586565b611195565b3480156106e557600080fd5b5061063f6111b0565b3480156106fa57600080fd5b506103746107093660046135ed565b611239565b34801561071a57600080fd5b507f00000000000000000000000000000000000000000000000000000000000000006103f4565b34801561074d57600080fd5b5061037461075c366004613629565b6112a0565b34801561076d57600080fd5b5061030f61077c366004612fe9565b6112d4565b34801561078d57600080fd5b507f00000000000000000000000000000000000000000000000000000000000000006103f4565b3480156107c057600080fd5b5061030f6107cf366004613653565b6112df565b3480156107e057600080fd5b5061030f6107ef366004613495565b611478565b34801561080057600080fd5b5061037461080f366004613495565b611484565b34801561082057600080fd5b5061066c61082f3660046133eb565b611498565b34801561084057600080fd5b506102b861084f366004613678565b6001600160a01b03918216600090815260076020908152604080832093909416825291909152205460ff1690565b34801561088957600080fd5b506103746108983660046136a2565b611641565b3480156108a957600080fd5b506103746108b836600461347a565b611676565b3480156108c957600080fd5b5061030f6108d8366004613629565b61170e565b3480156108e957600080fd5b5061063f6108f8366004612fe9565b6117cf565b34801561090957600080fd5b50610941610918366004613772565b60009182526009602090815260408084206001600160401b039384168552909152909120541690565b6040516001600160401b0390911681526020016102c4565b60006001600160e01b0319821663b925bcaf60e01b148061097e575061097e82611838565b92915050565b6000818152600d60209081526040808320805482518185028101850190935280835260609493830182828015610a0b57602002820191906000526020600020906000905b82829054906101000a90046001600160401b03166001600160401b0316815260200190600801906020826007010492830192600103820291508084116109c85790505b50505050509050610a1b81611888565b9392505050565b606060028054610a3190613795565b80601f0160208091040260200160405190810160405280929190818152602001828054610a5d90613795565b8015610aaa5780601f10610a7f57610100808354040283529160200191610aaa565b820191906000526020600020905b815481529060010190602001808311610a8d57829003601f168201915b5050505050905090565b6000610abf82611962565b506000908152600660205260409020546001600160a01b031690565b6000610ae682610e68565b9050806001600160a01b0316836001600160a01b031603610b1a57604051630591db6d60e01b815260040160405180910390fd5b336001600160a01b03821614801590610b3a5750610b38813361084f565b155b15610b5857604051634c12315960e11b815260040160405180910390fd5b610b628383611997565b505050565b81610b7181611a05565b610b628383611a2c565b6000818152600a60209081526040808320805482518185028101850190935280835260609493830182828015610a0b57600091825260209182902080546001600160401b031684529082028301929091600891018084116109c857905050505050509050610a1b81611888565b6000818152600b6020908152604091829020805483518184028101840190945280845260609392830182828015610c6657602002820191906000526020600020906000905b82829054906101000a900461ffff1661ffff1681526020019060020190602082600101049283019260010382029150808411610c2d5790505b50505050509050919050565b6000546001600160a01b03163314610ca55760405162461bcd60e51b8152600401610c9c906137cf565b60405180910390fd5b610cae81611aac565b50565b610cba81611a05565b610b62838383611ab8565b7f000000000000000000000000000000000000000000000000000000000000000060015410610d0757604051635e91cdfb60e11b815260040160405180910390fd5b600054600160a01b900460ff1615610d325760405163ed1fa96f60e01b815260040160405180910390fd5b80610d505760405163376bec4d60e01b815260040160405180910390fd5b7f000000000000000000000000000000000000000000000000000000000000000060015482610d7f919061381a565b1115610d9e57604051635e91cdfb60e11b815260040160405180910390fd5b6000610dca7f000000000000000000000000000000000000000000000000000000000000000083613832565b9050348114610dec5760405163f2ffecad60e01b815260040160405180910390fd5b60006001546001610dfd919061381a565b90508260016000828254610e11919061381a565b909155505060018054600091610e27919061381a565b9050815b81811015610e4557610e3d8682611beb565b600101610e2b565b505050505050565b610b6283838360405180602001604052806000815250611195565b6000818152600460205260408120546001600160a01b03168061097e5760405163089ba7e160e41b815260040160405180910390fd5b6000546001600160a01b03163314610ec85760405162461bcd60e51b8152600401610c9c906137cf565b610b62838383611c05565b60006001600160a01b038216610efc57604051633bb9143360e11b815260040160405180910390fd5b506001600160a01b031660009081526005602052604090205490565b6000546001600160a01b03163314610f425760405162461bcd60e51b8152600401610c9c906137cf565b610f4c6000611c8c565b565b81610f5881611a05565b610b628383611cdc565b6000546001600160a01b03163314610f8c5760405162461bcd60e51b8152600401610c9c906137cf565b6000805460ff60a01b1916600160a01b179055565b80610fab81611a05565b610fb482611eda565b5050565b606060118054610a3190613795565b6000546001600160a01b03163314610ff15760405162461bcd60e51b8152600401610c9c906137cf565b6001600160401b0382166000908152600e60205260409020805460ff19168215151790555050565b606060038054610a3190613795565b6000546001600160a01b031633146110525760405162461bcd60e51b8152600401610c9c906137cf565b610fb48282611fb8565b6000818152600a6020908152604091829020805483518184028101840190945280845260609392830182828015610c6657602002820191906000526020600020906000905b82829054906101000a90046001600160401b03166001600160401b0316815260200190600801906020826007010492830192600103820291508084116110a1575094979650505050505050565b61111b604051806060016040528060006001600160401b0316815260200160608152602001606081525090565b6000611126846117cf565b838151811061113757611137613851565b6020026020010151905061114a81611498565b949350505050565b610fb4338383612091565b61118a604051806060016040528060006001600160401b0316815260200160608152602001606081525090565b60006111268461105c565b61119e82611a05565b6111aa84848484612130565b50505050565b60606010805480602002602001604051908101604052809291908181526020018280548015610aaa57602002820191906000526020600020906000905b82829054906101000a90046001600160401b03166001600160401b0316815260200190600801906020826007010492830192600103820291508084116111ed5790505050505050905090565b6000546001600160a01b031633146112635760405162461bcd60e51b8152600401610c9c906137cf565b600061126e84610e68565b6001600160a01b0316036112955760405163089ba7e160e41b815260040160405180910390fd5b610b62838383612164565b6000546001600160a01b031633146112ca5760405162461bcd60e51b8152600401610c9c906137cf565b610fb48282612337565b606061097e826123d0565b6000838152600a6020908152604080832080548251818502810185019093528083526060949383018282801561136657602002820191906000526020600020906000905b82829054906101000a90046001600160401b03166001600160401b0316815260200190600801906020826007010492830192600103820291508084116113235790505b5050506000888152600a60205260408120549394509150505b818110156113e15760006113ac84838151811061139e5761139e613851565b60200260200101518861170e565b905085805190602001208180519060200120036113d8576113cd88836123d9565b945050505050610a1b565b5060010161137f565b50601180546113ef90613795565b80601f016020809104026020016040519081016040528092919081815260200182805461141b90613795565b80156114685780601f1061143d57610100808354040283529160200191611468565b820191906000526020600020905b81548152906001019060200180831161144b57829003601f168201915b5050505050925050509392505050565b6060610a1b83836123d9565b8161148e81611a05565b610b628383612564565b6114c5604051806060016040528060006001600160401b0316815260200160608152602001606081525090565b6001600160401b0380831660009081526008602090815260408083208151606081019092528054909416815260018401805493949193919284019161150990613795565b80601f016020809104026020016040519081016040528092919081815260200182805461153590613795565b80156115825780601f1061155757610100808354040283529160200191611582565b820191906000526020600020905b81548152906001019060200180831161156557829003601f168201915b505050505081526020016002820180548060200260200160405190810160405280929190818152602001828054801561160c57602002820191906000526020600020906000905b82829054906101000a90046001600160801b03166001600160801b031681526020019060100190602082600f010492830192600103820291508084116115c95790505b5050509190925250508151919250506001600160401b031661097e576040516348e2e83760e01b815260040160405180910390fd5b6000546001600160a01b0316331461166b5760405162461bcd60e51b8152600401610c9c906137cf565b610b6283838361266f565b6000546001600160a01b031633146116a05760405162461bcd60e51b8152600401610c9c906137cf565b6001600160a01b0381166117055760405162461bcd60e51b815260206004820152602660248201527f4f776e61626c653a206e6577206f776e657220697320746865207a65726f206160448201526564647265737360d01b6064820152608401610c9c565b610cae81611c8c565b6001600160401b0382166000908152600f602090815260408083206001600160801b0385168452909152902080546060919061174990613795565b80601f016020809104026020016040519081016040528092919081815260200182805461177590613795565b80156117c25780601f10611797576101008083540402835291602001916117c2565b820191906000526020600020905b8154815290600101906020018083116117a557829003601f168201915b5050505050905092915050565b6000818152600d6020908152604091829020805483518184028101840190945280845260609392830182828015610c6657600091825260209182902080546001600160401b031684529082028301929091600891018084116110a1575094979650505050505050565b60006001600160e01b031982166380ac58cd60e01b148061186957506001600160e01b03198216635b5e139f60e01b145b8061097e57506301ffc9a760e01b6001600160e01b031983161461097e565b80516060906000816001600160401b038111156118a7576118a7613192565b60405190808252806020026020018201604052801561190557816020015b6118f2604051806060016040528060006001600160401b0316815260200160608152602001606081525090565b8152602001906001900390816118c55790505b50905060005b8281101561195a5761193585828151811061192857611928613851565b6020026020010151611498565b82828151811061194757611947613851565b602090810291909101015260010161190b565b509392505050565b6000818152600460205260409020546001600160a01b0316610cae5760405163089ba7e160e41b815260040160405180910390fd5b600081815260066020526040902080546001600160a01b0319166001600160a01b03841690811790915581906119cc82610e68565b6001600160a01b03167f8c5be1e5ebec7d5bd14f71427d1e84f3dd0314c0f7b2291e5b200ac8c7c3b92560405160405180910390a45050565b611a0f33826127e4565b610cae576040516302728a9d60e41b815260040160405180910390fd5b80516000838152600a60205260409020548114611a5c57604051633581be1d60e11b815260040160405180910390fd5b6000838152600b602090815260409091208351611a7b92850190612e2d565b5060405183907f50a12ecfcaf26b91454fd23edbcf04185b68d6e8c7edc4e35d14392889cdf79590600090a2505050565b6011610fb482826138ad565b826001600160a01b0316611acb82610e68565b6001600160a01b031614611af25760405163e146af6f60e01b815260040160405180910390fd5b6001600160a01b038216611b19576040516338f646ff60e21b815260040160405180910390fd5b600081815260066020908152604080832080546001600160a01b03191690556001600160a01b038616835260059091528120805460019290611b5c90849061396c565b90915550506001600160a01b0382166000908152600560205260408120805460019290611b8a90849061381a565b909155505060008181526004602052604080822080546001600160a01b0319166001600160a01b0386811691821790925591518493918716917fddf252ad1be2c89b69c2b068fc378daa952ba7f163c4a11628f55a4df523b3ef91a4505050565b610fb4828260405180602001604052806000815250612862565b6001600160401b0383166000908152600f602090815260408083206001600160801b03861684529091529020611c3b82826138ad565b50604080516001600160401b03851681526001600160801b03841660208201527fa6b4ad1060e2cb7b9bdf0247137e2e9a4c0dab5112477dccdabc103e34283d8091015b60405180910390a1505050565b600080546001600160a01b038381166001600160a01b0319831681178455604051919092169283917f8be0079c531659141344cd1fd0a4f28419497f9722a3daafe3b4186f6b6457e09190a35050565b6000828152600d60205260409020548110611d0a57604051630757d52160e01b815260040160405180910390fd5b6000828152600d60205260408120805483908110611d2a57611d2a613851565b60009182526020808320600483040154868452600d909152604090922060039091166008026101000a9091046001600160401b03169150611d6b9083612896565b60008381526009602090815260408083206001600160401b038086168552925290912054168015611e1e576000848152600a60205260409020611dae908261297c565b6040516001600160401b038216815284907f0c3ab9436ca1f55688a28969e7eac425945dded8cc4acf7f4e738cfa6fa1657c9060200160405180910390a260008481526009602090815260408083206001600160401b03861684529091529020805467ffffffffffffffff191690555b6000848152600a6020908152604080832080546001808201835591855283852060048204018054600390921660080261010090810a6001600160401b0381810219909416938a1690810293909317909155898652600b85528386208054938401815586529484902060108304018054600f90931660020290950a61ffff02199091169093555191825285917f51e9958189f528b912f96508d6a4b68583858166eda14d580dfbd24e9a79dfdb910160405180910390a250505050565b6000818152600d6020526040812054905b81811015611f66576000838152600d60205260408120805483908110611f1357611f13613851565b6000918252602080832060048304015487845260098252604080852060039094166008026101000a9091046001600160401b031684529190529020805467ffffffffffffffff1916905550600101611eeb565b506000828152600d60205260408120611f7e91612ed6565b6040516000815282907f8d0cdca57de6b2fb4babd8b68c83db0b0981610d338eb68eea1f4b1e1d78dc1c9060200160405180910390a25050565b6001600160401b0382166000908152600860205260408120600201805483908110611fe557611fe5613851565b90600052602060002090600291828204019190066010029054906101000a90046001600160801b0316905061204a8260086000866001600160401b03166001600160401b03168152602001908152602001600020600201612a6190919063ffffffff16565b604080516001600160401b03851681526001600160801b03831660208201527f22369f188e0755616f4935b698f0a859dea683b9c56b2b9eeee0b1b78fa5723b9101611c7f565b816001600160a01b0316836001600160a01b0316036120c357604051630b7b99b960e21b815260040160405180910390fd5b6001600160a01b03838116600081815260076020908152604080832094871680845294825291829020805460ff191686151590811790915591519182527f17307eab39ab6107e8899845ad3d59bd9653f200f220920489ca2b5937696c31910160405180910390a3505050565b61213b848484611ab8565b61214784848484612b47565b6111aa5760405163bcb5663760e01b815260040160405180910390fd5b6000838152600c602090815260408083206001600160401b038616845290915290205460ff16156121a857604051633348dd1d60e01b815260040160405180910390fd5b60006121b383611498565b516001600160401b0316036121db57604051630f8f451560e01b815260040160405180910390fd5b6000838152600d602052604090205460801161220a5760405163dfaea09b60e01b815260040160405180910390fd5b6000838152600c602090815260408083206001600160401b038681168086529184528285208054600160ff199091168117909155888652600d8552928520805493840181558552929093206004820401805460039092166008026101000a8084021990921691909302179091558116156122f35760008381526009602090815260408083206001600160401b0386811680865291845293829020805467ffffffffffffffff1916948616948517905581519081529182019290925284917fe76caab2912f68cd628bc085e006c86b8a478d13be698638b0c533030d120b4e910160405180910390a25b6040516001600160401b038316815283907ffc4d0a03f3026d7ce3427493c9289ea9768a6edd425e854cea7600d244ecc2c3906020015b60405180910390a2505050565b6001600160401b038216600081815260086020908152604080832060029081018054600180820183559186529484902091850490910180546001600160801b03888116601094909716939093026101000a868102930219169190911790558051938452908301919091527f067cb5aa78490aed8c47f1ee01a1326dc717c8138b66144e6d222c94e389a46d910160405180910390a15050565b606061097e8260005b6000828152600a60205260409020546060908210156124d2576000838152600a6020526040812080548490811061241257612412613851565b90600052602060002090600491828204019190066008029054906101000a90046001600160401b031690506060600061244a83611498565b6001600160401b0384166000908152600e602052604090205490915060ff1661247957806020015191506124c8565b6020810151805161249957604051806020016040528060008152506124c4565b806124a388612c49565b6040516020016124b4929190613983565b6040516020818303038152906040525b9250505b50915061097e9050565b601180546124df90613795565b80601f016020809104026020016040519081016040528092919081815260200182805461250b90613795565b80156125585780601f1061252d57610100808354040283529160200191612558565b820191906000526020600020905b81548152906001019060200180831161253b57829003601f168201915b5050505050905061097e565b6000828152600d6020526040902054811061259257604051630757d52160e01b815260040160405180910390fd5b6000828152600d602052604081208054839081106125b2576125b2613851565b60009182526020808320600483040154868452600d909152604090922060039091166008026101000a9091046001600160401b031691506125f39083612896565b6000838152600c602090815260408083206001600160401b038516808552908352818420805460ff1916905586845260098352818420818552835292819020805467ffffffffffffffff191690555191825284917f8d0cdca57de6b2fb4babd8b68c83db0b0981610d338eb68eea1f4b1e1d78dc1c910161232a565b6001600160401b0383166126965760405163280d806360e01b815260040160405180910390fd5b6001600160401b0383811660009081526008602052604090205416156126cf57604051633348dd1d60e01b815260040160405180910390fd5b604080516060810182526001600160401b038581168083526020808401878152848601879052600092835260089091529390208251815467ffffffffffffffff19169216919091178155915190918291600182019061272e90826138ad565b506040820151805161274a916002840191602090910190612efb565b505060108054600181018255600091909152600481047f1b6847dc741a1b0cd08d278845f9d819d87b734759afb55fe2de5cb82a9ae6720180546001600160401b0388811660086003909516949094026101000a8481029102199091161790556040519081527f8a5ccfca4023cda4a0a59a1bb73783f6b3ba77465537d0c8f2bef5eb2511552a915060200160405180910390a150505050565b6000806127f083610e68565b9050806001600160a01b0316846001600160a01b0316148061283757506001600160a01b0380821660009081526007602090815260408083209388168352929052205460ff165b8061114a5750836001600160a01b031661285084610ab4565b6001600160a01b031614949350505050565b61286c8383612d49565b6128796000848484612b47565b610b625760405163bcb5663760e01b815260040160405180910390fd5b815481106128a357600080fd5b815482906128b39060019061396c565b815481106128c3576128c3613851565b90600052602060002090600491828204019190066008029054906101000a90046001600160401b03168282815481106128fe576128fe613851565b90600052602060002090600491828204019190066008026101000a8154816001600160401b0302191690836001600160401b0316021790555081805480612947576129476139b2565b60008281526020902060046000199092019182040180546001600160401b03600860038516026101000a021916905590555050565b6000828054806020026020016040519081016040528092919081815260200182805480156129fb57602002820191906000526020600020906000905b82829054906101000a90046001600160401b03166001600160401b0316815260200190600801906020826007010492830192600103820291508084116129b85790505b505083519394506000925050505b81811015612a5a57836001600160401b0316838281518110612a2d57612a2d613851565b60200260200101516001600160401b031603612a5257612a4d8582612896565b612a5a565b600101612a09565b5050505050565b81548110612a6e57600080fd5b81548290612a7e9060019061396c565b81548110612a8e57612a8e613851565b90600052602060002090600291828204019190066010029054906101000a90046001600160801b0316828281548110612ac957612ac9613851565b90600052602060002090600291828204019190066010026101000a8154816001600160801b0302191690836001600160801b0316021790555081805480612b1257612b126139b2565b60008281526020902060026000199092019182040180546001600160801b03601060018516026101000a021916905590555050565b60006001600160a01b0384163b15612c3e57604051630a85bd0160e11b81526001600160a01b0385169063150b7a0290612b8b9033908990889088906004016139c8565b6020604051808303816000875af1925050508015612bc6575060408051601f3d908101601f19168201909252612bc391810190613a05565b60015b612c24573d808015612bf4576040519150601f19603f3d011682016040523d82523d6000602084013e612bf9565b606091505b508051600003612c1c5760405163bcb5663760e01b815260040160405180910390fd5b805181602001fd5b6001600160e01b031916630a85bd0160e11b14905061114a565b506001949350505050565b606081600003612c705750506040805180820190915260018152600360fc1b602082015290565b8160005b8115612c9a5780612c8481613a22565b9150612c939050600a83613a51565b9150612c74565b6000816001600160401b03811115612cb457612cb4613192565b6040519080825280601f01601f191660200182016040528015612cde576020820181803683370190505b5090505b841561114a57612cf360018361396c565b9150612d00600a86613a65565b612d0b90603061381a565b60f81b818381518110612d2057612d20613851565b60200101906001600160f81b031916908160001a905350612d42600a86613a51565b9450612ce2565b6001600160a01b038216612d70576040516325bd6bd360e01b815260040160405180910390fd5b6000818152600460205260409020546001600160a01b031615612da65760405163c5a8d37160e01b815260040160405180910390fd5b6001600160a01b0382166000908152600560205260408120805460019290612dcf90849061381a565b909155505060008181526004602052604080822080546001600160a01b0319166001600160a01b03861690811790915590518392907fddf252ad1be2c89b69c2b068fc378daa952ba7f163c4a11628f55a4df523b3ef908290a45050565b82805482825590600052602060002090600f01601090048101928215612ec65791602002820160005b83821115612e9657835183826101000a81548161ffff021916908361ffff1602179055509260200192600201602081600101049283019260010302612e56565b8015612ec45782816101000a81549061ffff0219169055600201602081600101049283019260010302612e96565b505b50612ed2929150612fa1565b5090565b508054600082556003016004900490600052602060002090810190610cae9190612fa1565b82805482825590600052602060002090600101600290048101928215612ec65791602002820160005b83821115612f6e57835183826101000a8154816001600160801b0302191690836001600160801b031602179055509260200192601001602081600f01049283019260010302612f24565b8015612ec45782816101000a8154906001600160801b030219169055601001602081600f01049283019260010302612f6e565b5b80821115612ed25760008155600101612fa2565b6001600160e01b031981168114610cae57600080fd5b600060208284031215612fde57600080fd5b8135610a1b81612fb6565b600060208284031215612ffb57600080fd5b5035919050565b60005b8381101561301d578181015183820152602001613005565b838111156111aa5750506000910152565b60008151808452613046816020860160208601613002565b601f01601f19169290920160200192915050565b6001600160401b0381511682526000602080830151606082860152613082606086018261302e565b60408581015187830391880191909152805180835290840192506000918401905b808310156130cc5783516001600160801b031682529284019260019290920191908401906130a3565b509695505050505050565b6000602080830181845280855180835260408601915060408160051b870101925083870160005b8281101561312c57603f1988860301845261311a85835161305a565b945092850192908501906001016130fe565b5092979650505050505050565b602081526000610a1b602083018461302e565b80356001600160a01b038116811461316357600080fd5b919050565b6000806040838503121561317b57600080fd5b6131848361314c565b946020939093013593505050565b634e487b7160e01b600052604160045260246000fd5b604051601f8201601f191681016001600160401b03811182821017156131d0576131d0613192565b604052919050565b60006001600160401b038211156131f1576131f1613192565b5060051b60200190565b6000806040838503121561320e57600080fd5b823591506020808401356001600160401b0381111561322c57600080fd5b8401601f8101861361323d57600080fd5b803561325061324b826131d8565b6131a8565b81815260059190911b8201830190838101908883111561326f57600080fd5b928401925b8284101561329e57833561ffff8116811461328f5760008081fd5b82529284019290840190613274565b80955050505050509250929050565b6020808252825182820181905260009190848201906040850190845b818110156132e957835161ffff16835292840192918401916001016132c9565b50909695505050505050565b600082601f83011261330657600080fd5b81356001600160401b0381111561331f5761331f613192565b613332601f8201601f19166020016131a8565b81815284602083860101111561334757600080fd5b816020850160208301376000918101602001919091529392505050565b60006020828403121561337657600080fd5b81356001600160401b0381111561338c57600080fd5b61114a848285016132f5565b6000806000606084860312156133ad57600080fd5b6133b68461314c565b92506133c46020850161314c565b9150604084013590509250925092565b80356001600160401b038116811461316357600080fd5b6000602082840312156133fd57600080fd5b610a1b826133d4565b80356001600160801b038116811461316357600080fd5b60008060006060848603121561343257600080fd5b61343b846133d4565b925061344960208501613406565b915060408401356001600160401b0381111561346457600080fd5b613470868287016132f5565b9150509250925092565b60006020828403121561348c57600080fd5b610a1b8261314c565b600080604083850312156134a857600080fd5b50508035926020909101359150565b8035801515811461316357600080fd5b600080604083850312156134da57600080fd5b6134e3836133d4565b91506134f1602084016134b7565b90509250929050565b6000806040838503121561350d57600080fd5b613184836133d4565b6020808252825182820181905260009190848201906040850190845b818110156132e95783516001600160401b031683529284019291840191600101613532565b602081526000610a1b602083018461305a565b6000806040838503121561357d57600080fd5b6134e38361314c565b6000806000806080858703121561359c57600080fd5b6135a58561314c565b93506135b36020860161314c565b92506040850135915060608501356001600160401b038111156135d557600080fd5b6135e1878288016132f5565b91505092959194509250565b60008060006060848603121561360257600080fd5b83359250613612602085016133d4565b9150613620604085016133d4565b90509250925092565b6000806040838503121561363c57600080fd5b613645836133d4565b91506134f160208401613406565b60008060006060848603121561366857600080fd5b8335925061344960208501613406565b6000806040838503121561368b57600080fd5b6136948361314c565b91506134f16020840161314c565b6000806000606084860312156136b757600080fd5b6136c0846133d4565b92506020808501356001600160401b03808211156136dd57600080fd5b6136e9888389016132f5565b945060408701359150808211156136ff57600080fd5b508501601f8101871361371157600080fd5b803561371f61324b826131d8565b81815260059190911b8201830190838101908983111561373e57600080fd5b928401925b828410156137635761375484613406565b82529284019290840190613743565b80955050505050509250925092565b6000806040838503121561378557600080fd5b823591506134f1602084016133d4565b600181811c908216806137a957607f821691505b6020821081036137c957634e487b7160e01b600052602260045260246000fd5b50919050565b6020808252818101527f4f776e61626c653a2063616c6c6572206973206e6f7420746865206f776e6572604082015260600190565b634e487b7160e01b600052601160045260246000fd5b6000821982111561382d5761382d613804565b500190565b600081600019048311821515161561384c5761384c613804565b500290565b634e487b7160e01b600052603260045260246000fd5b601f821115610b6257600081815260208120601f850160051c8101602086101561388e5750805b601f850160051c820191505b81811015610e455782815560010161389a565b81516001600160401b038111156138c6576138c6613192565b6138da816138d48454613795565b84613867565b602080601f83116001811461390f57600084156138f75750858301515b600019600386901b1c1916600185901b178555610e45565b600085815260208120601f198616915b8281101561393e5788860151825594840194600190910190840161391f565b508582101561395c5787850151600019600388901b60f8161c191681555b5050505050600190811b01905550565b60008282101561397e5761397e613804565b500390565b60008351613995818460208801613002565b8351908301906139a9818360208801613002565b01949350505050565b634e487b7160e01b600052603160045260246000fd5b6001600160a01b03858116825284166020820152604081018390526080606082018190526000906139fb9083018461302e565b9695505050505050565b600060208284031215613a1757600080fd5b8151610a1b81612fb6565b600060018201613a3457613a34613804565b5060010190565b634e487b7160e01b600052601260045260246000fd5b600082613a6057613a60613a3b565b500490565b600082613a7457613a74613a3b565b50069056fea264697066735822122027363b402aff320b9431bafea257f98249d79db73cdde0403cb9f8607d97f0ef64736f6c634300080f0033a264697066735822122083a3f680f731125c8e100bfc54194c610efc4a36e2e53a86bab7e2616ef3c3c964736f6c634300080f0033",
  "linkReferences": {},
  "deployedLinkReferences": {}
}