{
  "_format": "hh-sol-artifact-1",
  "contractName": "RMRKMultiResourceImpl",
  "sourceName": "contracts/implementations/RMRKMultiResourceImpl.sol",
  "abi": [
    {
      "inputs": [
        {
          "internalType": "string",
          "name": "name",
          "type": "string"
        },
        {
          "internalType": "string",
          "name": "symbol",
          "type": "string"
        },
        {
          "internalType": "uint256",
          "name": "maxSupply_",
          "type": "uint256"
        },
        {
          "internalType": "uint256",
          "name": "pricePerMint_",
          "type": "uint256"
        },
        {
          "internalType": "string",
          "name": "collectionMetadata_",
          "type": "string"
        }
      ],
      "stateMutability": "nonpayable",
      "type": "constructor"
    },
    {
      "inputs": [],
      "name": "ERC721AddressZeroIsNotaValidOwner",
      "type": "error"
    },
    {
      "inputs": [],
      "name": "ERC721ApprovalToCurrentOwner",
      "type": "error"
    },
    {
      "inputs": [],
      "name": "ERC721ApproveCallerIsNotOwnerNorApprovedForAll",
      "type": "error"
    },
    {
      "inputs": [],
      "name": "ERC721ApproveToCaller",
      "type": "error"
    },
    {
      "inputs": [],
      "name": "ERC721InvalidTokenId",
      "type": "error"
    },
    {
      "inputs": [],
      "name": "ERC721MintToTheZeroAddress",
      "type": "error"
    },
    {
      "inputs": [],
      "name": "ERC721NotApprovedOrOwner",
      "type": "error"
    },
    {
      "inputs": [],
      "name": "ERC721TokenAlreadyMinted",
      "type": "error"
    },
    {
      "inputs": [],
      "name": "ERC721TransferFromIncorrectOwner",
      "type": "error"
    },
    {
      "inputs": [],
      "name": "ERC721TransferToNonReceiverImplementer",
      "type": "error"
    },
    {
      "inputs": [],
      "name": "ERC721TransferToTheZeroAddress",
      "type": "error"
    },
    {
      "inputs": [],
      "name": "RMRKApprovalForResourcesToCurrentOwner",
      "type": "error"
    },
    {
      "inputs": [],
      "name": "RMRKApproveForResourcesCallerIsNotOwnerNorApprovedForAll",
      "type": "error"
    },
    {
      "inputs": [],
      "name": "RMRKApproveForResourcesToCaller",
      "type": "error"
    },
    {
      "inputs": [],
      "name": "RMRKBadPriorityListLength",
      "type": "error"
    },
    {
      "inputs": [],
      "name": "RMRKIndexOutOfRange",
      "type": "error"
    },
    {
      "inputs": [],
      "name": "RMRKLocked",
      "type": "error"
    },
    {
      "inputs": [],
      "name": "RMRKMaxPendingResourcesReached",
      "type": "error"
    },
    {
      "inputs": [],
      "name": "RMRKMintOverMax",
      "type": "error"
    },
    {
      "inputs": [],
      "name": "RMRKMintUnderpriced",
      "type": "error"
    },
    {
      "inputs": [],
      "name": "RMRKMintZero",
      "type": "error"
    },
    {
      "inputs": [],
      "name": "RMRKNewOwnerIsZeroAddress",
      "type": "error"
    },
    {
      "inputs": [],
      "name": "RMRKNoResourceMatchingId",
      "type": "error"
    },
    {
      "inputs": [],
      "name": "RMRKNotApprovedForResourcesOrOwner",
      "type": "error"
    },
    {
      "inputs": [],
      "name": "RMRKNotOwner",
      "type": "error"
    },
    {
      "inputs": [],
      "name": "RMRKResourceAlreadyExists",
      "type": "error"
    },
    {
      "inputs": [],
      "name": "RMRKWriteToZero",
      "type": "error"
    },
    {
      "anonymous": false,
      "inputs": [
        {
          "indexed": true,
          "internalType": "address",
          "name": "owner",
          "type": "address"
        },
        {
          "indexed": true,
          "internalType": "address",
          "name": "approved",
          "type": "address"
        },
        {
          "indexed": true,
          "internalType": "uint256",
          "name": "tokenId",
          "type": "uint256"
        }
      ],
      "name": "Approval",
      "type": "event"
    },
    {
      "anonymous": false,
      "inputs": [
        {
          "indexed": true,
          "internalType": "address",
          "name": "owner",
          "type": "address"
        },
        {
          "indexed": true,
          "internalType": "address",
          "name": "operator",
          "type": "address"
        },
        {
          "indexed": false,
          "internalType": "bool",
          "name": "approved",
          "type": "bool"
        }
      ],
      "name": "ApprovalForAll",
      "type": "event"
    },
    {
      "anonymous": false,
      "inputs": [
        {
          "indexed": true,
          "internalType": "address",
          "name": "owner",
          "type": "address"
        },
        {
          "indexed": true,
          "internalType": "address",
          "name": "operator",
          "type": "address"
        },
        {
          "indexed": false,
          "internalType": "bool",
          "name": "approved",
          "type": "bool"
        }
      ],
      "name": "ApprovalForAllForResources",
      "type": "event"
    },
    {
      "anonymous": false,
      "inputs": [
        {
          "indexed": true,
          "internalType": "address",
          "name": "owner",
          "type": "address"
        },
        {
          "indexed": true,
          "internalType": "address",
          "name": "approved",
          "type": "address"
        },
        {
          "indexed": true,
          "internalType": "uint256",
          "name": "tokenId",
          "type": "uint256"
        }
      ],
      "name": "ApprovalForResources",
      "type": "event"
    },
    {
      "anonymous": false,
      "inputs": [
        {
          "indexed": true,
          "internalType": "address",
          "name": "previousOwner",
          "type": "address"
        },
        {
          "indexed": true,
          "internalType": "address",
          "name": "newOwner",
          "type": "address"
        }
      ],
      "name": "OwnershipTransferred",
      "type": "event"
    },
    {
      "anonymous": false,
      "inputs": [
        {
          "indexed": true,
          "internalType": "uint256",
          "name": "tokenId",
          "type": "uint256"
        },
        {
          "indexed": true,
          "internalType": "uint64",
          "name": "resourceId",
          "type": "uint64"
        }
      ],
      "name": "ResourceAccepted",
      "type": "event"
    },
    {
      "anonymous": false,
      "inputs": [
        {
          "indexed": true,
          "internalType": "uint256",
          "name": "tokenId",
          "type": "uint256"
        },
        {
          "indexed": true,
          "internalType": "uint64",
          "name": "resourceId",
          "type": "uint64"
        }
      ],
      "name": "ResourceAddedToToken",
      "type": "event"
    },
    {
      "anonymous": false,
      "inputs": [
        {
          "indexed": true,
          "internalType": "uint256",
          "name": "tokenId",
          "type": "uint256"
        },
        {
          "indexed": true,
          "internalType": "uint64",
          "name": "resourceId",
          "type": "uint64"
        },
        {
          "indexed": true,
          "internalType": "uint64",
          "name": "overwritesId",
          "type": "uint64"
        }
      ],
      "name": "ResourceOverwriteProposed",
      "type": "event"
    },
    {
      "anonymous": false,
      "inputs": [
        {
          "indexed": true,
          "internalType": "uint256",
          "name": "tokenId",
          "type": "uint256"
        },
        {
          "indexed": true,
          "internalType": "uint64",
          "name": "oldResourceId",
          "type": "uint64"
        },
        {
          "indexed": true,
          "internalType": "uint64",
          "name": "newResourceId",
          "type": "uint64"
        }
      ],
      "name": "ResourceOverwritten",
      "type": "event"
    },
    {
      "anonymous": false,
      "inputs": [
        {
          "indexed": true,
          "internalType": "uint256",
          "name": "tokenId",
          "type": "uint256"
        }
      ],
      "name": "ResourcePrioritySet",
      "type": "event"
    },
    {
      "anonymous": false,
      "inputs": [
        {
          "indexed": true,
          "internalType": "uint256",
          "name": "tokenId",
          "type": "uint256"
        },
        {
          "indexed": true,
          "internalType": "uint64",
          "name": "resourceId",
          "type": "uint64"
        }
      ],
      "name": "ResourceRejected",
      "type": "event"
    },
    {
      "anonymous": false,
      "inputs": [
        {
          "indexed": true,
          "internalType": "uint64",
          "name": "resourceId",
          "type": "uint64"
        }
      ],
      "name": "ResourceSet",
      "type": "event"
    },
    {
      "anonymous": false,
      "inputs": [
        {
          "indexed": true,
          "internalType": "address",
          "name": "from",
          "type": "address"
        },
        {
          "indexed": true,
          "internalType": "address",
          "name": "to",
          "type": "address"
        },
        {
          "indexed": true,
          "internalType": "uint256",
          "name": "tokenId",
          "type": "uint256"
        }
      ],
      "name": "Transfer",
      "type": "event"
    },
    {
      "inputs": [
        {
          "internalType": "uint256",
          "name": "tokenId",
          "type": "uint256"
        },
        {
          "internalType": "uint256",
          "name": "index",
          "type": "uint256"
        }
      ],
      "name": "acceptResource",
      "outputs": [],
      "stateMutability": "nonpayable",
      "type": "function"
    },
    {
      "inputs": [
        {
          "internalType": "string",
          "name": "metadataURI",
          "type": "string"
        }
      ],
      "name": "addResourceEntry",
      "outputs": [],
      "stateMutability": "nonpayable",
      "type": "function"
    },
    {
      "inputs": [
        {
          "internalType": "uint256",
          "name": "tokenId",
          "type": "uint256"
        },
        {
          "internalType": "uint64",
          "name": "resourceId",
          "type": "uint64"
        },
        {
          "internalType": "uint64",
          "name": "overwrites",
          "type": "uint64"
        }
      ],
      "name": "addResourceToToken",
      "outputs": [],
      "stateMutability": "nonpayable",
      "type": "function"
    },
    {
      "inputs": [
        {
          "internalType": "address",
          "name": "to",
          "type": "address"
        },
        {
          "internalType": "uint256",
          "name": "tokenId",
          "type": "uint256"
        }
      ],
      "name": "approve",
      "outputs": [],
      "stateMutability": "nonpayable",
      "type": "function"
    },
    {
      "inputs": [
        {
          "internalType": "address",
          "name": "to",
          "type": "address"
        },
        {
          "internalType": "uint256",
          "name": "tokenId",
          "type": "uint256"
        }
      ],
      "name": "approveForResources",
      "outputs": [],
      "stateMutability": "nonpayable",
      "type": "function"
    },
    {
      "inputs": [
        {
          "internalType": "address",
          "name": "owner",
          "type": "address"
        }
      ],
      "name": "balanceOf",
      "outputs": [
        {
          "internalType": "uint256",
          "name": "",
          "type": "uint256"
        }
      ],
      "stateMutability": "view",
      "type": "function"
    },
    {
      "inputs": [],
      "name": "collectionMetadata",
      "outputs": [
        {
          "internalType": "string",
          "name": "",
          "type": "string"
        }
      ],
      "stateMutability": "view",
      "type": "function"
    },
    {
      "inputs": [
        {
          "internalType": "uint256",
          "name": "tokenId",
          "type": "uint256"
        }
      ],
      "name": "getActiveResourcePriorities",
      "outputs": [
        {
          "internalType": "uint16[]",
          "name": "",
          "type": "uint16[]"
        }
      ],
      "stateMutability": "view",
      "type": "function"
    },
    {
      "inputs": [
        {
          "internalType": "uint256",
          "name": "tokenId",
          "type": "uint256"
        }
      ],
      "name": "getActiveResources",
      "outputs": [
        {
          "internalType": "uint64[]",
          "name": "",
          "type": "uint64[]"
        }
      ],
      "stateMutability": "view",
      "type": "function"
    },
    {
      "inputs": [],
      "name": "getAllResources",
      "outputs": [
        {
          "internalType": "uint64[]",
          "name": "",
          "type": "uint64[]"
        }
      ],
      "stateMutability": "view",
      "type": "function"
    },
    {
      "inputs": [
        {
          "internalType": "uint256",
          "name": "tokenId",
          "type": "uint256"
        }
      ],
      "name": "getApproved",
      "outputs": [
        {
          "internalType": "address",
          "name": "",
          "type": "address"
        }
      ],
      "stateMutability": "view",
      "type": "function"
    },
    {
      "inputs": [
        {
          "internalType": "uint256",
          "name": "tokenId",
          "type": "uint256"
        }
      ],
      "name": "getApprovedForResources",
      "outputs": [
        {
          "internalType": "address",
          "name": "",
          "type": "address"
        }
      ],
      "stateMutability": "view",
      "type": "function"
    },
    {
      "inputs": [],
      "name": "getFallbackURI",
      "outputs": [
        {
          "internalType": "string",
          "name": "",
          "type": "string"
        }
      ],
      "stateMutability": "view",
      "type": "function"
    },
    {
      "inputs": [],
      "name": "getLock",
      "outputs": [
        {
          "internalType": "bool",
          "name": "",
          "type": "bool"
        }
      ],
      "stateMutability": "view",
      "type": "function"
    },
    {
      "inputs": [
        {
          "internalType": "uint256",
          "name": "tokenId",
          "type": "uint256"
        }
      ],
      "name": "getPendingResources",
      "outputs": [
        {
          "internalType": "uint64[]",
          "name": "",
          "type": "uint64[]"
        }
      ],
      "stateMutability": "view",
      "type": "function"
    },
    {
      "inputs": [
        {
          "internalType": "uint64",
          "name": "resourceId",
          "type": "uint64"
        }
      ],
      "name": "getResource",
      "outputs": [
        {
          "components": [
            {
              "internalType": "uint64",
              "name": "id",
              "type": "uint64"
            },
            {
              "internalType": "string",
              "name": "metadataURI",
              "type": "string"
            }
          ],
          "internalType": "struct IRMRKMultiResource.Resource",
          "name": "",
          "type": "tuple"
        }
      ],
      "stateMutability": "view",
      "type": "function"
    },
    {
      "inputs": [
        {
          "internalType": "uint256",
          "name": "tokenId",
          "type": "uint256"
        },
        {
          "internalType": "uint64",
          "name": "resourceId",
          "type": "uint64"
        }
      ],
      "name": "getResourceOverwrites",
      "outputs": [
        {
          "internalType": "uint64",
          "name": "",
          "type": "uint64"
        }
      ],
      "stateMutability": "view",
      "type": "function"
    },
    {
      "inputs": [
        {
          "internalType": "address",
          "name": "owner",
          "type": "address"
        },
        {
          "internalType": "address",
          "name": "operator",
          "type": "address"
        }
      ],
      "name": "isApprovedForAll",
      "outputs": [
        {
          "internalType": "bool",
          "name": "",
          "type": "bool"
        }
      ],
      "stateMutability": "view",
      "type": "function"
    },
    {
      "inputs": [
        {
          "internalType": "address",
          "name": "owner",
          "type": "address"
        },
        {
          "internalType": "address",
          "name": "operator",
          "type": "address"
        }
      ],
      "name": "isApprovedForAllForResources",
      "outputs": [
        {
          "internalType": "bool",
          "name": "",
          "type": "bool"
        }
      ],
      "stateMutability": "view",
      "type": "function"
    },
    {
      "inputs": [
        {
          "internalType": "uint64",
          "name": "resourceId",
          "type": "uint64"
        }
      ],
      "name": "isTokenEnumeratedResource",
      "outputs": [
        {
          "internalType": "bool",
          "name": "",
          "type": "bool"
        }
      ],
      "stateMutability": "view",
      "type": "function"
    },
    {
      "inputs": [],
      "name": "maxSupply",
      "outputs": [
        {
          "internalType": "uint256",
          "name": "",
          "type": "uint256"
        }
      ],
      "stateMutability": "view",
      "type": "function"
    },
    {
      "inputs": [
        {
          "internalType": "address",
          "name": "to",
          "type": "address"
        },
        {
          "internalType": "uint256",
          "name": "numToMint",
          "type": "uint256"
        }
      ],
      "name": "mint",
      "outputs": [],
      "stateMutability": "payable",
      "type": "function"
    },
    {
      "inputs": [],
      "name": "name",
      "outputs": [
        {
          "internalType": "string",
          "name": "",
          "type": "string"
        }
      ],
      "stateMutability": "view",
      "type": "function"
    },
    {
      "inputs": [],
      "name": "owner",
      "outputs": [
        {
          "internalType": "address",
          "name": "",
          "type": "address"
        }
      ],
      "stateMutability": "view",
      "type": "function"
    },
    {
      "inputs": [
        {
          "internalType": "uint256",
          "name": "tokenId",
          "type": "uint256"
        }
      ],
      "name": "ownerOf",
      "outputs": [
        {
          "internalType": "address",
          "name": "",
          "type": "address"
        }
      ],
      "stateMutability": "view",
      "type": "function"
    },
    {
      "inputs": [],
      "name": "pricePerMint",
      "outputs": [
        {
          "internalType": "uint256",
          "name": "",
          "type": "uint256"
        }
      ],
      "stateMutability": "view",
      "type": "function"
    },
    {
      "inputs": [
        {
          "internalType": "uint256",
          "name": "tokenId",
          "type": "uint256"
        }
      ],
      "name": "rejectAllResources",
      "outputs": [],
      "stateMutability": "nonpayable",
      "type": "function"
    },
    {
      "inputs": [
        {
          "internalType": "uint256",
          "name": "tokenId",
          "type": "uint256"
        },
        {
          "internalType": "uint256",
          "name": "index",
          "type": "uint256"
        }
      ],
      "name": "rejectResource",
      "outputs": [],
      "stateMutability": "nonpayable",
      "type": "function"
    },
    {
      "inputs": [],
      "name": "renounceOwnership",
      "outputs": [],
      "stateMutability": "nonpayable",
      "type": "function"
    },
    {
      "inputs": [
        {
          "internalType": "address",
          "name": "from",
          "type": "address"
        },
        {
          "internalType": "address",
          "name": "to",
          "type": "address"
        },
        {
          "internalType": "uint256",
          "name": "tokenId",
          "type": "uint256"
        }
      ],
      "name": "safeTransferFrom",
      "outputs": [],
      "stateMutability": "nonpayable",
      "type": "function"
    },
    {
      "inputs": [
        {
          "internalType": "address",
          "name": "from",
          "type": "address"
        },
        {
          "internalType": "address",
          "name": "to",
          "type": "address"
        },
        {
          "internalType": "uint256",
          "name": "tokenId",
          "type": "uint256"
        },
        {
          "internalType": "bytes",
          "name": "data",
          "type": "bytes"
        }
      ],
      "name": "safeTransferFrom",
      "outputs": [],
      "stateMutability": "nonpayable",
      "type": "function"
    },
    {
      "inputs": [
        {
          "internalType": "address",
          "name": "operator",
          "type": "address"
        },
        {
          "internalType": "bool",
          "name": "approved",
          "type": "bool"
        }
      ],
      "name": "setApprovalForAll",
      "outputs": [],
      "stateMutability": "nonpayable",
      "type": "function"
    },
    {
      "inputs": [
        {
          "internalType": "address",
          "name": "operator",
          "type": "address"
        },
        {
          "internalType": "bool",
          "name": "approved",
          "type": "bool"
        }
      ],
      "name": "setApprovalForAllForResources",
      "outputs": [],
      "stateMutability": "nonpayable",
      "type": "function"
    },
    {
      "inputs": [
        {
          "internalType": "string",
          "name": "fallbackURI",
          "type": "string"
        }
      ],
      "name": "setFallbackURI",
      "outputs": [],
      "stateMutability": "nonpayable",
      "type": "function"
    },
    {
      "inputs": [],
      "name": "setLock",
      "outputs": [],
      "stateMutability": "nonpayable",
      "type": "function"
    },
    {
      "inputs": [
        {
          "internalType": "uint256",
          "name": "tokenId",
          "type": "uint256"
        },
        {
          "internalType": "uint16[]",
          "name": "priorities",
          "type": "uint16[]"
        }
      ],
      "name": "setPriority",
      "outputs": [],
      "stateMutability": "nonpayable",
      "type": "function"
    },
    {
      "inputs": [
        {
          "internalType": "uint64",
          "name": "resourceId",
          "type": "uint64"
        },
        {
          "internalType": "bool",
          "name": "state",
          "type": "bool"
        }
      ],
      "name": "setTokenEnumeratedResource",
      "outputs": [],
      "stateMutability": "nonpayable",
      "type": "function"
    },
    {
      "inputs": [
        {
          "internalType": "bytes4",
          "name": "interfaceId",
          "type": "bytes4"
        }
      ],
      "name": "supportsInterface",
      "outputs": [
        {
          "internalType": "bool",
          "name": "",
          "type": "bool"
        }
      ],
      "stateMutability": "view",
      "type": "function"
    },
    {
      "inputs": [],
      "name": "symbol",
      "outputs": [
        {
          "internalType": "string",
          "name": "",
          "type": "string"
        }
      ],
      "stateMutability": "view",
      "type": "function"
    },
    {
      "inputs": [
        {
          "internalType": "uint256",
          "name": "tokenId",
          "type": "uint256"
        }
      ],
      "name": "tokenURI",
      "outputs": [
        {
          "internalType": "string",
          "name": "",
          "type": "string"
        }
      ],
      "stateMutability": "view",
      "type": "function"
    },
    {
      "inputs": [
        {
          "internalType": "uint256",
          "name": "tokenId",
          "type": "uint256"
        },
        {
          "internalType": "uint256",
          "name": "index",
          "type": "uint256"
        }
      ],
      "name": "tokenURIAtIndex",
      "outputs": [
        {
          "internalType": "string",
          "name": "",
          "type": "string"
        }
      ],
      "stateMutability": "view",
      "type": "function"
    },
    {
      "inputs": [],
      "name": "totalResources",
      "outputs": [
        {
          "internalType": "uint256",
          "name": "",
          "type": "uint256"
        }
      ],
      "stateMutability": "view",
      "type": "function"
    },
    {
      "inputs": [],
      "name": "totalSupply",
      "outputs": [
        {
          "internalType": "uint256",
          "name": "",
          "type": "uint256"
        }
      ],
      "stateMutability": "view",
      "type": "function"
    },
    {
      "inputs": [
        {
          "internalType": "address",
          "name": "from",
          "type": "address"
        },
        {
          "internalType": "address",
          "name": "to",
          "type": "address"
        },
        {
          "internalType": "uint256",
          "name": "tokenId",
          "type": "uint256"
        }
      ],
      "name": "transferFrom",
      "outputs": [],
      "stateMutability": "nonpayable",
      "type": "function"
    },
    {
      "inputs": [
        {
          "internalType": "address",
          "name": "newOwner",
          "type": "address"
        }
      ],
      "name": "transferOwnership",
      "outputs": [],
      "stateMutability": "nonpayable",
      "type": "function"
    },
    {
      "inputs": [
        {
          "internalType": "address",
          "name": "to",
          "type": "address"
        },
        {
          "internalType": "uint256",
          "name": "amount",
          "type": "uint256"
        }
      ],
      "name": "withdrawRaised",
      "outputs": [],
      "stateMutability": "nonpayable",
      "type": "function"
    }
  ],
  "bytecode": "0x60c06040523480156200001157600080fd5b5060405162003322380380620033228339810160408190526200003491620001a7565b8484828585620000443362000089565b60809190915260a05260026200005b8282620002db565b50600390506200006c8382620002db565b5060046200007b8282620002db565b5050505050505050620003a7565b600080546001600160a01b03838116610100818102610100600160a81b0319851617855560405193049190911692909183917f8be0079c531659141344cd1fd0a4f28419497f9722a3daafe3b4186f6b6457e091a35050565b634e487b7160e01b600052604160045260246000fd5b600082601f8301126200010a57600080fd5b81516001600160401b0380821115620001275762000127620000e2565b604051601f8301601f19908116603f01168101908282118183101715620001525762000152620000e2565b816040528381526020925086838588010111156200016f57600080fd5b600091505b8382101562000193578582018301518183018401529082019062000174565b600093810190920192909252949350505050565b600080600080600060a08688031215620001c057600080fd5b85516001600160401b0380821115620001d857600080fd5b620001e689838a01620000f8565b96506020880151915080821115620001fd57600080fd5b6200020b89838a01620000f8565b9550604088015194506060880151935060808801519150808211156200023057600080fd5b506200023f88828901620000f8565b9150509295509295909350565b600181811c908216806200026157607f821691505b6020821081036200028257634e487b7160e01b600052602260045260246000fd5b50919050565b601f821115620002d657600081815260208120601f850160051c81016020861015620002b15750805b601f850160051c820191505b81811015620002d257828155600101620002bd565b5050505b505050565b81516001600160401b03811115620002f757620002f7620000e2565b6200030f816200030884546200024c565b8462000288565b602080601f8311600181146200034757600084156200032e5750858301515b600019600386901b1c1916600185901b178555620002d2565b600085815260208120601f198616915b82811015620003785788860151825594840194600190910190840162000357565b5085821015620003975787850151600019600388901b60f8161c191681555b5050505050600190811b01905550565b60805160a051612f40620003e2600039600081816106570152610bdc0152600081816106aa01528181610b210152610b890152612f406000f3fe60806040526004361061020d5760003560e01c806301ffc9a71461021257806306fdde0314610247578063081812fc14610269578063095ea7b3146102a1578063096835be146102c35780630ca01bf8146102e3578063135627cd1461030357806318160ddd1461033057806318249af71461034f57806323b872dd1461036f57806331c57d131461038f57806333ed2845146103c857806340c10f19146103e857806342842e0e146103fb5780636352211e1461041b57806366f5a7471461043b57806370a0823114610450578063715018a614610470578063739817dd1461048557806378816134146104a55780637aba6f37146104c55780637b2e40fa146104da5780637e5852d9146104fa578063891141d61461051257806389ed2edf146105325780638da5cb5b1461054757806392401eb61461055c57806393026a601461057157806395d89b4114610591578063a0eaec43146105a6578063a22cb465146105d3578063b88d4fde146105f3578063baace33e14610613578063c48a424314610628578063c5610a2914610648578063c87b56dd1461067b578063d5abeb011461069b578063daf30477146106ce578063dd6433d4146106ee578063e2e286af1461070e578063e88975701461073b578063e985e9c51461075b578063ed5fd0f51461077b578063f2fde38b1461079b578063f64669c3146107bb578063fe679c62146107db575b600080fd5b34801561021e57600080fd5b5061023261022d36600461271c565b610837565b60405190151581526020015b60405180910390f35b34801561025357600080fd5b5061025c6108a4565b60405161023e9190612789565b34801561027557600080fd5b5061028961028436600461279c565b610936565b6040516001600160a01b03909116815260200161023e565b3480156102ad57600080fd5b506102c16102bc3660046127d1565b61095d565b005b3480156102cf57600080fd5b506102c16102de3660046127fb565b6109e9565b3480156102ef57600080fd5b506102c16102fe366004612904565b610a36565b34801561030f57600080fd5b5061032361031e36600461279c565b610a56565b60405161023e919061294c565b34801561033c57600080fd5b506001545b60405190815260200161023e565b34801561035b57600080fd5b506102c161036a366004612904565b610ae0565b34801561037b57600080fd5b506102c161038a366004612994565b610af8565b34801561039b57600080fd5b506102326103aa3660046129e7565b6001600160401b031660009081526013602052604090205460ff1690565b3480156103d457600080fd5b506102c16103e33660046127d1565b610b0d565b6102c16103f63660046127d1565b610b1f565b34801561040757600080fd5b506102c1610416366004612994565b610c72565b34801561042757600080fd5b5061028961043636600461279c565b610c8d565b34801561044757600080fd5b50601254610341565b34801561045c57600080fd5b5061034161046b366004612a02565b610cc3565b34801561047c57600080fd5b506102c1610d08565b34801561049157600080fd5b506102c16104a0366004612a1d565b610d1c565b3480156104b157600080fd5b506102c16104c03660046127d1565b610d30565b3480156104d157600080fd5b506102c1610db7565b3480156104e657600080fd5b506102c16104f536600461279c565b610dce565b34801561050657600080fd5b5060005460ff16610232565b34801561051e57600080fd5b5061028961052d36600461279c565b610de1565b34801561053e57600080fd5b5061025c610e08565b34801561055357600080fd5b50610289610e96565b34801561056857600080fd5b5061025c610eaa565b34801561057d57600080fd5b506102c161058c366004612a4f565b610eb9565b34801561059d57600080fd5b5061025c610eec565b3480156105b257600080fd5b506105c66105c136600461279c565b610efb565b60405161023e9190612a82565b3480156105df57600080fd5b506102c16105ee366004612ac3565b610f8d565b3480156105ff57600080fd5b506102c161060e366004612adf565b610f98565b34801561061f57600080fd5b506105c6610fb5565b34801561063457600080fd5b506102c1610643366004612b5a565b61103e565b34801561065457600080fd5b507f0000000000000000000000000000000000000000000000000000000000000000610341565b34801561068757600080fd5b5061025c61069636600461279c565b611083565b3480156106a757600080fd5b507f0000000000000000000000000000000000000000000000000000000000000000610341565b3480156106da57600080fd5b5061025c6106e9366004612a1d565b611090565b3480156106fa57600080fd5b506102c1610709366004612a1d565b6110a3565b34801561071a57600080fd5b5061072e6107293660046129e7565b6110b7565b60405161023e9190612b96565b34801561074757600080fd5b506102c1610756366004612ac3565b6111b1565b34801561076757600080fd5b50610232610776366004612bc3565b611249565b34801561078757600080fd5b50610232610796366004612bc3565b611277565b3480156107a757600080fd5b506102c16107b6366004612a02565b6112a5565b3480156107c757600080fd5b506105c66107d636600461279c565b6112e7565b3480156107e757600080fd5b5061081f6107f6366004612bed565b6000918252600a602090815260408084206001600160401b039384168552909152909120541690565b6040516001600160401b03909116815260200161023e565b60006001600160e01b031982166301ffc9a760e01b148061086857506001600160e01b031982166380ac58cd60e01b145b8061088357506001600160e01b03198216635b5e139f60e01b145b8061089e57506001600160e01b03198216630354d94960e01b145b92915050565b6060600380546108b390612c10565b80601f01602080910402602001604051908101604052809291908181526020018280546108df90612c10565b801561092c5780601f106109015761010080835404028352916020019161092c565b820191906000526020600020905b81548152906001019060200180831161090f57829003601f168201915b5050505050905090565b600061094182611350565b506000908152600760205260409020546001600160a01b031690565b600061096882610c8d565b9050806001600160a01b0316836001600160a01b03160361099c57604051630591db6d60e01b815260040160405180910390fd5b336001600160a01b038216148015906109bc57506109ba8133611249565b155b156109da57604051634c12315960e11b815260040160405180910390fd5b6109e48383611376565b505050565b826109f3816113e4565b610a308484848080602002602001604051908101604052809392919081815260200183836020028082843760009201919091525061140b92505050565b50505050565b610a3e61148b565b6012805460010190819055610a5390826114bb565b50565b6000818152600c6020908152604091829020805483518184028101840190945280845260609392830182828015610ad457602002820191906000526020600020906000905b82829054906101000a900461ffff1661ffff1681526020019060020190602082600101049283019260010382029150808411610a9b5790505b50505050509050919050565b610ae861148b565b6014610af48282612c90565b5050565b80610b02816115d2565b610a308484846115f9565b610b1561148b565b610af4828261172b565b7f000000000000000000000000000000000000000000000000000000000000000060015410610b6157604051635e91cdfb60e11b815260040160405180910390fd5b610b696117c5565b80610b875760405163376bec4d60e01b815260040160405180910390fd5b7f000000000000000000000000000000000000000000000000000000000000000060015482610bb69190612d65565b1115610bd557604051635e91cdfb60e11b815260040160405180910390fd5b6000610c017f000000000000000000000000000000000000000000000000000000000000000083612d78565b9050348114610c235760405163f2ffecad60e01b815260040160405180910390fd5b60006001546001610c349190612d65565b600180548501808255919250600091610c4c91612d65565b9050815b81811015610c6a57610c6286826117e9565b600101610c50565b505050505050565b6109e483838360405180602001604052806000815250610f98565b6000818152600560205260408120546001600160a01b03168061089e5760405163089ba7e160e41b815260040160405180910390fd5b60006001600160a01b038216610cec57604051633bb9143360e11b815260040160405180910390fd5b506001600160a01b031660009081526006602052604090205490565b610d1061148b565b610d1a6000611803565b565b81610d26816113e4565b6109e4838361185c565b6000610d3b82610c8d565b9050806001600160a01b0316836001600160a01b031603610d6f57604051639efa161160e01b815260040160405180910390fd5b336001600160a01b03821614801590610d8f5750610d8d8133611277565b155b15610dad57604051635d84267760e11b815260040160405180910390fd5b6109e48383611a53565b610dbf61148b565b6000805460ff19166001179055565b80610dd8816113e4565b610af482611ac1565b6000610dec82611350565b506000908152601060205260409020546001600160a01b031690565b60028054610e1590612c10565b80601f0160208091040260200160405190810160405280929190818152602001828054610e4190612c10565b8015610e8e5780601f10610e6357610100808354040283529160200191610e8e565b820191906000526020600020905b815481529060010190602001808311610e7157829003601f168201915b505050505081565b60005461010090046001600160a01b031690565b6060601480546108b390612c10565b610ec161148b565b6001600160401b03919091166000908152601360205260409020805460ff1916911515919091179055565b6060600480546108b390612c10565b6000818152600b6020908152604091829020805483518184028101840190945280845260609392830182828015610ad457602002820191906000526020600020906000905b82829054906101000a90046001600160401b03166001600160401b031681526020019060080190602082600701049283019260010382029150808411610f40575094979650505050505050565b610af4338383611b83565b81610fa2816115d2565b610fae85858585611c1a565b5050505050565b6060600f80548060200260200160405190810160405280929190818152602001828054801561092c57602002820191906000526020600020906000905b82829054906101000a90046001600160401b03166001600160401b031681526020019060080190602082600701049283019260010382029150808411610ff25790505050505050905090565b61104661148b565b600061105184610c8d565b6001600160a01b0316036110785760405163089ba7e160e41b815260040160405180910390fd5b6109e4838383611c4e565b606061089e826000611e1b565b606061109c8383611e1b565b9392505050565b816110ad816113e4565b6109e48383611faa565b6040805180820190915260008152606060208201526001600160401b038216600090815260096020526040812080546110ef90612c10565b80601f016020809104026020016040519081016040528092919081815260200182805461111b90612c10565b80156111685780601f1061113d57610100808354040283529160200191611168565b820191906000526020600020905b81548152906001019060200180831161114b57829003601f168201915b505050505090508051600003611191576040516348e2e83760e01b815260040160405180910390fd5b604080518082019091526001600160401b03909316835260208301525090565b336001600160a01b03831681036111db5760405163353c229360e11b815260040160405180910390fd5b6001600160a01b03818116600081815260116020908152604080832094881680845294825291829020805460ff191687151590811790915591519182527f9c03d4f9a8db6d81765cbe2097e83f44253564fbf3c1adfb09a8067464ad3f4b91015b60405180910390a3505050565b6001600160a01b03918216600090815260086020908152604080832093909416825291909152205460ff1690565b6001600160a01b03918216600090815260116020908152604080832093909416825291909152205460ff1690565b6112ad61148b565b60006112b7610e96565b6001600160a01b0316036112de57604051634ece6ecf60e01b815260040160405180910390fd5b610a5381611803565b6000818152600e6020908152604091829020805483518184028101840190945280845260609392830182828015610ad457600091825260209182902080546001600160401b03168452908202830192909160089101808411610f40575094979650505050505050565b611359816120a2565b610a535760405163089ba7e160e41b815260040160405180910390fd5b600081815260076020526040902080546001600160a01b0319166001600160a01b03841690811790915581906113ab82610c8d565b6001600160a01b03167f8c5be1e5ebec7d5bd14f71427d1e84f3dd0314c0f7b2291e5b200ac8c7c3b92560405160405180910390a45050565b6113ee33826120bf565b610a535760405163eabb6dd760e01b815260040160405180910390fd5b80516000838152600b6020526040902054811461143b57604051633581be1d60e11b815260040160405180910390fd5b6000838152600c60209081526040909120835161145a92850190612627565b5060405183907f50a12ecfcaf26b91454fd23edbcf04185b68d6e8c7edc4e35d14392889cdf79590600090a2505050565b33611494610e96565b6001600160a01b031614610d1a57604051631c62d58f60e11b815260040160405180910390fd5b6001600160401b0382166114e25760405163280d806360e01b815260040160405180910390fd5b6001600160401b0382166000908152600960205260408120805461150590612c10565b9050111561152657604051633348dd1d60e01b815260040160405180910390fd5b6001600160401b03821660009081526009602052604090206115488282612c90565b50600f80546001810182556000918252600481047f8d1108e10bcb7c27dddfc02ed9d693a074039d026cf4ea4240b40f7d581ac8020180546001600160401b0380871660086003909516949094026101000a84810291021990911617905560405190917f8a5ccfca4023cda4a0a59a1bb73783f6b3ba77465537d0c8f2bef5eb2511552a91a25050565b6115dc338261211e565b610a53576040516302728a9d60e41b815260040160405180910390fd5b826001600160a01b031661160c82610c8d565b6001600160a01b0316146116335760405163e146af6f60e01b815260040160405180910390fd5b6001600160a01b03821661165a576040516338f646ff60e21b815260040160405180910390fd5b600081815260076020908152604080832080546001600160a01b031990811690915560108352818420805490911690556001600160a01b0386168352600690915281208054600192906116ae908490612d97565b90915550506001600160a01b03821660009081526006602052604081208054600192906116dc908490612d65565b909155505060008181526005602052604080822080546001600160a01b0319166001600160a01b038681169182179092559151849391871691600080516020612eeb83398151915291a4505050565b6000826001600160a01b03168260405160006040518083038185875af1925050503d8060008114611778576040519150601f19603f3d011682016040523d82523d6000602084013e61177d565b606091505b50509050806109e45760405162461bcd60e51b815260206004820152601060248201526f2a3930b739b332b9103330b4b632b21760811b604482015260640160405180910390fd5b60005460ff1615610d1a5760405163ed1fa96f60e01b815260040160405180910390fd5b610af482826040518060200160405280600081525061216a565b600080546001600160a01b03838116610100818102610100600160a81b0319851617855560405193049190911692909183917f8be0079c531659141344cd1fd0a4f28419497f9722a3daafe3b4186f6b6457e091a35050565b6000828152600e6020526040902054811061188a57604051630757d52160e01b815260040160405180910390fd5b6000828152600e602052604081208054839081106118aa576118aa612daa565b60009182526020808320600483040154868452600e909152604090922060039091166008026101000a9091046001600160401b031691506118eb908361219e565b6000838152600a602090815260408083206001600160401b0380861685529252909120541680156119a0576000848152600b6020526040902061192e9082612284565b816001600160401b0316816001600160401b0316857fcf24819d4d174cc8c6cda1f2f6bdbdcb891ef4a46c61e0bab8dc06c070de5c9e60405160405180910390a46000848152600a602090815260408083206001600160401b0386168452909152902080546001600160401b03191690555b6000848152600b6020908152604080832080546001808201835591855283852060048204018054600390921660080261010090810a6001600160401b0381810219909416938a1690810293909317909155898652600c855283862080549384018155865293852060108304018054600f90931660020290940a61ffff021990911690925551909186917f51e9958189f528b912f96508d6a4b68583858166eda14d580dfbd24e9a79dfdb9190a350505050565b600081815260106020526040902080546001600160a01b0319166001600160a01b0384169081179091558190611a8882610c8d565b6001600160a01b03167fa98c62723e75b26c5e5710fb12b5bf7712e6926f6dc932de622e715553f5149160405160405180910390a45050565b6000818152600e6020526040812054905b81811015611b4c576000838152600e60205260408120805483908110611afa57611afa612daa565b60009182526020808320600483040154878452600a8252604080852060039094166008026101000a9091046001600160401b03168452919052902080546001600160401b031916905550600101611ad2565b506000828152600e60205260408120611b64916126d0565b6040516000908390600080516020612ecb833981519152908390a35050565b816001600160a01b0316836001600160a01b031603611bb557604051630b7b99b960e21b815260040160405180910390fd5b6001600160a01b03838116600081815260086020908152604080832094871680845294825291829020805460ff191686151590811790915591519182527f17307eab39ab6107e8899845ad3d59bd9653f200f220920489ca2b5937696c31910161123c565b611c258484846115f9565b611c3184848484612362565b610a305760405163bcb5663760e01b815260040160405180910390fd5b6000838152600d602090815260408083206001600160401b038616845290915290205460ff1615611c9257604051633348dd1d60e01b815260040160405180910390fd5b6001600160401b03821660009081526009602052604090208054611cb590612c10565b9050600003611cd7576040516348e2e83760e01b815260040160405180910390fd5b6000838152600e6020526040902054608011611d065760405163dfaea09b60e01b815260040160405180910390fd5b6000838152600d602090815260408083206001600160401b038681168086529184528285208054600160ff199091168117909155888652600e8552928520805493840181558552929093206004820401805460039092166008026101000a808402199092169190930217909155811615611de0576000838152600a602090815260408083206001600160401b038681168086529190935281842080546001600160401b031916938616938417905590519192909186917fe76caab2912f68cd628bc085e006c86b8a478d13be698638b0c533030d120b4e91a45b6040516001600160401b0383169084907ffc4d0a03f3026d7ce3427493c9289ea9768a6edd425e854cea7600d244ecc2c390600090a3505050565b6060611e2683611350565b6000838152600b6020526040902054821015611f18576000838152600b60205260408120805484908110611e5c57611e5c612daa565b60009182526020822060048204015460039091166008026101000a90046001600160401b03169150611e8d826110b7565b90506000611ea660408051602081019091526000815290565b6020808401516001600160401b0386166000908152601390925260409091205460ff16611ee25760405180602001604052806000815250611eeb565b611eeb88612464565b604051602001611efd93929190612dc0565b60408051601f19818403018152919052935061089e92505050565b60148054611f2590612c10565b80601f0160208091040260200160405190810160405280929190818152602001828054611f5190612c10565b8015611f9e5780601f10611f7357610100808354040283529160200191611f9e565b820191906000526020600020905b815481529060010190602001808311611f8157829003601f168201915b5050505050905061089e565b6000828152600e60205260409020548110611fd857604051630757d52160e01b815260040160405180910390fd5b6000828152600e60205260408120805483908110611ff857611ff8612daa565b60009182526020808320600483040154868452600e909152604090922060039091166008026101000a9091046001600160401b03169150612039908361219e565b6000838152600d602090815260408083206001600160401b038516808552908352818420805460ff19169055868452600a835281842081855290925280832080546001600160401b03191690555190918591600080516020612ecb8339815191529190a3505050565b6000908152600560205260409020546001600160a01b0316151590565b6000806120cb83610c8d565b9050806001600160a01b0316846001600160a01b031614806120f257506120f28185611277565b806121165750836001600160a01b031661210b84610de1565b6001600160a01b0316145b949350505050565b60008061212a83610c8d565b9050806001600160a01b0316846001600160a01b0316148061215157506121518185611249565b806121165750836001600160a01b031661210b84610936565b6121748383612564565b6121816000848484612362565b6109e45760405163bcb5663760e01b815260040160405180910390fd5b815481106121ab57600080fd5b815482906121bb90600190612d97565b815481106121cb576121cb612daa565b90600052602060002090600491828204019190066008029054906101000a90046001600160401b031682828154811061220657612206612daa565b90600052602060002090600491828204019190066008026101000a8154816001600160401b0302191690836001600160401b031602179055508180548061224f5761224f612e03565b60008281526020902060046000199092019182040180546001600160401b03600860038516026101000a021916905590555050565b60008280548060200260200160405190810160405280929190818152602001828054801561230357602002820191906000526020600020906000905b82829054906101000a90046001600160401b03166001600160401b0316815260200190600801906020826007010492830192600103820291508084116122c05790505b505083519394506000925050505b81811015610fae57836001600160401b031683828151811061233557612335612daa565b60200260200101516001600160401b03160361235a57612355858261219e565b610fae565b600101612311565b60006001600160a01b0384163b1561245957604051630a85bd0160e11b81526001600160a01b0385169063150b7a02906123a6903390899088908890600401612e19565b6020604051808303816000875af19250505080156123e1575060408051601f3d908101601f191682019092526123de91810190612e56565b60015b61243f573d80801561240f576040519150601f19603f3d011682016040523d82523d6000602084013e612414565b606091505b5080516000036124375760405163bcb5663760e01b815260040160405180910390fd5b805181602001fd5b6001600160e01b031916630a85bd0160e11b149050612116565b506001949350505050565b60608160000361248b5750506040805180820190915260018152600360fc1b602082015290565b8160005b81156124b5578061249f81612e73565b91506124ae9050600a83612ea2565b915061248f565b6000816001600160401b038111156124cf576124cf612879565b6040519080825280601f01601f1916602001820160405280156124f9576020820181803683370190505b5090505b84156121165761250e600183612d97565b915061251b600a86612eb6565b612526906030612d65565b60f81b81838151811061253b5761253b612daa565b60200101906001600160f81b031916908160001a90535061255d600a86612ea2565b94506124fd565b6001600160a01b03821661258b576040516325bd6bd360e01b815260040160405180910390fd5b612594816120a2565b156125b25760405163c5a8d37160e01b815260040160405180910390fd5b6001600160a01b03821660009081526006602052604081208054600192906125db908490612d65565b909155505060008181526005602052604080822080546001600160a01b0319166001600160a01b0386169081179091559051839290600080516020612eeb833981519152908290a45050565b82805482825590600052602060002090600f016010900481019282156126c05791602002820160005b8382111561269057835183826101000a81548161ffff021916908361ffff1602179055509260200192600201602081600101049283019260010302612650565b80156126be5782816101000a81549061ffff0219169055600201602081600101049283019260010302612690565b505b506126cc9291506126f1565b5090565b508054600082556003016004900490600052602060002090810190610a5391905b5b808211156126cc57600081556001016126f2565b6001600160e01b031981168114610a5357600080fd5b60006020828403121561272e57600080fd5b813561109c81612706565b60005b8381101561275457818101518382015260200161273c565b50506000910152565b60008151808452612775816020860160208601612739565b601f01601f19169290920160200192915050565b60208152600061109c602083018461275d565b6000602082840312156127ae57600080fd5b5035919050565b80356001600160a01b03811681146127cc57600080fd5b919050565b600080604083850312156127e457600080fd5b6127ed836127b5565b946020939093013593505050565b60008060006040848603121561281057600080fd5b8335925060208401356001600160401b038082111561282e57600080fd5b818601915086601f83011261284257600080fd5b81358181111561285157600080fd5b8760208260051b850101111561286657600080fd5b6020830194508093505050509250925092565b634e487b7160e01b600052604160045260246000fd5b60006001600160401b03808411156128a9576128a9612879565b604051601f8501601f19908116603f011681019082821181831017156128d1576128d1612879565b816040528093508581528686860111156128ea57600080fd5b858560208301376000602087830101525050509392505050565b60006020828403121561291657600080fd5b81356001600160401b0381111561292c57600080fd5b8201601f8101841361293d57600080fd5b6121168482356020840161288f565b6020808252825182820181905260009190848201906040850190845b8181101561298857835161ffff1683529284019291840191600101612968565b50909695505050505050565b6000806000606084860312156129a957600080fd5b6129b2846127b5565b92506129c0602085016127b5565b9150604084013590509250925092565b80356001600160401b03811681146127cc57600080fd5b6000602082840312156129f957600080fd5b61109c826129d0565b600060208284031215612a1457600080fd5b61109c826127b5565b60008060408385031215612a3057600080fd5b50508035926020909101359150565b803580151581146127cc57600080fd5b60008060408385031215612a6257600080fd5b612a6b836129d0565b9150612a7960208401612a3f565b90509250929050565b6020808252825182820181905260009190848201906040850190845b818110156129885783516001600160401b031683529284019291840191600101612a9e565b60008060408385031215612ad657600080fd5b612a6b836127b5565b60008060008060808587031215612af557600080fd5b612afe856127b5565b9350612b0c602086016127b5565b92506040850135915060608501356001600160401b03811115612b2e57600080fd5b8501601f81018713612b3f57600080fd5b612b4e8782356020840161288f565b91505092959194509250565b600080600060608486031215612b6f57600080fd5b83359250612b7f602085016129d0565b9150612b8d604085016129d0565b90509250925092565b602080825282516001600160401b031682820152820151604080830152600090612116606084018261275d565b60008060408385031215612bd657600080fd5b612bdf836127b5565b9150612a79602084016127b5565b60008060408385031215612c0057600080fd5b82359150612a79602084016129d0565b600181811c90821680612c2457607f821691505b602082108103612c4457634e487b7160e01b600052602260045260246000fd5b50919050565b601f8211156109e457600081815260208120601f850160051c81016020861015612c715750805b601f850160051c820191505b81811015610c6a57828155600101612c7d565b81516001600160401b03811115612ca957612ca9612879565b612cbd81612cb78454612c10565b84612c4a565b602080601f831160018114612cf25760008415612cda5750858301515b600019600386901b1c1916600185901b178555610c6a565b600085815260208120601f198616915b82811015612d2157888601518255948401946001909101908401612d02565b5085821015612d3f5787850151600019600388901b60f8161c191681555b5050505050600190811b01905550565b634e487b7160e01b600052601160045260246000fd5b8082018082111561089e5761089e612d4f565b6000816000190483118215151615612d9257612d92612d4f565b500290565b8181038181111561089e5761089e612d4f565b634e487b7160e01b600052603260045260246000fd5b60008451612dd2818460208901612739565b845190830190612de6818360208901612739565b8451910190612df9818360208801612739565b0195945050505050565b634e487b7160e01b600052603160045260246000fd5b6001600160a01b0385811682528416602082015260408101839052608060608201819052600090612e4c9083018461275d565b9695505050505050565b600060208284031215612e6857600080fd5b815161109c81612706565b600060018201612e8557612e85612d4f565b5060010190565b634e487b7160e01b600052601260045260246000fd5b600082612eb157612eb1612e8c565b500490565b600082612ec557612ec5612e8c565b50069056fe8d0cdca57de6b2fb4babd8b68c83db0b0981610d338eb68eea1f4b1e1d78dc1cddf252ad1be2c89b69c2b068fc378daa952ba7f163c4a11628f55a4df523b3efa26469706673582212207b046ef4842b5ac135fd1a34ef71cdba4c7b1ed85a4f90c5a4707649f0cac15764736f6c63430008100033",
  "linkReferences": {},
  "deployedLinkReferences": {}
}