{
  "_format": "hh-sol-artifact-1",
  "contractName": "RMRKNestingMultiResourceImpl",
  "sourceName": "contracts/implementations/RMRKNestingMultiResourceImpl.sol",
  "abi": [
    {
      "inputs": [
        {
          "internalType": "string",
          "name": "name_",
          "type": "string"
        },
        {
          "internalType": "string",
          "name": "symbol_",
          "type": "string"
        },
        {
          "internalType": "uint256",
          "name": "maxSupply_",
          "type": "uint256"
        },
        {
          "internalType": "uint256",
          "name": "pricePerMint_",
          "type": "uint256"
        },
        {
          "internalType": "string",
          "name": "collectionMetadata_",
          "type": "string"
        }
      ],
      "stateMutability": "nonpayable",
      "type": "constructor"
    },
    {
      "inputs": [],
      "name": "ERC721AddressZeroIsNotaValidOwner",
      "type": "error"
    },
    {
      "inputs": [],
      "name": "ERC721ApprovalToCurrentOwner",
      "type": "error"
    },
    {
      "inputs": [],
      "name": "ERC721ApproveCallerIsNotOwnerNorApprovedForAll",
      "type": "error"
    },
    {
      "inputs": [],
      "name": "ERC721ApproveToCaller",
      "type": "error"
    },
    {
      "inputs": [],
      "name": "ERC721InvalidTokenId",
      "type": "error"
    },
    {
      "inputs": [],
      "name": "ERC721MintToTheZeroAddress",
      "type": "error"
    },
    {
      "inputs": [],
      "name": "ERC721NotApprovedOrOwner",
      "type": "error"
    },
    {
      "inputs": [],
      "name": "ERC721TokenAlreadyMinted",
      "type": "error"
    },
    {
      "inputs": [],
      "name": "ERC721TransferFromIncorrectOwner",
      "type": "error"
    },
    {
      "inputs": [],
      "name": "ERC721TransferToNonReceiverImplementer",
      "type": "error"
    },
    {
      "inputs": [],
      "name": "ERC721TransferToTheZeroAddress",
      "type": "error"
    },
    {
      "inputs": [],
      "name": "RMRKApprovalForResourcesToCurrentOwner",
      "type": "error"
    },
    {
      "inputs": [],
      "name": "RMRKApproveForResourcesCallerIsNotOwnerNorApprovedForAll",
      "type": "error"
    },
    {
      "inputs": [],
      "name": "RMRKApproveForResourcesToCaller",
      "type": "error"
    },
    {
      "inputs": [],
      "name": "RMRKBadPriorityListLength",
      "type": "error"
    },
    {
      "inputs": [],
      "name": "RMRKCallerIsNotOwnerContract",
      "type": "error"
    },
    {
      "inputs": [],
      "name": "RMRKChildAlreadyExists",
      "type": "error"
    },
    {
      "inputs": [],
      "name": "RMRKChildIndexOutOfRange",
      "type": "error"
    },
    {
      "inputs": [],
      "name": "RMRKIndexOutOfRange",
      "type": "error"
    },
    {
      "inputs": [],
      "name": "RMRKInvalidChildReclaim",
      "type": "error"
    },
    {
      "inputs": [],
      "name": "RMRKIsNotContract",
      "type": "error"
    },
    {
      "inputs": [],
      "name": "RMRKMaxPendingChildrenReached",
      "type": "error"
    },
    {
      "inputs": [],
      "name": "RMRKMaxPendingResourcesReached",
      "type": "error"
    },
    {
      "inputs": [],
      "name": "RMRKMintOverMax",
      "type": "error"
    },
    {
      "inputs": [],
      "name": "RMRKMintToNonRMRKImplementer",
      "type": "error"
    },
    {
      "inputs": [],
      "name": "RMRKMintUnderpriced",
      "type": "error"
    },
    {
      "inputs": [],
      "name": "RMRKMintZero",
      "type": "error"
    },
    {
      "inputs": [],
      "name": "RMRKNestingTransferToNonRMRKNestingImplementer",
      "type": "error"
    },
    {
      "inputs": [],
      "name": "RMRKNewOwnerIsZeroAddress",
      "type": "error"
    },
    {
      "inputs": [],
      "name": "RMRKNoResourceMatchingId",
      "type": "error"
    },
    {
      "inputs": [],
      "name": "RMRKNotApprovedForResourcesOrOwner",
      "type": "error"
    },
    {
      "inputs": [],
      "name": "RMRKNotApprovedOrDirectOwner",
      "type": "error"
    },
    {
      "inputs": [],
      "name": "RMRKNotOwner",
      "type": "error"
    },
    {
      "inputs": [],
      "name": "RMRKPendingChildIndexOutOfRange",
      "type": "error"
    },
    {
      "inputs": [],
      "name": "RMRKResourceAlreadyExists",
      "type": "error"
    },
    {
      "inputs": [],
      "name": "RMRKWriteToZero",
      "type": "error"
    },
    {
      "anonymous": false,
      "inputs": [
        {
          "indexed": true,
          "internalType": "uint256",
          "name": "tokenId",
          "type": "uint256"
        }
      ],
      "name": "AllChildrenRejected",
      "type": "event"
    },
    {
      "anonymous": false,
      "inputs": [
        {
          "indexed": true,
          "internalType": "address",
          "name": "owner",
          "type": "address"
        },
        {
          "indexed": true,
          "internalType": "address",
          "name": "approved",
          "type": "address"
        },
        {
          "indexed": true,
          "internalType": "uint256",
          "name": "tokenId",
          "type": "uint256"
        }
      ],
      "name": "Approval",
      "type": "event"
    },
    {
      "anonymous": false,
      "inputs": [
        {
          "indexed": true,
          "internalType": "address",
          "name": "owner",
          "type": "address"
        },
        {
          "indexed": true,
          "internalType": "address",
          "name": "operator",
          "type": "address"
        },
        {
          "indexed": false,
          "internalType": "bool",
          "name": "approved",
          "type": "bool"
        }
      ],
      "name": "ApprovalForAll",
      "type": "event"
    },
    {
      "anonymous": false,
      "inputs": [
        {
          "indexed": true,
          "internalType": "address",
          "name": "owner",
          "type": "address"
        },
        {
          "indexed": true,
          "internalType": "address",
          "name": "operator",
          "type": "address"
        },
        {
          "indexed": false,
          "internalType": "bool",
          "name": "approved",
          "type": "bool"
        }
      ],
      "name": "ApprovalForAllForResources",
      "type": "event"
    },
    {
      "anonymous": false,
      "inputs": [
        {
          "indexed": true,
          "internalType": "address",
          "name": "owner",
          "type": "address"
        },
        {
          "indexed": true,
          "internalType": "address",
          "name": "approved",
          "type": "address"
        },
        {
          "indexed": true,
          "internalType": "uint256",
          "name": "tokenId",
          "type": "uint256"
        }
      ],
      "name": "ApprovalForResources",
      "type": "event"
    },
    {
      "anonymous": false,
      "inputs": [
        {
          "indexed": true,
          "internalType": "uint256",
          "name": "tokenId",
          "type": "uint256"
        },
        {
          "indexed": true,
          "internalType": "address",
          "name": "childAddress",
          "type": "address"
        },
        {
          "indexed": true,
          "internalType": "uint256",
          "name": "childId",
          "type": "uint256"
        },
        {
          "indexed": false,
          "internalType": "uint256",
          "name": "childIndex",
          "type": "uint256"
        }
      ],
      "name": "ChildAccepted",
      "type": "event"
    },
    {
      "anonymous": false,
      "inputs": [
        {
          "indexed": true,
          "internalType": "uint256",
          "name": "tokenId",
          "type": "uint256"
        },
        {
          "indexed": true,
          "internalType": "address",
          "name": "childAddress",
          "type": "address"
        },
        {
          "indexed": true,
          "internalType": "uint256",
          "name": "childId",
          "type": "uint256"
        },
        {
          "indexed": false,
          "internalType": "uint256",
          "name": "childIndex",
          "type": "uint256"
        }
      ],
      "name": "ChildProposed",
      "type": "event"
    },
    {
      "anonymous": false,
      "inputs": [
        {
          "indexed": true,
          "internalType": "uint256",
          "name": "tokenId",
          "type": "uint256"
        },
        {
          "indexed": true,
          "internalType": "address",
          "name": "childAddress",
          "type": "address"
        },
        {
          "indexed": true,
          "internalType": "uint256",
          "name": "childId",
          "type": "uint256"
        },
        {
          "indexed": false,
          "internalType": "uint256",
          "name": "childIndex",
          "type": "uint256"
        }
      ],
      "name": "ChildRejected",
      "type": "event"
    },
    {
      "anonymous": false,
      "inputs": [
        {
          "indexed": true,
          "internalType": "uint256",
          "name": "tokenId",
          "type": "uint256"
        },
        {
          "indexed": true,
          "internalType": "address",
          "name": "childAddress",
          "type": "address"
        },
        {
          "indexed": true,
          "internalType": "uint256",
          "name": "childId",
          "type": "uint256"
        },
        {
          "indexed": false,
          "internalType": "uint256",
          "name": "childIndex",
          "type": "uint256"
        }
      ],
      "name": "ChildUnnested",
      "type": "event"
    },
    {
      "anonymous": false,
      "inputs": [
        {
          "indexed": true,
          "internalType": "address",
          "name": "previousOwner",
          "type": "address"
        },
        {
          "indexed": true,
          "internalType": "address",
          "name": "newOwner",
          "type": "address"
        }
      ],
      "name": "OwnershipTransferred",
      "type": "event"
    },
    {
      "anonymous": false,
      "inputs": [
        {
          "indexed": true,
          "internalType": "uint256",
          "name": "tokenId",
          "type": "uint256"
        },
        {
          "indexed": true,
          "internalType": "uint64",
          "name": "resourceId",
          "type": "uint64"
        }
      ],
      "name": "ResourceAccepted",
      "type": "event"
    },
    {
      "anonymous": false,
      "inputs": [
        {
          "indexed": true,
          "internalType": "uint256",
          "name": "tokenId",
          "type": "uint256"
        },
        {
          "indexed": true,
          "internalType": "uint64",
          "name": "resourceId",
          "type": "uint64"
        }
      ],
      "name": "ResourceAddedToToken",
      "type": "event"
    },
    {
      "anonymous": false,
      "inputs": [
        {
          "indexed": true,
          "internalType": "uint256",
          "name": "tokenId",
          "type": "uint256"
        },
        {
          "indexed": true,
          "internalType": "uint64",
          "name": "resourceId",
          "type": "uint64"
        },
        {
          "indexed": true,
          "internalType": "uint64",
          "name": "overwritesId",
          "type": "uint64"
        }
      ],
      "name": "ResourceOverwriteProposed",
      "type": "event"
    },
    {
      "anonymous": false,
      "inputs": [
        {
          "indexed": true,
          "internalType": "uint256",
          "name": "tokenId",
          "type": "uint256"
        },
        {
          "indexed": true,
          "internalType": "uint64",
          "name": "oldResourceId",
          "type": "uint64"
        },
        {
          "indexed": true,
          "internalType": "uint64",
          "name": "newResourceId",
          "type": "uint64"
        }
      ],
      "name": "ResourceOverwritten",
      "type": "event"
    },
    {
      "anonymous": false,
      "inputs": [
        {
          "indexed": true,
          "internalType": "uint256",
          "name": "tokenId",
          "type": "uint256"
        }
      ],
      "name": "ResourcePrioritySet",
      "type": "event"
    },
    {
      "anonymous": false,
      "inputs": [
        {
          "indexed": true,
          "internalType": "uint256",
          "name": "tokenId",
          "type": "uint256"
        },
        {
          "indexed": true,
          "internalType": "uint64",
          "name": "resourceId",
          "type": "uint64"
        }
      ],
      "name": "ResourceRejected",
      "type": "event"
    },
    {
      "anonymous": false,
      "inputs": [
        {
          "indexed": true,
          "internalType": "uint64",
          "name": "resourceId",
          "type": "uint64"
        }
      ],
      "name": "ResourceSet",
      "type": "event"
    },
    {
      "anonymous": false,
      "inputs": [
        {
          "indexed": true,
          "internalType": "address",
          "name": "from",
          "type": "address"
        },
        {
          "indexed": true,
          "internalType": "address",
          "name": "to",
          "type": "address"
        },
        {
          "indexed": true,
          "internalType": "uint256",
          "name": "tokenId",
          "type": "uint256"
        }
      ],
      "name": "Transfer",
      "type": "event"
    },
    {
      "inputs": [
        {
          "internalType": "uint256",
          "name": "tokenId",
          "type": "uint256"
        },
        {
          "internalType": "uint256",
          "name": "index",
          "type": "uint256"
        }
      ],
      "name": "acceptChild",
      "outputs": [],
      "stateMutability": "nonpayable",
      "type": "function"
    },
    {
      "inputs": [
        {
          "internalType": "uint256",
          "name": "tokenId",
          "type": "uint256"
        },
        {
          "internalType": "uint256",
          "name": "index",
          "type": "uint256"
        }
      ],
      "name": "acceptResource",
      "outputs": [],
      "stateMutability": "nonpayable",
      "type": "function"
    },
    {
      "inputs": [
        {
          "internalType": "uint256",
          "name": "parentTokenId",
          "type": "uint256"
        },
        {
          "internalType": "uint256",
          "name": "childTokenId",
          "type": "uint256"
        }
      ],
      "name": "addChild",
      "outputs": [],
      "stateMutability": "nonpayable",
      "type": "function"
    },
    {
      "inputs": [
        {
          "internalType": "string",
          "name": "metadataURI",
          "type": "string"
        }
      ],
      "name": "addResourceEntry",
      "outputs": [],
      "stateMutability": "nonpayable",
      "type": "function"
    },
    {
      "inputs": [
        {
          "internalType": "uint256",
          "name": "tokenId",
          "type": "uint256"
        },
        {
          "internalType": "uint64",
          "name": "resourceId",
          "type": "uint64"
        },
        {
          "internalType": "uint64",
          "name": "overwrites",
          "type": "uint64"
        }
      ],
      "name": "addResourceToToken",
      "outputs": [],
      "stateMutability": "nonpayable",
      "type": "function"
    },
    {
      "inputs": [
        {
          "internalType": "address",
          "name": "to",
          "type": "address"
        },
        {
          "internalType": "uint256",
          "name": "tokenId",
          "type": "uint256"
        }
      ],
      "name": "approve",
      "outputs": [],
      "stateMutability": "nonpayable",
      "type": "function"
    },
    {
      "inputs": [
        {
          "internalType": "address",
          "name": "to",
          "type": "address"
        },
        {
          "internalType": "uint256",
          "name": "tokenId",
          "type": "uint256"
        }
      ],
      "name": "approveForResources",
      "outputs": [],
      "stateMutability": "nonpayable",
      "type": "function"
    },
    {
      "inputs": [
        {
          "internalType": "address",
          "name": "owner",
          "type": "address"
        }
      ],
      "name": "balanceOf",
      "outputs": [
        {
          "internalType": "uint256",
          "name": "",
          "type": "uint256"
        }
      ],
      "stateMutability": "view",
      "type": "function"
    },
    {
      "inputs": [
        {
          "internalType": "uint256",
          "name": "tokenId",
          "type": "uint256"
        }
      ],
      "name": "burn",
      "outputs": [],
      "stateMutability": "nonpayable",
      "type": "function"
    },
    {
      "inputs": [
        {
          "internalType": "uint256",
          "name": "tokenId",
          "type": "uint256"
        },
        {
          "internalType": "uint256",
          "name": "index",
          "type": "uint256"
        }
      ],
      "name": "burnChild",
      "outputs": [],
      "stateMutability": "nonpayable",
      "type": "function"
    },
    {
      "inputs": [
        {
          "internalType": "uint256",
          "name": "tokenId",
          "type": "uint256"
        }
      ],
      "name": "burnFromParent",
      "outputs": [],
      "stateMutability": "nonpayable",
      "type": "function"
    },
    {
      "inputs": [
        {
          "internalType": "uint256",
          "name": "parentTokenId",
          "type": "uint256"
        },
        {
          "internalType": "uint256",
          "name": "index",
          "type": "uint256"
        }
      ],
      "name": "childOf",
      "outputs": [
        {
          "components": [
            {
              "internalType": "uint256",
              "name": "tokenId",
              "type": "uint256"
            },
            {
              "internalType": "address",
              "name": "contractAddress",
              "type": "address"
            }
          ],
          "internalType": "struct IRMRKNesting.Child",
          "name": "",
          "type": "tuple"
        }
      ],
      "stateMutability": "view",
      "type": "function"
    },
    {
      "inputs": [
        {
          "internalType": "uint256",
          "name": "parentTokenId",
          "type": "uint256"
        }
      ],
      "name": "childrenOf",
      "outputs": [
        {
          "components": [
            {
              "internalType": "uint256",
              "name": "tokenId",
              "type": "uint256"
            },
            {
              "internalType": "address",
              "name": "contractAddress",
              "type": "address"
            }
          ],
          "internalType": "struct IRMRKNesting.Child[]",
          "name": "",
          "type": "tuple[]"
        }
      ],
      "stateMutability": "view",
      "type": "function"
    },
    {
      "inputs": [],
      "name": "collectionMetadata",
      "outputs": [
        {
          "internalType": "string",
          "name": "",
          "type": "string"
        }
      ],
      "stateMutability": "view",
      "type": "function"
    },
    {
      "inputs": [
        {
          "internalType": "uint256",
          "name": "tokenId",
          "type": "uint256"
        }
      ],
      "name": "getActiveResourcePriorities",
      "outputs": [
        {
          "internalType": "uint16[]",
          "name": "",
          "type": "uint16[]"
        }
      ],
      "stateMutability": "view",
      "type": "function"
    },
    {
      "inputs": [
        {
          "internalType": "uint256",
          "name": "tokenId",
          "type": "uint256"
        }
      ],
      "name": "getActiveResources",
      "outputs": [
        {
          "internalType": "uint64[]",
          "name": "",
          "type": "uint64[]"
        }
      ],
      "stateMutability": "view",
      "type": "function"
    },
    {
      "inputs": [],
      "name": "getAllResources",
      "outputs": [
        {
          "internalType": "uint64[]",
          "name": "",
          "type": "uint64[]"
        }
      ],
      "stateMutability": "view",
      "type": "function"
    },
    {
      "inputs": [
        {
          "internalType": "uint256",
          "name": "tokenId",
          "type": "uint256"
        }
      ],
      "name": "getApproved",
      "outputs": [
        {
          "internalType": "address",
          "name": "",
          "type": "address"
        }
      ],
      "stateMutability": "view",
      "type": "function"
    },
    {
      "inputs": [
        {
          "internalType": "uint256",
          "name": "tokenId",
          "type": "uint256"
        }
      ],
      "name": "getApprovedForResources",
      "outputs": [
        {
          "internalType": "address",
          "name": "",
          "type": "address"
        }
      ],
      "stateMutability": "view",
      "type": "function"
    },
    {
      "inputs": [],
      "name": "getFallbackURI",
      "outputs": [
        {
          "internalType": "string",
          "name": "",
          "type": "string"
        }
      ],
      "stateMutability": "view",
      "type": "function"
    },
    {
      "inputs": [],
      "name": "getLock",
      "outputs": [
        {
          "internalType": "bool",
          "name": "",
          "type": "bool"
        }
      ],
      "stateMutability": "view",
      "type": "function"
    },
    {
      "inputs": [
        {
          "internalType": "uint256",
          "name": "tokenId",
          "type": "uint256"
        }
      ],
      "name": "getPendingResources",
      "outputs": [
        {
          "internalType": "uint64[]",
          "name": "",
          "type": "uint64[]"
        }
      ],
      "stateMutability": "view",
      "type": "function"
    },
    {
      "inputs": [
        {
          "internalType": "uint64",
          "name": "resourceId",
          "type": "uint64"
        }
      ],
      "name": "getResource",
      "outputs": [
        {
          "components": [
            {
              "internalType": "uint64",
              "name": "id",
              "type": "uint64"
            },
            {
              "internalType": "string",
              "name": "metadataURI",
              "type": "string"
            }
          ],
          "internalType": "struct IRMRKMultiResource.Resource",
          "name": "",
          "type": "tuple"
        }
      ],
      "stateMutability": "view",
      "type": "function"
    },
    {
      "inputs": [
        {
          "internalType": "uint256",
          "name": "tokenId",
          "type": "uint256"
        },
        {
          "internalType": "uint64",
          "name": "resourceId",
          "type": "uint64"
        }
      ],
      "name": "getResourceOverwrites",
      "outputs": [
        {
          "internalType": "uint64",
          "name": "",
          "type": "uint64"
        }
      ],
      "stateMutability": "view",
      "type": "function"
    },
    {
      "inputs": [
        {
          "internalType": "address",
          "name": "owner",
          "type": "address"
        },
        {
          "internalType": "address",
          "name": "operator",
          "type": "address"
        }
      ],
      "name": "isApprovedForAll",
      "outputs": [
        {
          "internalType": "bool",
          "name": "",
          "type": "bool"
        }
      ],
      "stateMutability": "view",
      "type": "function"
    },
    {
      "inputs": [
        {
          "internalType": "address",
          "name": "owner",
          "type": "address"
        },
        {
          "internalType": "address",
          "name": "operator",
          "type": "address"
        }
      ],
      "name": "isApprovedForAllForResources",
      "outputs": [
        {
          "internalType": "bool",
          "name": "",
          "type": "bool"
        }
      ],
      "stateMutability": "view",
      "type": "function"
    },
    {
      "inputs": [
        {
          "internalType": "uint64",
          "name": "resourceId",
          "type": "uint64"
        }
      ],
      "name": "isTokenEnumeratedResource",
      "outputs": [
        {
          "internalType": "bool",
          "name": "",
          "type": "bool"
        }
      ],
      "stateMutability": "view",
      "type": "function"
    },
    {
      "inputs": [],
      "name": "maxSupply",
      "outputs": [
        {
          "internalType": "uint256",
          "name": "",
          "type": "uint256"
        }
      ],
      "stateMutability": "view",
      "type": "function"
    },
    {
      "inputs": [
        {
          "internalType": "address",
          "name": "to",
          "type": "address"
        },
        {
          "internalType": "uint256",
          "name": "numToMint",
          "type": "uint256"
        }
      ],
      "name": "mint",
      "outputs": [],
      "stateMutability": "payable",
      "type": "function"
    },
    {
      "inputs": [
        {
          "internalType": "address",
          "name": "to",
          "type": "address"
        },
        {
          "internalType": "uint256",
          "name": "numToMint",
          "type": "uint256"
        },
        {
          "internalType": "uint256",
          "name": "destinationId",
          "type": "uint256"
        }
      ],
      "name": "mintNesting",
      "outputs": [],
      "stateMutability": "payable",
      "type": "function"
    },
    {
      "inputs": [],
      "name": "name",
      "outputs": [
        {
          "internalType": "string",
          "name": "",
          "type": "string"
        }
      ],
      "stateMutability": "view",
      "type": "function"
    },
    {
      "inputs": [
        {
          "internalType": "address",
          "name": "to",
          "type": "address"
        },
        {
          "internalType": "uint256",
          "name": "tokenId",
          "type": "uint256"
        },
        {
          "internalType": "uint256",
          "name": "destinationId",
          "type": "uint256"
        }
      ],
      "name": "nestTransfer",
      "outputs": [],
      "stateMutability": "nonpayable",
      "type": "function"
    },
    {
      "inputs": [
        {
          "internalType": "address",
          "name": "from",
          "type": "address"
        },
        {
          "internalType": "address",
          "name": "to",
          "type": "address"
        },
        {
          "internalType": "uint256",
          "name": "tokenId",
          "type": "uint256"
        },
        {
          "internalType": "uint256",
          "name": "destinationId",
          "type": "uint256"
        }
      ],
      "name": "nestTransferFrom",
      "outputs": [],
      "stateMutability": "nonpayable",
      "type": "function"
    },
    {
      "inputs": [],
      "name": "owner",
      "outputs": [
        {
          "internalType": "address",
          "name": "",
          "type": "address"
        }
      ],
      "stateMutability": "view",
      "type": "function"
    },
    {
      "inputs": [
        {
          "internalType": "uint256",
          "name": "tokenId",
          "type": "uint256"
        }
      ],
      "name": "ownerOf",
      "outputs": [
        {
          "internalType": "address",
          "name": "",
          "type": "address"
        }
      ],
      "stateMutability": "view",
      "type": "function"
    },
    {
      "inputs": [
        {
          "internalType": "uint256",
          "name": "parentTokenId",
          "type": "uint256"
        },
        {
          "internalType": "uint256",
          "name": "index",
          "type": "uint256"
        }
      ],
      "name": "pendingChildOf",
      "outputs": [
        {
          "components": [
            {
              "internalType": "uint256",
              "name": "tokenId",
              "type": "uint256"
            },
            {
              "internalType": "address",
              "name": "contractAddress",
              "type": "address"
            }
          ],
          "internalType": "struct IRMRKNesting.Child",
          "name": "",
          "type": "tuple"
        }
      ],
      "stateMutability": "view",
      "type": "function"
    },
    {
      "inputs": [
        {
          "internalType": "uint256",
          "name": "parentTokenId",
          "type": "uint256"
        }
      ],
      "name": "pendingChildrenOf",
      "outputs": [
        {
          "components": [
            {
              "internalType": "uint256",
              "name": "tokenId",
              "type": "uint256"
            },
            {
              "internalType": "address",
              "name": "contractAddress",
              "type": "address"
            }
          ],
          "internalType": "struct IRMRKNesting.Child[]",
          "name": "",
          "type": "tuple[]"
        }
      ],
      "stateMutability": "view",
      "type": "function"
    },
    {
      "inputs": [],
      "name": "pricePerMint",
      "outputs": [
        {
          "internalType": "uint256",
          "name": "",
          "type": "uint256"
        }
      ],
      "stateMutability": "view",
      "type": "function"
    },
    {
      "inputs": [
        {
          "internalType": "uint256",
          "name": "tokenId",
          "type": "uint256"
        },
        {
          "internalType": "address",
          "name": "childAddress",
          "type": "address"
        },
        {
          "internalType": "uint256",
          "name": "childTokenId",
          "type": "uint256"
        }
      ],
      "name": "reclaimChild",
      "outputs": [],
      "stateMutability": "nonpayable",
      "type": "function"
    },
    {
      "inputs": [
        {
          "internalType": "uint256",
          "name": "tokenId",
          "type": "uint256"
        }
      ],
      "name": "rejectAllChildren",
      "outputs": [],
      "stateMutability": "nonpayable",
      "type": "function"
    },
    {
      "inputs": [
        {
          "internalType": "uint256",
          "name": "tokenId",
          "type": "uint256"
        }
      ],
      "name": "rejectAllResources",
      "outputs": [],
      "stateMutability": "nonpayable",
      "type": "function"
    },
    {
      "inputs": [
        {
          "internalType": "uint256",
          "name": "tokenId",
          "type": "uint256"
        },
        {
          "internalType": "uint256",
          "name": "index",
          "type": "uint256"
        },
        {
          "internalType": "address",
          "name": "to",
          "type": "address"
        }
      ],
      "name": "rejectChild",
      "outputs": [],
      "stateMutability": "nonpayable",
      "type": "function"
    },
    {
      "inputs": [
        {
          "internalType": "uint256",
          "name": "tokenId",
          "type": "uint256"
        },
        {
          "internalType": "uint256",
          "name": "index",
          "type": "uint256"
        }
      ],
      "name": "rejectResource",
      "outputs": [],
      "stateMutability": "nonpayable",
      "type": "function"
    },
    {
      "inputs": [],
      "name": "renounceOwnership",
      "outputs": [],
      "stateMutability": "nonpayable",
      "type": "function"
    },
    {
      "inputs": [
        {
          "internalType": "uint256",
          "name": "tokenId",
          "type": "uint256"
        }
      ],
      "name": "rmrkOwnerOf",
      "outputs": [
        {
          "internalType": "address",
          "name": "",
          "type": "address"
        },
        {
          "internalType": "uint256",
          "name": "",
          "type": "uint256"
        },
        {
          "internalType": "bool",
          "name": "",
          "type": "bool"
        }
      ],
      "stateMutability": "view",
      "type": "function"
    },
    {
      "inputs": [
        {
          "internalType": "address",
          "name": "from",
          "type": "address"
        },
        {
          "internalType": "address",
          "name": "to",
          "type": "address"
        },
        {
          "internalType": "uint256",
          "name": "tokenId",
          "type": "uint256"
        }
      ],
      "name": "safeTransferFrom",
      "outputs": [],
      "stateMutability": "nonpayable",
      "type": "function"
    },
    {
      "inputs": [
        {
          "internalType": "address",
          "name": "from",
          "type": "address"
        },
        {
          "internalType": "address",
          "name": "to",
          "type": "address"
        },
        {
          "internalType": "uint256",
          "name": "tokenId",
          "type": "uint256"
        },
        {
          "internalType": "bytes",
          "name": "data",
          "type": "bytes"
        }
      ],
      "name": "safeTransferFrom",
      "outputs": [],
      "stateMutability": "nonpayable",
      "type": "function"
    },
    {
      "inputs": [
        {
          "internalType": "address",
          "name": "operator",
          "type": "address"
        },
        {
          "internalType": "bool",
          "name": "approved",
          "type": "bool"
        }
      ],
      "name": "setApprovalForAll",
      "outputs": [],
      "stateMutability": "nonpayable",
      "type": "function"
    },
    {
      "inputs": [
        {
          "internalType": "address",
          "name": "operator",
          "type": "address"
        },
        {
          "internalType": "bool",
          "name": "approved",
          "type": "bool"
        }
      ],
      "name": "setApprovalForAllForResources",
      "outputs": [],
      "stateMutability": "nonpayable",
      "type": "function"
    },
    {
      "inputs": [
        {
          "internalType": "string",
          "name": "fallbackURI",
          "type": "string"
        }
      ],
      "name": "setFallbackURI",
      "outputs": [],
      "stateMutability": "nonpayable",
      "type": "function"
    },
    {
      "inputs": [],
      "name": "setLock",
      "outputs": [],
      "stateMutability": "nonpayable",
      "type": "function"
    },
    {
      "inputs": [
        {
          "internalType": "uint256",
          "name": "tokenId",
          "type": "uint256"
        },
        {
          "internalType": "uint16[]",
          "name": "priorities",
          "type": "uint16[]"
        }
      ],
      "name": "setPriority",
      "outputs": [],
      "stateMutability": "nonpayable",
      "type": "function"
    },
    {
      "inputs": [
        {
          "internalType": "uint64",
          "name": "resourceId",
          "type": "uint64"
        },
        {
          "internalType": "bool",
          "name": "state",
          "type": "bool"
        }
      ],
      "name": "setTokenEnumeratedResource",
      "outputs": [],
      "stateMutability": "nonpayable",
      "type": "function"
    },
    {
      "inputs": [
        {
          "internalType": "bytes4",
          "name": "interfaceId",
          "type": "bytes4"
        }
      ],
      "name": "supportsInterface",
      "outputs": [
        {
          "internalType": "bool",
          "name": "",
          "type": "bool"
        }
      ],
      "stateMutability": "view",
      "type": "function"
    },
    {
      "inputs": [],
      "name": "symbol",
      "outputs": [
        {
          "internalType": "string",
          "name": "",
          "type": "string"
        }
      ],
      "stateMutability": "view",
      "type": "function"
    },
    {
      "inputs": [
        {
          "internalType": "uint256",
          "name": "tokenId",
          "type": "uint256"
        }
      ],
      "name": "tokenURI",
      "outputs": [
        {
          "internalType": "string",
          "name": "",
          "type": "string"
        }
      ],
      "stateMutability": "view",
      "type": "function"
    },
    {
      "inputs": [
        {
          "internalType": "uint256",
          "name": "tokenId",
          "type": "uint256"
        },
        {
          "internalType": "uint256",
          "name": "index",
          "type": "uint256"
        }
      ],
      "name": "tokenURIAtIndex",
      "outputs": [
        {
          "internalType": "string",
          "name": "",
          "type": "string"
        }
      ],
      "stateMutability": "view",
      "type": "function"
    },
    {
      "inputs": [],
      "name": "totalResources",
      "outputs": [
        {
          "internalType": "uint256",
          "name": "",
          "type": "uint256"
        }
      ],
      "stateMutability": "view",
      "type": "function"
    },
    {
      "inputs": [],
      "name": "totalSupply",
      "outputs": [
        {
          "internalType": "uint256",
          "name": "",
          "type": "uint256"
        }
      ],
      "stateMutability": "view",
      "type": "function"
    },
    {
      "inputs": [
        {
          "internalType": "address",
          "name": "to",
          "type": "address"
        },
        {
          "internalType": "uint256",
          "name": "tokenId",
          "type": "uint256"
        }
      ],
      "name": "transfer",
      "outputs": [],
      "stateMutability": "nonpayable",
      "type": "function"
    },
    {
      "inputs": [
        {
          "internalType": "address",
          "name": "from",
          "type": "address"
        },
        {
          "internalType": "address",
          "name": "to",
          "type": "address"
        },
        {
          "internalType": "uint256",
          "name": "tokenId",
          "type": "uint256"
        }
      ],
      "name": "transferFrom",
      "outputs": [],
      "stateMutability": "nonpayable",
      "type": "function"
    },
    {
      "inputs": [
        {
          "internalType": "address",
          "name": "newOwner",
          "type": "address"
        }
      ],
      "name": "transferOwnership",
      "outputs": [],
      "stateMutability": "nonpayable",
      "type": "function"
    },
    {
      "inputs": [
        {
          "internalType": "uint256",
          "name": "tokenId",
          "type": "uint256"
        },
        {
          "internalType": "uint256",
          "name": "index",
          "type": "uint256"
        },
        {
          "internalType": "address",
          "name": "to",
          "type": "address"
        }
      ],
      "name": "unnestChild",
      "outputs": [],
      "stateMutability": "nonpayable",
      "type": "function"
    },
    {
      "inputs": [
        {
          "internalType": "address",
          "name": "to",
          "type": "address"
        },
        {
          "internalType": "uint256",
          "name": "amount",
          "type": "uint256"
        }
      ],
      "name": "withdrawRaised",
      "outputs": [],
      "stateMutability": "nonpayable",
      "type": "function"
    }
  ],
  "bytecode": "0x60c06040523480156200001157600080fd5b5060405162004bc338038062004bc38339810160408190526200003491620001ab565b8484818184878762000046336200008d565b60809190915260a05260026200005d8282620002df565b50600390506200006e8382620002df565b5060046200007d8282620002df565b50505050505050505050620003ab565b600080546001600160a01b03838116610100818102610100600160a81b0319851617855560405193049190911692909183917f8be0079c531659141344cd1fd0a4f28419497f9722a3daafe3b4186f6b6457e091a35050565b634e487b7160e01b600052604160045260246000fd5b600082601f8301126200010e57600080fd5b81516001600160401b03808211156200012b576200012b620000e6565b604051601f8301601f19908116603f01168101908282118183101715620001565762000156620000e6565b816040528381526020925086838588010111156200017357600080fd5b600091505b8382101562000197578582018301518183018401529082019062000178565b600093810190920192909252949350505050565b600080600080600060a08688031215620001c457600080fd5b85516001600160401b0380821115620001dc57600080fd5b620001ea89838a01620000fc565b965060208801519150808211156200020157600080fd5b6200020f89838a01620000fc565b9550604088015194506060880151935060808801519150808211156200023457600080fd5b506200024388828901620000fc565b9150509295509295909350565b600181811c908216806200026557607f821691505b6020821081036200028657634e487b7160e01b600052602260045260246000fd5b50919050565b601f821115620002da57600081815260208120601f850160051c81016020861015620002b55750805b601f850160051c820191505b81811015620002d657828155600101620002c1565b5050505b505050565b81516001600160401b03811115620002fb57620002fb620000e6565b62000313816200030c845462000250565b846200028c565b602080601f8311600181146200034b5760008415620003325750858301515b600019600386901b1c1916600185901b178555620002d6565b600085815260208120601f198616915b828110156200037c578886015182559484019460019091019084016200035b565b50858210156200039b5787850151600019600388901b60f8161c191681555b5050505050600190811b01905550565b60805160a0516147d6620003ed60003960008181610951015261252d0152600081816109a401528181610dc1015281816114e101526124da01526147d66000f3fe6080604052600436106102d35760003560e01c806301ffc9a7146102d857806306fdde031461030d578063081812fc1461032f578063095ea7b314610367578063096835be146103895780630ca01bf8146103a9578063135627cd146103c957806318160ddd146103f657806318249af71461041557806318881cd4146104355780631becc6e31461044857806323b872dd1461046857806324c6f83f146104885780632f28ec4a146104a85780632f32f937146104c85780632fb59acf146104f557806331c57d131461051557806333ed28451461054e57806335440faf1461056e5780633d984c8c1461058e57806340c10f19146105ae57806342842e0e146105c157806342966c68146105e157806344ec9344146106015780636352211e1461062e578063666d36d31461064e57806366f5a7471461066e5780636f19951c1461068357806370a08231146106a3578063715018a6146106c3578063739817dd146106d857806378816134146106f85780637aba6f37146107185780637b2e40fa1461072d5780637e5852d91461074d578063891141d61461076557806389ed2edf146107855780638da5cb5b1461079a57806392401eb6146107af57806393026a60146107c457806395d89b41146107e4578063a0eaec43146107f9578063a22cb46514610826578063a898e36414610846578063a9059cbb14610866578063afc523f614610886578063b3556b8e146108cd578063b88d4fde146108ed578063baace33e1461090d578063c48a424314610922578063c5610a2914610942578063c87b56dd14610975578063d5abeb0114610995578063daf30477146109c8578063dd6433d4146109e8578063e2e286af14610a08578063e5f2e9e414610a35578063e889757014610a55578063e985e9c514610a75578063ed45ca9e14610a95578063ed5fd0f514610ab5578063f2fde38b14610ad5578063f64669c314610af5578063fe679c6214610b15575b600080fd5b3480156102e457600080fd5b506102f86102f3366004613d9d565b610b71565b60405190151581526020015b60405180910390f35b34801561031957600080fd5b50610322610b9d565b6040516103049190613e0a565b34801561033b57600080fd5b5061034f61034a366004613e1d565b610c2f565b6040516001600160a01b039091168152602001610304565b34801561037357600080fd5b50610387610382366004613e4b565b610c56565b005b34801561039557600080fd5b506103876103a4366004613e77565b610ce2565b3480156103b557600080fd5b506103876103c4366004613f80565b610cfd565b3480156103d557600080fd5b506103e96103e4366004613e1d565b610d1d565b6040516103049190613fc8565b34801561040257600080fd5b506001545b604051908152602001610304565b34801561042157600080fd5b50610387610430366004613f80565b610da7565b610387610443366004614010565b610dbf565b34801561045457600080fd5b50610387610463366004614010565b610e37565b34801561047457600080fd5b50610387610483366004614045565b610e43565b34801561049457600080fd5b506103876104a3366004613e1d565b610e58565b3480156104b457600080fd5b506103876104c3366004614086565b610ee9565b3480156104d457600080fd5b506104e86104e33660046140bf565b611055565b60405161030491906140f9565b34801561050157600080fd5b50610387610510366004614107565b6110e7565b34801561052157600080fd5b506102f861053036600461414a565b6001600160401b031660009081526017602052604090205460ff1690565b34801561055a57600080fd5b50610387610569366004613e4b565b611216565b34801561057a57600080fd5b506103876105893660046140bf565b611228565b34801561059a57600080fd5b506103876105a9366004614086565b61136b565b6103876105bc366004613e4b565b6114df565b3480156105cd57600080fd5b506103876105dc366004614045565b611555565b3480156105ed57600080fd5b506103876105fc366004613e1d565b611570565b34801561060d57600080fd5b5061062161061c366004613e1d565b611583565b6040516103049190614165565b34801561063a57600080fd5b5061034f610649366004613e1d565b611602565b34801561065a57600080fd5b506103876106693660046140bf565b611692565b34801561067a57600080fd5b50601654610407565b34801561068f57600080fd5b5061062161069e366004613e1d565b611790565b3480156106af57600080fd5b506104076106be3660046141b2565b611800565b3480156106cf57600080fd5b50610387611845565b3480156106e457600080fd5b506103876106f33660046140bf565b611859565b34801561070457600080fd5b50610387610713366004613e4b565b61186d565b34801561072457600080fd5b506103876118f4565b34801561073957600080fd5b50610387610748366004613e1d565b61190b565b34801561075957600080fd5b5060005460ff166102f8565b34801561077157600080fd5b5061034f610780366004613e1d565b61191e565b34801561079157600080fd5b50610322611945565b3480156107a657600080fd5b5061034f6119d3565b3480156107bb57600080fd5b506103226119e7565b3480156107d057600080fd5b506103876107df3660046141dd565b6119f6565b3480156107f057600080fd5b50610322611a29565b34801561080557600080fd5b50610819610814366004613e1d565b611a38565b6040516103049190614214565b34801561083257600080fd5b50610387610841366004614255565b611aca565b34801561085257600080fd5b506104e86108613660046140bf565b611b5f565b34801561087257600080fd5b50610387610881366004613e4b565b611bb5565b34801561089257600080fd5b506108a66108a1366004613e1d565b611bc0565b604080516001600160a01b0390941684526020840192909252151590820152606001610304565b3480156108d957600080fd5b506103876108e8366004613e1d565b611c41565b3480156108f957600080fd5b50610387610908366004614273565b611c91565b34801561091957600080fd5b50610819611ca7565b34801561092e57600080fd5b5061038761093d3660046142f2565b611d30565b34801561094e57600080fd5b507f0000000000000000000000000000000000000000000000000000000000000000610407565b34801561098157600080fd5b50610322610990366004613e1d565b611d6d565b3480156109a157600080fd5b507f0000000000000000000000000000000000000000000000000000000000000000610407565b3480156109d457600080fd5b506103226109e33660046140bf565b611d7a565b3480156109f457600080fd5b50610387610a033660046140bf565b611d8d565b348015610a1457600080fd5b50610a28610a2336600461414a565b611da1565b604051610304919061432e565b348015610a4157600080fd5b50610387610a5036600461435b565b611e9b565b348015610a6157600080fd5b50610387610a70366004614255565b611eb1565b348015610a8157600080fd5b506102f8610a903660046143a1565b611f48565b348015610aa157600080fd5b50610387610ab03660046140bf565b611f76565b348015610ac157600080fd5b506102f8610ad03660046143a1565b6120f5565b348015610ae157600080fd5b50610387610af03660046141b2565b612123565b348015610b0157600080fd5b50610819610b10366004613e1d565b612165565b348015610b2157600080fd5b50610b59610b303660046143cf565b6000918252600e602090815260408084206001600160401b039384168552909152909120541690565b6040516001600160401b039091168152602001610304565b6000610b7c826121ce565b80610b9757506001600160e01b03198216630354d94960e01b145b92915050565b606060038054610bac906143fb565b80601f0160208091040260200160405190810160405280929190818152602001828054610bd8906143fb565b8015610c255780601f10610bfa57610100808354040283529160200191610c25565b820191906000526020600020905b815481529060010190602001808311610c0857829003601f168201915b5050505050905090565b6000610c3a8261223a565b506000908152600760205260409020546001600160a01b031690565b6000610c6182611602565b9050806001600160a01b0316836001600160a01b031603610c9557604051630591db6d60e01b815260040160405180910390fd5b336001600160a01b03821614801590610cb55750610cb38133611f48565b155b15610cd357604051634c12315960e11b815260040160405180910390fd5b610cdd8383612260565b505050565b82610cec816122ce565b610cf78484846122f5565b50505050565b610d05612370565b6016805460010190819055610d1a90826123a0565b50565b600081815260106020908152604091829020805483518184028101840190945280845260609392830182828015610d9b57602002820191906000526020600020906000905b82829054906101000a900461ffff1661ffff1681526020019060020190602082600101049283019260010382029150808411610d625790505b50505050509050919050565b610daf612370565b6018610dbb828261447b565b5050565b7f000000000000000000000000000000000000000000000000000000000000000060015410610e0157604051635e91cdfb60e11b815260040160405180910390fd5b600080610e0d846124b7565b9092509050815b81811015610e2f57610e278682866125aa565b600101610e14565b505050505050565b610cdd33848484611e9b565b80610e4d81612682565b610cf78484846126a9565b6000610e6382611bc0565b50509050610e6e3390565b6001600160a01b0316816001600160a01b031614610e9f576040516304a959d760e51b815260040160405180910390fd5b6000610eaa83611602565b9050610eb683826127a9565b6001600160a01b0382166000908152600660205260408120805460019290610edf908490614550565b9091555050505050565b82610ef38161291d565b6000848152600b60205260409020548310610f215760405163da22687f60e01b815260040160405180910390fd5b6000848152600b60205260408120805485908110610f4157610f41614563565b60009182526020808320604080518082018252600290940290910180548452600101546001600160a01b031683830152888452600b909152909120909150610f899085612944565b6001600160a01b038316156110015760208101518151604051632142170760e11b81526001600160a01b03909216916342842e0e91610fce9130918891600401614579565b600060405180830381600087803b158015610fe857600080fd5b505af1158015610ffc573d6000803e3d6000fd5b505050505b806000015181602001516001600160a01b0316867f2dc2e10b799c93e8ca2caf88957bf13c045dc66cd49b36c585c0c77bdcc8e27a8760405161104691815260200190565b60405180910390a45050505050565b61105d613c41565b6000838152600a6020526040902054821061108b5760405163653e642560e11b815260040160405180910390fd5b6000838152600a602052604081208054849081106110ab576110ab614563565b60009182526020918290206040805180820190915260029092020180548252600101546001600160a01b03169181019190915291505092915050565b826110f18161291d565b6000806000856001600160a01b031663afc523f6866040518263ffffffff1660e01b815260040161112491815260200190565b606060405180830381865afa158015611141573d6000803e3d6000fd5b505050506040513d601f19601f82011682018060405250810190611165919061459d565b919450925090506001600160a01b038316301415806111845750868214155b8061118d575080155b156111ab57604051633ece094960e01b815260040160405180910390fd5b604051632142170760e11b81526001600160a01b038716906342842e0e906111db90309033908a90600401614579565b600060405180830381600087803b1580156111f557600080fd5b505af1158015611209573d6000803e3d6000fd5b5050505050505050505050565b61121e612370565b610dbb82826129fe565b61123182612a98565b61124e5760405163089ba7e160e41b815260040160405180910390fd5b61125733612ab8565b6112745760405163b9d3114760e01b815260040160405180910390fd5b6000604051806040016040528083815260200161128e3390565b6001600160a01b031690526000848152600b60205260409020549091506080811015611307576000848152600b60209081526040822080546001808201835591845292829020855160029094020192835590840151910180546001600160a01b0319166001600160a01b03909216919091179055611320565b60405163a53c8c0560e01b815260040160405180910390fd5b82336001600160a01b0316857fdfb23fa68267b8a66ca315a36a29889d77a420b34073629782071a4cdd02ba978460405161135d91815260200190565b60405180910390a450505050565b826113758161291d565b6000848152600a602052604090205483106113a35760405163653e642560e11b815260040160405180910390fd5b6000848152600a602052604081208054859081106113c3576113c3614563565b60009182526020808320604080518082018252600290940290910180548452600101546001600160a01b03168383018190528452600c8252808420835185528252808420849055888452600a9091529091209091506114229085612944565b6001600160a01b0383161561149a5760208101518151604051632142170760e11b81526001600160a01b03909216916342842e0e916114679130918891600401614579565b600060405180830381600087803b15801561148157600080fd5b505af1158015611495573d6000803e3d6000fd5b505050505b806000015181602001516001600160a01b0316867fa95de6cebca7c6826e1400a4638f4dba333521c957f066ba83082e1a8ca813128760405161104691815260200190565b7f00000000000000000000000000000000000000000000000000000000000000006001541061152157604051635e91cdfb60e11b815260040160405180910390fd5b60008061152d836124b7565b9092509050815b8181101561154e576115468582612ac7565b600101611534565b5050505050565b610cdd83838360405180602001604052806000815250611c91565b8061157a81612682565b610dbb82612ae1565b6000818152600b60209081526040808320805482518185028101850190935280835260609493849084015b828210156115f65760008481526020908190206040805180820190915260028502909101805482526001908101546001600160a01b03168284015290835290920191016115ae565b50929695505050505050565b60008060008061161185611bc0565b9250925092508015611689576040516331a9108f60e11b8152600481018390526001600160a01b03841690636352211e90602401602060405180830381865afa158015611662573d6000803e3d6000fd5b505050506040513d601f19601f8201168201806040525081019061168691906145d5565b92505b50909392505050565b8161169c81612682565b6000838152600a602052604090205482106116ca5760405163653e642560e11b815260040160405180910390fd5b6000838152600a602052604081208054849081106116ea576116ea614563565b6000918252602091829020604080518082018252600290930290910180548084526001909101546001600160a01b031693830184905290516324c6f83f60e01b81529193506324c6f83f91611746919060040190815260200190565b600060405180830381600087803b15801561176057600080fd5b505af1158015611774573d6000803e3d6000fd5b5050506000858152600a60205260409020610cf7915084612944565b6000818152600a602090815260408083208054825181850281018501909352808352606094938490840182156115f65760008481526020908190206040805180820190915260028502909101805482526001908101546001600160a01b03168284015290835290920191016115ae565b60006001600160a01b03821661182957604051633bb9143360e11b815260040160405180910390fd5b506001600160a01b031660009081526006602052604090205490565b61184d612370565b6118576000612b39565b565b81611863816122ce565b610cdd8383612b92565b600061187882611602565b9050806001600160a01b0316836001600160a01b0316036118ac57604051639efa161160e01b815260040160405180910390fd5b336001600160a01b038216148015906118cc57506118ca81336120f5565b155b156118ea57604051635d84267760e11b815260040160405180910390fd5b610cdd8383612d89565b6118fc612370565b6000805460ff19166001179055565b80611915816122ce565b610dbb82612df7565b60006119298261223a565b506000908152601460205260409020546001600160a01b031690565b60028054611952906143fb565b80601f016020809104026020016040519081016040528092919081815260200182805461197e906143fb565b80156119cb5780601f106119a0576101008083540402835291602001916119cb565b820191906000526020600020905b8154815290600101906020018083116119ae57829003601f168201915b505050505081565b60005461010090046001600160a01b031690565b606060188054610bac906143fb565b6119fe612370565b6001600160401b03919091166000908152601760205260409020805460ff1916911515919091179055565b606060048054610bac906143fb565b6000818152600f6020908152604091829020805483518184028101840190945280845260609392830182828015610d9b57602002820191906000526020600020906000905b82829054906101000a90046001600160401b03166001600160401b031681526020019060080190602082600701049283019260010382029150808411611a7d575094979650505050505050565b6001600160a01b0382163303611af357604051630b7b99b960e21b815260040160405180910390fd5b3360008181526008602090815260408083206001600160a01b03871680855290835292819020805460ff191686151590811790915590519081529192917f17307eab39ab6107e8899845ad3d59bd9653f200f220920489ca2b5937696c31910160405180910390a35050565b611b67613c41565b6000838152600b60205260409020548210611b955760405163da22687f60e01b815260040160405180910390fd5b6000838152600b602052604081208054849081106110ab576110ab614563565b610dbb338383610e43565b60008181526009602090815260408083208151606081018352815481526001909101546001600160a01b038116938201849052600160a01b900460ff161515918101919091528291829190611c285760405163089ba7e160e41b815260040160405180910390fd5b6020810151815160409092015190969195509350915050565b80611c4b8161291d565b6000828152600b60205260408120611c6291613c58565b60405182907f8ac4a0d65950c3e40448afb2260e2e0ec36ea15644d9b39e37e85472e5f9445190600090a25050565b81611c9b81612682565b61154e85858585612eb9565b60606013805480602002602001604051908101604052809291908181526020018280548015610c2557602002820191906000526020600020906000905b82829054906101000a90046001600160401b03166001600160401b031681526020019060080190602082600701049283019260010382029150808411611ce45790505050505050905090565b6000611d3b84611602565b6001600160a01b031603611d625760405163089ba7e160e41b815260040160405180910390fd5b610cdd838383612eed565b6060610b978260006130ba565b6060611d8683836130ba565b9392505050565b81611d97816122ce565b610cdd8383613249565b6040805180820190915260008152606060208201526001600160401b0382166000908152600d602052604081208054611dd9906143fb565b80601f0160208091040260200160405190810160405280929190818152602001828054611e05906143fb565b8015611e525780601f10611e2757610100808354040283529160200191611e52565b820191906000526020600020905b815481529060010190602001808311611e3557829003601f168201915b505050505090508051600003611e7b576040516348e2e83760e01b815260040160405180910390fd5b604080518082019091526001600160401b03909316835260208301525090565b81611ea581612682565b61154e85858585613341565b336001600160a01b0383168103611edb5760405163353c229360e11b815260040160405180910390fd5b6001600160a01b03818116600081815260156020908152604080832094881680845294825291829020805460ff191687151590811790915591519182527f9c03d4f9a8db6d81765cbe2097e83f44253564fbf3c1adfb09a8067464ad3f4b910160405180910390a3505050565b6001600160a01b03918216600090815260086020908152604080832093909416825291909152205460ff1690565b81611f808161291d565b6000838152600b60205260409020548210611fae5760405163da22687f60e01b815260040160405180910390fd5b6000838152600b60205260408120805484908110611fce57611fce614563565b60009182526020808320604080518082018252600290940290910180548452600101546001600160a01b03168383018190528452600c82528084208351855290915290912054909150156120355760405163188a497360e01b815260040160405180910390fd5b6000848152600b6020526040902061204d9084612944565b6000848152600a60209081526040808320805460018082018355828652848620875160029093020191825586850180519290910180546001600160a01b0319166001600160a01b039384161790558986529154825182168652600c855283862087518752855294839020949094558451905191518781529093919091169187917f368600bdce8b2f9bdb235c221e348573e2f531747cb749ecf6cf43fa0e9d8fe8910161135d565b6001600160a01b03918216600090815260156020908152604080832093909416825291909152205460ff1690565b61212b612370565b60006121356119d3565b6001600160a01b03160361215c57604051634ece6ecf60e01b815260040160405180910390fd5b610d1a81612b39565b600081815260126020908152604091829020805483518184028101840190945280845260609392830182828015610d9b57600091825260209182902080546001600160401b03168452908202830192909160089101808411611a7d575094979650505050505050565b60006001600160e01b031982166301ffc9a760e01b14806121ff57506001600160e01b031982166380ac58cd60e01b145b8061221a57506001600160e01b03198216635b5e139f60e01b145b80610b9757506001600160e01b031982166391c0ad5d60e01b1492915050565b61224381612a98565b610d1a5760405163089ba7e160e41b815260040160405180910390fd5b600081815260076020526040902080546001600160a01b0319166001600160a01b038416908117909155819061229582611602565b6001600160a01b03167f8c5be1e5ebec7d5bd14f71427d1e84f3dd0314c0f7b2291e5b200ac8c7c3b92560405160405180910390a45050565b6122d833826134e0565b610d1a5760405163eabb6dd760e01b815260040160405180910390fd5b6000838152600f60205260409020548190811461232557604051633581be1d60e11b815260040160405180910390fd5b600084815260106020526040902061233e908484613c79565b5060405184907f50a12ecfcaf26b91454fd23edbcf04185b68d6e8c7edc4e35d14392889cdf79590600090a250505050565b336123796119d3565b6001600160a01b03161461185757604051631c62d58f60e11b815260040160405180910390fd5b6001600160401b0382166123c75760405163280d806360e01b815260040160405180910390fd5b6001600160401b0382166000908152600d6020526040812080546123ea906143fb565b9050111561240b57604051633348dd1d60e01b815260040160405180910390fd5b6001600160401b0382166000908152600d6020526040902061242d828261447b565b50601380546001810182556000918252600481047f66de8ffda797e3de9c05e8fc57b3bf0ec28a930d40b0d285d93c06501cf6a0900180546001600160401b0380871660086003909516949094026101000a84810291021990911617905560405190917f8a5ccfca4023cda4a0a59a1bb73783f6b3ba77465537d0c8f2bef5eb2511552a91a25050565b600080826124d85760405163376bec4d60e01b815260040160405180910390fd5b7f00000000000000000000000000000000000000000000000000000000000000006001548461250791906145f2565b111561252657604051635e91cdfb60e11b815260040160405180910390fd5b60006125527f000000000000000000000000000000000000000000000000000000000000000085614605565b90503481146125745760405163f2ffecad60e01b815260040160405180910390fd5b6000600154600161258591906145f2565b60018054870180825591925060009161259d916145f2565b9196919550909350505050565b6125bc836001600160a01b0316612ab8565b6125d95760405163b9d3114760e01b815260040160405180910390fd5b6040516301ffc9a760e01b81526001600160a01b038416906301ffc9a79061260c906391c0ad5d60e01b90600401614624565b602060405180830381865afa158015612629573d6000803e3d6000fd5b505050506040513d601f19601f8201168201806040525081019061264d9190614639565b61266a57604051631cc5525760e31b815260040160405180910390fd5b61267583838361353f565b610cdd8282600086613621565b61268c33826136b8565b610d1a576040516345f3c98360e11b815260040160405180910390fd5b60006126b482611bc0565b50509050836001600160a01b0316816001600160a01b0316146126ea5760405163e146af6f60e01b815260040160405180910390fd5b6001600160a01b038316612711576040516338f646ff60e21b815260040160405180910390fd5b6001600160a01b038416600090815260066020526040812080546001929061273a908490614550565b9091555061274d9050826000858161373b565b6001600160a01b03831660009081526006602052604081208054600192906127769084906145f2565b909155505060405182906001600160a01b03808616919087169060008051602061478183398151915290600090a4610cf7565b6127b4600083612260565b6127bf6000836137b4565b60006127ca83611790565b805190915060005b8181101561288b5760008382815181106127ee576127ee614563565b6020026020010151602001519050600084838151811061281057612810614563565b6020026020010151600001519050816001600160a01b03166324c6f83f826040518263ffffffff1660e01b815260040161284c91815260200190565b600060405180830381600087803b15801561286657600080fd5b505af115801561287a573d6000803e3d6000fd5b5050505082600101925050506127d2565b50600084815260096020908152604080832083815560010180546001600160a81b0319169055600b90915281206128c191613c58565b6000848152600a602052604081206128d891613c58565b60008481526007602052604080822080546001600160a01b0319169055518591906001600160a01b03861690600080516020614781833981519152908390a450505050565b61292733826137be565b610d1a576040516302728a9d60e41b815260040160405180910390fd5b8154829061295490600190614550565b8154811061296457612964614563565b906000526020600020906002020182828154811061298457612984614563565b600091825260209091208254600290920201908155600191820154910180546001600160a01b0319166001600160a01b0390921691909117905581548290806129cf576129cf614656565b60008281526020812060026000199093019283020190815560010180546001600160a01b031916905590555050565b6000826001600160a01b03168260405160006040518083038185875af1925050503d8060008114612a4b576040519150601f19603f3d011682016040523d82523d6000602084013e612a50565b606091505b5050905080610cdd5760405162461bcd60e51b815260206004820152601060248201526f2a3930b739b332b9103330b4b632b21760811b604482015260640160405180910390fd5b6000908152600960205260409020600101546001600160a01b0316151590565b6001600160a01b03163b151590565b610dbb82826040518060200160405280600081525061380a565b6000612aec82611602565b90506000612af983611bc0565b50506001600160a01b03811660009081526006602052604081208054929350600192909190612b29908490614550565b90915550610cdd905083836127a9565b600080546001600160a01b03838116610100818102610100600160a81b0319851617855560405193049190911692909183917f8be0079c531659141344cd1fd0a4f28419497f9722a3daafe3b4186f6b6457e091a35050565b6000828152601260205260409020548110612bc057604051630757d52160e01b815260040160405180910390fd5b6000828152601260205260408120805483908110612be057612be0614563565b600091825260208083206004830401548684526012909152604090922060039091166008026101000a9091046001600160401b03169150612c21908361383e565b6000838152600e602090815260408083206001600160401b038086168552925290912054168015612cd6576000848152600f60205260409020612c649082613924565b816001600160401b0316816001600160401b0316857fcf24819d4d174cc8c6cda1f2f6bdbdcb891ef4a46c61e0bab8dc06c070de5c9e60405160405180910390a46000848152600e602090815260408083206001600160401b0386168452909152902080546001600160401b03191690555b6000848152600f6020818152604080842080546001808201835591865283862060048204018054600390921660080261010090810a6001600160401b0381810219909416938b16908102939093179091558a8752601080865284882080549485018155885294872094830490940180549290951660020290930a61ffff0219169092559051909186917f51e9958189f528b912f96508d6a4b68583858166eda14d580dfbd24e9a79dfdb9190a350505050565b600081815260146020526040902080546001600160a01b0319166001600160a01b0384169081179091558190612dbe82611602565b6001600160a01b03167fa98c62723e75b26c5e5710fb12b5bf7712e6926f6dc932de622e715553f5149160405160405180910390a45050565b600081815260126020526040812054905b81811015612e82576000838152601260205260408120805483908110612e3057612e30614563565b60009182526020808320600483040154878452600e8252604080852060039094166008026101000a9091046001600160401b03168452919052902080546001600160401b031916905550600101612e08565b506000828152601260205260408120612e9a91613d26565b6040516000908390600080516020614761833981519152908390a35050565b612ec48484846126a9565b612ed084848484613a02565b610cf75760405163bcb5663760e01b815260040160405180910390fd5b60008381526011602090815260408083206001600160401b038616845290915290205460ff1615612f3157604051633348dd1d60e01b815260040160405180910390fd5b6001600160401b0382166000908152600d602052604090208054612f54906143fb565b9050600003612f76576040516348e2e83760e01b815260040160405180910390fd5b600083815260126020526040902054608011612fa55760405163dfaea09b60e01b815260040160405180910390fd5b60008381526011602090815260408083206001600160401b038681168086529184528285208054600160ff19909116811790915588865260128552928520805493840181558552929093206004820401805460039092166008026101000a80840219909216919093021790915581161561307f576000838152600e602090815260408083206001600160401b038681168086529190935281842080546001600160401b031916938616938417905590519192909186917fe76caab2912f68cd628bc085e006c86b8a478d13be698638b0c533030d120b4e91a45b6040516001600160401b0383169084907ffc4d0a03f3026d7ce3427493c9289ea9768a6edd425e854cea7600d244ecc2c390600090a3505050565b60606130c58361223a565b6000838152600f60205260409020548210156131b7576000838152600f602052604081208054849081106130fb576130fb614563565b60009182526020822060048204015460039091166008026101000a90046001600160401b0316915061312c82611da1565b9050600061314560408051602081019091526000815290565b6020808401516001600160401b0386166000908152601790925260409091205460ff16613181576040518060200160405280600081525061318a565b61318a88613b0b565b60405160200161319c9392919061466c565b60408051601f198184030181529190529350610b9792505050565b601880546131c4906143fb565b80601f01602080910402602001604051908101604052809291908181526020018280546131f0906143fb565b801561323d5780601f106132125761010080835404028352916020019161323d565b820191906000526020600020905b81548152906001019060200180831161322057829003601f168201915b50505050509050610b97565b600082815260126020526040902054811061327757604051630757d52160e01b815260040160405180910390fd5b600082815260126020526040812080548390811061329757613297614563565b600091825260208083206004830401548684526012909152604090922060039091166008026101000a9091046001600160401b031691506132d8908361383e565b60008381526011602090815260408083206001600160401b038516808552908352818420805460ff19169055868452600e835281842081855290925280832080546001600160401b031916905551909185916000805160206147618339815191529190a3505050565b600061334c83611bc0565b50509050846001600160a01b0316816001600160a01b0316146133825760405163e146af6f60e01b815260040160405180910390fd5b6001600160a01b0384166133a9576040516338f646ff60e21b815260040160405180910390fd5b6133bb846001600160a01b0316612ab8565b6133d85760405163b9d3114760e01b815260040160405180910390fd5b6040516301ffc9a760e01b81526001600160a01b038516906301ffc9a79061340b906391c0ad5d60e01b90600401614624565b602060405180830381865afa158015613428573d6000803e3d6000fd5b505050506040513d601f19601f8201168201806040525081019061344c9190614639565b61346957604051636464a3e360e11b815260040160405180910390fd5b6001600160a01b0385166000908152600660205260408120805460019290613492908490614550565b909155506134a59050838386600161373b565b6001600160a01b03841660009081526006602052604081208054600192906134ce9084906145f2565b9091555061154e905083838787613621565b6000806134ec83611602565b9050806001600160a01b0316846001600160a01b03161480613513575061351381856120f5565b806135375750836001600160a01b031661352c8461191e565b6001600160a01b0316145b949350505050565b6001600160a01b038316613566576040516325bd6bd360e01b815260040160405180910390fd5b61356f82612a98565b1561358d5760405163c5a8d37160e01b815260040160405180910390fd5b6001600160a01b03831660009081526006602052604081208054600192906135b69084906145f2565b9091555050604080516060810182528281526001600160a01b039485166020808301918252931515828401908152600095865260099094529190932092518355516001909201805491511515600160a01b026001600160a81b03199092169290931691909117179055565b6040516335440faf60e01b8152600481018490526024810185905281906001600160a01b038216906335440faf90604401600060405180830381600087803b15801561366c57600080fd5b505af1158015613680573d6000803e3d6000fd5b5050505084826001600160a01b0316846001600160a01b031660008051602061478183398151915260405160405180910390a461154e565b60008060006136c684611bc0565b5091509150806000146136e957506001600160a01b038481169116149050610b97565b816001600160a01b0316856001600160a01b0316148061370e575061370e8286611f48565b806137325750846001600160a01b031661372785610c2f565b6001600160a01b0316145b95945050505050565b604080516060810182528481526001600160a01b03808516602080840191825285151584860190815260008a815260099092529481209351845590516001909301805494511515600160a01b026001600160a81b03199095169390921692909217929092179091556137ad9085612260565b610cf76000855b610dbb8282612d89565b6000806137ca83611602565b9050806001600160a01b0316846001600160a01b031614806137f157506137f18185611f48565b806135375750836001600160a01b031661352c84610c2f565b6138148383613c0b565b6138216000848484613a02565b610cdd5760405163bcb5663760e01b815260040160405180910390fd5b8154811061384b57600080fd5b8154829061385b90600190614550565b8154811061386b5761386b614563565b90600052602060002090600491828204019190066008029054906101000a90046001600160401b03168282815481106138a6576138a6614563565b90600052602060002090600491828204019190066008026101000a8154816001600160401b0302191690836001600160401b03160217905550818054806138ef576138ef614656565b60008281526020902060046000199092019182040180546001600160401b03600860038516026101000a021916905590555050565b6000828054806020026020016040519081016040528092919081815260200182805480156139a357602002820191906000526020600020906000905b82829054906101000a90046001600160401b03166001600160401b0316815260200190600801906020826007010492830192600103820291508084116139605790505b505083519394506000925050505b8181101561154e57836001600160401b03168382815181106139d5576139d5614563565b60200260200101516001600160401b0316036139fa576139f5858261383e565b61154e565b6001016139b1565b6000613a16846001600160a01b0316612ab8565b15613b0057604051630a85bd0160e11b81526001600160a01b0385169063150b7a0290613a4d9033908990889088906004016146af565b6020604051808303816000875af1925050508015613a88575060408051601f3d908101601f19168201909252613a85918101906146ec565b60015b613ae6573d808015613ab6576040519150601f19603f3d011682016040523d82523d6000602084013e613abb565b606091505b508051600003613ade5760405163bcb5663760e01b815260040160405180910390fd5b805181602001fd5b6001600160e01b031916630a85bd0160e11b149050613537565b506001949350505050565b606081600003613b325750506040805180820190915260018152600360fc1b602082015290565b8160005b8115613b5c5780613b4681614709565b9150613b559050600a83614738565b9150613b36565b6000816001600160401b03811115613b7657613b76613ef5565b6040519080825280601f01601f191660200182016040528015613ba0576020820181803683370190505b5090505b841561353757613bb5600183614550565b9150613bc2600a8661474c565b613bcd9060306145f2565b60f81b818381518110613be257613be2614563565b60200101906001600160f81b031916908160001a905350613c04600a86614738565b9450613ba4565b613c178282600061353f565b60405181906001600160a01b03841690600090600080516020614781833981519152908290a45050565b604080518082019091526000808252602082015290565b5080546000825560020290600052602060002090810190610d1a9190613d4b565b82805482825590600052602060002090600f01601090048101928215613d165791602002820160005b83821115613ce657833561ffff1683826101000a81548161ffff021916908361ffff1602179055509260200192600201602081600101049283019260010302613ca2565b8015613d145782816101000a81549061ffff0219169055600201602081600101049283019260010302613ce6565b505b50613d22929150613d72565b5090565b508054600082556003016004900490600052602060002090810190610d1a9190613d72565b5b80821115613d2257600081556001810180546001600160a01b0319169055600201613d4c565b5b80821115613d225760008155600101613d73565b6001600160e01b031981168114610d1a57600080fd5b600060208284031215613daf57600080fd5b8135611d8681613d87565b60005b83811015613dd5578181015183820152602001613dbd565b50506000910152565b60008151808452613df6816020860160208601613dba565b601f01601f19169290920160200192915050565b602081526000611d866020830184613dde565b600060208284031215613e2f57600080fd5b5035919050565b6001600160a01b0381168114610d1a57600080fd5b60008060408385031215613e5e57600080fd5b8235613e6981613e36565b946020939093013593505050565b600080600060408486031215613e8c57600080fd5b8335925060208401356001600160401b0380821115613eaa57600080fd5b818601915086601f830112613ebe57600080fd5b813581811115613ecd57600080fd5b8760208260051b8501011115613ee257600080fd5b6020830194508093505050509250925092565b634e487b7160e01b600052604160045260246000fd5b60006001600160401b0380841115613f2557613f25613ef5565b604051601f8501601f19908116603f01168101908282118183101715613f4d57613f4d613ef5565b81604052809350858152868686011115613f6657600080fd5b858560208301376000602087830101525050509392505050565b600060208284031215613f9257600080fd5b81356001600160401b03811115613fa857600080fd5b8201601f81018413613fb957600080fd5b61353784823560208401613f0b565b6020808252825182820181905260009190848201906040850190845b8181101561400457835161ffff1683529284019291840191600101613fe4565b50909695505050505050565b60008060006060848603121561402557600080fd5b833561403081613e36565b95602085013595506040909401359392505050565b60008060006060848603121561405a57600080fd5b833561406581613e36565b9250602084013561407581613e36565b929592945050506040919091013590565b60008060006060848603121561409b57600080fd5b833592506020840135915060408401356140b481613e36565b809150509250925092565b600080604083850312156140d257600080fd5b50508035926020909101359150565b805182526020908101516001600160a01b0316910152565b60408101610b9782846140e1565b60008060006060848603121561411c57600080fd5b83359250602084013561407581613e36565b80356001600160401b038116811461414557600080fd5b919050565b60006020828403121561415c57600080fd5b611d868261412e565b602080825282518282018190526000919060409081850190868401855b828110156141a5576141958483516140e1565b9284019290850190600101614182565b5091979650505050505050565b6000602082840312156141c457600080fd5b8135611d8681613e36565b8015158114610d1a57600080fd5b600080604083850312156141f057600080fd5b6141f98361412e565b91506020830135614209816141cf565b809150509250929050565b6020808252825182820181905260009190848201906040850190845b818110156140045783516001600160401b031683529284019291840191600101614230565b6000806040838503121561426857600080fd5b82356141f981613e36565b6000806000806080858703121561428957600080fd5b843561429481613e36565b935060208501356142a481613e36565b92506040850135915060608501356001600160401b038111156142c657600080fd5b8501601f810187136142d757600080fd5b6142e687823560208401613f0b565b91505092959194509250565b60008060006060848603121561430757600080fd5b833592506143176020850161412e565b91506143256040850161412e565b90509250925092565b602080825282516001600160401b0316828201528201516040808301526000906135376060840182613dde565b6000806000806080858703121561437157600080fd5b843561437c81613e36565b9350602085013561438c81613e36565b93969395505050506040820135916060013590565b600080604083850312156143b457600080fd5b82356143bf81613e36565b9150602083013561420981613e36565b600080604083850312156143e257600080fd5b823591506143f26020840161412e565b90509250929050565b600181811c9082168061440f57607f821691505b60208210810361442f57634e487b7160e01b600052602260045260246000fd5b50919050565b601f821115610cdd57600081815260208120601f850160051c8101602086101561445c5750805b601f850160051c820191505b81811015610e2f57828155600101614468565b81516001600160401b0381111561449457614494613ef5565b6144a8816144a284546143fb565b84614435565b602080601f8311600181146144dd57600084156144c55750858301515b600019600386901b1c1916600185901b178555610e2f565b600085815260208120601f198616915b8281101561450c578886015182559484019460019091019084016144ed565b508582101561452a5787850151600019600388901b60f8161c191681555b5050505050600190811b01905550565b634e487b7160e01b600052601160045260246000fd5b81810381811115610b9757610b9761453a565b634e487b7160e01b600052603260045260246000fd5b6001600160a01b039384168152919092166020820152604081019190915260600190565b6000806000606084860312156145b257600080fd5b83516145bd81613e36565b6020850151604086015191945092506140b4816141cf565b6000602082840312156145e757600080fd5b8151611d8681613e36565b80820180821115610b9757610b9761453a565b600081600019048311821515161561461f5761461f61453a565b500290565b6001600160e01b031991909116815260200190565b60006020828403121561464b57600080fd5b8151611d86816141cf565b634e487b7160e01b600052603160045260246000fd5b6000845161467e818460208901613dba565b845190830190614692818360208901613dba565b84519101906146a5818360208801613dba565b0195945050505050565b6001600160a01b03858116825284166020820152604081018390526080606082018190526000906146e290830184613dde565b9695505050505050565b6000602082840312156146fe57600080fd5b8151611d8681613d87565b60006001820161471b5761471b61453a565b5060010190565b634e487b7160e01b600052601260045260246000fd5b60008261474757614747614722565b500490565b60008261475b5761475b614722565b50069056fe8d0cdca57de6b2fb4babd8b68c83db0b0981610d338eb68eea1f4b1e1d78dc1cddf252ad1be2c89b69c2b068fc378daa952ba7f163c4a11628f55a4df523b3efa26469706673582212202b4a96515b03479f2801496127fa3183f59d09df928ca1f957e59f8f6043610f64736f6c63430008100033",
  "linkReferences": {},
  "deployedLinkReferences": {}
}