{
  "_format": "hh-sol-artifact-1",
  "contractName": "RMRKMarketplace",
  "sourceName": "contracts/marketplace/RMRKMarketplace.sol",
  "abi": [
    {
      "inputs": [
        {
          "internalType": "address",
          "name": "_nativeTokenWrapper",
          "type": "address"
        },
        {
          "internalType": "address",
          "name": "_defaultAdmin",
          "type": "address"
        },
        {
          "internalType": "address",
          "name": "_trustedForwarder",
          "type": "address"
        },
        {
          "internalType": "address",
          "name": "_platformFeeRecipient",
          "type": "address"
        },
        {
          "internalType": "uint256",
          "name": "_platformFeeBps",
          "type": "uint256"
        }
      ],
      "stateMutability": "nonpayable",
      "type": "constructor"
    },
    {
      "anonymous": false,
      "inputs": [
        {
          "indexed": false,
          "internalType": "uint256",
          "name": "timeBuffer",
          "type": "uint256"
        },
        {
          "indexed": false,
          "internalType": "uint256",
          "name": "bidBufferBps",
          "type": "uint256"
        }
      ],
      "name": "AuctionBuffersUpdated",
      "type": "event"
    },
    {
      "anonymous": false,
      "inputs": [
        {
          "indexed": true,
          "internalType": "uint256",
          "name": "listingId",
          "type": "uint256"
        },
        {
          "indexed": true,
          "internalType": "address",
          "name": "closer",
          "type": "address"
        },
        {
          "indexed": true,
          "internalType": "bool",
          "name": "cancelled",
          "type": "bool"
        },
        {
          "indexed": false,
          "internalType": "address",
          "name": "auctionCreator",
          "type": "address"
        },
        {
          "indexed": false,
          "internalType": "address",
          "name": "winningBidder",
          "type": "address"
        }
      ],
      "name": "AuctionClosed",
      "type": "event"
    },
    {
      "anonymous": false,
      "inputs": [
        {
          "indexed": true,
          "internalType": "uint256",
          "name": "listingId",
          "type": "uint256"
        },
        {
          "indexed": true,
          "internalType": "address",
          "name": "assetContract",
          "type": "address"
        },
        {
          "indexed": true,
          "internalType": "address",
          "name": "lister",
          "type": "address"
        },
        {
          "components": [
            {
              "internalType": "uint256",
              "name": "listingId",
              "type": "uint256"
            },
            {
              "internalType": "address",
              "name": "tokenOwner",
              "type": "address"
            },
            {
              "internalType": "address",
              "name": "assetContract",
              "type": "address"
            },
            {
              "internalType": "uint256",
              "name": "tokenId",
              "type": "uint256"
            },
            {
              "internalType": "uint256",
              "name": "startTime",
              "type": "uint256"
            },
            {
              "internalType": "uint256",
              "name": "endTime",
              "type": "uint256"
            },
            {
              "internalType": "uint256",
              "name": "quantity",
              "type": "uint256"
            },
            {
              "internalType": "address",
              "name": "currency",
              "type": "address"
            },
            {
              "internalType": "uint256",
              "name": "reservePricePerToken",
              "type": "uint256"
            },
            {
              "internalType": "uint256",
              "name": "buyoutPricePerToken",
              "type": "uint256"
            },
            {
              "internalType": "enum IRMRKMarketplace.TokenType",
              "name": "tokenType",
              "type": "uint8"
            },
            {
              "internalType": "enum IRMRKMarketplace.ListingType",
              "name": "listingType",
              "type": "uint8"
            }
          ],
          "indexed": false,
          "internalType": "struct IRMRKMarketplace.Listing",
          "name": "listing",
          "type": "tuple"
        }
      ],
      "name": "ListingAdded",
      "type": "event"
    },
    {
      "anonymous": false,
      "inputs": [
        {
          "indexed": true,
          "internalType": "uint256",
          "name": "listingId",
          "type": "uint256"
        },
        {
          "indexed": true,
          "internalType": "address",
          "name": "listingCreator",
          "type": "address"
        }
      ],
      "name": "ListingRemoved",
      "type": "event"
    },
    {
      "anonymous": false,
      "inputs": [
        {
          "indexed": true,
          "internalType": "uint256",
          "name": "listingId",
          "type": "uint256"
        },
        {
          "indexed": true,
          "internalType": "address",
          "name": "listingCreator",
          "type": "address"
        }
      ],
      "name": "ListingUpdated",
      "type": "event"
    },
    {
      "anonymous": false,
      "inputs": [
        {
          "indexed": true,
          "internalType": "uint256",
          "name": "listingId",
          "type": "uint256"
        },
        {
          "indexed": true,
          "internalType": "address",
          "name": "offerer",
          "type": "address"
        },
        {
          "indexed": true,
          "internalType": "enum IRMRKMarketplace.ListingType",
          "name": "listingType",
          "type": "uint8"
        },
        {
          "indexed": false,
          "internalType": "uint256",
          "name": "quantityWanted",
          "type": "uint256"
        },
        {
          "indexed": false,
          "internalType": "uint256",
          "name": "totalOfferAmount",
          "type": "uint256"
        },
        {
          "indexed": false,
          "internalType": "address",
          "name": "currency",
          "type": "address"
        }
      ],
      "name": "NewOffer",
      "type": "event"
    },
    {
      "anonymous": false,
      "inputs": [
        {
          "indexed": true,
          "internalType": "uint256",
          "name": "listingId",
          "type": "uint256"
        },
        {
          "indexed": true,
          "internalType": "address",
          "name": "assetContract",
          "type": "address"
        },
        {
          "indexed": true,
          "internalType": "address",
          "name": "lister",
          "type": "address"
        },
        {
          "indexed": false,
          "internalType": "address",
          "name": "buyer",
          "type": "address"
        },
        {
          "indexed": false,
          "internalType": "uint256",
          "name": "quantityBought",
          "type": "uint256"
        },
        {
          "indexed": false,
          "internalType": "uint256",
          "name": "totalPricePaid",
          "type": "uint256"
        }
      ],
      "name": "NewSale",
      "type": "event"
    },
    {
      "anonymous": false,
      "inputs": [
        {
          "indexed": true,
          "internalType": "address",
          "name": "platformFeeRecipient",
          "type": "address"
        },
        {
          "indexed": false,
          "internalType": "uint256",
          "name": "platformFeeBps",
          "type": "uint256"
        }
      ],
      "name": "PlatformFeeInfoUpdated",
      "type": "event"
    },
    {
      "anonymous": false,
      "inputs": [
        {
          "indexed": true,
          "internalType": "bytes32",
          "name": "role",
          "type": "bytes32"
        },
        {
          "indexed": true,
          "internalType": "bytes32",
          "name": "previousAdminRole",
          "type": "bytes32"
        },
        {
          "indexed": true,
          "internalType": "bytes32",
          "name": "newAdminRole",
          "type": "bytes32"
        }
      ],
      "name": "RoleAdminChanged",
      "type": "event"
    },
    {
      "anonymous": false,
      "inputs": [
        {
          "indexed": true,
          "internalType": "bytes32",
          "name": "role",
          "type": "bytes32"
        },
        {
          "indexed": true,
          "internalType": "address",
          "name": "account",
          "type": "address"
        },
        {
          "indexed": true,
          "internalType": "address",
          "name": "sender",
          "type": "address"
        }
      ],
      "name": "RoleGranted",
      "type": "event"
    },
    {
      "anonymous": false,
      "inputs": [
        {
          "indexed": true,
          "internalType": "bytes32",
          "name": "role",
          "type": "bytes32"
        },
        {
          "indexed": true,
          "internalType": "address",
          "name": "account",
          "type": "address"
        },
        {
          "indexed": true,
          "internalType": "address",
          "name": "sender",
          "type": "address"
        }
      ],
      "name": "RoleRevoked",
      "type": "event"
    },
    {
      "inputs": [],
      "name": "DEFAULT_ADMIN_ROLE",
      "outputs": [
        {
          "internalType": "bytes32",
          "name": "",
          "type": "bytes32"
        }
      ],
      "stateMutability": "view",
      "type": "function"
    },
    {
      "inputs": [],
      "name": "MAX_BPS",
      "outputs": [
        {
          "internalType": "uint64",
          "name": "",
          "type": "uint64"
        }
      ],
      "stateMutability": "view",
      "type": "function"
    },
    {
      "inputs": [
        {
          "internalType": "uint256",
          "name": "_listingId",
          "type": "uint256"
        },
        {
          "internalType": "address",
          "name": "_offerer",
          "type": "address"
        },
        {
          "internalType": "address",
          "name": "_currency",
          "type": "address"
        },
        {
          "internalType": "uint256",
          "name": "_pricePerToken",
          "type": "uint256"
        }
      ],
      "name": "acceptOffer",
      "outputs": [],
      "stateMutability": "nonpayable",
      "type": "function"
    },
    {
      "inputs": [],
      "name": "bidBufferBps",
      "outputs": [
        {
          "internalType": "uint64",
          "name": "",
          "type": "uint64"
        }
      ],
      "stateMutability": "view",
      "type": "function"
    },
    {
      "inputs": [
        {
          "internalType": "uint256",
          "name": "_listingId",
          "type": "uint256"
        },
        {
          "internalType": "address",
          "name": "_buyFor",
          "type": "address"
        },
        {
          "internalType": "uint256",
          "name": "_quantityToBuy",
          "type": "uint256"
        },
        {
          "internalType": "address",
          "name": "_currency",
          "type": "address"
        },
        {
          "internalType": "uint256",
          "name": "_totalPrice",
          "type": "uint256"
        }
      ],
      "name": "buy",
      "outputs": [],
      "stateMutability": "payable",
      "type": "function"
    },
    {
      "inputs": [
        {
          "internalType": "uint256",
          "name": "_listingId",
          "type": "uint256"
        }
      ],
      "name": "cancelDirectListing",
      "outputs": [],
      "stateMutability": "nonpayable",
      "type": "function"
    },
    {
      "inputs": [
        {
          "internalType": "uint256",
          "name": "_listingId",
          "type": "uint256"
        },
        {
          "internalType": "address",
          "name": "_closeFor",
          "type": "address"
        }
      ],
      "name": "closeAuction",
      "outputs": [],
      "stateMutability": "nonpayable",
      "type": "function"
    },
    {
      "inputs": [
        {
          "components": [
            {
              "internalType": "address",
              "name": "assetContract",
              "type": "address"
            },
            {
              "internalType": "uint256",
              "name": "tokenId",
              "type": "uint256"
            },
            {
              "internalType": "uint256",
              "name": "startTime",
              "type": "uint256"
            },
            {
              "internalType": "uint256",
              "name": "secondsUntilEndTime",
              "type": "uint256"
            },
            {
              "internalType": "uint256",
              "name": "quantityToList",
              "type": "uint256"
            },
            {
              "internalType": "address",
              "name": "currencyToAccept",
              "type": "address"
            },
            {
              "internalType": "uint256",
              "name": "reservePricePerToken",
              "type": "uint256"
            },
            {
              "internalType": "uint256",
              "name": "buyoutPricePerToken",
              "type": "uint256"
            },
            {
              "internalType": "enum IRMRKMarketplace.ListingType",
              "name": "listingType",
              "type": "uint8"
            }
          ],
          "internalType": "struct IRMRKMarketplace.ListingParameters",
          "name": "_params",
          "type": "tuple"
        }
      ],
      "name": "createListing",
      "outputs": [],
      "stateMutability": "nonpayable",
      "type": "function"
    },
    {
      "inputs": [],
      "name": "getPlatformFeeInfo",
      "outputs": [
        {
          "internalType": "address",
          "name": "",
          "type": "address"
        },
        {
          "internalType": "uint16",
          "name": "",
          "type": "uint16"
        }
      ],
      "stateMutability": "view",
      "type": "function"
    },
    {
      "inputs": [
        {
          "internalType": "bytes32",
          "name": "role",
          "type": "bytes32"
        }
      ],
      "name": "getRoleAdmin",
      "outputs": [
        {
          "internalType": "bytes32",
          "name": "",
          "type": "bytes32"
        }
      ],
      "stateMutability": "view",
      "type": "function"
    },
    {
      "inputs": [
        {
          "internalType": "bytes32",
          "name": "role",
          "type": "bytes32"
        },
        {
          "internalType": "uint256",
          "name": "index",
          "type": "uint256"
        }
      ],
      "name": "getRoleMember",
      "outputs": [
        {
          "internalType": "address",
          "name": "",
          "type": "address"
        }
      ],
      "stateMutability": "view",
      "type": "function"
    },
    {
      "inputs": [
        {
          "internalType": "bytes32",
          "name": "role",
          "type": "bytes32"
        }
      ],
      "name": "getRoleMemberCount",
      "outputs": [
        {
          "internalType": "uint256",
          "name": "",
          "type": "uint256"
        }
      ],
      "stateMutability": "view",
      "type": "function"
    },
    {
      "inputs": [
        {
          "internalType": "bytes32",
          "name": "role",
          "type": "bytes32"
        },
        {
          "internalType": "address",
          "name": "account",
          "type": "address"
        }
      ],
      "name": "grantRole",
      "outputs": [],
      "stateMutability": "nonpayable",
      "type": "function"
    },
    {
      "inputs": [
        {
          "internalType": "bytes32",
          "name": "role",
          "type": "bytes32"
        },
        {
          "internalType": "address",
          "name": "account",
          "type": "address"
        }
      ],
      "name": "hasRole",
      "outputs": [
        {
          "internalType": "bool",
          "name": "",
          "type": "bool"
        }
      ],
      "stateMutability": "view",
      "type": "function"
    },
    {
      "inputs": [
        {
          "internalType": "address",
          "name": "forwarder",
          "type": "address"
        }
      ],
      "name": "isTrustedForwarder",
      "outputs": [
        {
          "internalType": "bool",
          "name": "",
          "type": "bool"
        }
      ],
      "stateMutability": "view",
      "type": "function"
    },
    {
      "inputs": [
        {
          "internalType": "uint256",
          "name": "",
          "type": "uint256"
        }
      ],
      "name": "listings",
      "outputs": [
        {
          "internalType": "uint256",
          "name": "listingId",
          "type": "uint256"
        },
        {
          "internalType": "address",
          "name": "tokenOwner",
          "type": "address"
        },
        {
          "internalType": "address",
          "name": "assetContract",
          "type": "address"
        },
        {
          "internalType": "uint256",
          "name": "tokenId",
          "type": "uint256"
        },
        {
          "internalType": "uint256",
          "name": "startTime",
          "type": "uint256"
        },
        {
          "internalType": "uint256",
          "name": "endTime",
          "type": "uint256"
        },
        {
          "internalType": "uint256",
          "name": "quantity",
          "type": "uint256"
        },
        {
          "internalType": "address",
          "name": "currency",
          "type": "address"
        },
        {
          "internalType": "uint256",
          "name": "reservePricePerToken",
          "type": "uint256"
        },
        {
          "internalType": "uint256",
          "name": "buyoutPricePerToken",
          "type": "uint256"
        },
        {
          "internalType": "enum IRMRKMarketplace.TokenType",
          "name": "tokenType",
          "type": "uint8"
        },
        {
          "internalType": "enum IRMRKMarketplace.ListingType",
          "name": "listingType",
          "type": "uint8"
        }
      ],
      "stateMutability": "view",
      "type": "function"
    },
    {
      "inputs": [
        {
          "internalType": "bytes[]",
          "name": "data",
          "type": "bytes[]"
        }
      ],
      "name": "multicall",
      "outputs": [
        {
          "internalType": "bytes[]",
          "name": "results",
          "type": "bytes[]"
        }
      ],
      "stateMutability": "nonpayable",
      "type": "function"
    },
    {
      "inputs": [
        {
          "internalType": "uint256",
          "name": "_listingId",
          "type": "uint256"
        },
        {
          "internalType": "uint256",
          "name": "_quantityWanted",
          "type": "uint256"
        },
        {
          "internalType": "address",
          "name": "_currency",
          "type": "address"
        },
        {
          "internalType": "uint256",
          "name": "_pricePerToken",
          "type": "uint256"
        },
        {
          "internalType": "uint256",
          "name": "_expirationTimestamp",
          "type": "uint256"
        }
      ],
      "name": "offer",
      "outputs": [],
      "stateMutability": "payable",
      "type": "function"
    },
    {
      "inputs": [
        {
          "internalType": "uint256",
          "name": "",
          "type": "uint256"
        },
        {
          "internalType": "address",
          "name": "",
          "type": "address"
        }
      ],
      "name": "offers",
      "outputs": [
        {
          "internalType": "uint256",
          "name": "listingId",
          "type": "uint256"
        },
        {
          "internalType": "address",
          "name": "offerer",
          "type": "address"
        },
        {
          "internalType": "uint256",
          "name": "quantityWanted",
          "type": "uint256"
        },
        {
          "internalType": "address",
          "name": "currency",
          "type": "address"
        },
        {
          "internalType": "uint256",
          "name": "pricePerToken",
          "type": "uint256"
        },
        {
          "internalType": "uint256",
          "name": "expirationTimestamp",
          "type": "uint256"
        }
      ],
      "stateMutability": "view",
      "type": "function"
    },
    {
      "inputs": [
        {
          "internalType": "address",
          "name": "",
          "type": "address"
        },
        {
          "internalType": "address",
          "name": "",
          "type": "address"
        },
        {
          "internalType": "uint256[]",
          "name": "",
          "type": "uint256[]"
        },
        {
          "internalType": "uint256[]",
          "name": "",
          "type": "uint256[]"
        },
        {
          "internalType": "bytes",
          "name": "",
          "type": "bytes"
        }
      ],
      "name": "onERC1155BatchReceived",
      "outputs": [
        {
          "internalType": "bytes4",
          "name": "",
          "type": "bytes4"
        }
      ],
      "stateMutability": "nonpayable",
      "type": "function"
    },
    {
      "inputs": [
        {
          "internalType": "address",
          "name": "",
          "type": "address"
        },
        {
          "internalType": "address",
          "name": "",
          "type": "address"
        },
        {
          "internalType": "uint256",
          "name": "",
          "type": "uint256"
        },
        {
          "internalType": "uint256",
          "name": "",
          "type": "uint256"
        },
        {
          "internalType": "bytes",
          "name": "",
          "type": "bytes"
        }
      ],
      "name": "onERC1155Received",
      "outputs": [
        {
          "internalType": "bytes4",
          "name": "",
          "type": "bytes4"
        }
      ],
      "stateMutability": "nonpayable",
      "type": "function"
    },
    {
      "inputs": [
        {
          "internalType": "address",
          "name": "",
          "type": "address"
        },
        {
          "internalType": "address",
          "name": "",
          "type": "address"
        },
        {
          "internalType": "uint256",
          "name": "",
          "type": "uint256"
        },
        {
          "internalType": "bytes",
          "name": "",
          "type": "bytes"
        }
      ],
      "name": "onERC721Received",
      "outputs": [
        {
          "internalType": "bytes4",
          "name": "",
          "type": "bytes4"
        }
      ],
      "stateMutability": "pure",
      "type": "function"
    },
    {
      "inputs": [
        {
          "internalType": "bytes32",
          "name": "role",
          "type": "bytes32"
        },
        {
          "internalType": "address",
          "name": "account",
          "type": "address"
        }
      ],
      "name": "renounceRole",
      "outputs": [],
      "stateMutability": "nonpayable",
      "type": "function"
    },
    {
      "inputs": [
        {
          "internalType": "bytes32",
          "name": "role",
          "type": "bytes32"
        },
        {
          "internalType": "address",
          "name": "account",
          "type": "address"
        }
      ],
      "name": "revokeRole",
      "outputs": [],
      "stateMutability": "nonpayable",
      "type": "function"
    },
    {
      "inputs": [
        {
          "internalType": "uint256",
          "name": "_timeBuffer",
          "type": "uint256"
        },
        {
          "internalType": "uint256",
          "name": "_bidBufferBps",
          "type": "uint256"
        }
      ],
      "name": "setAuctionBuffers",
      "outputs": [],
      "stateMutability": "nonpayable",
      "type": "function"
    },
    {
      "inputs": [
        {
          "internalType": "address",
          "name": "_platformFeeRecipient",
          "type": "address"
        },
        {
          "internalType": "uint256",
          "name": "_platformFeeBps",
          "type": "uint256"
        }
      ],
      "name": "setPlatformFeeInfo",
      "outputs": [],
      "stateMutability": "nonpayable",
      "type": "function"
    },
    {
      "inputs": [
        {
          "internalType": "bytes4",
          "name": "interfaceId",
          "type": "bytes4"
        }
      ],
      "name": "supportsInterface",
      "outputs": [
        {
          "internalType": "bool",
          "name": "",
          "type": "bool"
        }
      ],
      "stateMutability": "view",
      "type": "function"
    },
    {
      "inputs": [],
      "name": "timeBuffer",
      "outputs": [
        {
          "internalType": "uint64",
          "name": "",
          "type": "uint64"
        }
      ],
      "stateMutability": "view",
      "type": "function"
    },
    {
      "inputs": [],
      "name": "totalListings",
      "outputs": [
        {
          "internalType": "uint256",
          "name": "",
          "type": "uint256"
        }
      ],
      "stateMutability": "view",
      "type": "function"
    },
    {
      "inputs": [
        {
          "internalType": "uint256",
          "name": "_listingId",
          "type": "uint256"
        },
        {
          "internalType": "uint256",
          "name": "_quantityToList",
          "type": "uint256"
        },
        {
          "internalType": "uint256",
          "name": "_reservePricePerToken",
          "type": "uint256"
        },
        {
          "internalType": "uint256",
          "name": "_buyoutPricePerToken",
          "type": "uint256"
        },
        {
          "internalType": "address",
          "name": "_currencyToAccept",
          "type": "address"
        },
        {
          "internalType": "uint256",
          "name": "_startTime",
          "type": "uint256"
        },
        {
          "internalType": "uint256",
          "name": "_secondsUntilEndTime",
          "type": "uint256"
        }
      ],
      "name": "updateListing",
      "outputs": [],
      "stateMutability": "nonpayable",
      "type": "function"
    },
    {
      "inputs": [
        {
          "internalType": "uint256",
          "name": "",
          "type": "uint256"
        }
      ],
      "name": "winningBid",
      "outputs": [
        {
          "internalType": "uint256",
          "name": "listingId",
          "type": "uint256"
        },
        {
          "internalType": "address",
          "name": "offerer",
          "type": "address"
        },
        {
          "internalType": "uint256",
          "name": "quantityWanted",
          "type": "uint256"
        },
        {
          "internalType": "address",
          "name": "currency",
          "type": "address"
        },
        {
          "internalType": "uint256",
          "name": "pricePerToken",
          "type": "uint256"
        },
        {
          "internalType": "uint256",
          "name": "expirationTimestamp",
          "type": "uint256"
        }
      ],
      "stateMutability": "view",
      "type": "function"
    },
    {
      "stateMutability": "payable",
      "type": "receive"
    }
  ],
  "bytecode": "0x60c06040523480156200001157600080fd5b506040516200551838038062005518833981016040819052620000349162000295565b600160009081556001600160a01b0384811660805286811660a052600580546001600160801b0319166901f40000000000000384179055600480546001600160e01b031916600160a01b6001600160401b038616026001600160a01b03191617918516919091179055620000a99085620000b4565b5050505050620002fc565b620000c08282620000c4565b5050565b620000db82826200010760201b620023001760201c565b60008281526002602090815260409091206200010291839062002388620001ae821b17901c565b505050565b60008281526001602090815260408083206001600160a01b038516845290915290205460ff16620000c05760008281526001602081815260408084206001600160a01b0386168552909152909120805460ff191690911790556200016a620001ce565b6001600160a01b0316816001600160a01b0316837f2f8788117e7eff1d82e926ec794901d17c78024a50270940304540a733656f0d60405160405180910390a45050565b6000620001c5836001600160a01b038416620001ea565b90505b92915050565b6000620001e56200023c60201b6200239d1760201c565b905090565b60008181526001830160205260408120546200023357508154600181810184556000848152602080822090930184905584548482528286019093526040902091909155620001c8565b506000620001c8565b6080516000906001600160a01b031633036200025f575060131936013560601c90565b620001e56200027460201b620023e61760201c565b3390565b80516001600160a01b03811681146200029057600080fd5b919050565b600080600080600060a08688031215620002ae57600080fd5b620002b98662000278565b9450620002c96020870162000278565b9350620002d96040870162000278565b9250620002e96060870162000278565b9150608086015190509295509295909350565b60805160a0516151e1620003376000396000818161103901528181612ab70152613cba01526000818161037f01526123a101526151e16000f3fe6080604052600436106101dc5760003560e01c8063a217fddf11610102578063d4ac9b8c11610095578063ebdfbce511610064578063ebdfbce514610705578063ec91f2a41461076c578063f23a6e611461078c578063fd967f47146107b857600080fd5b8063d4ac9b8c14610588578063d547741f1461061d578063de74e57b1461063d578063ea0e0241146106e557600080fd5b8063c4b5b15f116100d1578063c4b5b15f146104fb578063c78b616c1461051b578063ca15c87314610531578063d45573f61461055157600080fd5b8063a217fddf1461046d578063ac9650d814610482578063b13c0e63146104af578063bc197c81146104cf57600080fd5b80634e03f28d1161017a5780637506c84a116101495780637506c84a146103e25780637687ab02146104025780639010d07c1461041557806391d148541461044d57600080fd5b80634e03f28d14610323578063572b6c05146103625780635fef45e7146103af5780636bab66ae146103c257600080fd5b8063248a9ca3116101b6578063248a9ca314610284578063296f4e16146102c35780632f2ff15d146102e357806336568abe1461030357600080fd5b806301ffc9a7146101e8578063150b7a021461021d5780631e7ac4881461026257600080fd5b366101e357005b600080fd5b3480156101f457600080fd5b5061020861020336600461462c565b6107ce565b60405190151581526020015b60405180910390f35b34801561022957600080fd5b50610249610238366004614676565b630a85bd0160e11b95945050505050565b6040516001600160e01b03199091168152602001610214565b34801561026e57600080fd5b5061028261027d366004614714565b610814565b005b34801561029057600080fd5b506102b561029f366004614740565b6000908152600160208190526040909120015490565b604051908152602001610214565b3480156102cf57600080fd5b506102826102de3660046147d7565b6108d7565b3480156102ef57600080fd5b506102826102fe366004614863565b610c47565b34801561030f57600080fd5b5061028261031e366004614863565b610c72565b34801561032f57600080fd5b5060055461034a90600160401b90046001600160401b031681565b6040516001600160401b039091168152602001610214565b34801561036e57600080fd5b5061020861037d366004614893565b7f00000000000000000000000000000000000000000000000000000000000000006001600160a01b0390811691161490565b6102826103bd3660046148b0565b610d00565b3480156103ce57600080fd5b506102826103dd366004614863565b611095565b3480156103ee57600080fd5b506102826103fd366004614740565b6113a3565b6102826104103660046148f9565b6115e7565b34801561042157600080fd5b5061043561043036600461494b565b6117d9565b6040516001600160a01b039091168152602001610214565b34801561045957600080fd5b50610208610468366004614863565b6117f8565b34801561047957600080fd5b506102b5600081565b34801561048e57600080fd5b506104a261049d36600461496d565b611823565b6040516102149190614a31565b3480156104bb57600080fd5b506102826104ca366004614a93565b611917565b3480156104db57600080fd5b506102496104ea366004614bbe565b63bc197c8160e01b95945050505050565b34801561050757600080fd5b50610282610516366004614c6b565b611d10565b34801561052757600080fd5b506102b560035481565b34801561053d57600080fd5b506102b561054c366004614740565b6121ff565b34801561055d57600080fd5b50600454604080516001600160a01b0383168152600160a01b90920461ffff16602083015201610214565b34801561059457600080fd5b506105e46105a3366004614740565b60086020526000908152604090208054600182015460028301546003840154600485015460059095015493946001600160a01b039384169492939091169186565b604080519687526001600160a01b03958616602088015286019390935292166060840152608083019190915260a082015260c001610214565b34801561062957600080fd5b50610282610638366004614863565b612216565b34801561064957600080fd5b506106cd610658366004614740565b600660208190526000918252604090912080546001820154600283015460038401546004850154600586015496860154600787015460088801546009890154600a9099015497996001600160a01b03978816999688169895979496909593949092169290919060ff808216916101009004168c565b6040516102149c9b9a99989796959493929190614d0b565b3480156106f157600080fd5b5061028261070036600461494b565b61223c565b34801561071157600080fd5b506105e4610720366004614863565b600760209081526000928352604080842090915290825290208054600182015460028301546003840154600485015460059095015493946001600160a01b039384169492939091169186565b34801561077857600080fd5b5060055461034a906001600160401b031681565b34801561079857600080fd5b506102496107a7366004614d8f565b63f23a6e6160e01b95945050505050565b3480156107c457600080fd5b5061034a61271081565b60006001600160e01b03198216630271189760e51b14806107ff57506001600160e01b03198216630a85bd0160e11b145b8061080e575061080e826123ea565b92915050565b600061081f8161240f565b6127108211156108665760405162461bcd60e51b815260206004820152600d60248201526c313839901e1e9018981818181760991b60448201526064015b60405180910390fd5b600480546001600160e01b031916600160a01b6001600160401b038516026001600160a01b031916176001600160a01b0385169081179091556040518381527fe2497bd806ec41a6e0dd992c29a72efc0ef8fec9092d1978fd4a1e00b2f183049060200160405180910390a2505050565b600380549060019060006108eb8385614e0d565b90915550600090506108fb612423565b9050600061090c846000015161242d565b9050600061091e828660800151612575565b90506000811161095b5760405162461bcd60e51b81526020600482015260086024820152675155414e5449545960c01b604482015260640161085d565b6040850151428110156109aa57610e106109758242614e20565b106109a75760405162461bcd60e51b815260206004820152600260248201526114d560f21b604482015260640161085d565b50425b6109bf848760000151886020015185876125af565b6000604051806101800160405280878152602001866001600160a01b0316815260200188600001516001600160a01b0316815260200188602001518152602001838152602001886060015184610a159190614e0d565b81526020018481526020018860a001516001600160a01b031681526020018860c0015181526020018860e001518152602001856001811115610a5957610a59614cca565b81526020018861010001516001811115610a7557610a75614cca565b90526000878152600660208181526040928390208451815590840151600180830180546001600160a01b03199081166001600160a01b0394851617909155948601516002840180548716918416919091179055606086015160038401556080860151600484015560a0860151600584015560c08601519383019390935560e085015160078301805490951691161790925561010083015160088301556101208301516009830155610140830151600a8301805494955085949192909160ff1916908381811115610b4757610b47614cca565b0217905550610160820151600a8201805461ff001916610100836001811115610b7257610b72614cca565b021790555060019150610b829050565b8161016001516001811115610b9957610b99614cca565b03610bee578061010001518161012001511015610be25760405162461bcd60e51b81526020600482015260076024820152665245534552564560c81b604482015260640161085d565b610bee85308584612889565b846001600160a01b031687600001516001600160a01b0316877f0c5bc74ccdf848b38eb526a154b85085e1d61addf1d100cba2074e039c0b634084604051610c369190614e33565b60405180910390a450505050505050565b60008281526001602081905260409091200154610c638161240f565b610c6d83836129de565b505050565b610c7a612423565b6001600160a01b0316816001600160a01b031614610cf25760405162461bcd60e51b815260206004820152602f60248201527f416363657373436f6e74726f6c3a2063616e206f6e6c792072656e6f756e636560448201526e103937b632b9903337b91039b2b63360891b606482015260840161085d565b610cfc8282612a00565b5050565b600260005403610d225760405162461bcd60e51b815260040161085d90614efc565b60026000818155868152600660205260409020015485906001600160a01b0316610d5e5760405162461bcd60e51b815260040161085d90614f33565b6000868152600660208181526040808420815161018081018352815481526001808301546001600160a01b039081169583019590955260028301548516938201939093526003820154606082015260048201546080820152600582015460a08201529381015460c0850152600781015490921660e084015260088201546101008401526009820154610120840152600a82015461014084019160ff90911690811115610e0c57610e0c614cca565b6001811115610e1d57610e1d614cca565b8152602001600a820160019054906101000a900460ff166001811115610e4557610e45614cca565b6001811115610e5657610e56614cca565b815250509050428160a00151118015610e725750428160800151105b610eb25760405162461bcd60e51b815260206004820152601160248201527034b730b1ba34bb32903634b9ba34b7339760791b604482015260640161085d565b60006040518060c00160405280898152602001610ecd612423565b6001600160a01b039081168252602082018a90528816604082015260608101879052608001859052905060018261016001516001811115610f1057610f10614cca565b03610faf578160e001516001600160a01b031681606001516001600160a01b031614610f885760405162461bcd60e51b815260206004820152602160248201527f6d7573742075736520617070726f7665642063757272656e637920746f2062696044820152601960fa1b606482015260840161085d565b610f9b8261014001518360c00151612575565b6040820152610faa8282612a22565b611086565b60008261016001516001811115610fc857610fc8614cca565b0361108657341561100d5760405162461bcd60e51b815260206004820152600f60248201526e1b9bc81d985b1d59481b9959591959608a1b604482015260640161085d565b6001600160a01b03861673eeeeeeeeeeeeeeeeeeeeeeeeeeeeeeeeeeeeeeee146110375785611059565b7f00000000000000000000000000000000000000000000000000000000000000005b6001600160a01b031660608201526101408201516110779088612575565b60408201526110868282612e07565b50506001600055505050505050565b6002600054036110b75760405162461bcd60e51b815260040161085d90614efc565b60026000818155838152600660205260409020015482906001600160a01b03166110f35760405162461bcd60e51b815260040161085d90614f33565b6000838152600660208181526040808420815161018081018352815481526001808301546001600160a01b039081169583019590955260028301548516938201939093526003820154606082015260048201546080820152600582015460a08201529381015460c0850152600781015490921660e084015260088201546101008401526009820154610120840152600a82015461014084019160ff909116908111156111a1576111a1614cca565b60018111156111b2576111b2614cca565b8152602001600a820160019054906101000a900460ff1660018111156111da576111da614cca565b60018111156111eb576111eb614cca565b90525090506001816101600151600181111561120957611209614cca565b146112485760405162461bcd60e51b815260206004820152600f60248201526e3737ba1030b71030bab1ba34b7b71760891b604482015260640161085d565b6000848152600860209081526040808320815160c0810183528154815260018201546001600160a01b039081169482019490945260028201549281019290925260038101549092166060820152600482015460808083019190915260059092015460a0820152908301519091904210806112cd575060208201516001600160a01b0316155b905080156112e3576112de83612fa6565b611396565b428360a00151106113485760405162461bcd60e51b815260206004820152602960248201527f63616e6e6f7420636c6f73652061756374696f6e206265666f7265206974206860448201526830b99032b73232b21760b91b606482015260840161085d565b82602001516001600160a01b0316856001600160a01b03160361136f5761136f838361310e565b81602001516001600160a01b0316856001600160a01b031603611396576113968383613333565b5050600160005550505050565b806113ac612423565b6000828152600660205260409020600101546001600160a01b039081169116146113e85760405162461bcd60e51b815260040161085d90614f50565b6000828152600660208181526040808420815161018081018352815481526001808301546001600160a01b039081169583019590955260028301548516938201939093526003820154606082015260048201546080820152600582015460a08201529381015460c0850152600781015490921660e084015260088201546101008401526009820154610120840152600a82015461014084019160ff9091169081111561149657611496614cca565b60018111156114a7576114a7614cca565b8152602001600a820160019054906101000a900460ff1660018111156114cf576114cf614cca565b60018111156114e0576114e0614cca565b9052509050600081610160015160018111156114fe576114fe614cca565b146115355760405162461bcd60e51b8152602060048201526007602482015266085112549150d560ca1b604482015260640161085d565b60008381526006602081815260408084208481556001810180546001600160a01b0319908116909155600282018054821690556003820186905560048201869055600582018690559381018590556007810180549094169093556008830184905560098301849055600a909201805461ffff1916905583015190516001600160a01b039091169185917f58b0852506006c4be6c7ae72afcd195d9e64d7f5d8947905e914b778e47b7cf39190a3505050565b6002600054036116095760405162461bcd60e51b815260040161085d90614efc565b60026000818155868152600660205260409020015485906001600160a01b03166116455760405162461bcd60e51b815260040161085d90614f33565b6000868152600660208181526040808420815161018081018352815481526001808301546001600160a01b039081169583019590955260028301548516938201939093526003820154606082015260048201546080820152600582015460a08201529381015460c0850152600781015490921660e084015260088201546101008401526009820154610120840152600a82015461014084019160ff909116908111156116f3576116f3614cca565b600181111561170457611704614cca565b8152602001600a820160019054906101000a900460ff16600181111561172c5761172c614cca565b600181111561173d5761173d614cca565b9052509050600061174c612423565b90508160e001516001600160a01b0316856001600160a01b031614801561178257508582610120015161177f9190614f70565b84145b6117b75760405162461bcd60e51b815260206004820152600660248201526521505249434560d01b604482015260640161085d565b6110868282898560e001518a8761012001516117d39190614f70565b8b613543565b60008281526002602052604081206117f190836136e1565b9392505050565b60009182526001602090815260408084206001600160a01b0393909316845291905290205460ff1690565b6060816001600160401b0381111561183d5761183d614759565b60405190808252806020026020018201604052801561187057816020015b606081526020019060019003908161185b5790505b50905060005b82811015611910576118e03085858481811061189457611894614f8f565b90506020028101906118a69190614fa5565b8080601f0160208091040260200160405190810160405280939291908181526020018383808284376000920191909152506136ed92505050565b8282815181106118f2576118f2614f8f565b6020026020010181905250808061190890614ff2565b915050611876565b5092915050565b6002600054036119395760405162461bcd60e51b815260040161085d90614efc565b600260005583611947612423565b6000828152600660205260409020600101546001600160a01b039081169116146119835760405162461bcd60e51b815260040161085d90614f50565b60008581526006602052604090206002015485906001600160a01b03166119bc5760405162461bcd60e51b815260040161085d90614f33565b6000600760008881526020019081526020016000206000876001600160a01b03166001600160a01b031681526020019081526020016000206040518060c0016040529081600082015481526020016001820160009054906101000a90046001600160a01b03166001600160a01b03166001600160a01b03168152602001600282015481526020016003820160009054906101000a90046001600160a01b03166001600160a01b03166001600160a01b0316815260200160048201548152602001600582015481525050905060006006600089815260200190815260200160002060405180610180016040529081600082015481526020016001820160009054906101000a90046001600160a01b03166001600160a01b03166001600160a01b031681526020016002820160009054906101000a90046001600160a01b03166001600160a01b03166001600160a01b03168152602001600382015481526020016004820154815260200160058201548152602001600682015481526020016007820160009054906101000a90046001600160a01b03166001600160a01b03166001600160a01b031681526020016008820154815260200160098201548152602001600a820160009054906101000a900460ff166001811115611b9f57611b9f614cca565b6001811115611bb057611bb0614cca565b8152602001600a820160019054906101000a900460ff166001811115611bd857611bd8614cca565b6001811115611be957611be9614cca565b81525050905081606001516001600160a01b0316866001600160a01b0316148015611c175750816080015185145b611c4c5760405162461bcd60e51b815260206004820152600660248201526521505249434560d01b604482015260640161085d565b428260a0015111611c895760405162461bcd60e51b81526020600482015260076024820152661156141254915160ca1b604482015260640161085d565b60008881526007602090815260408083206001600160a01b038b1684529091528082208281556001810180546001600160a01b0319908116909155600282018490556003820180549091169055600481018390556005019190915560608301519083015160808401516110869284928b92839291611d0691614f70565b8760400151613543565b86611d19612423565b6000828152600660205260409020600101546001600160a01b03908116911614611d555760405162461bcd60e51b815260040161085d90614f50565b6000888152600660208181526040808420815161018081018352815481526001808301546001600160a01b039081169583019590955260028301548516938201939093526003820154606082015260048201546080820152600582015460a08201529381015460c0850152600781015490921660e084015260088201546101008401526009820154610120840152600a82015461014084019160ff90911690811115611e0357611e03614cca565b6001811115611e1457611e14614cca565b8152602001600a820160019054906101000a900460ff166001811115611e3c57611e3c614cca565b6001811115611e4d57611e4d614cca565b8152505090506000611e648261014001518a612575565b9050600060018361016001516001811115611e8157611e81614cca565b14905081600003611ebf5760405162461bcd60e51b81526020600482015260086024820152675155414e5449545960c01b604482015260640161085d565b8015611f3c5782608001514210611f025760405162461bcd60e51b815260206004820152600760248201526614d5105495115160ca1b604482015260640161085d565b88881015611f3c5760405162461bcd60e51b81526020600482015260076024820152665245534552564560c81b604482015260640161085d565b42861015611f8757610e10611f518742614e20565b10611f835760405162461bcd60e51b815260206004820152600260248201526114d560f21b604482015260640161085d565b4295505b60008615611f955786611f9b565b83608001515b90506040518061018001604052808d8152602001611fb7612423565b6001600160a01b0316815260200185604001516001600160a01b031681526020018560600151815260200182815260200187600014611fff57611ffa8884614e0d565b612005565b8560a001515b8152602001848152602001896001600160a01b031681526020018b81526020018a8152602001856101400151600181111561204257612042614cca565b8152602001856101600151600181111561205e5761205e614cca565b905260008d8152600660208181526040928390208451815590840151600180830180546001600160a01b03199081166001600160a01b0394851617909155948601516002840180548716918416919091179055606086015160038401556080860151600484015560a0860151600584015560c08601519383019390935560e085015160078301805490951691161790925561010083015160088301556101208301516009830155610140830151600a830180549192909160ff191690838181111561212b5761212b614cca565b0217905550610160820151600a8201805461ff00191661010083600181111561215657612156614cca565b0217905550505060c084015183146121b6578115612182576121823085602001518660c0015187612889565b6121a0846020015185604001518660600151868861014001516125af565b81156121b6576121b68460200151308587612889565b83602001516001600160a01b03168c7fbbea26162edf2bc6a0255bf144ec4dd044302a301ef7d32daa835a2ddacfdef060405160405180910390a3505050505050505050505050565b600081815260026020526040812061080e90613712565b600082815260016020819052604090912001546122328161240f565b610c6d8383612a00565b60006122478161240f565b61271082106122875760405162461bcd60e51b815260206004820152600c60248201526b34b73b30b634b2102128299760a11b604482015260640161085d565b600580546001600160401b03848116600160401b026fffffffffffffffffffffffffffffffff19909216908616171790556040517f441ed6470e96704c3f8c9e70c209107078aab3f17311385e886081b91aa75088906122f39085908590918252602082015260400190565b60405180910390a1505050565b61230a82826117f8565b610cfc5760008281526001602081815260408084206001600160a01b0386168552909152909120805460ff19169091179055612344612423565b6001600160a01b0316816001600160a01b0316837f2f8788117e7eff1d82e926ec794901d17c78024a50270940304540a733656f0d60405160405180910390a45050565b60006117f1836001600160a01b03841661371c565b60007f00000000000000000000000000000000000000000000000000000000000000006001600160a01b031633036123dc575060131936013560601c90565b503390565b905090565b3390565b60006001600160e01b03198216635a05180f60e01b148061080e575061080e8261376b565b6124208161241b612423565b6137a0565b50565b60006123e161239d565b6040516301ffc9a760e01b8152636cdb3d1360e11b60048201526000906001600160a01b038316906301ffc9a790602401602060405180830381865afa15801561247b573d6000803e3d6000fd5b505050506040513d601f19601f8201168201806040525081019061249f919061500b565b156124ac57506000919050565b6040516301ffc9a760e01b81526380ac58cd60e01b60048201526001600160a01b038316906301ffc9a790602401602060405180830381865afa1580156124f7573d6000803e3d6000fd5b505050506040513d601f19601f8201168201806040525081019061251b919061500b565b1561252857506001919050565b60405162461bcd60e51b815260206004820181905260248201527f746f6b656e206d7573742062652045524331313535206f72204552433732312e604482015260640161085d565b919050565b6000816000036125875750600061080e565b600183600181111561259b5761259b614cca565b146125a657816117f1565b50600192915050565b306000808360018111156125c5576125c5614cca565b036126be57604051627eeac760e11b81526001600160a01b0388811660048301526024820187905285919088169062fdd58e90604401602060405180830381865afa158015612618573d6000803e3d6000fd5b505050506040513d601f19601f8201168201806040525081019061263c919061502d565b101580156126b7575060405163e985e9c560e01b81526001600160a01b038881166004830152838116602483015287169063e985e9c590604401602060405180830381865afa158015612693573d6000803e3d6000fd5b505050506040513d601f19601f820116820180604052508101906126b7919061500b565b9050612849565b60018360018111156126d2576126d2614cca565b03612849576040516331a9108f60e11b8152600481018690526001600160a01b038089169190881690636352211e90602401602060405180830381865afa158015612721573d6000803e3d6000fd5b505050506040513d601f19601f820116820180604052508101906127459190615046565b6001600160a01b0316148015612846575060405163020604bf60e21b8152600481018690526001600160a01b03808416919088169063081812fc90602401602060405180830381865afa1580156127a0573d6000803e3d6000fd5b505050506040513d601f19601f820116820180604052508101906127c49190615046565b6001600160a01b03161480612846575060405163e985e9c560e01b81526001600160a01b038881166004830152838116602483015287169063e985e9c590604401602060405180830381865afa158015612822573d6000803e3d6000fd5b505050506040513d601f19601f82011682018060405250810190612846919061500b565b90505b806128805760405162461bcd60e51b81526020600482015260076024820152660850905313919560ca1b604482015260640161085d565b50505050505050565b600081610140015160018111156128a2576128a2614cca565b036129365760408082015160608301519151637921219560e11b81526001600160a01b038781166004830152868116602483015260448201939093526064810185905260a06084820152600060a482015291169063f242432a9060c401600060405180830381600087803b15801561291957600080fd5b505af115801561292d573d6000803e3d6000fd5b505050506129d8565b6001816101400151600181111561294f5761294f614cca565b036129d85760408082015160608301519151635c46a7ef60e11b81526001600160a01b03878116600483015286811660248301526044820193909352608060648201526000608482015291169063b88d4fde9060a401600060405180830381600087803b1580156129bf57600080fd5b505af11580156129d3573d6000803e3d6000fd5b505050505b50505050565b6129e88282612300565b6000828152600260205260409020610c6d9082612388565b612a0a8282613804565b6000828152600260205260409020610c6d9082613889565b81516000908152600860209081526040808320815160c0810183528154815260018201546001600160a01b039081169482019490945260028201549281018390526003820154909316606084015260048101546080840181905260059091015460a0840152919291612a949190614f70565b9050600083604001518460800151612aac9190614f70565b6101208601519091507f00000000000000000000000000000000000000000000000000000000000000009015801590612af957508560c00151866101200151612af59190614f70565b8210155b15612b0d57612b088686613333565b612d21565b612b2c8660c00151876101000151612b259190614f70565b848461389e565b612b6b5760405162461bcd60e51b815260206004820152601060248201526f3737ba103bb4b73734b733903134b21760811b604482015260640161085d565b855160009081526008602090815260409182902087518155908701516001820180546001600160a01b03199081166001600160a01b039384161790915592880151600283015560608801516003830180549094169116179091556080860151600482015560a0808701516005928301559054908701516001600160401b0390911690612bf8904290614e20565b11612d215760055460a0870180516001600160401b0390921691612c1d908390614e0d565b90525085516000908152600660208181526040928390208951815590890151600180830180546001600160a01b03199081166001600160a01b0394851617909155948b0151600284018054871691841691909117905560608b0151600384015560808b0151600484015560a08b0151600584015560c08b01519383019390935560e08a015160078301805490951691161790925561010088015160088301556101208801516009830155610140880151600a830180548a949360ff19909116908381811115612cee57612cee614cca565b0217905550610160820151600a8201805461ff001916610100836001811115612d1957612d19614cca565b021790555050505b60208401516001600160a01b031615801590612d3d5750600083115b15612d5757612d578660e0015130866020015186856138fc565b612d6c8660e0015186602001513085856138fc565b8561016001516001811115612d8357612d83614cca565b85602001516001600160a01b031687600001517f8a412352601a288b3de40254a9de2ab14a497aa3638a7e558480680a56e2705d886040015189604001518a60800151612dd09190614f70565b6060808c01516040805194855260208501939093526001600160a01b031691830191909152015b60405180910390a4505050505050565b8160c00151816040015111158015612e23575060008260c00151115b612e6f5760405162461bcd60e51b815260206004820152601f60248201527f696e73756666696369656e7420746f6b656e7320696e206c697374696e672e00604482015260640161085d565b612e958160200151826060015183604001518460800151612e909190614f70565b613a6d565b8151600090815260076020908152604080832082850180516001600160a01b0390811686529190935292819020845181559151600180840180549286166001600160a01b03199384161790559185015160028401556060850151600384018054919095169116179092556080830151600482015560a083015160059091015561016083015190811115612f2a57612f2a614cca565b81602001516001600160a01b031683600001517f8a412352601a288b3de40254a9de2ab14a497aa3638a7e558480680a56e2705d846040015185604001518660800151612f779190614f70565b6060878101516040805194855260208501939093526001600160a01b0316838301529051918290030190a45050565b612fae612423565b81516000908152600660205260409020600101546001600160a01b039081169116146130275760405162461bcd60e51b815260206004820152602260248201527f63616c6c6572206973206e6f7420746865206c697374696e672063726561746f604482015261391760f11b606482015260840161085d565b8051600090815260066020818152604083208381556001810180546001600160a01b031990811690915560028201805482169055600382018590556004820185905560058201859055928101849055600781018054909316909255600882018390556009820192909255600a01805461ffff1916905581015160c08201516130b191309184612889565b60016130bb612423565b8251602080850151604080516001600160a01b0392831681526000938101939093529316927f572cdc5ca5e918473319d0f4737494e4709ac879a7d0bcd11ce1bef24b24e81d910160405180910390a450565b60008260c0015182608001516131249190614f70565b600060c085018181524260a0870190815286518352600660208181526040948590208951815590890151600180830180546001600160a01b039384166001600160a01b031991821617909155968b015160028401805491841691891691909117905560608b0151600384015560808b015160048401559351600583015593519181019190915560e08801516007820180549190941694169390931790915561010086015160088301556101208601516009830155610140860151600a8301805494955087949192909160ff191690838181111561320357613203614cca565b0217905550610160820151600a8201805461ff00191661010083600181111561322e5761322e614cca565b021790555050600060808401818152855182526008602090815260409283902086518155818701516001820180546001600160a01b03199081166001600160a01b039384161790915594880151600283015560608801516003830180549096169116179093559051600483015560a085015160059092019190915584015160e08501516132c092503091908487613b8e565b60006132ca612423565b6001600160a01b031684600001517f572cdc5ca5e918473319d0f4737494e4709ac879a7d0bcd11ce1bef24b24e81d866020015186602001516040516133269291906001600160a01b0392831681529116602082015260400190565b60405180910390a4505050565b600081604001519050428360a001818152505060008260400181815250508160086000856000015181526020019081526020016000206000820151816000015560208201518160010160006101000a8154816001600160a01b0302191690836001600160a01b031602179055506040820151816002015560608201518160030160006101000a8154816001600160a01b0302191690836001600160a01b031602179055506080820151816004015560a082015181600501559050508260066000856000015181526020019081526020016000206000820151816000015560208201518160010160006101000a8154816001600160a01b0302191690836001600160a01b0316021790555060408201518160020160006101000a8154816001600160a01b0302191690836001600160a01b03160217905550606082015181600301556080820151816004015560a0820151816005015560c0820151816006015560e08201518160070160006101000a8154816001600160a01b0302191690836001600160a01b031602179055506101008201518160080155610120820151816009015561014082015181600a0160006101000a81548160ff0219169083600181111561350057613500614cca565b0217905550610160820151600a8201805461ff00191661010083600181111561352b5761352b614cca565b02179055509050506132c03083602001518386612889565b6135508686838686613d2a565b808660c0018181516135629190614e20565b90525085516000908152600660208181526040928390208951815590890151600180830180546001600160a01b03199081166001600160a01b0394851617909155948b0151600284018054871691841691909117905560608b0151600384015560808b0151600484015560a08b0151600584015560c08b01519383019390935560e08a015160078301805490951691161790925561010088015160088301556101208801516009830155610140880151600a830180548a949360ff1990911690838181111561363357613633614cca565b0217905550610160820151600a8201805461ff00191661010083600181111561365e5761365e614cca565b021790555090505061367785876020015185858a613b8e565b6136878660200151858389612889565b602080870151604080890151895182516001600160a01b038a81168252958101879052928301879052928416931691907f306e6cde5eb293794d557a3a6c844de939e6206b05e6910451c512852bf654a590606001612df7565b60006117f18383613ef9565b60606117f1838360405180606001604052806027815260200161518560279139613f23565b600061080e825490565b60008181526001830160205260408120546137635750815460018181018455600084815260208082209093018490558454848252828601909352604090209190915561080e565b50600061080e565b60006001600160e01b03198216637965db0b60e01b148061080e57506301ffc9a760e01b6001600160e01b031983161461080e565b6137aa82826117f8565b610cfc576137c2816001600160a01b03166014614000565b6137cd836020614000565b6040516020016137de929190615063565b60408051601f198184030181529082905262461bcd60e51b825261085d916004016150d8565b61380e82826117f8565b15610cfc5760008281526001602090815260408083206001600160a01b03851684529091529020805460ff19169055613845612423565b6001600160a01b0316816001600160a01b0316837ff6391f5c32d9c69d2a47ea670b442974b53935d1edc7fd64eb21e047a839171b60405160405180910390a45050565b60006117f1836001600160a01b03841661419b565b6000826000036138b25750828110156117f1565b82821180156138f45750600554600160401b90046001600160401b0316836127106138dd8286614e20565b6138e79190614f70565b6138f191906150eb565b10155b949350505050565b8115613a665773eeeeeeeeeeeeeeeeeeeeeeeeeeeeeeeeeeeeeeed196001600160a01b03861601613a5a57306001600160a01b038516036139a157604051632e1a7d4d60e01b8152600481018390526001600160a01b03821690632e1a7d4d90602401600060405180830381600087803b15801561397957600080fd5b505af115801561398d573d6000803e3d6000fd5b5050505061399c83838361428e565b613a66565b306001600160a01b03841603613a4f573482146139f65760405162461bcd60e51b81526020600482015260136024820152721b5cd9cb9d985b1d5948084f48185b5bdd5b9d606a1b604482015260640161085d565b806001600160a01b031663d0e30db0836040518263ffffffff1660e01b81526004016000604051808303818588803b158015613a3157600080fd5b505af1158015613a45573d6000803e3d6000fd5b5050505050613a66565b61399c83838361428e565b613a6685858585614353565b5050505050565b6040516370a0823160e01b81526001600160a01b0384811660048301528291908416906370a0823190602401602060405180830381865afa158015613ab6573d6000803e3d6000fd5b505050506040513d601f19601f82011682018060405250810190613ada919061502d565b10158015613b595750604051636eb1769f60e11b81526001600160a01b03848116600483015230602483015282919084169063dd62ed3e90604401602060405180830381865afa158015613b32573d6000803e3d6000fd5b505050506040513d601f19601f82011682018060405250810190613b56919061502d565b10155b610c6d5760405162461bcd60e51b815260206004820152600660248201526502142414c32360d41b604482015260640161085d565b60045460009061271090613bb290600160a01b90046001600160401b031685614f70565b613bbc91906150eb565b905060008083604001516001600160a01b0316632a55205a8560600151876040518363ffffffff1660e01b8152600401613c00929190918252602082015260400190565b6040805180830381865afa925050508015613c38575060408051601f3d908101601f19168201909252613c359181019061510d565b60015b15613cb5576001600160a01b03821615801590613c555750600081115b15613cb25786613c658683614e0d565b1115613cab5760405162461bcd60e51b815260206004820152601560248201527466656573206578636565642074686520707269636560581b604482015260640161085d565b8192508093505b50505b6004547f000000000000000000000000000000000000000000000000000000000000000090613cf29088908b906001600160a01b031687856138fc565b613cff878a8486856138fc565b613d1f878a8a613d0f8789614e0d565b613d19908b614e20565b856138fc565b505050505050505050565b60008561016001516001811115613d4357613d43614cca565b14613d905760405162461bcd60e51b815260206004820152601860248201527f63616e6e6f74206275792066726f6d206c697374696e672e0000000000000000604482015260640161085d565b60008560c00151118015613da45750600083115b8015613db457508460c001518311155b613e005760405162461bcd60e51b815260206004820152601960248201527f696e76616c696420616d6f756e74206f6620746f6b656e732e00000000000000604482015260640161085d565b8460a0015142108015613e165750846080015142115b613e625760405162461bcd60e51b815260206004820152601760248201527f6e6f742077697468696e2073616c652077696e646f772e000000000000000000604482015260640161085d565b73eeeeeeeeeeeeeeeeeeeeeeeeeeeeeeeeeeeeeeed196001600160a01b03831601613ed057803414613ecb5760405162461bcd60e51b81526020600482015260126024820152716d73672e76616c756520213d20707269636560701b604482015260640161085d565b613edb565b613edb848383613a6d565b613a66856020015186604001518760600151868961014001516125af565b6000826000018281548110613f1057613f10614f8f565b9060005260206000200154905092915050565b60606001600160a01b0384163b613f8b5760405162461bcd60e51b815260206004820152602660248201527f416464726573733a2064656c65676174652063616c6c20746f206e6f6e2d636f6044820152651b9d1c9858dd60d21b606482015260840161085d565b600080856001600160a01b031685604051613fa6919061513b565b600060405180830381855af49150503d8060008114613fe1576040519150601f19603f3d011682016040523d82523d6000602084013e613fe6565b606091505b5091509150613ff68282866143ab565b9695505050505050565b6060600061400f836002614f70565b61401a906002614e0d565b6001600160401b0381111561403157614031614759565b6040519080825280601f01601f19166020018201604052801561405b576020820181803683370190505b509050600360fc1b8160008151811061407657614076614f8f565b60200101906001600160f81b031916908160001a905350600f60fb1b816001815181106140a5576140a5614f8f565b60200101906001600160f81b031916908160001a90535060006140c9846002614f70565b6140d4906001614e0d565b90505b600181111561414c576f181899199a1a9b1b9c1cb0b131b232b360811b85600f166010811061410857614108614f8f565b1a60f81b82828151811061411e5761411e614f8f565b60200101906001600160f81b031916908160001a90535060049490941c9361414581615157565b90506140d7565b5083156117f15760405162461bcd60e51b815260206004820181905260248201527f537472696e67733a20686578206c656e67746820696e73756666696369656e74604482015260640161085d565b600081815260018301602052604081205480156142845760006141bf600183614e20565b85549091506000906141d390600190614e20565b90508181146142385760008660000182815481106141f3576141f3614f8f565b906000526020600020015490508087600001848154811061421657614216614f8f565b6000918252602080832090910192909255918252600188019052604090208390555b85548690806142495761424961516e565b60019003818190600052602060002001600090559055856001016000868152602001908152602001600020600090556001935050505061080e565b600091505061080e565b6000836001600160a01b03168360405160006040518083038185875af1925050503d80600081146142db576040519150601f19603f3d011682016040523d82523d6000602084013e6142e0565b606091505b50509050806129d857816001600160a01b031663d0e30db0846040518263ffffffff1660e01b81526004016000604051808303818588803b15801561432457600080fd5b505af1158015614338573d6000803e3d6000fd5b506129d8935050506001600160a01b038416905085856143e4565b816001600160a01b0316836001600160a01b031603156129d857306001600160a01b03841603614396576143916001600160a01b03851683836143e4565b6129d8565b6129d86001600160a01b038516848484614447565b606083156143ba5750816117f1565b8251156143ca5782518084602001fd5b8160405162461bcd60e51b815260040161085d91906150d8565b6040516001600160a01b038316602482015260448101829052610c6d90849063a9059cbb60e01b906064015b60408051601f198184030181529190526020810180516001600160e01b03166001600160e01b03199093169290921790915261447f565b6040516001600160a01b03808516602483015283166044820152606481018290526129d89085906323b872dd60e01b90608401614410565b60006144d4826040518060400160405280602081526020017f5361666545524332303a206c6f772d6c6576656c2063616c6c206661696c6564815250856001600160a01b03166145519092919063ffffffff16565b805190915015610c6d57808060200190518101906144f2919061500b565b610c6d5760405162461bcd60e51b815260206004820152602a60248201527f5361666545524332303a204552433230206f7065726174696f6e20646964206e6044820152691bdd081cdd58d8d9595960b21b606482015260840161085d565b60606138f48484600085856001600160a01b0385163b6145b35760405162461bcd60e51b815260206004820152601d60248201527f416464726573733a2063616c6c20746f206e6f6e2d636f6e7472616374000000604482015260640161085d565b600080866001600160a01b031685876040516145cf919061513b565b60006040518083038185875af1925050503d806000811461460c576040519150601f19603f3d011682016040523d82523d6000602084013e614611565b606091505b50915091506146218282866143ab565b979650505050505050565b60006020828403121561463e57600080fd5b81356001600160e01b0319811681146117f157600080fd5b6001600160a01b038116811461242057600080fd5b803561257081614656565b60008060008060006080868803121561468e57600080fd5b853561469981614656565b945060208601356146a981614656565b93506040860135925060608601356001600160401b03808211156146cc57600080fd5b818801915088601f8301126146e057600080fd5b8135818111156146ef57600080fd5b89602082850101111561470157600080fd5b9699959850939650602001949392505050565b6000806040838503121561472757600080fd5b823561473281614656565b946020939093013593505050565b60006020828403121561475257600080fd5b5035919050565b634e487b7160e01b600052604160045260246000fd5b60405161012081016001600160401b038111828210171561479257614792614759565b60405290565b604051601f8201601f191681016001600160401b03811182821017156147c0576147c0614759565b604052919050565b80356002811061257057600080fd5b600061012082840312156147ea57600080fd5b6147f261476f565b6147fb8361466b565b81526020830135602082015260408301356040820152606083013560608201526080830135608082015261483160a0840161466b565b60a082015260c083013560c082015260e083013560e08201526101006148588185016147c8565b908201529392505050565b6000806040838503121561487657600080fd5b82359150602083013561488881614656565b809150509250929050565b6000602082840312156148a557600080fd5b81356117f181614656565b600080600080600060a086880312156148c857600080fd5b853594506020860135935060408601356148e181614656565b94979396509394606081013594506080013592915050565b600080600080600060a0868803121561491157600080fd5b85359450602086013561492381614656565b935060408601359250606086013561493a81614656565b949793965091946080013592915050565b6000806040838503121561495e57600080fd5b50508035926020909101359150565b6000806020838503121561498057600080fd5b82356001600160401b038082111561499757600080fd5b818501915085601f8301126149ab57600080fd5b8135818111156149ba57600080fd5b8660208260051b85010111156149cf57600080fd5b60209290920196919550909350505050565b60005b838110156149fc5781810151838201526020016149e4565b50506000910152565b60008151808452614a1d8160208601602086016149e1565b601f01601f19169290920160200192915050565b6000602080830181845280855180835260408601915060408160051b870101925083870160005b82811015614a8657603f19888603018452614a74858351614a05565b94509285019290850190600101614a58565b5092979650505050505050565b60008060008060808587031215614aa957600080fd5b843593506020850135614abb81614656565b92506040850135614acb81614656565b9396929550929360600135925050565b600082601f830112614aec57600080fd5b813560206001600160401b03821115614b0757614b07614759565b8160051b614b16828201614798565b9283528481018201928281019087851115614b3057600080fd5b83870192505b8483101561462157823582529183019190830190614b36565b600082601f830112614b6057600080fd5b81356001600160401b03811115614b7957614b79614759565b614b8c601f8201601f1916602001614798565b818152846020838601011115614ba157600080fd5b816020850160208301376000918101602001919091529392505050565b600080600080600060a08688031215614bd657600080fd5b8535614be181614656565b94506020860135614bf181614656565b935060408601356001600160401b0380821115614c0d57600080fd5b614c1989838a01614adb565b94506060880135915080821115614c2f57600080fd5b614c3b89838a01614adb565b93506080880135915080821115614c5157600080fd5b50614c5e88828901614b4f565b9150509295509295909350565b600080600080600080600060e0888a031215614c8657600080fd5b873596506020880135955060408801359450606088013593506080880135614cad81614656565b9699959850939692959460a0840135945060c09093013592915050565b634e487b7160e01b600052602160045260246000fd5b6002811061242057634e487b7160e01b600052602160045260246000fd5b614d0781614ce0565b9052565b8c81526001600160a01b038c811660208301528b81166040830152606082018b9052608082018a905260a0820189905260c08201889052861660e0820152610100810185905261012081018490526101808101614d6784614ce0565b83610140830152614d7783614ce0565b826101608301529d9c50505050505050505050505050565b600080600080600060a08688031215614da757600080fd5b8535614db281614656565b94506020860135614dc281614656565b9350604086013592506060860135915060808601356001600160401b03811115614deb57600080fd5b614c5e88828901614b4f565b634e487b7160e01b600052601160045260246000fd5b8082018082111561080e5761080e614df7565b8181038181111561080e5761080e614df7565b81518152602080830151610180830191614e57908401826001600160a01b03169052565b506040830151614e7260408401826001600160a01b03169052565b50606083015160608301526080830151608083015260a083015160a083015260c083015160c083015260e0830151614eb560e08401826001600160a01b03169052565b506101008381015190830152610120808401519083015261014080840151614edf82850182614cfe565b505061016080840151614ef482850182614cfe565b505092915050565b6020808252601f908201527f5265656e7472616e637947756172643a207265656e7472616e742063616c6c00604082015260600190565b602080825260039082015262444e4560e81b604082015260600190565b60208082526006908201526510a7aba722a960d11b604082015260600190565b6000816000190483118215151615614f8a57614f8a614df7565b500290565b634e487b7160e01b600052603260045260246000fd5b6000808335601e19843603018112614fbc57600080fd5b8301803591506001600160401b03821115614fd657600080fd5b602001915036819003821315614feb57600080fd5b9250929050565b60006001820161500457615004614df7565b5060010190565b60006020828403121561501d57600080fd5b815180151581146117f157600080fd5b60006020828403121561503f57600080fd5b5051919050565b60006020828403121561505857600080fd5b81516117f181614656565b7f416363657373436f6e74726f6c3a206163636f756e742000000000000000000081526000835161509b8160178501602088016149e1565b7001034b99036b4b9b9b4b733903937b6329607d1b60179184019182015283516150cc8160288401602088016149e1565b01602801949350505050565b6020815260006117f16020830184614a05565b60008261510857634e487b7160e01b600052601260045260246000fd5b500490565b6000806040838503121561512057600080fd5b825161512b81614656565b6020939093015192949293505050565b6000825161514d8184602087016149e1565b9190910192915050565b60008161516657615166614df7565b506000190190565b634e487b7160e01b600052603160045260246000fdfe416464726573733a206c6f772d6c6576656c2064656c65676174652063616c6c206661696c6564a264697066735822122037a352416bcdaa5079547a31d0c21dbd7b2e519b626818413bcd338f251e2c4e64736f6c63430008100033",
  "linkReferences": {},
  "deployedLinkReferences": {}
}