{
  "_format": "hh-sol-artifact-1",
  "contractName": "RMRKMultiResourceImpl",
  "sourceName": "contracts/implementations/RMRKMultiResourceImpl.sol",
  "abi": [
    {
      "inputs": [
        {
          "internalType": "string",
          "name": "name",
          "type": "string"
        },
        {
          "internalType": "string",
          "name": "symbol",
          "type": "string"
        },
        {
          "internalType": "uint256",
          "name": "maxSupply_",
          "type": "uint256"
        },
        {
          "internalType": "uint256",
          "name": "pricePerMint_",
          "type": "uint256"
        }
      ],
      "stateMutability": "nonpayable",
      "type": "constructor"
    },
    {
      "inputs": [],
      "name": "ERC721AddressZeroIsNotaValidOwner",
      "type": "error"
    },
    {
      "inputs": [],
      "name": "ERC721ApprovalToCurrentOwner",
      "type": "error"
    },
    {
      "inputs": [],
      "name": "ERC721ApproveCallerIsNotOwnerNorApprovedForAll",
      "type": "error"
    },
    {
      "inputs": [],
      "name": "ERC721ApproveToCaller",
      "type": "error"
    },
    {
      "inputs": [],
      "name": "ERC721InvalidTokenId",
      "type": "error"
    },
    {
      "inputs": [],
      "name": "ERC721MintToTheZeroAddress",
      "type": "error"
    },
    {
      "inputs": [],
      "name": "ERC721NotApprovedOrOwner",
      "type": "error"
    },
    {
      "inputs": [],
      "name": "ERC721TokenAlreadyMinted",
      "type": "error"
    },
    {
      "inputs": [],
      "name": "ERC721TransferFromIncorrectOwner",
      "type": "error"
    },
    {
      "inputs": [],
      "name": "ERC721TransferToNonReceiverImplementer",
      "type": "error"
    },
    {
      "inputs": [],
      "name": "ERC721TransferToTheZeroAddress",
      "type": "error"
    },
    {
      "inputs": [],
      "name": "RMRKApprovalForResourcesToCurrentOwner",
      "type": "error"
    },
    {
      "inputs": [],
      "name": "RMRKApproveForResourcesCallerIsNotOwnerNorApprovedForAll",
      "type": "error"
    },
    {
      "inputs": [],
      "name": "RMRKApproveForResourcesToCaller",
      "type": "error"
    },
    {
      "inputs": [],
      "name": "RMRKBadPriorityListLength",
      "type": "error"
    },
    {
      "inputs": [],
      "name": "RMRKIndexOutOfRange",
      "type": "error"
    },
    {
      "inputs": [],
      "name": "RMRKLocked",
      "type": "error"
    },
    {
      "inputs": [],
      "name": "RMRKMaxPendingResourcesReached",
      "type": "error"
    },
    {
      "inputs": [],
      "name": "RMRKMintOverMax",
      "type": "error"
    },
    {
      "inputs": [],
      "name": "RMRKMintUnderpriced",
      "type": "error"
    },
    {
      "inputs": [],
      "name": "RMRKMintZero",
      "type": "error"
    },
    {
      "inputs": [],
      "name": "RMRKNoResourceMatchingId",
      "type": "error"
    },
    {
      "inputs": [],
      "name": "RMRKNotApprovedForResourcesOrOwner",
      "type": "error"
    },
    {
      "inputs": [],
      "name": "RMRKResourceAlreadyExists",
      "type": "error"
    },
    {
      "inputs": [],
      "name": "RMRKResourceNotFoundInStorage",
      "type": "error"
    },
    {
      "inputs": [],
      "name": "RMRKWriteToZero",
      "type": "error"
    },
    {
      "anonymous": false,
      "inputs": [
        {
          "indexed": true,
          "internalType": "address",
          "name": "owner",
          "type": "address"
        },
        {
          "indexed": true,
          "internalType": "address",
          "name": "approved",
          "type": "address"
        },
        {
          "indexed": true,
          "internalType": "uint256",
          "name": "tokenId",
          "type": "uint256"
        }
      ],
      "name": "Approval",
      "type": "event"
    },
    {
      "anonymous": false,
      "inputs": [
        {
          "indexed": true,
          "internalType": "address",
          "name": "owner",
          "type": "address"
        },
        {
          "indexed": true,
          "internalType": "address",
          "name": "operator",
          "type": "address"
        },
        {
          "indexed": false,
          "internalType": "bool",
          "name": "approved",
          "type": "bool"
        }
      ],
      "name": "ApprovalForAll",
      "type": "event"
    },
    {
      "anonymous": false,
      "inputs": [
        {
          "indexed": true,
          "internalType": "address",
          "name": "owner",
          "type": "address"
        },
        {
          "indexed": true,
          "internalType": "address",
          "name": "operator",
          "type": "address"
        },
        {
          "indexed": false,
          "internalType": "bool",
          "name": "approved",
          "type": "bool"
        }
      ],
      "name": "ApprovalForAllForResources",
      "type": "event"
    },
    {
      "anonymous": false,
      "inputs": [
        {
          "indexed": true,
          "internalType": "address",
          "name": "owner",
          "type": "address"
        },
        {
          "indexed": true,
          "internalType": "address",
          "name": "approved",
          "type": "address"
        },
        {
          "indexed": true,
          "internalType": "uint256",
          "name": "tokenId",
          "type": "uint256"
        }
      ],
      "name": "ApprovalForResources",
      "type": "event"
    },
    {
      "anonymous": false,
      "inputs": [
        {
          "indexed": true,
          "internalType": "address",
          "name": "previousOwner",
          "type": "address"
        },
        {
          "indexed": true,
          "internalType": "address",
          "name": "newOwner",
          "type": "address"
        }
      ],
      "name": "OwnershipTransferred",
      "type": "event"
    },
    {
      "anonymous": false,
      "inputs": [
        {
          "indexed": true,
          "internalType": "uint256",
          "name": "tokenId",
          "type": "uint256"
        },
        {
          "indexed": false,
          "internalType": "uint64",
          "name": "resourceId",
          "type": "uint64"
        }
      ],
      "name": "ResourceAccepted",
      "type": "event"
    },
    {
      "anonymous": false,
      "inputs": [
        {
          "indexed": true,
          "internalType": "uint256",
          "name": "tokenId",
          "type": "uint256"
        },
        {
          "indexed": false,
          "internalType": "uint64",
          "name": "resourceId",
          "type": "uint64"
        }
      ],
      "name": "ResourceAddedToToken",
      "type": "event"
    },
    {
      "anonymous": false,
      "inputs": [
        {
          "indexed": true,
          "internalType": "uint256",
          "name": "tokenId",
          "type": "uint256"
        },
        {
          "indexed": false,
          "internalType": "uint64",
          "name": "resourceId",
          "type": "uint64"
        },
        {
          "indexed": false,
          "internalType": "uint64",
          "name": "overwrites",
          "type": "uint64"
        }
      ],
      "name": "ResourceOverwriteProposed",
      "type": "event"
    },
    {
      "anonymous": false,
      "inputs": [
        {
          "indexed": true,
          "internalType": "uint256",
          "name": "tokenId",
          "type": "uint256"
        },
        {
          "indexed": false,
          "internalType": "uint64",
          "name": "overwritten",
          "type": "uint64"
        }
      ],
      "name": "ResourceOverwritten",
      "type": "event"
    },
    {
      "anonymous": false,
      "inputs": [
        {
          "indexed": true,
          "internalType": "uint256",
          "name": "tokenId",
          "type": "uint256"
        }
      ],
      "name": "ResourcePrioritySet",
      "type": "event"
    },
    {
      "anonymous": false,
      "inputs": [
        {
          "indexed": true,
          "internalType": "uint256",
          "name": "tokenId",
          "type": "uint256"
        },
        {
          "indexed": false,
          "internalType": "uint64",
          "name": "resourceId",
          "type": "uint64"
        }
      ],
      "name": "ResourceRejected",
      "type": "event"
    },
    {
      "anonymous": false,
      "inputs": [
        {
          "indexed": false,
          "internalType": "uint64",
          "name": "resourceId",
          "type": "uint64"
        }
      ],
      "name": "ResourceSet",
      "type": "event"
    },
    {
      "anonymous": false,
      "inputs": [
        {
          "indexed": true,
          "internalType": "address",
          "name": "from",
          "type": "address"
        },
        {
          "indexed": true,
          "internalType": "address",
          "name": "to",
          "type": "address"
        },
        {
          "indexed": true,
          "internalType": "uint256",
          "name": "tokenId",
          "type": "uint256"
        }
      ],
      "name": "Transfer",
      "type": "event"
    },
    {
      "inputs": [
        {
          "internalType": "uint256",
          "name": "tokenId",
          "type": "uint256"
        },
        {
          "internalType": "uint256",
          "name": "index",
          "type": "uint256"
        }
      ],
      "name": "acceptResource",
      "outputs": [],
      "stateMutability": "nonpayable",
      "type": "function"
    },
    {
      "inputs": [
        {
          "internalType": "string",
          "name": "metadataURI",
          "type": "string"
        }
      ],
      "name": "addResourceEntry",
      "outputs": [],
      "stateMutability": "nonpayable",
      "type": "function"
    },
    {
      "inputs": [
        {
          "internalType": "uint256",
          "name": "tokenId",
          "type": "uint256"
        },
        {
          "internalType": "uint64",
          "name": "resourceId",
          "type": "uint64"
        },
        {
          "internalType": "uint64",
          "name": "overwrites",
          "type": "uint64"
        }
      ],
      "name": "addResourceToToken",
      "outputs": [],
      "stateMutability": "nonpayable",
      "type": "function"
    },
    {
      "inputs": [
        {
          "internalType": "address",
          "name": "to",
          "type": "address"
        },
        {
          "internalType": "uint256",
          "name": "tokenId",
          "type": "uint256"
        }
      ],
      "name": "approve",
      "outputs": [],
      "stateMutability": "nonpayable",
      "type": "function"
    },
    {
      "inputs": [
        {
          "internalType": "address",
          "name": "to",
          "type": "address"
        },
        {
          "internalType": "uint256",
          "name": "tokenId",
          "type": "uint256"
        }
      ],
      "name": "approveForResources",
      "outputs": [],
      "stateMutability": "nonpayable",
      "type": "function"
    },
    {
      "inputs": [
        {
          "internalType": "address",
          "name": "owner",
          "type": "address"
        }
      ],
      "name": "balanceOf",
      "outputs": [
        {
          "internalType": "uint256",
          "name": "",
          "type": "uint256"
        }
      ],
      "stateMutability": "view",
      "type": "function"
    },
    {
      "inputs": [
        {
          "internalType": "uint256",
          "name": "tokenId",
          "type": "uint256"
        }
      ],
      "name": "getActiveResourcePriorities",
      "outputs": [
        {
          "internalType": "uint16[]",
          "name": "",
          "type": "uint16[]"
        }
      ],
      "stateMutability": "view",
      "type": "function"
    },
    {
      "inputs": [
        {
          "internalType": "uint256",
          "name": "tokenId",
          "type": "uint256"
        }
      ],
      "name": "getActiveResources",
      "outputs": [
        {
          "internalType": "uint64[]",
          "name": "",
          "type": "uint64[]"
        }
      ],
      "stateMutability": "view",
      "type": "function"
    },
    {
      "inputs": [],
      "name": "getAllResources",
      "outputs": [
        {
          "internalType": "uint64[]",
          "name": "",
          "type": "uint64[]"
        }
      ],
      "stateMutability": "view",
      "type": "function"
    },
    {
      "inputs": [
        {
          "internalType": "uint256",
          "name": "tokenId",
          "type": "uint256"
        }
      ],
      "name": "getApproved",
      "outputs": [
        {
          "internalType": "address",
          "name": "",
          "type": "address"
        }
      ],
      "stateMutability": "view",
      "type": "function"
    },
    {
      "inputs": [
        {
          "internalType": "uint256",
          "name": "tokenId",
          "type": "uint256"
        }
      ],
      "name": "getApprovedForResources",
      "outputs": [
        {
          "internalType": "address",
          "name": "",
          "type": "address"
        }
      ],
      "stateMutability": "view",
      "type": "function"
    },
    {
      "inputs": [],
      "name": "getFallbackURI",
      "outputs": [
        {
          "internalType": "string",
          "name": "",
          "type": "string"
        }
      ],
      "stateMutability": "view",
      "type": "function"
    },
    {
      "inputs": [
        {
          "internalType": "uint256",
          "name": "tokenId",
          "type": "uint256"
        }
      ],
      "name": "getFullPendingResources",
      "outputs": [
        {
          "components": [
            {
              "internalType": "uint64",
              "name": "id",
              "type": "uint64"
            },
            {
              "internalType": "string",
              "name": "metadataURI",
              "type": "string"
            }
          ],
          "internalType": "struct IRMRKMultiResource.Resource[]",
          "name": "",
          "type": "tuple[]"
        }
      ],
      "stateMutability": "view",
      "type": "function"
    },
    {
      "inputs": [
        {
          "internalType": "uint256",
          "name": "tokenId",
          "type": "uint256"
        }
      ],
      "name": "getFullResources",
      "outputs": [
        {
          "components": [
            {
              "internalType": "uint64",
              "name": "id",
              "type": "uint64"
            },
            {
              "internalType": "string",
              "name": "metadataURI",
              "type": "string"
            }
          ],
          "internalType": "struct IRMRKMultiResource.Resource[]",
          "name": "",
          "type": "tuple[]"
        }
      ],
      "stateMutability": "view",
      "type": "function"
    },
    {
      "inputs": [],
      "name": "getLock",
      "outputs": [
        {
          "internalType": "bool",
          "name": "",
          "type": "bool"
        }
      ],
      "stateMutability": "view",
      "type": "function"
    },
    {
      "inputs": [
        {
          "internalType": "uint256",
          "name": "tokenId",
          "type": "uint256"
        },
        {
          "internalType": "uint256",
          "name": "index",
          "type": "uint256"
        }
      ],
      "name": "getPendingResObjectByIndex",
      "outputs": [
        {
          "components": [
            {
              "internalType": "uint64",
              "name": "id",
              "type": "uint64"
            },
            {
              "internalType": "string",
              "name": "metadataURI",
              "type": "string"
            }
          ],
          "internalType": "struct IRMRKMultiResource.Resource",
          "name": "",
          "type": "tuple"
        }
      ],
      "stateMutability": "view",
      "type": "function"
    },
    {
      "inputs": [
        {
          "internalType": "uint256",
          "name": "tokenId",
          "type": "uint256"
        }
      ],
      "name": "getPendingResources",
      "outputs": [
        {
          "internalType": "uint64[]",
          "name": "",
          "type": "uint64[]"
        }
      ],
      "stateMutability": "view",
      "type": "function"
    },
    {
      "inputs": [
        {
          "internalType": "uint256",
          "name": "tokenId",
          "type": "uint256"
        },
        {
          "internalType": "uint256",
          "name": "index",
          "type": "uint256"
        }
      ],
      "name": "getResObjectByIndex",
      "outputs": [
        {
          "components": [
            {
              "internalType": "uint64",
              "name": "id",
              "type": "uint64"
            },
            {
              "internalType": "string",
              "name": "metadataURI",
              "type": "string"
            }
          ],
          "internalType": "struct IRMRKMultiResource.Resource",
          "name": "",
          "type": "tuple"
        }
      ],
      "stateMutability": "view",
      "type": "function"
    },
    {
      "inputs": [
        {
          "internalType": "uint64",
          "name": "resourceId",
          "type": "uint64"
        }
      ],
      "name": "getResource",
      "outputs": [
        {
          "components": [
            {
              "internalType": "uint64",
              "name": "id",
              "type": "uint64"
            },
            {
              "internalType": "string",
              "name": "metadataURI",
              "type": "string"
            }
          ],
          "internalType": "struct IRMRKMultiResource.Resource",
          "name": "",
          "type": "tuple"
        }
      ],
      "stateMutability": "view",
      "type": "function"
    },
    {
      "inputs": [
        {
          "internalType": "uint256",
          "name": "tokenId",
          "type": "uint256"
        },
        {
          "internalType": "uint64",
          "name": "resourceId",
          "type": "uint64"
        }
      ],
      "name": "getResourceOverwrites",
      "outputs": [
        {
          "internalType": "uint64",
          "name": "",
          "type": "uint64"
        }
      ],
      "stateMutability": "view",
      "type": "function"
    },
    {
      "inputs": [
        {
          "internalType": "address",
          "name": "owner",
          "type": "address"
        },
        {
          "internalType": "address",
          "name": "operator",
          "type": "address"
        }
      ],
      "name": "isApprovedForAll",
      "outputs": [
        {
          "internalType": "bool",
          "name": "",
          "type": "bool"
        }
      ],
      "stateMutability": "view",
      "type": "function"
    },
    {
      "inputs": [
        {
          "internalType": "address",
          "name": "owner",
          "type": "address"
        },
        {
          "internalType": "address",
          "name": "operator",
          "type": "address"
        }
      ],
      "name": "isApprovedForAllForResources",
      "outputs": [
        {
          "internalType": "bool",
          "name": "",
          "type": "bool"
        }
      ],
      "stateMutability": "view",
      "type": "function"
    },
    {
      "inputs": [
        {
          "internalType": "uint64",
          "name": "resourceId",
          "type": "uint64"
        }
      ],
      "name": "isTokenEnumeratedResource",
      "outputs": [
        {
          "internalType": "bool",
          "name": "",
          "type": "bool"
        }
      ],
      "stateMutability": "view",
      "type": "function"
    },
    {
      "inputs": [],
      "name": "maxSupply",
      "outputs": [
        {
          "internalType": "uint256",
          "name": "",
          "type": "uint256"
        }
      ],
      "stateMutability": "view",
      "type": "function"
    },
    {
      "inputs": [
        {
          "internalType": "address",
          "name": "to",
          "type": "address"
        },
        {
          "internalType": "uint256",
          "name": "numToMint",
          "type": "uint256"
        }
      ],
      "name": "mint",
      "outputs": [],
      "stateMutability": "payable",
      "type": "function"
    },
    {
      "inputs": [],
      "name": "name",
      "outputs": [
        {
          "internalType": "string",
          "name": "",
          "type": "string"
        }
      ],
      "stateMutability": "view",
      "type": "function"
    },
    {
      "inputs": [],
      "name": "owner",
      "outputs": [
        {
          "internalType": "address",
          "name": "",
          "type": "address"
        }
      ],
      "stateMutability": "view",
      "type": "function"
    },
    {
      "inputs": [
        {
          "internalType": "uint256",
          "name": "tokenId",
          "type": "uint256"
        }
      ],
      "name": "ownerOf",
      "outputs": [
        {
          "internalType": "address",
          "name": "",
          "type": "address"
        }
      ],
      "stateMutability": "view",
      "type": "function"
    },
    {
      "inputs": [],
      "name": "pricePerMint",
      "outputs": [
        {
          "internalType": "uint256",
          "name": "",
          "type": "uint256"
        }
      ],
      "stateMutability": "view",
      "type": "function"
    },
    {
      "inputs": [
        {
          "internalType": "uint256",
          "name": "tokenId",
          "type": "uint256"
        }
      ],
      "name": "rejectAllResources",
      "outputs": [],
      "stateMutability": "nonpayable",
      "type": "function"
    },
    {
      "inputs": [
        {
          "internalType": "uint256",
          "name": "tokenId",
          "type": "uint256"
        },
        {
          "internalType": "uint256",
          "name": "index",
          "type": "uint256"
        }
      ],
      "name": "rejectResource",
      "outputs": [],
      "stateMutability": "nonpayable",
      "type": "function"
    },
    {
      "inputs": [],
      "name": "renounceOwnership",
      "outputs": [],
      "stateMutability": "nonpayable",
      "type": "function"
    },
    {
      "inputs": [
        {
          "internalType": "address",
          "name": "from",
          "type": "address"
        },
        {
          "internalType": "address",
          "name": "to",
          "type": "address"
        },
        {
          "internalType": "uint256",
          "name": "tokenId",
          "type": "uint256"
        }
      ],
      "name": "safeTransferFrom",
      "outputs": [],
      "stateMutability": "nonpayable",
      "type": "function"
    },
    {
      "inputs": [
        {
          "internalType": "address",
          "name": "from",
          "type": "address"
        },
        {
          "internalType": "address",
          "name": "to",
          "type": "address"
        },
        {
          "internalType": "uint256",
          "name": "tokenId",
          "type": "uint256"
        },
        {
          "internalType": "bytes",
          "name": "data",
          "type": "bytes"
        }
      ],
      "name": "safeTransferFrom",
      "outputs": [],
      "stateMutability": "nonpayable",
      "type": "function"
    },
    {
      "inputs": [
        {
          "internalType": "address",
          "name": "operator",
          "type": "address"
        },
        {
          "internalType": "bool",
          "name": "approved",
          "type": "bool"
        }
      ],
      "name": "setApprovalForAll",
      "outputs": [],
      "stateMutability": "nonpayable",
      "type": "function"
    },
    {
      "inputs": [
        {
          "internalType": "address",
          "name": "operator",
          "type": "address"
        },
        {
          "internalType": "bool",
          "name": "approved",
          "type": "bool"
        }
      ],
      "name": "setApprovalForAllForResources",
      "outputs": [],
      "stateMutability": "nonpayable",
      "type": "function"
    },
    {
      "inputs": [
        {
          "internalType": "string",
          "name": "fallbackURI",
          "type": "string"
        }
      ],
      "name": "setFallbackURI",
      "outputs": [],
      "stateMutability": "nonpayable",
      "type": "function"
    },
    {
      "inputs": [],
      "name": "setLock",
      "outputs": [],
      "stateMutability": "nonpayable",
      "type": "function"
    },
    {
      "inputs": [
        {
          "internalType": "uint256",
          "name": "tokenId",
          "type": "uint256"
        },
        {
          "internalType": "uint16[]",
          "name": "priorities",
          "type": "uint16[]"
        }
      ],
      "name": "setPriority",
      "outputs": [],
      "stateMutability": "nonpayable",
      "type": "function"
    },
    {
      "inputs": [
        {
          "internalType": "uint64",
          "name": "resourceId",
          "type": "uint64"
        },
        {
          "internalType": "bool",
          "name": "state",
          "type": "bool"
        }
      ],
      "name": "setTokenEnumeratedResource",
      "outputs": [],
      "stateMutability": "nonpayable",
      "type": "function"
    },
    {
      "inputs": [
        {
          "internalType": "bytes4",
          "name": "interfaceId",
          "type": "bytes4"
        }
      ],
      "name": "supportsInterface",
      "outputs": [
        {
          "internalType": "bool",
          "name": "",
          "type": "bool"
        }
      ],
      "stateMutability": "view",
      "type": "function"
    },
    {
      "inputs": [],
      "name": "symbol",
      "outputs": [
        {
          "internalType": "string",
          "name": "",
          "type": "string"
        }
      ],
      "stateMutability": "view",
      "type": "function"
    },
    {
      "inputs": [
        {
          "internalType": "uint256",
          "name": "tokenId",
          "type": "uint256"
        }
      ],
      "name": "tokenURI",
      "outputs": [
        {
          "internalType": "string",
          "name": "",
          "type": "string"
        }
      ],
      "stateMutability": "view",
      "type": "function"
    },
    {
      "inputs": [
        {
          "internalType": "uint256",
          "name": "tokenId",
          "type": "uint256"
        },
        {
          "internalType": "uint256",
          "name": "index",
          "type": "uint256"
        }
      ],
      "name": "tokenURIAtIndex",
      "outputs": [
        {
          "internalType": "string",
          "name": "",
          "type": "string"
        }
      ],
      "stateMutability": "view",
      "type": "function"
    },
    {
      "inputs": [],
      "name": "totalResources",
      "outputs": [
        {
          "internalType": "uint256",
          "name": "",
          "type": "uint256"
        }
      ],
      "stateMutability": "view",
      "type": "function"
    },
    {
      "inputs": [],
      "name": "totalSupply",
      "outputs": [
        {
          "internalType": "uint256",
          "name": "",
          "type": "uint256"
        }
      ],
      "stateMutability": "view",
      "type": "function"
    },
    {
      "inputs": [
        {
          "internalType": "address",
          "name": "from",
          "type": "address"
        },
        {
          "internalType": "address",
          "name": "to",
          "type": "address"
        },
        {
          "internalType": "uint256",
          "name": "tokenId",
          "type": "uint256"
        }
      ],
      "name": "transferFrom",
      "outputs": [],
      "stateMutability": "nonpayable",
      "type": "function"
    },
    {
      "inputs": [
        {
          "internalType": "address",
          "name": "newOwner",
          "type": "address"
        }
      ],
      "name": "transferOwnership",
      "outputs": [],
      "stateMutability": "nonpayable",
      "type": "function"
    }
  ],
  "bytecode": "0x60c06040523480156200001157600080fd5b506040516200372a3803806200372a833981016040819052620000349162000197565b83838181858562000045336200007a565b60809190915260a05260026200005c8382620002a0565b5060036200006b8282620002a0565b5050505050505050506200036c565b600080546001600160a01b038381166001600160a01b0319831681178455604051919092169283917f8be0079c531659141344cd1fd0a4f28419497f9722a3daafe3b4186f6b6457e09190a35050565b634e487b7160e01b600052604160045260246000fd5b600082601f830112620000f257600080fd5b81516001600160401b03808211156200010f576200010f620000ca565b604051601f8301601f19908116603f011681019082821181831017156200013a576200013a620000ca565b816040528381526020925086838588010111156200015757600080fd5b600091505b838210156200017b57858201830151818301840152908201906200015c565b838211156200018d5760008385830101525b9695505050505050565b60008060008060808587031215620001ae57600080fd5b84516001600160401b0380821115620001c657600080fd5b620001d488838901620000e0565b95506020870151915080821115620001eb57600080fd5b50620001fa87828801620000e0565b604087015160609097015195989097509350505050565b600181811c908216806200022657607f821691505b6020821081036200024757634e487b7160e01b600052602260045260246000fd5b50919050565b601f8211156200029b57600081815260208120601f850160051c81016020861015620002765750805b601f850160051c820191505b81811015620002975782815560010162000282565b5050505b505050565b81516001600160401b03811115620002bc57620002bc620000ca565b620002d481620002cd845462000211565b846200024d565b602080601f8311600181146200030c5760008415620002f35750858301515b600019600386901b1c1916600185901b17855562000297565b600085815260208120601f198616915b828110156200033d578886015182559484019460019091019084016200031c565b50858210156200035c5787850151600019600388901b60f8161c191681555b5050505050600190811b01905550565b60805160a051613383620003a7600039600081816107520152610e020152600081816107a501528181610d240152610daf01526133836000f3fe6080604052600436106102935760003560e01c8063891141d61161015a578063c5610a29116100c1578063e88975701161007a578063e889757014610829578063e985e9c514610849578063ed5fd0f514610892578063f2fde38b146108db578063f64669c3146108fb578063fe679c621461091b57600080fd5b8063c5610a2914610743578063c87b56dd14610776578063d5abeb0114610796578063daf30477146107c9578063dd6433d4146107e9578063e2e286af1461080957600080fd5b8063a221abf311610113578063a221abf314610681578063a22cb465146106ae578063a8cf5564146106ce578063b88d4fde146106ee578063baace33e1461070e578063c48a42431461072357600080fd5b8063891141d6146105cc5780638da5cb5b146105ec57806392401eb61461060a57806393026a601461061f57806395d89b411461063f578063a0eaec431461065457600080fd5b806331c57d13116101fe578063715018a6116101b7578063715018a614610523578063739817dd1461053857806378816134146105585780637aba6f37146105785780637b2e40fa1461058d5780637e5852d9146105ad57600080fd5b806331c57d131461046257806340c10f191461049b57806342842e0e146104ae5780636352211e146104ce57806366f5a747146104ee57806370a082311461050357600080fd5b80630ca01bf8116102505780630ca01bf8146103965780630cc83235146103b6578063135627cd146103d657806318160ddd1461040357806318249af71461042257806323b872dd1461044257600080fd5b806301ffc9a7146102985780630485c741146102cd57806306fdde03146102fa578063081812fc1461031c578063095ea7b314610354578063096835be14610376575b600080fd5b3480156102a457600080fd5b506102b86102b3366004612aa4565b610977565b60405190151581526020015b60405180910390f35b3480156102d957600080fd5b506102ed6102e8366004612ac1565b6109a2565b6040516102c49190612b5a565b34801561030657600080fd5b5061030f610a40565b6040516102c49190612bbc565b34801561032857600080fd5b5061033c610337366004612ac1565b610ad2565b6040516001600160a01b0390911681526020016102c4565b34801561036057600080fd5b5061037461036f366004612beb565b610af9565b005b34801561038257600080fd5b50610374610391366004612c5b565b610b85565b3480156103a257600080fd5b506103746103b1366004612d77565b610b99565b3480156103c257600080fd5b506102ed6103d1366004612ac1565b610be4565b3480156103e257600080fd5b506103f66103f1366004612ac1565b610c51565b6040516102c49190612dbf565b34801561040f57600080fd5b506001545b6040519081526020016102c4565b34801561042e57600080fd5b5061037461043d366004612d77565b610cdb565b34801561044e57600080fd5b5061037461045d366004612e07565b610d0e565b34801561046e57600080fd5b506102b861047d366004612e5a565b6001600160401b03166000908152600e602052604090205460ff1690565b6103746104a9366004612beb565b610d22565b3480156104ba57600080fd5b506103746104c9366004612e07565b610eaa565b3480156104da57600080fd5b5061033c6104e9366004612ac1565b610ec5565b3480156104fa57600080fd5b50601354610414565b34801561050f57600080fd5b5061041461051e366004612e75565b610efb565b34801561052f57600080fd5b50610374610f40565b34801561054457600080fd5b50610374610553366004612e90565b610f76565b34801561056457600080fd5b50610374610573366004612beb565b610f8a565b34801561058457600080fd5b50610374611012565b34801561059957600080fd5b506103746105a8366004612ac1565b611051565b3480156105b957600080fd5b50600054600160a01b900460ff166102b8565b3480156105d857600080fd5b5061033c6105e7366004612ac1565b611068565b3480156105f857600080fd5b506000546001600160a01b031661033c565b34801561061657600080fd5b5061030f61108f565b34801561062b57600080fd5b5061037461063a366004612ec2565b61109e565b34801561064b57600080fd5b5061030f6110f0565b34801561066057600080fd5b5061067461066f366004612ac1565b6110ff565b6040516102c49190612ef5565b34801561068d57600080fd5b506106a161069c366004612e90565b611191565b6040516102c49190612f36565b3480156106ba57600080fd5b506103746106c9366004612f49565b6111dd565b3480156106da57600080fd5b506106a16106e9366004612e90565b6111e8565b3480156106fa57600080fd5b50610374610709366004612f65565b611208565b34801561071a57600080fd5b50610674611223565b34801561072f57600080fd5b5061037461073e366004612fe0565b6112ac565b34801561074f57600080fd5b507f0000000000000000000000000000000000000000000000000000000000000000610414565b34801561078257600080fd5b5061030f610791366004612ac1565b611313565b3480156107a257600080fd5b507f0000000000000000000000000000000000000000000000000000000000000000610414565b3480156107d557600080fd5b5061030f6107e4366004612e90565b61131e565b3480156107f557600080fd5b50610374610804366004612e90565b61132a565b34801561081557600080fd5b506106a1610824366004612e5a565b61133e565b34801561083557600080fd5b50610374610844366004612f49565b611440565b34801561085557600080fd5b506102b861086436600461301c565b6001600160a01b03918216600090815260076020908152604080832093909416825291909152205460ff1690565b34801561089e57600080fd5b506102b86108ad36600461301c565b6001600160a01b03918216600090815260126020908152604080832093909416825291909152205460ff1690565b3480156108e757600080fd5b506103746108f6366004612e75565b611475565b34801561090757600080fd5b50610674610916366004612ac1565b61150d565b34801561092757600080fd5b5061095f610936366004613046565b60009182526009602090815260408084206001600160401b039384168552909152909120541690565b6040516001600160401b0390911681526020016102c4565b60006001600160e01b03198216632ed6cc6560e21b148061099c575061099c82611576565b92915050565b6000818152600d60209081526040808320805482518185028101850190935280835260609493830182828015610a2957602002820191906000526020600020906000905b82829054906101000a90046001600160401b03166001600160401b0316815260200190600801906020826007010492830192600103820291508084116109e65790505b50505050509050610a39816115c6565b9392505050565b606060028054610a4f90613069565b80601f0160208091040260200160405190810160405280929190818152602001828054610a7b90613069565b8015610ac85780601f10610a9d57610100808354040283529160200191610ac8565b820191906000526020600020905b815481529060010190602001808311610aab57829003601f168201915b5050505050905090565b6000610add82611688565b506000908152600660205260409020546001600160a01b031690565b6000610b0482610ec5565b9050806001600160a01b0316836001600160a01b031603610b3857604051630591db6d60e01b815260040160405180910390fd5b336001600160a01b03821614801590610b585750610b568133610864565b155b15610b7657604051634c12315960e11b815260040160405180910390fd5b610b808383611691565b505050565b81610b8f816116ff565b610b808383611726565b6000546001600160a01b03163314610bcc5760405162461bcd60e51b8152600401610bc3906130a3565b60405180910390fd5b6013805460010190819055610be190826117a6565b50565b6000818152600a60209081526040808320805482518185028101850190935280835260609493830182828015610a2957600091825260209182902080546001600160401b031684529082028301929091600891018084116109e657905050505050509050610a39816115c6565b6000818152600b6020908152604091829020805483518184028101840190945280845260609392830182828015610ccf57602002820191906000526020600020906000905b82829054906101000a900461ffff1661ffff1681526020019060020190602082600101049283019260010382029150808411610c965790505b50505050509050919050565b6000546001600160a01b03163314610d055760405162461bcd60e51b8152600401610bc3906130a3565b610be1816118f7565b610d1781611903565b610b8083838361192a565b7f000000000000000000000000000000000000000000000000000000000000000060015410610d6457604051635e91cdfb60e11b815260040160405180910390fd5b600054600160a01b900460ff1615610d8f5760405163ed1fa96f60e01b815260040160405180910390fd5b80610dad5760405163376bec4d60e01b815260040160405180910390fd5b7f000000000000000000000000000000000000000000000000000000000000000060015482610ddc91906130ee565b1115610dfb57604051635e91cdfb60e11b815260040160405180910390fd5b6000610e277f000000000000000000000000000000000000000000000000000000000000000083613106565b9050348114610e495760405163f2ffecad60e01b815260040160405180910390fd5b60006001546001610e5a91906130ee565b90508260016000828254610e6e91906130ee565b909155505060018054600091610e8491906130ee565b9050815b81811015610ea257610e9a8682611a5d565b600101610e88565b505050505050565b610b8083838360405180602001604052806000815250611208565b6000818152600460205260408120546001600160a01b03168061099c5760405163089ba7e160e41b815260040160405180910390fd5b60006001600160a01b038216610f2457604051633bb9143360e11b815260040160405180910390fd5b506001600160a01b031660009081526005602052604090205490565b6000546001600160a01b03163314610f6a5760405162461bcd60e51b8152600401610bc3906130a3565b610f746000611a77565b565b81610f80816116ff565b610b808383611ac7565b6000610f9582610ec5565b9050806001600160a01b0316836001600160a01b031603610fc957604051639efa161160e01b815260040160405180910390fd5b336001600160a01b03821614801590610fe95750610fe781336108ad565b155b1561100757604051635d84267760e11b815260040160405180910390fd5b610b80818484611cc5565b6000546001600160a01b0316331461103c5760405162461bcd60e51b8152600401610bc3906130a3565b6000805460ff60a01b1916600160a01b179055565b8061105b816116ff565b61106482611d21565b5050565b600061107382611688565b506000908152601160205260409020546001600160a01b031690565b606060108054610a4f90613069565b6000546001600160a01b031633146110c85760405162461bcd60e51b8152600401610bc3906130a3565b6001600160401b0382166000908152600e60205260409020805460ff19168215151790555050565b606060038054610a4f90613069565b6000818152600a6020908152604091829020805483518184028101840190945280845260609392830182828015610ccf57602002820191906000526020600020906000905b82829054906101000a90046001600160401b03166001600160401b031681526020019060080190602082600701049283019260010382029150808411611144575094979650505050505050565b60408051808201909152600081526060602082015260006111b18461150d565b83815181106111c2576111c2613125565b602002602001015190506111d58161133e565b949350505050565b611064338383611dff565b60408051808201909152600081526060602082015260006111b1846110ff565b61121182611903565b61121d84848484611e9f565b50505050565b6060600f805480602002602001604051908101604052809291908181526020018280548015610ac857602002820191906000526020600020906000905b82829054906101000a90046001600160401b03166001600160401b0316815260200190600801906020826007010492830192600103820291508084116112605790505050505050905090565b6000546001600160a01b031633146112d65760405162461bcd60e51b8152600401610bc3906130a3565b60006112e184610ec5565b6001600160a01b0316036113085760405163089ba7e160e41b815260040160405180910390fd5b610b80838383611ed3565b606061099c826120a6565b6060610a3983836120af565b81611334816116ff565b610b80838361223a565b604080518082018252600080825260606020808401919091526001600160401b0385811683526008825284832085518087019096528054909116855260018101805494959394919284019161139290613069565b80601f01602080910402602001604051908101604052809291908181526020018280546113be90613069565b801561140b5780601f106113e05761010080835404028352916020019161140b565b820191906000526020600020905b8154815290600101906020018083116113ee57829003601f168201915b5050509190925250508151919250506001600160401b031661099c576040516348e2e83760e01b815260040160405180910390fd5b336001600160a01b038316810361146a5760405163353c229360e11b815260040160405180910390fd5b610b80818484612345565b6000546001600160a01b0316331461149f5760405162461bcd60e51b8152600401610bc3906130a3565b6001600160a01b0381166115045760405162461bcd60e51b815260206004820152602660248201527f4f776e61626c653a206e6577206f776e657220697320746865207a65726f206160448201526564647265737360d01b6064820152608401610bc3565b610be181611a77565b6000818152600d6020908152604091829020805483518184028101840190945280845260609392830182828015610ccf57600091825260209182902080546001600160401b03168452908202830192909160089101808411611144575094979650505050505050565b60006001600160e01b031982166380ac58cd60e01b14806115a757506001600160e01b03198216635b5e139f60e01b145b8061099c57506301ffc9a760e01b6001600160e01b031983161461099c565b80516060906000816001600160401b038111156115e5576115e5612c15565b60405190808252806020026020018201604052801561162b57816020015b6040805180820190915260008152606060208201528152602001906001900390816116035790505b50905060005b828110156116805761165b85828151811061164e5761164e613125565b602002602001015161133e565b82828151811061166d5761166d613125565b6020908102919091010152600101611631565b509392505050565b610be1816123aa565b600081815260066020526040902080546001600160a01b0319166001600160a01b03841690811790915581906116c682610ec5565b6001600160a01b03167f8c5be1e5ebec7d5bd14f71427d1e84f3dd0314c0f7b2291e5b200ac8c7c3b92560405160405180910390a45050565b61170933826123d0565b610be15760405163eabb6dd760e01b815260040160405180910390fd5b80516000838152600a6020526040902054811461175657604051633581be1d60e11b815260040160405180910390fd5b6000838152600b602090815260409091208351611775928501906129af565b5060405183907f50a12ecfcaf26b91454fd23edbcf04185b68d6e8c7edc4e35d14392889cdf79590600090a2505050565b6001600160401b0382166117cd5760405163280d806360e01b815260040160405180910390fd5b6001600160401b03828116600090815260086020526040902054161561180657604051633348dd1d60e01b815260040160405180910390fd5b6040805180820182526001600160401b038481168083526020808401868152600092835260089091529390208251815467ffffffffffffffff19169216919091178155915190918291600182019061185e9082613181565b5050600f8054600181018255600091909152600481047f8d1108e10bcb7c27dddfc02ed9d693a074039d026cf4ea4240b40f7d581ac8020180546001600160401b0387811660086003909516949094026101000a8481029102199091161790556040519081527f8a5ccfca4023cda4a0a59a1bb73783f6b3ba77465537d0c8f2bef5eb2511552a915060200160405180910390a1505050565b60106110648282613181565b61190d338261244e565b610be1576040516302728a9d60e41b815260040160405180910390fd5b826001600160a01b031661193d82610ec5565b6001600160a01b0316146119645760405163e146af6f60e01b815260040160405180910390fd5b6001600160a01b03821661198b576040516338f646ff60e21b815260040160405180910390fd5b600081815260066020908152604080832080546001600160a01b03191690556001600160a01b0386168352600590915281208054600192906119ce908490613240565b90915550506001600160a01b03821660009081526005602052604081208054600192906119fc9084906130ee565b909155505060008181526004602052604080822080546001600160a01b0319166001600160a01b0386811691821790925591518493918716917fddf252ad1be2c89b69c2b068fc378daa952ba7f163c4a11628f55a4df523b3ef91a4505050565b6110648282604051806020016040528060008152506124ba565b600080546001600160a01b038381166001600160a01b0319831681178455604051919092169283917f8be0079c531659141344cd1fd0a4f28419497f9722a3daafe3b4186f6b6457e09190a35050565b6000828152600d60205260409020548110611af557604051630757d52160e01b815260040160405180910390fd5b6000828152600d60205260408120805483908110611b1557611b15613125565b60009182526020808320600483040154868452600d909152604090922060039091166008026101000a9091046001600160401b03169150611b5690836124ee565b60008381526009602090815260408083206001600160401b038086168552925290912054168015611c09576000848152600a60205260409020611b9990826125d4565b6040516001600160401b038216815284907f0c3ab9436ca1f55688a28969e7eac425945dded8cc4acf7f4e738cfa6fa1657c9060200160405180910390a260008481526009602090815260408083206001600160401b03861684529091529020805467ffffffffffffffff191690555b6000848152600a6020908152604080832080546001808201835591855283852060048204018054600390921660080261010090810a6001600160401b0381810219909416938a1690810293909317909155898652600b85528386208054938401815586529484902060108304018054600f90931660020290950a61ffff02199091169093555191825285917f51e9958189f528b912f96508d6a4b68583858166eda14d580dfbd24e9a79dfdb910160405180910390a250505050565b60008181526011602052604080822080546001600160a01b0319166001600160a01b0386811691821790925591518493918716917fa98c62723e75b26c5e5710fb12b5bf7712e6926f6dc932de622e715553f5149191a4505050565b6000818152600d6020526040812054905b81811015611dad576000838152600d60205260408120805483908110611d5a57611d5a613125565b6000918252602080832060048304015487845260098252604080852060039094166008026101000a9091046001600160401b031684529190529020805467ffffffffffffffff1916905550600101611d32565b506000828152600d60205260408120611dc591612a58565b6040516000815282907f8d0cdca57de6b2fb4babd8b68c83db0b0981610d338eb68eea1f4b1e1d78dc1c9060200160405180910390a25050565b816001600160a01b0316836001600160a01b031603611e3157604051630b7b99b960e21b815260040160405180910390fd5b6001600160a01b03838116600081815260076020908152604080832094871680845294825291829020805460ff191686151590811790915591519182527f17307eab39ab6107e8899845ad3d59bd9653f200f220920489ca2b5937696c3191015b60405180910390a3505050565b611eaa84848461192a565b611eb6848484846126b9565b61121d5760405163bcb5663760e01b815260040160405180910390fd5b6000838152600c602090815260408083206001600160401b038616845290915290205460ff1615611f1757604051633348dd1d60e01b815260040160405180910390fd5b6000611f228361133e565b516001600160401b031603611f4a57604051630f8f451560e01b815260040160405180910390fd5b6000838152600d6020526040902054608011611f795760405163dfaea09b60e01b815260040160405180910390fd5b6000838152600c602090815260408083206001600160401b038681168086529184528285208054600160ff199091168117909155888652600d8552928520805493840181558552929093206004820401805460039092166008026101000a8084021990921691909302179091558116156120625760008381526009602090815260408083206001600160401b0386811680865291845293829020805467ffffffffffffffff1916948616948517905581519081529182019290925284917fe76caab2912f68cd628bc085e006c86b8a478d13be698638b0c533030d120b4e910160405180910390a25b6040516001600160401b038316815283907ffc4d0a03f3026d7ce3427493c9289ea9768a6edd425e854cea7600d244ecc2c3906020015b60405180910390a2505050565b606061099c8260005b6000828152600a60205260409020546060908210156121a8576000838152600a602052604081208054849081106120e8576120e8613125565b90600052602060002090600491828204019190066008029054906101000a90046001600160401b03169050606060006121208361133e565b6001600160401b0384166000908152600e602052604090205490915060ff1661214f578060200151915061219e565b6020810151805161216f576040518060200160405280600081525061219a565b80612179886127bb565b60405160200161218a929190613257565b6040516020818303038152906040525b9250505b50915061099c9050565b601080546121b590613069565b80601f01602080910402602001604051908101604052809291908181526020018280546121e190613069565b801561222e5780601f106122035761010080835404028352916020019161222e565b820191906000526020600020905b81548152906001019060200180831161221157829003601f168201915b5050505050905061099c565b6000828152600d6020526040902054811061226857604051630757d52160e01b815260040160405180910390fd5b6000828152600d6020526040812080548390811061228857612288613125565b60009182526020808320600483040154868452600d909152604090922060039091166008026101000a9091046001600160401b031691506122c990836124ee565b6000838152600c602090815260408083206001600160401b038516808552908352818420805460ff1916905586845260098352818420818552835292819020805467ffffffffffffffff191690555191825284917f8d0cdca57de6b2fb4babd8b68c83db0b0981610d338eb68eea1f4b1e1d78dc1c9101612099565b6001600160a01b03838116600081815260126020908152604080832094871680845294825291829020805460ff191686151590811790915591519182527f9c03d4f9a8db6d81765cbe2097e83f44253564fbf3c1adfb09a8067464ad3f4b9101611e92565b6123b3816128bb565b610be15760405163089ba7e160e41b815260040160405180910390fd5b6000806123dc83610ec5565b9050806001600160a01b0316846001600160a01b0316148061242357506001600160a01b0380821660009081526012602090815260408083209388168352929052205460ff165b806111d55750836001600160a01b031661243c84611068565b6001600160a01b031614949350505050565b60008061245a83610ec5565b9050806001600160a01b0316846001600160a01b031614806124a157506001600160a01b0380821660009081526007602090815260408083209388168352929052205460ff165b806111d55750836001600160a01b031661243c84610ad2565b6124c483836128da565b6124d160008484846126b9565b610b805760405163bcb5663760e01b815260040160405180910390fd5b815481106124fb57600080fd5b8154829061250b90600190613240565b8154811061251b5761251b613125565b90600052602060002090600491828204019190066008029054906101000a90046001600160401b031682828154811061255657612556613125565b90600052602060002090600491828204019190066008026101000a8154816001600160401b0302191690836001600160401b031602179055508180548061259f5761259f613286565b60008281526020902060046000199092019182040180546001600160401b03600860038516026101000a021916905590555050565b60008280548060200260200160405190810160405280929190818152602001828054801561265357602002820191906000526020600020906000905b82829054906101000a90046001600160401b03166001600160401b0316815260200190600801906020826007010492830192600103820291508084116126105790505b505083519394506000925050505b818110156126b257836001600160401b031683828151811061268557612685613125565b60200260200101516001600160401b0316036126aa576126a585826124ee565b6126b2565b600101612661565b5050505050565b60006001600160a01b0384163b156127b057604051630a85bd0160e11b81526001600160a01b0385169063150b7a02906126fd90339089908890889060040161329c565b6020604051808303816000875af1925050508015612738575060408051601f3d908101601f19168201909252612735918101906132d9565b60015b612796573d808015612766576040519150601f19603f3d011682016040523d82523d6000602084013e61276b565b606091505b50805160000361278e5760405163bcb5663760e01b815260040160405180910390fd5b805181602001fd5b6001600160e01b031916630a85bd0160e11b1490506111d5565b506001949350505050565b6060816000036127e25750506040805180820190915260018152600360fc1b602082015290565b8160005b811561280c57806127f6816132f6565b91506128059050600a83613325565b91506127e6565b6000816001600160401b0381111561282657612826612c15565b6040519080825280601f01601f191660200182016040528015612850576020820181803683370190505b5090505b84156111d557612865600183613240565b9150612872600a86613339565b61287d9060306130ee565b60f81b81838151811061289257612892613125565b60200101906001600160f81b031916908160001a9053506128b4600a86613325565b9450612854565b6000818152600460205260408120546001600160a01b0316151561099c565b6001600160a01b038216612901576040516325bd6bd360e01b815260040160405180910390fd5b61290a816128bb565b156129285760405163c5a8d37160e01b815260040160405180910390fd5b6001600160a01b03821660009081526005602052604081208054600192906129519084906130ee565b909155505060008181526004602052604080822080546001600160a01b0319166001600160a01b03861690811790915590518392907fddf252ad1be2c89b69c2b068fc378daa952ba7f163c4a11628f55a4df523b3ef908290a45050565b82805482825590600052602060002090600f01601090048101928215612a485791602002820160005b83821115612a1857835183826101000a81548161ffff021916908361ffff16021790555092602001926002016020816001010492830192600103026129d8565b8015612a465782816101000a81549061ffff0219169055600201602081600101049283019260010302612a18565b505b50612a54929150612a79565b5090565b508054600082556003016004900490600052602060002090810190610be191905b5b80821115612a545760008155600101612a7a565b6001600160e01b031981168114610be157600080fd5b600060208284031215612ab657600080fd5b8135610a3981612a8e565b600060208284031215612ad357600080fd5b5035919050565b60005b83811015612af5578181015183820152602001612add565b8381111561121d5750506000910152565b60008151808452612b1e816020860160208601612ada565b601f01601f19169290920160200192915050565b6001600160401b03815116825260006020820151604060208501526111d56040850182612b06565b6000602080830181845280855180835260408601915060408160051b870101925083870160005b82811015612baf57603f19888603018452612b9d858351612b32565b94509285019290850190600101612b81565b5092979650505050505050565b602081526000610a396020830184612b06565b80356001600160a01b0381168114612be657600080fd5b919050565b60008060408385031215612bfe57600080fd5b612c0783612bcf565b946020939093013593505050565b634e487b7160e01b600052604160045260246000fd5b604051601f8201601f191681016001600160401b0381118282101715612c5357612c53612c15565b604052919050565b60008060408385031215612c6e57600080fd5b823591506020808401356001600160401b0380821115612c8d57600080fd5b818601915086601f830112612ca157600080fd5b813581811115612cb357612cb3612c15565b8060051b9150612cc4848301612c2b565b8181529183018401918481019089841115612cde57600080fd5b938501935b83851015612d10578435925061ffff83168314612d005760008081fd5b8282529385019390850190612ce3565b8096505050505050509250929050565b60006001600160401b03831115612d3957612d39612c15565b612d4c601f8401601f1916602001612c2b565b9050828152838383011115612d6057600080fd5b828260208301376000602084830101529392505050565b600060208284031215612d8957600080fd5b81356001600160401b03811115612d9f57600080fd5b8201601f81018413612db057600080fd5b6111d584823560208401612d20565b6020808252825182820181905260009190848201906040850190845b81811015612dfb57835161ffff1683529284019291840191600101612ddb565b50909695505050505050565b600080600060608486031215612e1c57600080fd5b612e2584612bcf565b9250612e3360208501612bcf565b9150604084013590509250925092565b80356001600160401b0381168114612be657600080fd5b600060208284031215612e6c57600080fd5b610a3982612e43565b600060208284031215612e8757600080fd5b610a3982612bcf565b60008060408385031215612ea357600080fd5b50508035926020909101359150565b80358015158114612be657600080fd5b60008060408385031215612ed557600080fd5b612ede83612e43565b9150612eec60208401612eb2565b90509250929050565b6020808252825182820181905260009190848201906040850190845b81811015612dfb5783516001600160401b031683529284019291840191600101612f11565b602081526000610a396020830184612b32565b60008060408385031215612f5c57600080fd5b612ede83612bcf565b60008060008060808587031215612f7b57600080fd5b612f8485612bcf565b9350612f9260208601612bcf565b92506040850135915060608501356001600160401b03811115612fb457600080fd5b8501601f81018713612fc557600080fd5b612fd487823560208401612d20565b91505092959194509250565b600080600060608486031215612ff557600080fd5b8335925061300560208501612e43565b915061301360408501612e43565b90509250925092565b6000806040838503121561302f57600080fd5b61303883612bcf565b9150612eec60208401612bcf565b6000806040838503121561305957600080fd5b82359150612eec60208401612e43565b600181811c9082168061307d57607f821691505b60208210810361309d57634e487b7160e01b600052602260045260246000fd5b50919050565b6020808252818101527f4f776e61626c653a2063616c6c6572206973206e6f7420746865206f776e6572604082015260600190565b634e487b7160e01b600052601160045260246000fd5b60008219821115613101576131016130d8565b500190565b6000816000190483118215151615613120576131206130d8565b500290565b634e487b7160e01b600052603260045260246000fd5b601f821115610b8057600081815260208120601f850160051c810160208610156131625750805b601f850160051c820191505b81811015610ea25782815560010161316e565b81516001600160401b0381111561319a5761319a612c15565b6131ae816131a88454613069565b8461313b565b602080601f8311600181146131e357600084156131cb5750858301515b600019600386901b1c1916600185901b178555610ea2565b600085815260208120601f198616915b82811015613212578886015182559484019460019091019084016131f3565b50858210156132305787850151600019600388901b60f8161c191681555b5050505050600190811b01905550565b600082821015613252576132526130d8565b500390565b60008351613269818460208801612ada565b83519083019061327d818360208801612ada565b01949350505050565b634e487b7160e01b600052603160045260246000fd5b6001600160a01b03858116825284166020820152604081018390526080606082018190526000906132cf90830184612b06565b9695505050505050565b6000602082840312156132eb57600080fd5b8151610a3981612a8e565b600060018201613308576133086130d8565b5060010190565b634e487b7160e01b600052601260045260246000fd5b6000826133345761333461330f565b500490565b6000826133485761334861330f565b50069056fea26469706673582212201565c30316e3128ab1cb6527ddc387700851f4048e45eabf9c67fd37fddfdd3f64736f6c634300080f0033",
  "linkReferences": {},
  "deployedLinkReferences": {}
}