{
  "_format": "hh-sol-artifact-1",
  "contractName": "RMRKMultiResourceFactory",
  "sourceName": "contracts/factory/RMRKMultiResourceFactory.sol",
  "abi": [
    {
      "anonymous": false,
      "inputs": [
        {
          "indexed": true,
          "internalType": "address",
          "name": "multiResourceContract",
          "type": "address"
        },
        {
          "indexed": true,
          "internalType": "address",
          "name": "deployer",
          "type": "address"
        }
      ],
      "name": "NewRMRKMultiResourceContract",
      "type": "event"
    },
    {
      "inputs": [
        {
          "internalType": "string",
          "name": "name",
          "type": "string"
        },
        {
          "internalType": "string",
          "name": "symbol",
          "type": "string"
        },
        {
          "internalType": "uint256",
          "name": "maxSupply",
          "type": "uint256"
        },
        {
          "internalType": "uint256",
          "name": "pricePerMint",
          "type": "uint256"
        }
      ],
      "name": "deployRMRKMultiResource",
      "outputs": [],
      "stateMutability": "nonpayable",
      "type": "function"
    },
    {
      "inputs": [
        {
          "internalType": "uint256",
          "name": "",
          "type": "uint256"
        }
      ],
      "name": "multiResourceNftCollections",
      "outputs": [
        {
          "internalType": "address",
          "name": "",
          "type": "address"
        }
      ],
      "stateMutability": "view",
      "type": "function"
    }
  ],
  "bytecode": "0x608060405234801561001057600080fd5b50614524806100206000396000f3fe608060405234801561001057600080fd5b50600436106100365760003560e01c80630f1666bd1461003b5780639dea3bc814610050575b600080fd5b61004e610049366004610214565b61007f565b005b61006361005e366004610288565b61013a565b6040516001600160a01b03909116815260200160405180910390f35b60008484848460405161009190610164565b61009e94939291906102ee565b604051809103906000f0801580156100ba573d6000803e3d6000fd5b50600080546001810182558180527f290decd9548b62a8d60345a988386fc84ba6bc95484008f6362f93160ef3e5630180546001600160a01b0319166001600160a01b038416908117909155604051929350339290917fa6314d81fc08fcf1a4f4f3db71909a31bd5435f31ee6f52c19dc79d9acabd25291a35050505050565b6000818154811061014a57600080fd5b6000918252602090912001546001600160a01b0316905081565b6141c78061032883390190565b634e487b7160e01b600052604160045260246000fd5b600082601f83011261019857600080fd5b813567ffffffffffffffff808211156101b3576101b3610171565b604051601f8301601f19908116603f011681019082821181831017156101db576101db610171565b816040528381528660208588010111156101f457600080fd5b836020870160208301376000602085830101528094505050505092915050565b6000806000806080858703121561022a57600080fd5b843567ffffffffffffffff8082111561024257600080fd5b61024e88838901610187565b9550602087013591508082111561026457600080fd5b5061027187828801610187565b949794965050505060408301359260600135919050565b60006020828403121561029a57600080fd5b5035919050565b6000815180845260005b818110156102c7576020818501810151868301820152016102ab565b818111156102d9576000602083870101525b50601f01601f19169290920160200192915050565b60808152600061030160808301876102a1565b828103602084015261031381876102a1565b60408401959095525050606001529291505056fe60c06040523480156200001157600080fd5b50604051620041c7380380620041c7833981016040819052620000349162000197565b83838181858562000045336200007a565b60809190915260a05260026200005c8382620002a0565b5060036200006b8282620002a0565b5050505050505050506200036c565b600080546001600160a01b038381166001600160a01b0319831681178455604051919092169283917f8be0079c531659141344cd1fd0a4f28419497f9722a3daafe3b4186f6b6457e09190a35050565b634e487b7160e01b600052604160045260246000fd5b600082601f830112620000f257600080fd5b81516001600160401b03808211156200010f576200010f620000ca565b604051601f8301601f19908116603f011681019082821181831017156200013a576200013a620000ca565b816040528381526020925086838588010111156200015757600080fd5b600091505b838210156200017b57858201830151818301840152908201906200015c565b838211156200018d5760008385830101525b9695505050505050565b60008060008060808587031215620001ae57600080fd5b84516001600160401b0380821115620001c657600080fd5b620001d488838901620000e0565b95506020870151915080821115620001eb57600080fd5b50620001fa87828801620000e0565b604087015160609097015195989097509350505050565b600181811c908216806200022657607f821691505b6020821081036200024757634e487b7160e01b600052602260045260246000fd5b50919050565b601f8211156200029b57600081815260208120601f850160051c81016020861015620002765750805b601f850160051c820191505b81811015620002975782815560010162000282565b5050505b505050565b81516001600160401b03811115620002bc57620002bc620000ca565b620002d481620002cd845462000211565b846200024d565b602080601f8311600181146200030c5760008415620002f35750858301515b600019600386901b1c1916600185901b17855562000297565b600085815260208120601f198616915b828110156200033d578886015182559484019460019091019084016200031c565b50858210156200035c5787850151600019600388901b60f8161c191681555b5050505050600190811b01905550565b60805160a051613e20620003a7600039600081816108190152610eea01526000818161088c01528181610e0c0152610e970152613e206000f3fe60806040526004361061031a5760003560e01c80638da5cb5b116101ab578063c74d5c90116100f7578063e889757011610095578063f2fde38b1161006f578063f2fde38b146109e2578063f638085c14610a02578063f64669c314610a22578063fe679c6214610a4257600080fd5b8063e889757014610930578063e985e9c514610950578063ed5fd0f51461099957600080fd5b8063d61fcfc5116100d1578063d61fcfc5146108b0578063daf30477146108d0578063dd6433d4146108f0578063e2e286af1461091057600080fd5b8063c74d5c901461083d578063c87b56dd1461085d578063d5abeb011461087d57600080fd5b8063a221abf311610164578063b88d4fde1161013e578063b88d4fde146107b5578063baace33e146107d5578063c48a4243146107ea578063c5610a291461080a57600080fd5b8063a221abf314610748578063a22cb46514610775578063a8cf55641461079557600080fd5b80638da5cb5b1461069357806392401eb6146106b157806393026a60146106c657806395d89b41146106e65780639ad04ec1146106fb578063a0eaec431461071b57600080fd5b806342842e0e1161026a578063739817dd116102235780637aba6f37116101fd5780637aba6f371461061f5780637b2e40fa146106345780637e5852d914610654578063891141d61461067357600080fd5b8063739817dd146105bf578063746313ea146105df57806378816134146105ff57600080fd5b806342842e0e146105155780636352211e1461053557806366f5a747146105555780636ded7fd21461056a57806370a082311461058a578063715018a6146105aa57600080fd5b80630cc83235116102d757806318249af7116102b157806318249af71461048957806323b872dd146104a957806331c57d13146104c957806340c10f191461050257600080fd5b80630cc832351461041d578063135627cd1461043d57806318160ddd1461046a57600080fd5b806301ffc9a71461031f5780630485c7411461035457806306fdde0314610381578063081812fc146103a3578063095ea7b3146103db578063096835be146103fd575b600080fd5b34801561032b57600080fd5b5061033f61033a36600461335b565b610a9e565b60405190151581526020015b60405180910390f35b34801561036057600080fd5b5061037461036f366004613378565b610ac9565b60405161034b9190613466565b34801561038d57600080fd5b50610396610b67565b60405161034b91906134c8565b3480156103af57600080fd5b506103c36103be366004613378565b610bf9565b6040516001600160a01b03909116815260200161034b565b3480156103e757600080fd5b506103fb6103f63660046134f7565b610c20565b005b34801561040957600080fd5b506103fb61041836600461358a565b610cac565b34801561042957600080fd5b50610374610438366004613378565b610cc0565b34801561044957600080fd5b5061045d610458366004613378565b610d2d565b60405161034b919061363c565b34801561047657600080fd5b506001545b60405190815260200161034b565b34801561049557600080fd5b506103fb6104a43660046136f3565b610db7565b3480156104b557600080fd5b506103fb6104c4366004613727565b610df6565b3480156104d557600080fd5b5061033f6104e436600461377a565b6001600160401b03166000908152600e602052604090205460ff1690565b6103fb6105103660046134f7565b610e0a565b34801561052157600080fd5b506103fb610530366004613727565b610f92565b34801561054157600080fd5b506103c3610550366004613378565b610fad565b34801561056157600080fd5b5060145461047b565b34801561057657600080fd5b506103fb6105853660046137ac565b610fe3565b34801561059657600080fd5b5061047b6105a5366004613809565b611018565b3480156105b657600080fd5b506103fb61105d565b3480156105cb57600080fd5b506103fb6105da366004613824565b611093565b3480156105eb57600080fd5b506103fb6105fa366004613846565b6110a7565b34801561060b57600080fd5b506103fb61061a3660046134f7565b6110eb565b34801561062b57600080fd5b506103fb611173565b34801561064057600080fd5b506103fb61064f366004613378565b6111b2565b34801561066057600080fd5b50600054600160a01b900460ff1661033f565b34801561067f57600080fd5b506103c361068e366004613378565b6111c5565b34801561069f57600080fd5b506000546001600160a01b03166103c3565b3480156106bd57600080fd5b506103966111ec565b3480156106d257600080fd5b506103fb6106e1366004613908565b6111fb565b3480156106f257600080fd5b5061039661124d565b34801561070757600080fd5b506103fb61071636600461393b565b61125c565b34801561072757600080fd5b5061073b610736366004613378565b611290565b60405161034b9190613957565b34801561075457600080fd5b50610768610763366004613824565b611322565b60405161034b9190613998565b34801561078157600080fd5b506103fb6107903660046139ab565b611386565b3480156107a157600080fd5b506107686107b0366004613824565b611391565b3480156107c157600080fd5b506103fb6107d03660046139c7565b6113c9565b3480156107e157600080fd5b5061073b6113e4565b3480156107f657600080fd5b506103fb610805366004613a2e565b61146d565b34801561081657600080fd5b507f000000000000000000000000000000000000000000000000000000000000000061047b565b34801561084957600080fd5b506103fb610858366004613a6a565b6114d4565b34801561086957600080fd5b50610396610878366004613378565b611508565b34801561088957600080fd5b507f000000000000000000000000000000000000000000000000000000000000000061047b565b3480156108bc57600080fd5b506103966108cb366004613a94565b611513565b3480156108dc57600080fd5b506103966108eb366004613824565b6116ac565b3480156108fc57600080fd5b506103fb61090b366004613824565b6116b8565b34801561091c57600080fd5b5061076861092b36600461377a565b6116cc565b34801561093c57600080fd5b506103fb61094b3660046139ab565b611875565b34801561095c57600080fd5b5061033f61096b366004613ab9565b6001600160a01b03918216600090815260076020908152604080832093909416825291909152205460ff1690565b3480156109a557600080fd5b5061033f6109b4366004613ab9565b6001600160a01b03918216600090815260136020908152604080832093909416825291909152205460ff1690565b3480156109ee57600080fd5b506103fb6109fd366004613809565b6118aa565b348015610a0e57600080fd5b50610396610a1d366004613a6a565b611942565b348015610a2e57600080fd5b5061073b610a3d366004613378565b611a03565b348015610a4e57600080fd5b50610a86610a5d366004613ae3565b60009182526009602090815260408084206001600160401b039384168552909152909120541690565b6040516001600160401b03909116815260200161034b565b60006001600160e01b031982166309ac673960e31b1480610ac35750610ac382611a6c565b92915050565b6000818152600d60209081526040808320805482518185028101850190935280835260609493830182828015610b5057602002820191906000526020600020906000905b82829054906101000a90046001600160401b03166001600160401b031681526020019060080190602082600701049283019260010382029150808411610b0d5790505b50505050509050610b6081611abc565b9392505050565b606060028054610b7690613b06565b80601f0160208091040260200160405190810160405280929190818152602001828054610ba290613b06565b8015610bef5780601f10610bc457610100808354040283529160200191610bef565b820191906000526020600020905b815481529060010190602001808311610bd257829003601f168201915b5050505050905090565b6000610c0482611b96565b506000908152600660205260409020546001600160a01b031690565b6000610c2b82610fad565b9050806001600160a01b0316836001600160a01b031603610c5f57604051630591db6d60e01b815260040160405180910390fd5b336001600160a01b03821614801590610c7f5750610c7d813361096b565b155b15610c9d57604051634c12315960e11b815260040160405180910390fd5b610ca78383611b9f565b505050565b81610cb681611c0d565b610ca78383611c34565b6000818152600a60209081526040808320805482518185028101850190935280835260609493830182828015610b5057600091825260209182902080546001600160401b03168452908202830192909160089101808411610b0d57905050505050509050610b6081611abc565b6000818152600b6020908152604091829020805483518184028101840190945280845260609392830182828015610dab57602002820191906000526020600020906000905b82829054906101000a900461ffff1661ffff1681526020019060020190602082600101049283019260010382029150808411610d725790505b50505050509050919050565b6000546001600160a01b03163314610dea5760405162461bcd60e51b8152600401610de190613b40565b60405180910390fd5b610df381611cb4565b50565b610dff81611cc0565b610ca7838383611ce7565b7f000000000000000000000000000000000000000000000000000000000000000060015410610e4c57604051635e91cdfb60e11b815260040160405180910390fd5b600054600160a01b900460ff1615610e775760405163ed1fa96f60e01b815260040160405180910390fd5b80610e955760405163376bec4d60e01b815260040160405180910390fd5b7f000000000000000000000000000000000000000000000000000000000000000060015482610ec49190613b8b565b1115610ee357604051635e91cdfb60e11b815260040160405180910390fd5b6000610f0f7f000000000000000000000000000000000000000000000000000000000000000083613ba3565b9050348114610f315760405163f2ffecad60e01b815260040160405180910390fd5b60006001546001610f429190613b8b565b90508260016000828254610f569190613b8b565b909155505060018054600091610f6c9190613b8b565b9050815b81811015610f8a57610f828682611e1a565b600101610f70565b505050505050565b610ca7838383604051806020016040528060008152506113c9565b6000818152600460205260408120546001600160a01b031680610ac35760405163089ba7e160e41b815260040160405180910390fd5b6000546001600160a01b0316331461100d5760405162461bcd60e51b8152600401610de190613b40565b610ca7838383611e34565b60006001600160a01b03821661104157604051633bb9143360e11b815260040160405180910390fd5b506001600160a01b031660009081526005602052604090205490565b6000546001600160a01b031633146110875760405162461bcd60e51b8152600401610de190613b40565b6110916000611ebb565b565b8161109d81611c0d565b610ca78383611f0b565b6000546001600160a01b031633146110d15760405162461bcd60e51b8152600401610de190613b40565b60148054600101908190556110e7908383612109565b5050565b60006110f682610fad565b9050806001600160a01b0316836001600160a01b03160361112a57604051639efa161160e01b815260040160405180910390fd5b336001600160a01b0382161480159061114a575061114881336109b4565b155b1561116857604051635d84267760e11b815260040160405180910390fd5b610ca781848461227e565b6000546001600160a01b0316331461119d5760405162461bcd60e51b8152600401610de190613b40565b6000805460ff60a01b1916600160a01b179055565b806111bc81611c0d565b6110e7826122da565b60006111d082611b96565b506000908152601260205260409020546001600160a01b031690565b606060118054610b7690613b06565b6000546001600160a01b031633146112255760405162461bcd60e51b8152600401610de190613b40565b6001600160401b0382166000908152600e60205260409020805460ff19168215151790555050565b606060038054610b7690613b06565b6000546001600160a01b031633146112865760405162461bcd60e51b8152600401610de190613b40565b6110e782826123b8565b6000818152600a6020908152604091829020805483518184028101840190945280845260609392830182828015610dab57602002820191906000526020600020906000905b82829054906101000a90046001600160401b03166001600160401b0316815260200190600801906020826007010492830192600103820291508084116112d5575094979650505050505050565b61134f604051806060016040528060006001600160401b0316815260200160608152602001606081525090565b600061135a84611a03565b838151811061136b5761136b613bc2565b6020026020010151905061137e816116cc565b949350505050565b6110e7338383612491565b6113be604051806060016040528060006001600160401b0316815260200160608152602001606081525090565b600061135a84611290565b6113d282611cc0565b6113de84848484612531565b50505050565b60606010805480602002602001604051908101604052809291908181526020018280548015610bef57602002820191906000526020600020906000905b82829054906101000a90046001600160401b03166001600160401b0316815260200190600801906020826007010492830192600103820291508084116114215790505050505050905090565b6000546001600160a01b031633146114975760405162461bcd60e51b8152600401610de190613b40565b60006114a284610fad565b6001600160a01b0316036114c95760405163089ba7e160e41b815260040160405180910390fd5b610ca7838383612565565b6000546001600160a01b031633146114fe5760405162461bcd60e51b8152600401610de190613b40565b6110e78282612738565b6060610ac3826127d1565b6000838152600a6020908152604080832080548251818502810185019093528083526060949383018282801561159a57602002820191906000526020600020906000905b82829054906101000a90046001600160401b03166001600160401b0316815260200190600801906020826007010492830192600103820291508084116115575790505b5050506000888152600a60205260408120549394509150505b818110156116155760006115e08483815181106115d2576115d2613bc2565b602002602001015188611942565b9050858051906020012081805190602001200361160c5761160188836127da565b945050505050610b60565b506001016115b3565b506011805461162390613b06565b80601f016020809104026020016040519081016040528092919081815260200182805461164f90613b06565b801561169c5780601f106116715761010080835404028352916020019161169c565b820191906000526020600020905b81548152906001019060200180831161167f57829003601f168201915b5050505050925050509392505050565b6060610b6083836127da565b816116c281611c0d565b610ca78383612965565b6116f9604051806060016040528060006001600160401b0316815260200160608152602001606081525090565b6001600160401b0380831660009081526008602090815260408083208151606081019092528054909416815260018401805493949193919284019161173d90613b06565b80601f016020809104026020016040519081016040528092919081815260200182805461176990613b06565b80156117b65780601f1061178b576101008083540402835291602001916117b6565b820191906000526020600020905b81548152906001019060200180831161179957829003601f168201915b505050505081526020016002820180548060200260200160405190810160405280929190818152602001828054801561184057602002820191906000526020600020906000905b82829054906101000a90046001600160801b03166001600160801b031681526020019060100190602082600f010492830192600103820291508084116117fd5790505b5050509190925250508151919250506001600160401b0316610ac3576040516348e2e83760e01b815260040160405180910390fd5b336001600160a01b038316810361189f5760405163353c229360e11b815260040160405180910390fd5b610ca7818484612a70565b6000546001600160a01b031633146118d45760405162461bcd60e51b8152600401610de190613b40565b6001600160a01b0381166119395760405162461bcd60e51b815260206004820152602660248201527f4f776e61626c653a206e6577206f776e657220697320746865207a65726f206160448201526564647265737360d01b6064820152608401610de1565b610df381611ebb565b6001600160401b0382166000908152600f602090815260408083206001600160801b0385168452909152902080546060919061197d90613b06565b80601f01602080910402602001604051908101604052809291908181526020018280546119a990613b06565b80156119f65780601f106119cb576101008083540402835291602001916119f6565b820191906000526020600020905b8154815290600101906020018083116119d957829003601f168201915b5050505050905092915050565b6000818152600d6020908152604091829020805483518184028101840190945280845260609392830182828015610dab57600091825260209182902080546001600160401b031684529082028301929091600891018084116112d5575094979650505050505050565b60006001600160e01b031982166380ac58cd60e01b1480611a9d57506001600160e01b03198216635b5e139f60e01b145b80610ac357506301ffc9a760e01b6001600160e01b0319831614610ac3565b80516060906000816001600160401b03811115611adb57611adb613521565b604051908082528060200260200182016040528015611b3957816020015b611b26604051806060016040528060006001600160401b0316815260200160608152602001606081525090565b815260200190600190039081611af95790505b50905060005b82811015611b8e57611b69858281518110611b5c57611b5c613bc2565b60200260200101516116cc565b828281518110611b7b57611b7b613bc2565b6020908102919091010152600101611b3f565b509392505050565b610df381612ad5565b600081815260066020526040902080546001600160a01b0319166001600160a01b0384169081179091558190611bd482610fad565b6001600160a01b03167f8c5be1e5ebec7d5bd14f71427d1e84f3dd0314c0f7b2291e5b200ac8c7c3b92560405160405180910390a45050565b611c173382612afb565b610df35760405163eabb6dd760e01b815260040160405180910390fd5b80516000838152600a60205260409020548114611c6457604051633581be1d60e11b815260040160405180910390fd5b6000838152600b602090815260409091208351611c83928501906131c0565b5060405183907f50a12ecfcaf26b91454fd23edbcf04185b68d6e8c7edc4e35d14392889cdf79590600090a2505050565b60116110e78282613c1e565b611cca3382612b79565b610df3576040516302728a9d60e41b815260040160405180910390fd5b826001600160a01b0316611cfa82610fad565b6001600160a01b031614611d215760405163e146af6f60e01b815260040160405180910390fd5b6001600160a01b038216611d48576040516338f646ff60e21b815260040160405180910390fd5b600081815260066020908152604080832080546001600160a01b03191690556001600160a01b038616835260059091528120805460019290611d8b908490613cdd565b90915550506001600160a01b0382166000908152600560205260408120805460019290611db9908490613b8b565b909155505060008181526004602052604080822080546001600160a01b0319166001600160a01b0386811691821790925591518493918716917fddf252ad1be2c89b69c2b068fc378daa952ba7f163c4a11628f55a4df523b3ef91a4505050565b6110e7828260405180602001604052806000815250612be5565b6001600160401b0383166000908152600f602090815260408083206001600160801b03861684529091529020611e6a8282613c1e565b50604080516001600160401b03851681526001600160801b03841660208201527fa6b4ad1060e2cb7b9bdf0247137e2e9a4c0dab5112477dccdabc103e34283d8091015b60405180910390a1505050565b600080546001600160a01b038381166001600160a01b0319831681178455604051919092169283917f8be0079c531659141344cd1fd0a4f28419497f9722a3daafe3b4186f6b6457e09190a35050565b6000828152600d60205260409020548110611f3957604051630757d52160e01b815260040160405180910390fd5b6000828152600d60205260408120805483908110611f5957611f59613bc2565b60009182526020808320600483040154868452600d909152604090922060039091166008026101000a9091046001600160401b03169150611f9a9083612c19565b60008381526009602090815260408083206001600160401b03808616855292529091205416801561204d576000848152600a60205260409020611fdd9082612cff565b6040516001600160401b038216815284907f0c3ab9436ca1f55688a28969e7eac425945dded8cc4acf7f4e738cfa6fa1657c9060200160405180910390a260008481526009602090815260408083206001600160401b03861684529091529020805467ffffffffffffffff191690555b6000848152600a6020908152604080832080546001808201835591855283852060048204018054600390921660080261010090810a6001600160401b0381810219909416938a1690810293909317909155898652600b85528386208054938401815586529484902060108304018054600f90931660020290950a61ffff02199091169093555191825285917f51e9958189f528b912f96508d6a4b68583858166eda14d580dfbd24e9a79dfdb910160405180910390a250505050565b6001600160401b0383166121305760405163280d806360e01b815260040160405180910390fd5b6001600160401b03838116600090815260086020526040902054161561216957604051633348dd1d60e01b815260040160405180910390fd5b604080516060810182526001600160401b038581168083526020808401878152848601879052600092835260089091529390208251815467ffffffffffffffff1916921691909117815591519091829160018201906121c89082613c1e565b50604082015180516121e4916002840191602090910190613269565b505060108054600181018255600091909152600481047f1b6847dc741a1b0cd08d278845f9d819d87b734759afb55fe2de5cb82a9ae6720180546001600160401b0388811660086003909516949094026101000a8481029102199091161790556040519081527f8a5ccfca4023cda4a0a59a1bb73783f6b3ba77465537d0c8f2bef5eb2511552a915060200160405180910390a150505050565b60008181526012602052604080822080546001600160a01b0319166001600160a01b0386811691821790925591518493918716917fa98c62723e75b26c5e5710fb12b5bf7712e6926f6dc932de622e715553f5149191a4505050565b6000818152600d6020526040812054905b81811015612366576000838152600d6020526040812080548390811061231357612313613bc2565b6000918252602080832060048304015487845260098252604080852060039094166008026101000a9091046001600160401b031684529190529020805467ffffffffffffffff19169055506001016122eb565b506000828152600d6020526040812061237e9161330f565b6040516000815282907f8d0cdca57de6b2fb4babd8b68c83db0b0981610d338eb68eea1f4b1e1d78dc1c9060200160405180910390a25050565b6001600160401b03821660009081526008602052604081206002018054839081106123e5576123e5613bc2565b90600052602060002090600291828204019190066010029054906101000a90046001600160801b0316905061244a8260086000866001600160401b03166001600160401b03168152602001908152602001600020600201612de490919063ffffffff16565b604080516001600160401b03851681526001600160801b03831660208201527f22369f188e0755616f4935b698f0a859dea683b9c56b2b9eeee0b1b78fa5723b9101611eae565b816001600160a01b0316836001600160a01b0316036124c357604051630b7b99b960e21b815260040160405180910390fd5b6001600160a01b03838116600081815260076020908152604080832094871680845294825291829020805460ff191686151590811790915591519182527f17307eab39ab6107e8899845ad3d59bd9653f200f220920489ca2b5937696c3191015b60405180910390a3505050565b61253c848484611ce7565b61254884848484612eca565b6113de5760405163bcb5663760e01b815260040160405180910390fd5b6000838152600c602090815260408083206001600160401b038616845290915290205460ff16156125a957604051633348dd1d60e01b815260040160405180910390fd5b60006125b4836116cc565b516001600160401b0316036125dc57604051630f8f451560e01b815260040160405180910390fd5b6000838152600d602052604090205460801161260b5760405163dfaea09b60e01b815260040160405180910390fd5b6000838152600c602090815260408083206001600160401b038681168086529184528285208054600160ff199091168117909155888652600d8552928520805493840181558552929093206004820401805460039092166008026101000a8084021990921691909302179091558116156126f45760008381526009602090815260408083206001600160401b0386811680865291845293829020805467ffffffffffffffff1916948616948517905581519081529182019290925284917fe76caab2912f68cd628bc085e006c86b8a478d13be698638b0c533030d120b4e910160405180910390a25b6040516001600160401b038316815283907ffc4d0a03f3026d7ce3427493c9289ea9768a6edd425e854cea7600d244ecc2c3906020015b60405180910390a2505050565b6001600160401b038216600081815260086020908152604080832060029081018054600180820183559186529484902091850490910180546001600160801b03888116601094909716939093026101000a868102930219169190911790558051938452908301919091527f067cb5aa78490aed8c47f1ee01a1326dc717c8138b66144e6d222c94e389a46d910160405180910390a15050565b6060610ac38260005b6000828152600a60205260409020546060908210156128d3576000838152600a6020526040812080548490811061281357612813613bc2565b90600052602060002090600491828204019190066008029054906101000a90046001600160401b031690506060600061284b836116cc565b6001600160401b0384166000908152600e602052604090205490915060ff1661287a57806020015191506128c9565b6020810151805161289a57604051806020016040528060008152506128c5565b806128a488612fcc565b6040516020016128b5929190613cf4565b6040516020818303038152906040525b9250505b509150610ac39050565b601180546128e090613b06565b80601f016020809104026020016040519081016040528092919081815260200182805461290c90613b06565b80156129595780601f1061292e57610100808354040283529160200191612959565b820191906000526020600020905b81548152906001019060200180831161293c57829003601f168201915b50505050509050610ac3565b6000828152600d6020526040902054811061299357604051630757d52160e01b815260040160405180910390fd5b6000828152600d602052604081208054839081106129b3576129b3613bc2565b60009182526020808320600483040154868452600d909152604090922060039091166008026101000a9091046001600160401b031691506129f49083612c19565b6000838152600c602090815260408083206001600160401b038516808552908352818420805460ff1916905586845260098352818420818552835292819020805467ffffffffffffffff191690555191825284917f8d0cdca57de6b2fb4babd8b68c83db0b0981610d338eb68eea1f4b1e1d78dc1c910161272b565b6001600160a01b03838116600081815260136020908152604080832094871680845294825291829020805460ff191686151590811790915591519182527f9c03d4f9a8db6d81765cbe2097e83f44253564fbf3c1adfb09a8067464ad3f4b9101612524565b612ade816130cc565b610df35760405163089ba7e160e41b815260040160405180910390fd5b600080612b0783610fad565b9050806001600160a01b0316846001600160a01b03161480612b4e57506001600160a01b0380821660009081526013602090815260408083209388168352929052205460ff165b8061137e5750836001600160a01b0316612b67846111c5565b6001600160a01b031614949350505050565b600080612b8583610fad565b9050806001600160a01b0316846001600160a01b03161480612bcc57506001600160a01b0380821660009081526007602090815260408083209388168352929052205460ff165b8061137e5750836001600160a01b0316612b6784610bf9565b612bef83836130eb565b612bfc6000848484612eca565b610ca75760405163bcb5663760e01b815260040160405180910390fd5b81548110612c2657600080fd5b81548290612c3690600190613cdd565b81548110612c4657612c46613bc2565b90600052602060002090600491828204019190066008029054906101000a90046001600160401b0316828281548110612c8157612c81613bc2565b90600052602060002090600491828204019190066008026101000a8154816001600160401b0302191690836001600160401b0316021790555081805480612cca57612cca613d23565b60008281526020902060046000199092019182040180546001600160401b03600860038516026101000a021916905590555050565b600082805480602002602001604051908101604052809291908181526020018280548015612d7e57602002820191906000526020600020906000905b82829054906101000a90046001600160401b03166001600160401b031681526020019060080190602082600701049283019260010382029150808411612d3b5790505b505083519394506000925050505b81811015612ddd57836001600160401b0316838281518110612db057612db0613bc2565b60200260200101516001600160401b031603612dd557612dd08582612c19565b612ddd565b600101612d8c565b5050505050565b81548110612df157600080fd5b81548290612e0190600190613cdd565b81548110612e1157612e11613bc2565b90600052602060002090600291828204019190066010029054906101000a90046001600160801b0316828281548110612e4c57612e4c613bc2565b90600052602060002090600291828204019190066010026101000a8154816001600160801b0302191690836001600160801b0316021790555081805480612e9557612e95613d23565b60008281526020902060026000199092019182040180546001600160801b03601060018516026101000a021916905590555050565b60006001600160a01b0384163b15612fc157604051630a85bd0160e11b81526001600160a01b0385169063150b7a0290612f0e903390899088908890600401613d39565b6020604051808303816000875af1925050508015612f49575060408051601f3d908101601f19168201909252612f4691810190613d76565b60015b612fa7573d808015612f77576040519150601f19603f3d011682016040523d82523d6000602084013e612f7c565b606091505b508051600003612f9f5760405163bcb5663760e01b815260040160405180910390fd5b805181602001fd5b6001600160e01b031916630a85bd0160e11b14905061137e565b506001949350505050565b606081600003612ff35750506040805180820190915260018152600360fc1b602082015290565b8160005b811561301d578061300781613d93565b91506130169050600a83613dc2565b9150612ff7565b6000816001600160401b0381111561303757613037613521565b6040519080825280601f01601f191660200182016040528015613061576020820181803683370190505b5090505b841561137e57613076600183613cdd565b9150613083600a86613dd6565b61308e906030613b8b565b60f81b8183815181106130a3576130a3613bc2565b60200101906001600160f81b031916908160001a9053506130c5600a86613dc2565b9450613065565b6000818152600460205260408120546001600160a01b03161515610ac3565b6001600160a01b038216613112576040516325bd6bd360e01b815260040160405180910390fd5b61311b816130cc565b156131395760405163c5a8d37160e01b815260040160405180910390fd5b6001600160a01b0382166000908152600560205260408120805460019290613162908490613b8b565b909155505060008181526004602052604080822080546001600160a01b0319166001600160a01b03861690811790915590518392907fddf252ad1be2c89b69c2b068fc378daa952ba7f163c4a11628f55a4df523b3ef908290a45050565b82805482825590600052602060002090600f016010900481019282156132595791602002820160005b8382111561322957835183826101000a81548161ffff021916908361ffff16021790555092602001926002016020816001010492830192600103026131e9565b80156132575782816101000a81549061ffff0219169055600201602081600101049283019260010302613229565b505b50613265929150613330565b5090565b828054828255906000526020600020906001016002900481019282156132595791602002820160005b838211156132dc57835183826101000a8154816001600160801b0302191690836001600160801b031602179055509260200192601001602081600f01049283019260010302613292565b80156132575782816101000a8154906001600160801b030219169055601001602081600f010492830192600103026132dc565b508054600082556003016004900490600052602060002090810190610df391905b5b808211156132655760008155600101613331565b6001600160e01b031981168114610df357600080fd5b60006020828403121561336d57600080fd5b8135610b6081613345565b60006020828403121561338a57600080fd5b5035919050565b60005b838110156133ac578181015183820152602001613394565b838111156113de5750506000910152565b600081518084526133d5816020860160208601613391565b601f01601f19169290920160200192915050565b6001600160401b038151168252600060208083015160608286015261341160608601826133bd565b60408581015187830391880191909152805180835290840192506000918401905b8083101561345b5783516001600160801b03168252928401926001929092019190840190613432565b509695505050505050565b6000602080830181845280855180835260408601915060408160051b870101925083870160005b828110156134bb57603f198886030184526134a98583516133e9565b9450928501929085019060010161348d565b5092979650505050505050565b602081526000610b6060208301846133bd565b80356001600160a01b03811681146134f257600080fd5b919050565b6000806040838503121561350a57600080fd5b613513836134db565b946020939093013593505050565b634e487b7160e01b600052604160045260246000fd5b604051601f8201601f191681016001600160401b038111828210171561355f5761355f613521565b604052919050565b60006001600160401b0382111561358057613580613521565b5060051b60200190565b6000806040838503121561359d57600080fd5b823591506020808401356001600160401b038111156135bb57600080fd5b8401601f810186136135cc57600080fd5b80356135df6135da82613567565b613537565b81815260059190911b820183019083810190888311156135fe57600080fd5b928401925b8284101561362d57833561ffff8116811461361e5760008081fd5b82529284019290840190613603565b80955050505050509250929050565b6020808252825182820181905260009190848201906040850190845b8181101561367857835161ffff1683529284019291840191600101613658565b50909695505050505050565b600082601f83011261369557600080fd5b81356001600160401b038111156136ae576136ae613521565b6136c1601f8201601f1916602001613537565b8181528460208386010111156136d657600080fd5b816020850160208301376000918101602001919091529392505050565b60006020828403121561370557600080fd5b81356001600160401b0381111561371b57600080fd5b61137e84828501613684565b60008060006060848603121561373c57600080fd5b613745846134db565b9250613753602085016134db565b9150604084013590509250925092565b80356001600160401b03811681146134f257600080fd5b60006020828403121561378c57600080fd5b610b6082613763565b80356001600160801b03811681146134f257600080fd5b6000806000606084860312156137c157600080fd5b6137ca84613763565b92506137d860208501613795565b915060408401356001600160401b038111156137f357600080fd5b6137ff86828701613684565b9150509250925092565b60006020828403121561381b57600080fd5b610b60826134db565b6000806040838503121561383757600080fd5b50508035926020909101359150565b6000806040838503121561385957600080fd5b82356001600160401b038082111561387057600080fd5b61387c86838701613684565b935060209150818501358181111561389357600080fd5b85019050601f810186136138a657600080fd5b80356138b46135da82613567565b81815260059190911b820183019083810190888311156138d357600080fd5b928401925b8284101561362d576138e984613795565b825292840192908401906138d8565b803580151581146134f257600080fd5b6000806040838503121561391b57600080fd5b61392483613763565b9150613932602084016138f8565b90509250929050565b6000806040838503121561394e57600080fd5b61351383613763565b6020808252825182820181905260009190848201906040850190845b818110156136785783516001600160401b031683529284019291840191600101613973565b602081526000610b6060208301846133e9565b600080604083850312156139be57600080fd5b613924836134db565b600080600080608085870312156139dd57600080fd5b6139e6856134db565b93506139f4602086016134db565b92506040850135915060608501356001600160401b03811115613a1657600080fd5b613a2287828801613684565b91505092959194509250565b600080600060608486031215613a4357600080fd5b83359250613a5360208501613763565b9150613a6160408501613763565b90509250925092565b60008060408385031215613a7d57600080fd5b613a8683613763565b915061393260208401613795565b600080600060608486031215613aa957600080fd5b833592506137d860208501613795565b60008060408385031215613acc57600080fd5b613ad5836134db565b9150613932602084016134db565b60008060408385031215613af657600080fd5b8235915061393260208401613763565b600181811c90821680613b1a57607f821691505b602082108103613b3a57634e487b7160e01b600052602260045260246000fd5b50919050565b6020808252818101527f4f776e61626c653a2063616c6c6572206973206e6f7420746865206f776e6572604082015260600190565b634e487b7160e01b600052601160045260246000fd5b60008219821115613b9e57613b9e613b75565b500190565b6000816000190483118215151615613bbd57613bbd613b75565b500290565b634e487b7160e01b600052603260045260246000fd5b601f821115610ca757600081815260208120601f850160051c81016020861015613bff5750805b601f850160051c820191505b81811015610f8a57828155600101613c0b565b81516001600160401b03811115613c3757613c37613521565b613c4b81613c458454613b06565b84613bd8565b602080601f831160018114613c805760008415613c685750858301515b600019600386901b1c1916600185901b178555610f8a565b600085815260208120601f198616915b82811015613caf57888601518255948401946001909101908401613c90565b5085821015613ccd5787850151600019600388901b60f8161c191681555b5050505050600190811b01905550565b600082821015613cef57613cef613b75565b500390565b60008351613d06818460208801613391565b835190830190613d1a818360208801613391565b01949350505050565b634e487b7160e01b600052603160045260246000fd5b6001600160a01b0385811682528416602082015260408101839052608060608201819052600090613d6c908301846133bd565b9695505050505050565b600060208284031215613d8857600080fd5b8151610b6081613345565b600060018201613da557613da5613b75565b5060010190565b634e487b7160e01b600052601260045260246000fd5b600082613dd157613dd1613dac565b500490565b600082613de557613de5613dac565b50069056fea264697066735822122041138d1c2ff34f24349d7da9a9b923c309c19e9c9ba9ddc57e5dcb86541f56bf64736f6c634300080f0033a2646970667358221220b15ce141e7cfbc5c34d7c4ee92a9a796cc5becdbbd3252a57dd34ab32a6deeb964736f6c634300080f0033",
  "linkReferences": {},
  "deployedLinkReferences": {}
}